{
	"freecodecamp32Hrs_solidity/FundMe.sol": {
		"FundMe": {
			"abi": [
				{
					"inputs": [],
					"name": "fund",
					"outputs": [],
					"stateMutability": "payable",
					"type": "function"
				},
				{
					"inputs": [],
					"name": "getConvesionRate",
					"outputs": [],
					"stateMutability": "nonpayable",
					"type": "function"
				},
				{
					"inputs": [],
					"name": "getPrice",
					"outputs": [],
					"stateMutability": "nonpayable",
					"type": "function"
				},
				{
					"inputs": [],
					"name": "getVersion",
					"outputs": [
						{
							"internalType": "uint256",
							"name": "",
							"type": "uint256"
						}
					],
					"stateMutability": "view",
					"type": "function"
				},
				{
					"inputs": [],
					"name": "minimumUSD",
					"outputs": [
						{
							"internalType": "uint256",
							"name": "",
							"type": "uint256"
						}
					],
					"stateMutability": "view",
					"type": "function"
				}
			],
			"devdoc": {
				"kind": "dev",
				"methods": {},
				"version": 1
			},
			"evm": {
				"assembly": "    /* \"freecodecamp32Hrs_solidity/FundMe.sol\":218:1356  contract FundMe{... */\n  mstore(0x40, 0x80)\n    /* \"freecodecamp32Hrs_solidity/FundMe.sol\":274:276  50 */\n  0x32\n    /* \"freecodecamp32Hrs_solidity/FundMe.sol\":246:276  uint256 public minimumUSD = 50 */\n  0x00\n  sstore\n    /* \"freecodecamp32Hrs_solidity/FundMe.sol\":218:1356  contract FundMe{... */\n  callvalue\n  dup1\n  iszero\n  tag_1\n  jumpi\n  0x00\n  dup1\n  revert\ntag_1:\n  pop\n  dataSize(sub_0)\n  dup1\n  dataOffset(sub_0)\n  0x00\n  codecopy\n  0x00\n  return\nstop\n\nsub_0: assembly {\n        /* \"freecodecamp32Hrs_solidity/FundMe.sol\":218:1356  contract FundMe{... */\n      mstore(0x40, 0x80)\n      jumpi(tag_1, lt(calldatasize, 0x04))\n      shr(0xe0, calldataload(0x00))\n      dup1\n      0x0d8e6e2c\n      eq\n      tag_2\n      jumpi\n      dup1\n      0x3430a88c\n      eq\n      tag_3\n      jumpi\n      dup1\n      0x98d5fdca\n      eq\n      tag_4\n      jumpi\n      dup1\n      0xa2ea3cde\n      eq\n      tag_5\n      jumpi\n      dup1\n      0xb60d4288\n      eq\n      tag_6\n      jumpi\n    tag_1:\n      0x00\n      dup1\n      revert\n        /* \"freecodecamp32Hrs_solidity/FundMe.sol\":1101:1312  function getVersion() public view returns(uint256)... */\n    tag_2:\n      callvalue\n      dup1\n      iszero\n      tag_7\n      jumpi\n      0x00\n      dup1\n      revert\n    tag_7:\n      pop\n      tag_8\n      tag_9\n      jump\t// in\n    tag_8:\n      mload(0x40)\n      tag_10\n      swap2\n      swap1\n      tag_11\n      jump\t// in\n    tag_10:\n      mload(0x40)\n      dup1\n      swap2\n      sub\n      swap1\n      return\n        /* \"freecodecamp32Hrs_solidity/FundMe.sol\":246:276  uint256 public minimumUSD = 50 */\n    tag_3:\n      callvalue\n      dup1\n      iszero\n      tag_12\n      jumpi\n      0x00\n      dup1\n      revert\n    tag_12:\n      pop\n      tag_13\n      tag_14\n      jump\t// in\n    tag_13:\n      mload(0x40)\n      tag_15\n      swap2\n      swap1\n      tag_11\n      jump\t// in\n    tag_15:\n      mload(0x40)\n      dup1\n      swap2\n      sub\n      swap1\n      return\n        /* \"freecodecamp32Hrs_solidity/FundMe.sol\":603:1042  function getPrice() public{... */\n    tag_4:\n      callvalue\n      dup1\n      iszero\n      tag_16\n      jumpi\n      0x00\n      dup1\n      revert\n    tag_16:\n      pop\n      tag_17\n      tag_18\n      jump\t// in\n    tag_17:\n      stop\n        /* \"freecodecamp32Hrs_solidity/FundMe.sol\":1050:1093  function getConvesionRate() public {... */\n    tag_5:\n      callvalue\n      dup1\n      iszero\n      tag_19\n      jumpi\n      0x00\n      dup1\n      revert\n    tag_19:\n      pop\n      tag_20\n      tag_21\n      jump\t// in\n    tag_20:\n      stop\n        /* \"freecodecamp32Hrs_solidity/FundMe.sol\":283:595  function fund() public payable{... */\n    tag_6:\n      tag_22\n      tag_23\n      jump\t// in\n    tag_22:\n      stop\n        /* \"freecodecamp32Hrs_solidity/FundMe.sol\":1101:1312  function getVersion() public view returns(uint256)... */\n    tag_9:\n        /* \"freecodecamp32Hrs_solidity/FundMe.sol\":1143:1150  uint256 */\n      0x00\n        /* \"freecodecamp32Hrs_solidity/FundMe.sol\":1168:1199  AggregatorV3Interface priceFeed */\n      dup1\n        /* \"freecodecamp32Hrs_solidity/FundMe.sol\":1224:1266  0xD4a33860578De61DBAbDc8BFdb98FD742fA7028e */\n      0xd4a33860578de61dbabdc8bfdb98fd742fa7028e\n        /* \"freecodecamp32Hrs_solidity/FundMe.sol\":1168:1267  AggregatorV3Interface priceFeed = AggregatorV3Interface(0xD4a33860578De61DBAbDc8BFdb98FD742fA7028e) */\n      swap1\n      pop\n        /* \"freecodecamp32Hrs_solidity/FundMe.sol\":1285:1294  priceFeed */\n      dup1\n        /* \"freecodecamp32Hrs_solidity/FundMe.sol\":1285:1302  priceFeed.version */\n      0xffffffffffffffffffffffffffffffffffffffff\n      and\n      0x54fd4d50\n        /* \"freecodecamp32Hrs_solidity/FundMe.sol\":1285:1304  priceFeed.version() */\n      mload(0x40)\n      dup2\n      0xffffffff\n      and\n      0xe0\n      shl\n      dup2\n      mstore\n      0x04\n      add\n      0x20\n      mload(0x40)\n      dup1\n      dup4\n      sub\n      dup2\n      dup7\n      gas\n      staticcall\n      iszero\n      dup1\n      iszero\n      tag_26\n      jumpi\n      returndatasize\n      0x00\n      dup1\n      returndatacopy\n      revert(0x00, returndatasize)\n    tag_26:\n      pop\n      pop\n      pop\n      pop\n      mload(0x40)\n      returndatasize\n      not(0x1f)\n      0x1f\n      dup3\n      add\n      and\n      dup3\n      add\n      dup1\n      0x40\n      mstore\n      pop\n      dup2\n      add\n      swap1\n      tag_27\n      swap2\n      swap1\n      tag_28\n      jump\t// in\n    tag_27:\n        /* \"freecodecamp32Hrs_solidity/FundMe.sol\":1278:1304  return priceFeed.version() */\n      swap2\n      pop\n      pop\n        /* \"freecodecamp32Hrs_solidity/FundMe.sol\":1101:1312  function getVersion() public view returns(uint256)... */\n      swap1\n      jump\t// out\n        /* \"freecodecamp32Hrs_solidity/FundMe.sol\":246:276  uint256 public minimumUSD = 50 */\n    tag_14:\n      sload(0x00)\n      dup2\n      jump\t// out\n        /* \"freecodecamp32Hrs_solidity/FundMe.sol\":603:1042  function getPrice() public{... */\n    tag_18:\n        /* \"freecodecamp32Hrs_solidity/FundMe.sol\":719:750  AggregatorV3Interface priceFeed */\n      0x00\n        /* \"freecodecamp32Hrs_solidity/FundMe.sol\":775:817  0xD4a33860578De61DBAbDc8BFdb98FD742fA7028e */\n      0xd4a33860578de61dbabdc8bfdb98fd742fa7028e\n        /* \"freecodecamp32Hrs_solidity/FundMe.sol\":719:818  AggregatorV3Interface priceFeed = AggregatorV3Interface(0xD4a33860578De61DBAbDc8BFdb98FD742fA7028e) */\n      swap1\n      pop\n        /* \"freecodecamp32Hrs_solidity/FundMe.sol\":877:886  int price */\n      0x00\n        /* \"freecodecamp32Hrs_solidity/FundMe.sol\":1007:1016  priceFeed */\n      dup2\n        /* \"freecodecamp32Hrs_solidity/FundMe.sol\":1007:1032  priceFeed.latestRoundData */\n      0xffffffffffffffffffffffffffffffffffffffff\n      and\n      0xfeaf968c\n        /* \"freecodecamp32Hrs_solidity/FundMe.sol\":1007:1034  priceFeed.latestRoundData() */\n      mload(0x40)\n      dup2\n      0xffffffff\n      and\n      0xe0\n      shl\n      dup2\n      mstore\n      0x04\n      add\n      0xa0\n      mload(0x40)\n      dup1\n      dup4\n      sub\n      dup2\n      dup7\n      gas\n      staticcall\n      iszero\n      dup1\n      iszero\n      tag_31\n      jumpi\n      returndatasize\n      0x00\n      dup1\n      returndatacopy\n      revert(0x00, returndatasize)\n    tag_31:\n      pop\n      pop\n      pop\n      pop\n      mload(0x40)\n      returndatasize\n      not(0x1f)\n      0x1f\n      dup3\n      add\n      and\n      dup3\n      add\n      dup1\n      0x40\n      mstore\n      pop\n      dup2\n      add\n      swap1\n      tag_32\n      swap2\n      swap1\n      tag_33\n      jump\t// in\n    tag_32:\n        /* \"freecodecamp32Hrs_solidity/FundMe.sol\":829:1034  (... */\n      pop\n      pop\n      pop\n      swap2\n      pop\n      pop\n        /* \"freecodecamp32Hrs_solidity/FundMe.sol\":629:1042  {... */\n      pop\n      pop\n        /* \"freecodecamp32Hrs_solidity/FundMe.sol\":603:1042  function getPrice() public{... */\n      jump\t// out\n        /* \"freecodecamp32Hrs_solidity/FundMe.sol\":1050:1093  function getConvesionRate() public {... */\n    tag_21:\n      jump\t// out\n        /* \"freecodecamp32Hrs_solidity/FundMe.sol\":283:595  function fund() public payable{... */\n    tag_23:\n        /* \"freecodecamp32Hrs_solidity/FundMe.sol\":490:500  minimumUSD */\n      sload(0x00)\n        /* \"freecodecamp32Hrs_solidity/FundMe.sol\":478:487  msg.value */\n      callvalue\n        /* \"freecodecamp32Hrs_solidity/FundMe.sol\":478:500  msg.value > minimumUSD */\n      gt\n        /* \"freecodecamp32Hrs_solidity/FundMe.sol\":470:529  require(msg.value > minimumUSD, \"Didn't send enough funds\") */\n      tag_36\n      jumpi\n      mload(0x40)\n      0x08c379a000000000000000000000000000000000000000000000000000000000\n      dup2\n      mstore\n      0x04\n      add\n      tag_37\n      swap1\n      tag_38\n      jump\t// in\n    tag_37:\n      mload(0x40)\n      dup1\n      swap2\n      sub\n      swap1\n      revert\n    tag_36:\n        /* \"freecodecamp32Hrs_solidity/FundMe.sol\":283:595  function fund() public payable{... */\n      jump\t// out\n        /* \"#utility.yul\":7:84   */\n    tag_39:\n        /* \"#utility.yul\":44:51   */\n      0x00\n        /* \"#utility.yul\":73:78   */\n      dup2\n        /* \"#utility.yul\":62:78   */\n      swap1\n      pop\n        /* \"#utility.yul\":7:84   */\n      swap2\n      swap1\n      pop\n      jump\t// out\n        /* \"#utility.yul\":90:208   */\n    tag_40:\n        /* \"#utility.yul\":177:201   */\n      tag_58\n        /* \"#utility.yul\":195:200   */\n      dup2\n        /* \"#utility.yul\":177:201   */\n      tag_39\n      jump\t// in\n    tag_58:\n        /* \"#utility.yul\":172:175   */\n      dup3\n        /* \"#utility.yul\":165:202   */\n      mstore\n        /* \"#utility.yul\":90:208   */\n      pop\n      pop\n      jump\t// out\n        /* \"#utility.yul\":214:436   */\n    tag_11:\n        /* \"#utility.yul\":307:311   */\n      0x00\n        /* \"#utility.yul\":345:347   */\n      0x20\n        /* \"#utility.yul\":334:343   */\n      dup3\n        /* \"#utility.yul\":330:348   */\n      add\n        /* \"#utility.yul\":322:348   */\n      swap1\n      pop\n        /* \"#utility.yul\":358:429   */\n      tag_60\n        /* \"#utility.yul\":426:427   */\n      0x00\n        /* \"#utility.yul\":415:424   */\n      dup4\n        /* \"#utility.yul\":411:428   */\n      add\n        /* \"#utility.yul\":402:408   */\n      dup5\n        /* \"#utility.yul\":358:429   */\n      tag_40\n      jump\t// in\n    tag_60:\n        /* \"#utility.yul\":214:436   */\n      swap3\n      swap2\n      pop\n      pop\n      jump\t// out\n        /* \"#utility.yul\":523:640   */\n    tag_42:\n        /* \"#utility.yul\":632:633   */\n      0x00\n        /* \"#utility.yul\":629:630   */\n      dup1\n        /* \"#utility.yul\":622:634   */\n      revert\n        /* \"#utility.yul\":769:891   */\n    tag_44:\n        /* \"#utility.yul\":842:866   */\n      tag_65\n        /* \"#utility.yul\":860:865   */\n      dup2\n        /* \"#utility.yul\":842:866   */\n      tag_39\n      jump\t// in\n    tag_65:\n        /* \"#utility.yul\":835:840   */\n      dup2\n        /* \"#utility.yul\":832:867   */\n      eq\n        /* \"#utility.yul\":822:885   */\n      tag_66\n      jumpi\n        /* \"#utility.yul\":881:882   */\n      0x00\n        /* \"#utility.yul\":878:879   */\n      dup1\n        /* \"#utility.yul\":871:883   */\n      revert\n        /* \"#utility.yul\":822:885   */\n    tag_66:\n        /* \"#utility.yul\":769:891   */\n      pop\n      jump\t// out\n        /* \"#utility.yul\":897:1040   */\n    tag_45:\n        /* \"#utility.yul\":954:959   */\n      0x00\n        /* \"#utility.yul\":985:991   */\n      dup2\n        /* \"#utility.yul\":979:992   */\n      mload\n        /* \"#utility.yul\":970:992   */\n      swap1\n      pop\n        /* \"#utility.yul\":1001:1034   */\n      tag_68\n        /* \"#utility.yul\":1028:1033   */\n      dup2\n        /* \"#utility.yul\":1001:1034   */\n      tag_44\n      jump\t// in\n    tag_68:\n        /* \"#utility.yul\":897:1040   */\n      swap3\n      swap2\n      pop\n      pop\n      jump\t// out\n        /* \"#utility.yul\":1046:1397   */\n    tag_28:\n        /* \"#utility.yul\":1116:1122   */\n      0x00\n        /* \"#utility.yul\":1165:1167   */\n      0x20\n        /* \"#utility.yul\":1153:1162   */\n      dup3\n        /* \"#utility.yul\":1144:1151   */\n      dup5\n        /* \"#utility.yul\":1140:1163   */\n      sub\n        /* \"#utility.yul\":1136:1168   */\n      slt\n        /* \"#utility.yul\":1133:1252   */\n      iszero\n      tag_70\n      jumpi\n        /* \"#utility.yul\":1171:1250   */\n      tag_71\n      tag_42\n      jump\t// in\n    tag_71:\n        /* \"#utility.yul\":1133:1252   */\n    tag_70:\n        /* \"#utility.yul\":1291:1292   */\n      0x00\n        /* \"#utility.yul\":1316:1380   */\n      tag_72\n        /* \"#utility.yul\":1372:1379   */\n      dup5\n        /* \"#utility.yul\":1363:1369   */\n      dup3\n        /* \"#utility.yul\":1352:1361   */\n      dup6\n        /* \"#utility.yul\":1348:1370   */\n      add\n        /* \"#utility.yul\":1316:1380   */\n      tag_45\n      jump\t// in\n    tag_72:\n        /* \"#utility.yul\":1306:1380   */\n      swap2\n      pop\n        /* \"#utility.yul\":1262:1390   */\n      pop\n        /* \"#utility.yul\":1046:1397   */\n      swap3\n      swap2\n      pop\n      pop\n      jump\t// out\n        /* \"#utility.yul\":1403:1508   */\n    tag_46:\n        /* \"#utility.yul\":1439:1446   */\n      0x00\n        /* \"#utility.yul\":1479:1501   */\n      0xffffffffffffffffffff\n        /* \"#utility.yul\":1472:1477   */\n      dup3\n        /* \"#utility.yul\":1468:1502   */\n      and\n        /* \"#utility.yul\":1457:1502   */\n      swap1\n      pop\n        /* \"#utility.yul\":1403:1508   */\n      swap2\n      swap1\n      pop\n      jump\t// out\n        /* \"#utility.yul\":1514:1634   */\n    tag_47:\n        /* \"#utility.yul\":1586:1609   */\n      tag_75\n        /* \"#utility.yul\":1603:1608   */\n      dup2\n        /* \"#utility.yul\":1586:1609   */\n      tag_46\n      jump\t// in\n    tag_75:\n        /* \"#utility.yul\":1579:1584   */\n      dup2\n        /* \"#utility.yul\":1576:1610   */\n      eq\n        /* \"#utility.yul\":1566:1628   */\n      tag_76\n      jumpi\n        /* \"#utility.yul\":1624:1625   */\n      0x00\n        /* \"#utility.yul\":1621:1622   */\n      dup1\n        /* \"#utility.yul\":1614:1626   */\n      revert\n        /* \"#utility.yul\":1566:1628   */\n    tag_76:\n        /* \"#utility.yul\":1514:1634   */\n      pop\n      jump\t// out\n        /* \"#utility.yul\":1640:1781   */\n    tag_48:\n        /* \"#utility.yul\":1696:1701   */\n      0x00\n        /* \"#utility.yul\":1727:1733   */\n      dup2\n        /* \"#utility.yul\":1721:1734   */\n      mload\n        /* \"#utility.yul\":1712:1734   */\n      swap1\n      pop\n        /* \"#utility.yul\":1743:1775   */\n      tag_78\n        /* \"#utility.yul\":1769:1774   */\n      dup2\n        /* \"#utility.yul\":1743:1775   */\n      tag_47\n      jump\t// in\n    tag_78:\n        /* \"#utility.yul\":1640:1781   */\n      swap3\n      swap2\n      pop\n      pop\n      jump\t// out\n        /* \"#utility.yul\":1787:1863   */\n    tag_49:\n        /* \"#utility.yul\":1823:1830   */\n      0x00\n        /* \"#utility.yul\":1852:1857   */\n      dup2\n        /* \"#utility.yul\":1841:1857   */\n      swap1\n      pop\n        /* \"#utility.yul\":1787:1863   */\n      swap2\n      swap1\n      pop\n      jump\t// out\n        /* \"#utility.yul\":1869:1989   */\n    tag_50:\n        /* \"#utility.yul\":1941:1964   */\n      tag_81\n        /* \"#utility.yul\":1958:1963   */\n      dup2\n        /* \"#utility.yul\":1941:1964   */\n      tag_49\n      jump\t// in\n    tag_81:\n        /* \"#utility.yul\":1934:1939   */\n      dup2\n        /* \"#utility.yul\":1931:1965   */\n      eq\n        /* \"#utility.yul\":1921:1983   */\n      tag_82\n      jumpi\n        /* \"#utility.yul\":1979:1980   */\n      0x00\n        /* \"#utility.yul\":1976:1977   */\n      dup1\n        /* \"#utility.yul\":1969:1981   */\n      revert\n        /* \"#utility.yul\":1921:1983   */\n    tag_82:\n        /* \"#utility.yul\":1869:1989   */\n      pop\n      jump\t// out\n        /* \"#utility.yul\":1995:2136   */\n    tag_51:\n        /* \"#utility.yul\":2051:2056   */\n      0x00\n        /* \"#utility.yul\":2082:2088   */\n      dup2\n        /* \"#utility.yul\":2076:2089   */\n      mload\n        /* \"#utility.yul\":2067:2089   */\n      swap1\n      pop\n        /* \"#utility.yul\":2098:2130   */\n      tag_84\n        /* \"#utility.yul\":2124:2129   */\n      dup2\n        /* \"#utility.yul\":2098:2130   */\n      tag_50\n      jump\t// in\n    tag_84:\n        /* \"#utility.yul\":1995:2136   */\n      swap3\n      swap2\n      pop\n      pop\n      jump\t// out\n        /* \"#utility.yul\":2142:3113   */\n    tag_33:\n        /* \"#utility.yul\":2245:2251   */\n      0x00\n        /* \"#utility.yul\":2253:2259   */\n      dup1\n        /* \"#utility.yul\":2261:2267   */\n      0x00\n        /* \"#utility.yul\":2269:2275   */\n      dup1\n        /* \"#utility.yul\":2277:2283   */\n      0x00\n        /* \"#utility.yul\":2326:2329   */\n      0xa0\n        /* \"#utility.yul\":2314:2323   */\n      dup7\n        /* \"#utility.yul\":2305:2312   */\n      dup9\n        /* \"#utility.yul\":2301:2324   */\n      sub\n        /* \"#utility.yul\":2297:2330   */\n      slt\n        /* \"#utility.yul\":2294:2414   */\n      iszero\n      tag_86\n      jumpi\n        /* \"#utility.yul\":2333:2412   */\n      tag_87\n      tag_42\n      jump\t// in\n    tag_87:\n        /* \"#utility.yul\":2294:2414   */\n    tag_86:\n        /* \"#utility.yul\":2453:2454   */\n      0x00\n        /* \"#utility.yul\":2478:2541   */\n      tag_88\n        /* \"#utility.yul\":2533:2540   */\n      dup9\n        /* \"#utility.yul\":2524:2530   */\n      dup3\n        /* \"#utility.yul\":2513:2522   */\n      dup10\n        /* \"#utility.yul\":2509:2531   */\n      add\n        /* \"#utility.yul\":2478:2541   */\n      tag_48\n      jump\t// in\n    tag_88:\n        /* \"#utility.yul\":2468:2541   */\n      swap6\n      pop\n        /* \"#utility.yul\":2424:2551   */\n      pop\n        /* \"#utility.yul\":2590:2592   */\n      0x20\n        /* \"#utility.yul\":2616:2679   */\n      tag_89\n        /* \"#utility.yul\":2671:2678   */\n      dup9\n        /* \"#utility.yul\":2662:2668   */\n      dup3\n        /* \"#utility.yul\":2651:2660   */\n      dup10\n        /* \"#utility.yul\":2647:2669   */\n      add\n        /* \"#utility.yul\":2616:2679   */\n      tag_51\n      jump\t// in\n    tag_89:\n        /* \"#utility.yul\":2606:2679   */\n      swap5\n      pop\n        /* \"#utility.yul\":2561:2689   */\n      pop\n        /* \"#utility.yul\":2728:2730   */\n      0x40\n        /* \"#utility.yul\":2754:2818   */\n      tag_90\n        /* \"#utility.yul\":2810:2817   */\n      dup9\n        /* \"#utility.yul\":2801:2807   */\n      dup3\n        /* \"#utility.yul\":2790:2799   */\n      dup10\n        /* \"#utility.yul\":2786:2808   */\n      add\n        /* \"#utility.yul\":2754:2818   */\n      tag_45\n      jump\t// in\n    tag_90:\n        /* \"#utility.yul\":2744:2818   */\n      swap4\n      pop\n        /* \"#utility.yul\":2699:2828   */\n      pop\n        /* \"#utility.yul\":2867:2869   */\n      0x60\n        /* \"#utility.yul\":2893:2957   */\n      tag_91\n        /* \"#utility.yul\":2949:2956   */\n      dup9\n        /* \"#utility.yul\":2940:2946   */\n      dup3\n        /* \"#utility.yul\":2929:2938   */\n      dup10\n        /* \"#utility.yul\":2925:2947   */\n      add\n        /* \"#utility.yul\":2893:2957   */\n      tag_45\n      jump\t// in\n    tag_91:\n        /* \"#utility.yul\":2883:2957   */\n      swap3\n      pop\n        /* \"#utility.yul\":2838:2967   */\n      pop\n        /* \"#utility.yul\":3006:3009   */\n      0x80\n        /* \"#utility.yul\":3033:3096   */\n      tag_92\n        /* \"#utility.yul\":3088:3095   */\n      dup9\n        /* \"#utility.yul\":3079:3085   */\n      dup3\n        /* \"#utility.yul\":3068:3077   */\n      dup10\n        /* \"#utility.yul\":3064:3086   */\n      add\n        /* \"#utility.yul\":3033:3096   */\n      tag_48\n      jump\t// in\n    tag_92:\n        /* \"#utility.yul\":3023:3096   */\n      swap2\n      pop\n        /* \"#utility.yul\":2977:3106   */\n      pop\n        /* \"#utility.yul\":2142:3113   */\n      swap3\n      swap6\n      pop\n      swap3\n      swap6\n      swap1\n      swap4\n      pop\n      jump\t// out\n        /* \"#utility.yul\":3119:3288   */\n    tag_52:\n        /* \"#utility.yul\":3203:3214   */\n      0x00\n        /* \"#utility.yul\":3237:3243   */\n      dup3\n        /* \"#utility.yul\":3232:3235   */\n      dup3\n        /* \"#utility.yul\":3225:3244   */\n      mstore\n        /* \"#utility.yul\":3277:3281   */\n      0x20\n        /* \"#utility.yul\":3272:3275   */\n      dup3\n        /* \"#utility.yul\":3268:3282   */\n      add\n        /* \"#utility.yul\":3253:3282   */\n      swap1\n      pop\n        /* \"#utility.yul\":3119:3288   */\n      swap3\n      swap2\n      pop\n      pop\n      jump\t// out\n        /* \"#utility.yul\":3294:3468   */\n    tag_53:\n        /* \"#utility.yul\":3434:3460   */\n      0x4469646e27742073656e6420656e6f7567682066756e64730000000000000000\n        /* \"#utility.yul\":3430:3431   */\n      0x00\n        /* \"#utility.yul\":3422:3428   */\n      dup3\n        /* \"#utility.yul\":3418:3432   */\n      add\n        /* \"#utility.yul\":3411:3461   */\n      mstore\n        /* \"#utility.yul\":3294:3468   */\n      pop\n      jump\t// out\n        /* \"#utility.yul\":3474:3840   */\n    tag_54:\n        /* \"#utility.yul\":3616:3619   */\n      0x00\n        /* \"#utility.yul\":3637:3704   */\n      tag_96\n        /* \"#utility.yul\":3701:3703   */\n      0x18\n        /* \"#utility.yul\":3696:3699   */\n      dup4\n        /* \"#utility.yul\":3637:3704   */\n      tag_52\n      jump\t// in\n    tag_96:\n        /* \"#utility.yul\":3630:3704   */\n      swap2\n      pop\n        /* \"#utility.yul\":3713:3806   */\n      tag_97\n        /* \"#utility.yul\":3802:3805   */\n      dup3\n        /* \"#utility.yul\":3713:3806   */\n      tag_53\n      jump\t// in\n    tag_97:\n        /* \"#utility.yul\":3831:3833   */\n      0x20\n        /* \"#utility.yul\":3826:3829   */\n      dup3\n        /* \"#utility.yul\":3822:3834   */\n      add\n        /* \"#utility.yul\":3815:3834   */\n      swap1\n      pop\n        /* \"#utility.yul\":3474:3840   */\n      swap2\n      swap1\n      pop\n      jump\t// out\n        /* \"#utility.yul\":3846:4265   */\n    tag_38:\n        /* \"#utility.yul\":4012:4016   */\n      0x00\n        /* \"#utility.yul\":4050:4052   */\n      0x20\n        /* \"#utility.yul\":4039:4048   */\n      dup3\n        /* \"#utility.yul\":4035:4053   */\n      add\n        /* \"#utility.yul\":4027:4053   */\n      swap1\n      pop\n        /* \"#utility.yul\":4099:4108   */\n      dup2\n        /* \"#utility.yul\":4093:4097   */\n      dup2\n        /* \"#utility.yul\":4089:4109   */\n      sub\n        /* \"#utility.yul\":4085:4086   */\n      0x00\n        /* \"#utility.yul\":4074:4083   */\n      dup4\n        /* \"#utility.yul\":4070:4087   */\n      add\n        /* \"#utility.yul\":4063:4110   */\n      mstore\n        /* \"#utility.yul\":4127:4258   */\n      tag_99\n        /* \"#utility.yul\":4253:4257   */\n      dup2\n        /* \"#utility.yul\":4127:4258   */\n      tag_54\n      jump\t// in\n    tag_99:\n        /* \"#utility.yul\":4119:4258   */\n      swap1\n      pop\n        /* \"#utility.yul\":3846:4265   */\n      swap2\n      swap1\n      pop\n      jump\t// out\n\n    auxdata: 0xa264697066735822122015688a4b27310e636069d0c9486dc6ab8f0ea97e618a584762ad44d35854a22264736f6c63430008110033\n}\n",
				"bytecode": {
					"linkReferences": {},
					"object": "6080604052603260005534801561001557600080fd5b50610486806100256000396000f3fe60806040526004361061004a5760003560e01c80630d8e6e2c1461004f5780633430a88c1461007a57806398d5fdca146100a5578063a2ea3cde146100bc578063b60d4288146100d3575b600080fd5b34801561005b57600080fd5b506100646100dd565b6040516100719190610267565b60405180910390f35b34801561008657600080fd5b5061008f61016c565b60405161009c9190610267565b60405180910390f35b3480156100b157600080fd5b506100ba610172565b005b3480156100c857600080fd5b506100d1610206565b005b6100db610208565b005b60008073d4a33860578de61dbabdc8bfdb98fd742fa7028e90508073ffffffffffffffffffffffffffffffffffffffff166354fd4d506040518163ffffffff1660e01b8152600401602060405180830381865afa158015610142573d6000803e3d6000fd5b505050506040513d601f19601f8201168201806040525081019061016691906102b3565b91505090565b60005481565b600073d4a33860578de61dbabdc8bfdb98fd742fa7028e905060008173ffffffffffffffffffffffffffffffffffffffff1663feaf968c6040518163ffffffff1660e01b815260040160a060405180830381865afa1580156101d8573d6000803e3d6000fd5b505050506040513d601f19601f820116820180604052508101906101fc9190610358565b5050509150505050565b565b600054341161024c576040517f08c379a000000000000000000000000000000000000000000000000000000000815260040161024390610430565b60405180910390fd5b565b6000819050919050565b6102618161024e565b82525050565b600060208201905061027c6000830184610258565b92915050565b600080fd5b6102908161024e565b811461029b57600080fd5b50565b6000815190506102ad81610287565b92915050565b6000602082840312156102c9576102c8610282565b5b60006102d78482850161029e565b91505092915050565b600069ffffffffffffffffffff82169050919050565b6102ff816102e0565b811461030a57600080fd5b50565b60008151905061031c816102f6565b92915050565b6000819050919050565b61033581610322565b811461034057600080fd5b50565b6000815190506103528161032c565b92915050565b600080600080600060a0868803121561037457610373610282565b5b60006103828882890161030d565b955050602061039388828901610343565b94505060406103a48882890161029e565b93505060606103b58882890161029e565b92505060806103c68882890161030d565b9150509295509295909350565b600082825260208201905092915050565b7f4469646e27742073656e6420656e6f7567682066756e64730000000000000000600082015250565b600061041a6018836103d3565b9150610425826103e4565b602082019050919050565b600060208201905081810360008301526104498161040d565b905091905056fea264697066735822122015688a4b27310e636069d0c9486dc6ab8f0ea97e618a584762ad44d35854a22264736f6c63430008110033",
					"opcodes": "PUSH1 0x80 PUSH1 0x40 MSTORE PUSH1 0x32 PUSH1 0x0 SSTORE CALLVALUE DUP1 ISZERO PUSH2 0x15 JUMPI PUSH1 0x0 DUP1 REVERT JUMPDEST POP PUSH2 0x486 DUP1 PUSH2 0x25 PUSH1 0x0 CODECOPY PUSH1 0x0 RETURN INVALID PUSH1 0x80 PUSH1 0x40 MSTORE PUSH1 0x4 CALLDATASIZE LT PUSH2 0x4A JUMPI PUSH1 0x0 CALLDATALOAD PUSH1 0xE0 SHR DUP1 PUSH4 0xD8E6E2C EQ PUSH2 0x4F JUMPI DUP1 PUSH4 0x3430A88C EQ PUSH2 0x7A JUMPI DUP1 PUSH4 0x98D5FDCA EQ PUSH2 0xA5 JUMPI DUP1 PUSH4 0xA2EA3CDE EQ PUSH2 0xBC JUMPI DUP1 PUSH4 0xB60D4288 EQ PUSH2 0xD3 JUMPI JUMPDEST PUSH1 0x0 DUP1 REVERT JUMPDEST CALLVALUE DUP1 ISZERO PUSH2 0x5B JUMPI PUSH1 0x0 DUP1 REVERT JUMPDEST POP PUSH2 0x64 PUSH2 0xDD JUMP JUMPDEST PUSH1 0x40 MLOAD PUSH2 0x71 SWAP2 SWAP1 PUSH2 0x267 JUMP JUMPDEST PUSH1 0x40 MLOAD DUP1 SWAP2 SUB SWAP1 RETURN JUMPDEST CALLVALUE DUP1 ISZERO PUSH2 0x86 JUMPI PUSH1 0x0 DUP1 REVERT JUMPDEST POP PUSH2 0x8F PUSH2 0x16C JUMP JUMPDEST PUSH1 0x40 MLOAD PUSH2 0x9C SWAP2 SWAP1 PUSH2 0x267 JUMP JUMPDEST PUSH1 0x40 MLOAD DUP1 SWAP2 SUB SWAP1 RETURN JUMPDEST CALLVALUE DUP1 ISZERO PUSH2 0xB1 JUMPI PUSH1 0x0 DUP1 REVERT JUMPDEST POP PUSH2 0xBA PUSH2 0x172 JUMP JUMPDEST STOP JUMPDEST CALLVALUE DUP1 ISZERO PUSH2 0xC8 JUMPI PUSH1 0x0 DUP1 REVERT JUMPDEST POP PUSH2 0xD1 PUSH2 0x206 JUMP JUMPDEST STOP JUMPDEST PUSH2 0xDB PUSH2 0x208 JUMP JUMPDEST STOP JUMPDEST PUSH1 0x0 DUP1 PUSH20 0xD4A33860578DE61DBABDC8BFDB98FD742FA7028E SWAP1 POP DUP1 PUSH20 0xFFFFFFFFFFFFFFFFFFFFFFFFFFFFFFFFFFFFFFFF AND PUSH4 0x54FD4D50 PUSH1 0x40 MLOAD DUP2 PUSH4 0xFFFFFFFF AND PUSH1 0xE0 SHL DUP2 MSTORE PUSH1 0x4 ADD PUSH1 0x20 PUSH1 0x40 MLOAD DUP1 DUP4 SUB DUP2 DUP7 GAS STATICCALL ISZERO DUP1 ISZERO PUSH2 0x142 JUMPI RETURNDATASIZE PUSH1 0x0 DUP1 RETURNDATACOPY RETURNDATASIZE PUSH1 0x0 REVERT JUMPDEST POP POP POP POP PUSH1 0x40 MLOAD RETURNDATASIZE PUSH1 0x1F NOT PUSH1 0x1F DUP3 ADD AND DUP3 ADD DUP1 PUSH1 0x40 MSTORE POP DUP2 ADD SWAP1 PUSH2 0x166 SWAP2 SWAP1 PUSH2 0x2B3 JUMP JUMPDEST SWAP2 POP POP SWAP1 JUMP JUMPDEST PUSH1 0x0 SLOAD DUP2 JUMP JUMPDEST PUSH1 0x0 PUSH20 0xD4A33860578DE61DBABDC8BFDB98FD742FA7028E SWAP1 POP PUSH1 0x0 DUP2 PUSH20 0xFFFFFFFFFFFFFFFFFFFFFFFFFFFFFFFFFFFFFFFF AND PUSH4 0xFEAF968C PUSH1 0x40 MLOAD DUP2 PUSH4 0xFFFFFFFF AND PUSH1 0xE0 SHL DUP2 MSTORE PUSH1 0x4 ADD PUSH1 0xA0 PUSH1 0x40 MLOAD DUP1 DUP4 SUB DUP2 DUP7 GAS STATICCALL ISZERO DUP1 ISZERO PUSH2 0x1D8 JUMPI RETURNDATASIZE PUSH1 0x0 DUP1 RETURNDATACOPY RETURNDATASIZE PUSH1 0x0 REVERT JUMPDEST POP POP POP POP PUSH1 0x40 MLOAD RETURNDATASIZE PUSH1 0x1F NOT PUSH1 0x1F DUP3 ADD AND DUP3 ADD DUP1 PUSH1 0x40 MSTORE POP DUP2 ADD SWAP1 PUSH2 0x1FC SWAP2 SWAP1 PUSH2 0x358 JUMP JUMPDEST POP POP POP SWAP2 POP POP POP POP JUMP JUMPDEST JUMP JUMPDEST PUSH1 0x0 SLOAD CALLVALUE GT PUSH2 0x24C JUMPI PUSH1 0x40 MLOAD PUSH32 0x8C379A000000000000000000000000000000000000000000000000000000000 DUP2 MSTORE PUSH1 0x4 ADD PUSH2 0x243 SWAP1 PUSH2 0x430 JUMP JUMPDEST PUSH1 0x40 MLOAD DUP1 SWAP2 SUB SWAP1 REVERT JUMPDEST JUMP JUMPDEST PUSH1 0x0 DUP2 SWAP1 POP SWAP2 SWAP1 POP JUMP JUMPDEST PUSH2 0x261 DUP2 PUSH2 0x24E JUMP JUMPDEST DUP3 MSTORE POP POP JUMP JUMPDEST PUSH1 0x0 PUSH1 0x20 DUP3 ADD SWAP1 POP PUSH2 0x27C PUSH1 0x0 DUP4 ADD DUP5 PUSH2 0x258 JUMP JUMPDEST SWAP3 SWAP2 POP POP JUMP JUMPDEST PUSH1 0x0 DUP1 REVERT JUMPDEST PUSH2 0x290 DUP2 PUSH2 0x24E JUMP JUMPDEST DUP2 EQ PUSH2 0x29B JUMPI PUSH1 0x0 DUP1 REVERT JUMPDEST POP JUMP JUMPDEST PUSH1 0x0 DUP2 MLOAD SWAP1 POP PUSH2 0x2AD DUP2 PUSH2 0x287 JUMP JUMPDEST SWAP3 SWAP2 POP POP JUMP JUMPDEST PUSH1 0x0 PUSH1 0x20 DUP3 DUP5 SUB SLT ISZERO PUSH2 0x2C9 JUMPI PUSH2 0x2C8 PUSH2 0x282 JUMP JUMPDEST JUMPDEST PUSH1 0x0 PUSH2 0x2D7 DUP5 DUP3 DUP6 ADD PUSH2 0x29E JUMP JUMPDEST SWAP2 POP POP SWAP3 SWAP2 POP POP JUMP JUMPDEST PUSH1 0x0 PUSH10 0xFFFFFFFFFFFFFFFFFFFF DUP3 AND SWAP1 POP SWAP2 SWAP1 POP JUMP JUMPDEST PUSH2 0x2FF DUP2 PUSH2 0x2E0 JUMP JUMPDEST DUP2 EQ PUSH2 0x30A JUMPI PUSH1 0x0 DUP1 REVERT JUMPDEST POP JUMP JUMPDEST PUSH1 0x0 DUP2 MLOAD SWAP1 POP PUSH2 0x31C DUP2 PUSH2 0x2F6 JUMP JUMPDEST SWAP3 SWAP2 POP POP JUMP JUMPDEST PUSH1 0x0 DUP2 SWAP1 POP SWAP2 SWAP1 POP JUMP JUMPDEST PUSH2 0x335 DUP2 PUSH2 0x322 JUMP JUMPDEST DUP2 EQ PUSH2 0x340 JUMPI PUSH1 0x0 DUP1 REVERT JUMPDEST POP JUMP JUMPDEST PUSH1 0x0 DUP2 MLOAD SWAP1 POP PUSH2 0x352 DUP2 PUSH2 0x32C JUMP JUMPDEST SWAP3 SWAP2 POP POP JUMP JUMPDEST PUSH1 0x0 DUP1 PUSH1 0x0 DUP1 PUSH1 0x0 PUSH1 0xA0 DUP7 DUP9 SUB SLT ISZERO PUSH2 0x374 JUMPI PUSH2 0x373 PUSH2 0x282 JUMP JUMPDEST JUMPDEST PUSH1 0x0 PUSH2 0x382 DUP9 DUP3 DUP10 ADD PUSH2 0x30D JUMP JUMPDEST SWAP6 POP POP PUSH1 0x20 PUSH2 0x393 DUP9 DUP3 DUP10 ADD PUSH2 0x343 JUMP JUMPDEST SWAP5 POP POP PUSH1 0x40 PUSH2 0x3A4 DUP9 DUP3 DUP10 ADD PUSH2 0x29E JUMP JUMPDEST SWAP4 POP POP PUSH1 0x60 PUSH2 0x3B5 DUP9 DUP3 DUP10 ADD PUSH2 0x29E JUMP JUMPDEST SWAP3 POP POP PUSH1 0x80 PUSH2 0x3C6 DUP9 DUP3 DUP10 ADD PUSH2 0x30D JUMP JUMPDEST SWAP2 POP POP SWAP3 SWAP6 POP SWAP3 SWAP6 SWAP1 SWAP4 POP JUMP JUMPDEST PUSH1 0x0 DUP3 DUP3 MSTORE PUSH1 0x20 DUP3 ADD SWAP1 POP SWAP3 SWAP2 POP POP JUMP JUMPDEST PUSH32 0x4469646E27742073656E6420656E6F7567682066756E64730000000000000000 PUSH1 0x0 DUP3 ADD MSTORE POP JUMP JUMPDEST PUSH1 0x0 PUSH2 0x41A PUSH1 0x18 DUP4 PUSH2 0x3D3 JUMP JUMPDEST SWAP2 POP PUSH2 0x425 DUP3 PUSH2 0x3E4 JUMP JUMPDEST PUSH1 0x20 DUP3 ADD SWAP1 POP SWAP2 SWAP1 POP JUMP JUMPDEST PUSH1 0x0 PUSH1 0x20 DUP3 ADD SWAP1 POP DUP2 DUP2 SUB PUSH1 0x0 DUP4 ADD MSTORE PUSH2 0x449 DUP2 PUSH2 0x40D JUMP JUMPDEST SWAP1 POP SWAP2 SWAP1 POP JUMP INVALID LOG2 PUSH5 0x6970667358 0x22 SLT KECCAK256 ISZERO PUSH9 0x8A4B27310E636069D0 0xC9 BASEFEE PUSH14 0xC6AB8F0EA97E618A584762AD44D3 PC SLOAD LOG2 0x22 PUSH5 0x736F6C6343 STOP ADDMOD GT STOP CALLER "
				},
				"gasEstimates": {
					"creation": {
						"codeDepositCost": "231600",
						"executionCost": "22381",
						"totalCost": "253981"
					},
					"external": {
						"fund()": "2597",
						"getConvesionRate()": "188",
						"getPrice()": "infinite",
						"getVersion()": "infinite",
						"minimumUSD()": "2429"
					}
				},
				"methodIdentifiers": {
					"fund()": "b60d4288",
					"getConvesionRate()": "a2ea3cde",
					"getPrice()": "98d5fdca",
					"getVersion()": "0d8e6e2c",
					"minimumUSD()": "3430a88c"
				}
			},
			"storageLayout": {
				"storage": [
					{
						"astId": 51,
						"contract": "freecodecamp32Hrs_solidity/FundMe.sol:FundMe",
						"label": "minimumUSD",
						"offset": 0,
						"slot": "0",
						"type": "t_uint256"
					}
				],
				"types": {
					"t_uint256": {
						"encoding": "inplace",
						"label": "uint256",
						"numberOfBytes": "32"
					}
				}
			},
			"userdoc": {
				"kind": "user",
				"methods": {},
				"version": 1
			}
		}
	}
}