{
	"freecodecamp32Hrs_solidity/FundMe.sol": {
		"FundMe": {
			"abi": [
				{
					"inputs": [],
					"name": "fund",
					"outputs": [],
					"stateMutability": "payable",
					"type": "function"
				},
				{
					"inputs": [
						{
							"internalType": "uint256",
							"name": "",
							"type": "uint256"
						}
					],
					"name": "funders",
					"outputs": [
						{
							"internalType": "address",
							"name": "",
							"type": "address"
						}
					],
					"stateMutability": "view",
					"type": "function"
				},
				{
					"inputs": [
						{
							"internalType": "uint256",
							"name": "ethAmmount",
							"type": "uint256"
						}
					],
					"name": "getConversionRate",
					"outputs": [
						{
							"internalType": "uint256",
							"name": "",
							"type": "uint256"
						}
					],
					"stateMutability": "view",
					"type": "function"
				},
				{
					"inputs": [],
					"name": "getPrice",
					"outputs": [
						{
							"internalType": "uint256",
							"name": "",
							"type": "uint256"
						}
					],
					"stateMutability": "view",
					"type": "function"
				},
				{
					"inputs": [],
					"name": "getVersion",
					"outputs": [
						{
							"internalType": "uint256",
							"name": "",
							"type": "uint256"
						}
					],
					"stateMutability": "view",
					"type": "function"
				},
				{
					"inputs": [],
					"name": "minimumUSD",
					"outputs": [
						{
							"internalType": "uint256",
							"name": "",
							"type": "uint256"
						}
					],
					"stateMutability": "view",
					"type": "function"
				}
			],
			"devdoc": {
				"kind": "dev",
				"methods": {},
				"version": 1
			},
			"evm": {
				"assembly": "    /* \"freecodecamp32Hrs_solidity/FundMe.sol\":218:1687  contract FundMe{... */\n  mstore(0x40, 0x80)\n    /* \"freecodecamp32Hrs_solidity/FundMe.sol\":299:308  50 * 1e18 */\n  0x02b5e3af16b1880000\n    /* \"freecodecamp32Hrs_solidity/FundMe.sol\":271:308  uint256 public minimumUSD = 50 * 1e18 */\n  0x01\n  sstore\n    /* \"freecodecamp32Hrs_solidity/FundMe.sol\":218:1687  contract FundMe{... */\n  callvalue\n  dup1\n  iszero\n  tag_1\n  jumpi\n  0x00\n  dup1\n  revert\ntag_1:\n  pop\n  dataSize(sub_0)\n  dup1\n  dataOffset(sub_0)\n  0x00\n  codecopy\n  0x00\n  return\nstop\n\nsub_0: assembly {\n        /* \"freecodecamp32Hrs_solidity/FundMe.sol\":218:1687  contract FundMe{... */\n      mstore(0x40, 0x80)\n      jumpi(tag_1, lt(calldatasize, 0x04))\n      shr(0xe0, calldataload(0x00))\n      dup1\n      0x0d8e6e2c\n      eq\n      tag_2\n      jumpi\n      dup1\n      0x3430a88c\n      eq\n      tag_3\n      jumpi\n      dup1\n      0x6e5b6b28\n      eq\n      tag_4\n      jumpi\n      dup1\n      0x98d5fdca\n      eq\n      tag_5\n      jumpi\n      dup1\n      0xb60d4288\n      eq\n      tag_6\n      jumpi\n      dup1\n      0xdc0d3dff\n      eq\n      tag_7\n      jumpi\n    tag_1:\n      0x00\n      dup1\n      revert\n        /* \"freecodecamp32Hrs_solidity/FundMe.sol\":1432:1643  function getVersion() public view returns(uint256)... */\n    tag_2:\n      callvalue\n      dup1\n      iszero\n      tag_8\n      jumpi\n      0x00\n      dup1\n      revert\n    tag_8:\n      pop\n      tag_9\n      tag_10\n      jump\t// in\n    tag_9:\n      mload(0x40)\n      tag_11\n      swap2\n      swap1\n      tag_12\n      jump\t// in\n    tag_11:\n      mload(0x40)\n      dup1\n      swap2\n      sub\n      swap1\n      return\n        /* \"freecodecamp32Hrs_solidity/FundMe.sol\":271:308  uint256 public minimumUSD = 50 * 1e18 */\n    tag_3:\n      callvalue\n      dup1\n      iszero\n      tag_13\n      jumpi\n      0x00\n      dup1\n      revert\n    tag_13:\n      pop\n      tag_14\n      tag_15\n      jump\t// in\n    tag_14:\n      mload(0x40)\n      tag_16\n      swap2\n      swap1\n      tag_12\n      jump\t// in\n    tag_16:\n      mload(0x40)\n      dup1\n      swap2\n      sub\n      swap1\n      return\n        /* \"freecodecamp32Hrs_solidity/FundMe.sol\":1202:1424  function getConversionRate(uint256 ethAmmount) public view returns(uint256) {... */\n    tag_4:\n      callvalue\n      dup1\n      iszero\n      tag_17\n      jumpi\n      0x00\n      dup1\n      revert\n    tag_17:\n      pop\n      tag_18\n      0x04\n      dup1\n      calldatasize\n      sub\n      dup2\n      add\n      swap1\n      tag_19\n      swap2\n      swap1\n      tag_20\n      jump\t// in\n    tag_19:\n      tag_21\n      jump\t// in\n    tag_18:\n      mload(0x40)\n      tag_22\n      swap2\n      swap1\n      tag_12\n      jump\t// in\n    tag_22:\n      mload(0x40)\n      dup1\n      swap2\n      sub\n      swap1\n      return\n        /* \"freecodecamp32Hrs_solidity/FundMe.sol\":689:1194  function getPrice() public view returns(uint256){... */\n    tag_5:\n      callvalue\n      dup1\n      iszero\n      tag_23\n      jumpi\n      0x00\n      dup1\n      revert\n    tag_23:\n      pop\n      tag_24\n      tag_25\n      jump\t// in\n    tag_24:\n      mload(0x40)\n      tag_26\n      swap2\n      swap1\n      tag_12\n      jump\t// in\n    tag_26:\n      mload(0x40)\n      dup1\n      swap2\n      sub\n      swap1\n      return\n        /* \"freecodecamp32Hrs_solidity/FundMe.sol\":315:681  function fund() public payable{... */\n    tag_6:\n      tag_27\n      tag_28\n      jump\t// in\n    tag_27:\n      stop\n        /* \"freecodecamp32Hrs_solidity/FundMe.sol\":240:264  address[] public funders */\n    tag_7:\n      callvalue\n      dup1\n      iszero\n      tag_29\n      jumpi\n      0x00\n      dup1\n      revert\n    tag_29:\n      pop\n      tag_30\n      0x04\n      dup1\n      calldatasize\n      sub\n      dup2\n      add\n      swap1\n      tag_31\n      swap2\n      swap1\n      tag_20\n      jump\t// in\n    tag_31:\n      tag_32\n      jump\t// in\n    tag_30:\n      mload(0x40)\n      tag_33\n      swap2\n      swap1\n      tag_34\n      jump\t// in\n    tag_33:\n      mload(0x40)\n      dup1\n      swap2\n      sub\n      swap1\n      return\n        /* \"freecodecamp32Hrs_solidity/FundMe.sol\":1432:1643  function getVersion() public view returns(uint256)... */\n    tag_10:\n        /* \"freecodecamp32Hrs_solidity/FundMe.sol\":1474:1481  uint256 */\n      0x00\n        /* \"freecodecamp32Hrs_solidity/FundMe.sol\":1499:1530  AggregatorV3Interface priceFeed */\n      dup1\n        /* \"freecodecamp32Hrs_solidity/FundMe.sol\":1555:1597  0xD4a33860578De61DBAbDc8BFdb98FD742fA7028e */\n      0xd4a33860578de61dbabdc8bfdb98fd742fa7028e\n        /* \"freecodecamp32Hrs_solidity/FundMe.sol\":1499:1598  AggregatorV3Interface priceFeed = AggregatorV3Interface(0xD4a33860578De61DBAbDc8BFdb98FD742fA7028e) */\n      swap1\n      pop\n        /* \"freecodecamp32Hrs_solidity/FundMe.sol\":1616:1625  priceFeed */\n      dup1\n        /* \"freecodecamp32Hrs_solidity/FundMe.sol\":1616:1633  priceFeed.version */\n      0xffffffffffffffffffffffffffffffffffffffff\n      and\n      0x54fd4d50\n        /* \"freecodecamp32Hrs_solidity/FundMe.sol\":1616:1635  priceFeed.version() */\n      mload(0x40)\n      dup2\n      0xffffffff\n      and\n      0xe0\n      shl\n      dup2\n      mstore\n      0x04\n      add\n      0x20\n      mload(0x40)\n      dup1\n      dup4\n      sub\n      dup2\n      dup7\n      gas\n      staticcall\n      iszero\n      dup1\n      iszero\n      tag_37\n      jumpi\n      returndatasize\n      0x00\n      dup1\n      returndatacopy\n      revert(0x00, returndatasize)\n    tag_37:\n      pop\n      pop\n      pop\n      pop\n      mload(0x40)\n      returndatasize\n      not(0x1f)\n      0x1f\n      dup3\n      add\n      and\n      dup3\n      add\n      dup1\n      0x40\n      mstore\n      pop\n      dup2\n      add\n      swap1\n      tag_38\n      swap2\n      swap1\n      tag_39\n      jump\t// in\n    tag_38:\n        /* \"freecodecamp32Hrs_solidity/FundMe.sol\":1609:1635  return priceFeed.version() */\n      swap2\n      pop\n      pop\n        /* \"freecodecamp32Hrs_solidity/FundMe.sol\":1432:1643  function getVersion() public view returns(uint256)... */\n      swap1\n      jump\t// out\n        /* \"freecodecamp32Hrs_solidity/FundMe.sol\":271:308  uint256 public minimumUSD = 50 * 1e18 */\n    tag_15:\n      sload(0x01)\n      dup2\n      jump\t// out\n        /* \"freecodecamp32Hrs_solidity/FundMe.sol\":1202:1424  function getConversionRate(uint256 ethAmmount) public view returns(uint256) {... */\n    tag_21:\n        /* \"freecodecamp32Hrs_solidity/FundMe.sol\":1269:1276  uint256 */\n      0x00\n        /* \"freecodecamp32Hrs_solidity/FundMe.sol\":1289:1305  uint256 ethPrice */\n      dup1\n        /* \"freecodecamp32Hrs_solidity/FundMe.sol\":1308:1318  getPrice() */\n      tag_41\n        /* \"freecodecamp32Hrs_solidity/FundMe.sol\":1308:1316  getPrice */\n      tag_25\n        /* \"freecodecamp32Hrs_solidity/FundMe.sol\":1308:1318  getPrice() */\n      jump\t// in\n    tag_41:\n        /* \"freecodecamp32Hrs_solidity/FundMe.sol\":1289:1318  uint256 ethPrice = getPrice() */\n      swap1\n      pop\n        /* \"freecodecamp32Hrs_solidity/FundMe.sol\":1329:1352  uint256 ethAmmountInUSD */\n      0x00\n        /* \"freecodecamp32Hrs_solidity/FundMe.sol\":1379:1383  1e18 */\n      0x0de0b6b3a7640000\n        /* \"freecodecamp32Hrs_solidity/FundMe.sol\":1365:1375  ethAmmount */\n      dup5\n        /* \"freecodecamp32Hrs_solidity/FundMe.sol\":1356:1364  ethPrice */\n      dup4\n        /* \"freecodecamp32Hrs_solidity/FundMe.sol\":1356:1375  ethPrice*ethAmmount */\n      tag_42\n      swap2\n      swap1\n      tag_43\n      jump\t// in\n    tag_42:\n        /* \"freecodecamp32Hrs_solidity/FundMe.sol\":1355:1383  (ethPrice*ethAmmount) / 1e18 */\n      tag_44\n      swap2\n      swap1\n      tag_45\n      jump\t// in\n    tag_44:\n        /* \"freecodecamp32Hrs_solidity/FundMe.sol\":1329:1383  uint256 ethAmmountInUSD = (ethPrice*ethAmmount) / 1e18 */\n      swap1\n      pop\n        /* \"freecodecamp32Hrs_solidity/FundMe.sol\":1401:1416  ethAmmountInUSD */\n      dup1\n        /* \"freecodecamp32Hrs_solidity/FundMe.sol\":1394:1416  return ethAmmountInUSD */\n      swap3\n      pop\n      pop\n      pop\n        /* \"freecodecamp32Hrs_solidity/FundMe.sol\":1202:1424  function getConversionRate(uint256 ethAmmount) public view returns(uint256) {... */\n      swap2\n      swap1\n      pop\n      jump\t// out\n        /* \"freecodecamp32Hrs_solidity/FundMe.sol\":689:1194  function getPrice() public view returns(uint256){... */\n    tag_25:\n        /* \"freecodecamp32Hrs_solidity/FundMe.sol\":729:736  uint256 */\n      0x00\n        /* \"freecodecamp32Hrs_solidity/FundMe.sol\":827:858  AggregatorV3Interface priceFeed */\n      dup1\n        /* \"freecodecamp32Hrs_solidity/FundMe.sol\":883:925  0xD4a33860578De61DBAbDc8BFdb98FD742fA7028e */\n      0xd4a33860578de61dbabdc8bfdb98fd742fa7028e\n        /* \"freecodecamp32Hrs_solidity/FundMe.sol\":827:926  AggregatorV3Interface priceFeed = AggregatorV3Interface(0xD4a33860578De61DBAbDc8BFdb98FD742fA7028e) */\n      swap1\n      pop\n        /* \"freecodecamp32Hrs_solidity/FundMe.sol\":985:997  int256 price */\n      0x00\n        /* \"freecodecamp32Hrs_solidity/FundMe.sol\":1118:1127  priceFeed */\n      dup2\n        /* \"freecodecamp32Hrs_solidity/FundMe.sol\":1118:1143  priceFeed.latestRoundData */\n      0xffffffffffffffffffffffffffffffffffffffff\n      and\n      0xfeaf968c\n        /* \"freecodecamp32Hrs_solidity/FundMe.sol\":1118:1145  priceFeed.latestRoundData() */\n      mload(0x40)\n      dup2\n      0xffffffff\n      and\n      0xe0\n      shl\n      dup2\n      mstore\n      0x04\n      add\n      0xa0\n      mload(0x40)\n      dup1\n      dup4\n      sub\n      dup2\n      dup7\n      gas\n      staticcall\n      iszero\n      dup1\n      iszero\n      tag_48\n      jumpi\n      returndatasize\n      0x00\n      dup1\n      returndatacopy\n      revert(0x00, returndatasize)\n    tag_48:\n      pop\n      pop\n      pop\n      pop\n      mload(0x40)\n      returndatasize\n      not(0x1f)\n      0x1f\n      dup3\n      add\n      and\n      dup3\n      add\n      dup1\n      0x40\n      mstore\n      pop\n      dup2\n      add\n      swap1\n      tag_49\n      swap2\n      swap1\n      tag_50\n      jump\t// in\n    tag_49:\n        /* \"freecodecamp32Hrs_solidity/FundMe.sol\":937:1145  (... */\n      pop\n      pop\n      pop\n      swap2\n      pop\n      pop\n        /* \"freecodecamp32Hrs_solidity/FundMe.sol\":1181:1185  1e10 */\n      0x02540be400\n        /* \"freecodecamp32Hrs_solidity/FundMe.sol\":1173:1178  price */\n      dup2\n        /* \"freecodecamp32Hrs_solidity/FundMe.sol\":1173:1185  price * 1e10 */\n      tag_51\n      swap2\n      swap1\n      tag_52\n      jump\t// in\n    tag_51:\n        /* \"freecodecamp32Hrs_solidity/FundMe.sol\":1158:1186  return uint256(price * 1e10) */\n      swap3\n      pop\n      pop\n      pop\n        /* \"freecodecamp32Hrs_solidity/FundMe.sol\":689:1194  function getPrice() public view returns(uint256){... */\n      swap1\n      jump\t// out\n        /* \"freecodecamp32Hrs_solidity/FundMe.sol\":315:681  function fund() public payable{... */\n    tag_28:\n        /* \"freecodecamp32Hrs_solidity/FundMe.sol\":541:551  minimumUSD */\n      sload(0x01)\n        /* \"freecodecamp32Hrs_solidity/FundMe.sol\":510:538  getConversionRate(msg.value) */\n      tag_54\n        /* \"freecodecamp32Hrs_solidity/FundMe.sol\":528:537  msg.value */\n      callvalue\n        /* \"freecodecamp32Hrs_solidity/FundMe.sol\":510:527  getConversionRate */\n      tag_21\n        /* \"freecodecamp32Hrs_solidity/FundMe.sol\":510:538  getConversionRate(msg.value) */\n      jump\t// in\n    tag_54:\n        /* \"freecodecamp32Hrs_solidity/FundMe.sol\":510:551  getConversionRate(msg.value) > minimumUSD */\n      gt\n        /* \"freecodecamp32Hrs_solidity/FundMe.sol\":502:580  require(getConversionRate(msg.value) > minimumUSD, \"Didn't send enough funds\") */\n      tag_55\n      jumpi\n      mload(0x40)\n      0x08c379a000000000000000000000000000000000000000000000000000000000\n      dup2\n      mstore\n      0x04\n      add\n      tag_56\n      swap1\n      tag_57\n      jump\t// in\n    tag_56:\n      mload(0x40)\n      dup1\n      swap2\n      sub\n      swap1\n      revert\n    tag_55:\n        /* \"freecodecamp32Hrs_solidity/FundMe.sol\":649:656  funders */\n      0x00\n        /* \"freecodecamp32Hrs_solidity/FundMe.sol\":662:672  msg.sender */\n      caller\n        /* \"freecodecamp32Hrs_solidity/FundMe.sol\":649:673  funders.push(msg.sender) */\n      swap1\n      dup1\n      0x01\n      dup2\n      sload\n      add\n      dup1\n      dup3\n      sstore\n      dup1\n      swap2\n      pop\n      pop\n      0x01\n      swap1\n      sub\n      swap1\n      0x00\n      mstore\n      keccak256(0x00, 0x20)\n      add\n      0x00\n      swap1\n      swap2\n      swap1\n      swap2\n      swap1\n      swap2\n      0x0100\n      exp\n      dup2\n      sload\n      dup2\n      0xffffffffffffffffffffffffffffffffffffffff\n      mul\n      not\n      and\n      swap1\n      dup4\n      0xffffffffffffffffffffffffffffffffffffffff\n      and\n      mul\n      or\n      swap1\n      sstore\n      pop\n        /* \"freecodecamp32Hrs_solidity/FundMe.sol\":315:681  function fund() public payable{... */\n      jump\t// out\n        /* \"freecodecamp32Hrs_solidity/FundMe.sol\":240:264  address[] public funders */\n    tag_32:\n      0x00\n      dup2\n      dup2\n      sload\n      dup2\n      lt\n      tag_59\n      jumpi\n      0x00\n      dup1\n      revert\n    tag_59:\n      swap1\n      0x00\n      mstore\n      keccak256(0x00, 0x20)\n      add\n      0x00\n      swap2\n      pop\n      sload\n      swap1\n      0x0100\n      exp\n      swap1\n      div\n      0xffffffffffffffffffffffffffffffffffffffff\n      and\n      dup2\n      jump\t// out\n        /* \"#utility.yul\":7:84   */\n    tag_61:\n        /* \"#utility.yul\":44:51   */\n      0x00\n        /* \"#utility.yul\":73:78   */\n      dup2\n        /* \"#utility.yul\":62:78   */\n      swap1\n      pop\n        /* \"#utility.yul\":7:84   */\n      swap2\n      swap1\n      pop\n      jump\t// out\n        /* \"#utility.yul\":90:208   */\n    tag_62:\n        /* \"#utility.yul\":177:201   */\n      tag_86\n        /* \"#utility.yul\":195:200   */\n      dup2\n        /* \"#utility.yul\":177:201   */\n      tag_61\n      jump\t// in\n    tag_86:\n        /* \"#utility.yul\":172:175   */\n      dup3\n        /* \"#utility.yul\":165:202   */\n      mstore\n        /* \"#utility.yul\":90:208   */\n      pop\n      pop\n      jump\t// out\n        /* \"#utility.yul\":214:436   */\n    tag_12:\n        /* \"#utility.yul\":307:311   */\n      0x00\n        /* \"#utility.yul\":345:347   */\n      0x20\n        /* \"#utility.yul\":334:343   */\n      dup3\n        /* \"#utility.yul\":330:348   */\n      add\n        /* \"#utility.yul\":322:348   */\n      swap1\n      pop\n        /* \"#utility.yul\":358:429   */\n      tag_88\n        /* \"#utility.yul\":426:427   */\n      0x00\n        /* \"#utility.yul\":415:424   */\n      dup4\n        /* \"#utility.yul\":411:428   */\n      add\n        /* \"#utility.yul\":402:408   */\n      dup5\n        /* \"#utility.yul\":358:429   */\n      tag_62\n      jump\t// in\n    tag_88:\n        /* \"#utility.yul\":214:436   */\n      swap3\n      swap2\n      pop\n      pop\n      jump\t// out\n        /* \"#utility.yul\":523:640   */\n    tag_64:\n        /* \"#utility.yul\":632:633   */\n      0x00\n        /* \"#utility.yul\":629:630   */\n      dup1\n        /* \"#utility.yul\":622:634   */\n      revert\n        /* \"#utility.yul\":769:891   */\n    tag_66:\n        /* \"#utility.yul\":842:866   */\n      tag_93\n        /* \"#utility.yul\":860:865   */\n      dup2\n        /* \"#utility.yul\":842:866   */\n      tag_61\n      jump\t// in\n    tag_93:\n        /* \"#utility.yul\":835:840   */\n      dup2\n        /* \"#utility.yul\":832:867   */\n      eq\n        /* \"#utility.yul\":822:885   */\n      tag_94\n      jumpi\n        /* \"#utility.yul\":881:882   */\n      0x00\n        /* \"#utility.yul\":878:879   */\n      dup1\n        /* \"#utility.yul\":871:883   */\n      revert\n        /* \"#utility.yul\":822:885   */\n    tag_94:\n        /* \"#utility.yul\":769:891   */\n      pop\n      jump\t// out\n        /* \"#utility.yul\":897:1036   */\n    tag_67:\n        /* \"#utility.yul\":943:948   */\n      0x00\n        /* \"#utility.yul\":981:987   */\n      dup2\n        /* \"#utility.yul\":968:988   */\n      calldataload\n        /* \"#utility.yul\":959:988   */\n      swap1\n      pop\n        /* \"#utility.yul\":997:1030   */\n      tag_96\n        /* \"#utility.yul\":1024:1029   */\n      dup2\n        /* \"#utility.yul\":997:1030   */\n      tag_66\n      jump\t// in\n    tag_96:\n        /* \"#utility.yul\":897:1036   */\n      swap3\n      swap2\n      pop\n      pop\n      jump\t// out\n        /* \"#utility.yul\":1042:1371   */\n    tag_20:\n        /* \"#utility.yul\":1101:1107   */\n      0x00\n        /* \"#utility.yul\":1150:1152   */\n      0x20\n        /* \"#utility.yul\":1138:1147   */\n      dup3\n        /* \"#utility.yul\":1129:1136   */\n      dup5\n        /* \"#utility.yul\":1125:1148   */\n      sub\n        /* \"#utility.yul\":1121:1153   */\n      slt\n        /* \"#utility.yul\":1118:1237   */\n      iszero\n      tag_98\n      jumpi\n        /* \"#utility.yul\":1156:1235   */\n      tag_99\n      tag_64\n      jump\t// in\n    tag_99:\n        /* \"#utility.yul\":1118:1237   */\n    tag_98:\n        /* \"#utility.yul\":1276:1277   */\n      0x00\n        /* \"#utility.yul\":1301:1354   */\n      tag_100\n        /* \"#utility.yul\":1346:1353   */\n      dup5\n        /* \"#utility.yul\":1337:1343   */\n      dup3\n        /* \"#utility.yul\":1326:1335   */\n      dup6\n        /* \"#utility.yul\":1322:1344   */\n      add\n        /* \"#utility.yul\":1301:1354   */\n      tag_67\n      jump\t// in\n    tag_100:\n        /* \"#utility.yul\":1291:1354   */\n      swap2\n      pop\n        /* \"#utility.yul\":1247:1364   */\n      pop\n        /* \"#utility.yul\":1042:1371   */\n      swap3\n      swap2\n      pop\n      pop\n      jump\t// out\n        /* \"#utility.yul\":1377:1503   */\n    tag_68:\n        /* \"#utility.yul\":1414:1421   */\n      0x00\n        /* \"#utility.yul\":1454:1496   */\n      0xffffffffffffffffffffffffffffffffffffffff\n        /* \"#utility.yul\":1447:1452   */\n      dup3\n        /* \"#utility.yul\":1443:1497   */\n      and\n        /* \"#utility.yul\":1432:1497   */\n      swap1\n      pop\n        /* \"#utility.yul\":1377:1503   */\n      swap2\n      swap1\n      pop\n      jump\t// out\n        /* \"#utility.yul\":1509:1605   */\n    tag_69:\n        /* \"#utility.yul\":1546:1553   */\n      0x00\n        /* \"#utility.yul\":1575:1599   */\n      tag_103\n        /* \"#utility.yul\":1593:1598   */\n      dup3\n        /* \"#utility.yul\":1575:1599   */\n      tag_68\n      jump\t// in\n    tag_103:\n        /* \"#utility.yul\":1564:1599   */\n      swap1\n      pop\n        /* \"#utility.yul\":1509:1605   */\n      swap2\n      swap1\n      pop\n      jump\t// out\n        /* \"#utility.yul\":1611:1729   */\n    tag_70:\n        /* \"#utility.yul\":1698:1722   */\n      tag_105\n        /* \"#utility.yul\":1716:1721   */\n      dup2\n        /* \"#utility.yul\":1698:1722   */\n      tag_69\n      jump\t// in\n    tag_105:\n        /* \"#utility.yul\":1693:1696   */\n      dup3\n        /* \"#utility.yul\":1686:1723   */\n      mstore\n        /* \"#utility.yul\":1611:1729   */\n      pop\n      pop\n      jump\t// out\n        /* \"#utility.yul\":1735:1957   */\n    tag_34:\n        /* \"#utility.yul\":1828:1832   */\n      0x00\n        /* \"#utility.yul\":1866:1868   */\n      0x20\n        /* \"#utility.yul\":1855:1864   */\n      dup3\n        /* \"#utility.yul\":1851:1869   */\n      add\n        /* \"#utility.yul\":1843:1869   */\n      swap1\n      pop\n        /* \"#utility.yul\":1879:1950   */\n      tag_107\n        /* \"#utility.yul\":1947:1948   */\n      0x00\n        /* \"#utility.yul\":1936:1945   */\n      dup4\n        /* \"#utility.yul\":1932:1949   */\n      add\n        /* \"#utility.yul\":1923:1929   */\n      dup5\n        /* \"#utility.yul\":1879:1950   */\n      tag_70\n      jump\t// in\n    tag_107:\n        /* \"#utility.yul\":1735:1957   */\n      swap3\n      swap2\n      pop\n      pop\n      jump\t// out\n        /* \"#utility.yul\":1963:2106   */\n    tag_71:\n        /* \"#utility.yul\":2020:2025   */\n      0x00\n        /* \"#utility.yul\":2051:2057   */\n      dup2\n        /* \"#utility.yul\":2045:2058   */\n      mload\n        /* \"#utility.yul\":2036:2058   */\n      swap1\n      pop\n        /* \"#utility.yul\":2067:2100   */\n      tag_109\n        /* \"#utility.yul\":2094:2099   */\n      dup2\n        /* \"#utility.yul\":2067:2100   */\n      tag_66\n      jump\t// in\n    tag_109:\n        /* \"#utility.yul\":1963:2106   */\n      swap3\n      swap2\n      pop\n      pop\n      jump\t// out\n        /* \"#utility.yul\":2112:2463   */\n    tag_39:\n        /* \"#utility.yul\":2182:2188   */\n      0x00\n        /* \"#utility.yul\":2231:2233   */\n      0x20\n        /* \"#utility.yul\":2219:2228   */\n      dup3\n        /* \"#utility.yul\":2210:2217   */\n      dup5\n        /* \"#utility.yul\":2206:2229   */\n      sub\n        /* \"#utility.yul\":2202:2234   */\n      slt\n        /* \"#utility.yul\":2199:2318   */\n      iszero\n      tag_111\n      jumpi\n        /* \"#utility.yul\":2237:2316   */\n      tag_112\n      tag_64\n      jump\t// in\n    tag_112:\n        /* \"#utility.yul\":2199:2318   */\n    tag_111:\n        /* \"#utility.yul\":2357:2358   */\n      0x00\n        /* \"#utility.yul\":2382:2446   */\n      tag_113\n        /* \"#utility.yul\":2438:2445   */\n      dup5\n        /* \"#utility.yul\":2429:2435   */\n      dup3\n        /* \"#utility.yul\":2418:2427   */\n      dup6\n        /* \"#utility.yul\":2414:2436   */\n      add\n        /* \"#utility.yul\":2382:2446   */\n      tag_71\n      jump\t// in\n    tag_113:\n        /* \"#utility.yul\":2372:2446   */\n      swap2\n      pop\n        /* \"#utility.yul\":2328:2456   */\n      pop\n        /* \"#utility.yul\":2112:2463   */\n      swap3\n      swap2\n      pop\n      pop\n      jump\t// out\n        /* \"#utility.yul\":2469:2649   */\n    tag_72:\n        /* \"#utility.yul\":2517:2594   */\n      0x4e487b7100000000000000000000000000000000000000000000000000000000\n        /* \"#utility.yul\":2514:2515   */\n      0x00\n        /* \"#utility.yul\":2507:2595   */\n      mstore\n        /* \"#utility.yul\":2614:2618   */\n      0x11\n        /* \"#utility.yul\":2611:2612   */\n      0x04\n        /* \"#utility.yul\":2604:2619   */\n      mstore\n        /* \"#utility.yul\":2638:2642   */\n      0x24\n        /* \"#utility.yul\":2635:2636   */\n      0x00\n        /* \"#utility.yul\":2628:2643   */\n      revert\n        /* \"#utility.yul\":2655:3065   */\n    tag_43:\n        /* \"#utility.yul\":2695:2702   */\n      0x00\n        /* \"#utility.yul\":2718:2738   */\n      tag_116\n        /* \"#utility.yul\":2736:2737   */\n      dup3\n        /* \"#utility.yul\":2718:2738   */\n      tag_61\n      jump\t// in\n    tag_116:\n        /* \"#utility.yul\":2713:2738   */\n      swap2\n      pop\n        /* \"#utility.yul\":2752:2772   */\n      tag_117\n        /* \"#utility.yul\":2770:2771   */\n      dup4\n        /* \"#utility.yul\":2752:2772   */\n      tag_61\n      jump\t// in\n    tag_117:\n        /* \"#utility.yul\":2747:2772   */\n      swap3\n      pop\n        /* \"#utility.yul\":2807:2808   */\n      dup3\n        /* \"#utility.yul\":2804:2805   */\n      dup3\n        /* \"#utility.yul\":2800:2809   */\n      mul\n        /* \"#utility.yul\":2829:2859   */\n      tag_118\n        /* \"#utility.yul\":2847:2858   */\n      dup2\n        /* \"#utility.yul\":2829:2859   */\n      tag_61\n      jump\t// in\n    tag_118:\n        /* \"#utility.yul\":2818:2859   */\n      swap2\n      pop\n        /* \"#utility.yul\":3008:3009   */\n      dup3\n        /* \"#utility.yul\":2999:3006   */\n      dup3\n        /* \"#utility.yul\":2995:3010   */\n      div\n        /* \"#utility.yul\":2992:2993   */\n      dup5\n        /* \"#utility.yul\":2989:3011   */\n      eq\n        /* \"#utility.yul\":2969:2970   */\n      dup4\n        /* \"#utility.yul\":2962:2971   */\n      iszero\n        /* \"#utility.yul\":2942:3025   */\n      or\n        /* \"#utility.yul\":2919:3058   */\n      tag_119\n      jumpi\n        /* \"#utility.yul\":3038:3056   */\n      tag_120\n      tag_72\n      jump\t// in\n    tag_120:\n        /* \"#utility.yul\":2919:3058   */\n    tag_119:\n        /* \"#utility.yul\":2703:3065   */\n      pop\n        /* \"#utility.yul\":2655:3065   */\n      swap3\n      swap2\n      pop\n      pop\n      jump\t// out\n        /* \"#utility.yul\":3071:3251   */\n    tag_73:\n        /* \"#utility.yul\":3119:3196   */\n      0x4e487b7100000000000000000000000000000000000000000000000000000000\n        /* \"#utility.yul\":3116:3117   */\n      0x00\n        /* \"#utility.yul\":3109:3197   */\n      mstore\n        /* \"#utility.yul\":3216:3220   */\n      0x12\n        /* \"#utility.yul\":3213:3214   */\n      0x04\n        /* \"#utility.yul\":3206:3221   */\n      mstore\n        /* \"#utility.yul\":3240:3244   */\n      0x24\n        /* \"#utility.yul\":3237:3238   */\n      0x00\n        /* \"#utility.yul\":3230:3245   */\n      revert\n        /* \"#utility.yul\":3257:3442   */\n    tag_45:\n        /* \"#utility.yul\":3297:3298   */\n      0x00\n        /* \"#utility.yul\":3314:3334   */\n      tag_123\n        /* \"#utility.yul\":3332:3333   */\n      dup3\n        /* \"#utility.yul\":3314:3334   */\n      tag_61\n      jump\t// in\n    tag_123:\n        /* \"#utility.yul\":3309:3334   */\n      swap2\n      pop\n        /* \"#utility.yul\":3348:3368   */\n      tag_124\n        /* \"#utility.yul\":3366:3367   */\n      dup4\n        /* \"#utility.yul\":3348:3368   */\n      tag_61\n      jump\t// in\n    tag_124:\n        /* \"#utility.yul\":3343:3368   */\n      swap3\n      pop\n        /* \"#utility.yul\":3387:3388   */\n      dup3\n        /* \"#utility.yul\":3377:3412   */\n      tag_125\n      jumpi\n        /* \"#utility.yul\":3392:3410   */\n      tag_126\n      tag_73\n      jump\t// in\n    tag_126:\n        /* \"#utility.yul\":3377:3412   */\n    tag_125:\n        /* \"#utility.yul\":3434:3435   */\n      dup3\n        /* \"#utility.yul\":3431:3432   */\n      dup3\n        /* \"#utility.yul\":3427:3436   */\n      div\n        /* \"#utility.yul\":3422:3436   */\n      swap1\n      pop\n        /* \"#utility.yul\":3257:3442   */\n      swap3\n      swap2\n      pop\n      pop\n      jump\t// out\n        /* \"#utility.yul\":3448:3553   */\n    tag_74:\n        /* \"#utility.yul\":3484:3491   */\n      0x00\n        /* \"#utility.yul\":3524:3546   */\n      0xffffffffffffffffffff\n        /* \"#utility.yul\":3517:3522   */\n      dup3\n        /* \"#utility.yul\":3513:3547   */\n      and\n        /* \"#utility.yul\":3502:3547   */\n      swap1\n      pop\n        /* \"#utility.yul\":3448:3553   */\n      swap2\n      swap1\n      pop\n      jump\t// out\n        /* \"#utility.yul\":3559:3679   */\n    tag_75:\n        /* \"#utility.yul\":3631:3654   */\n      tag_129\n        /* \"#utility.yul\":3648:3653   */\n      dup2\n        /* \"#utility.yul\":3631:3654   */\n      tag_74\n      jump\t// in\n    tag_129:\n        /* \"#utility.yul\":3624:3629   */\n      dup2\n        /* \"#utility.yul\":3621:3655   */\n      eq\n        /* \"#utility.yul\":3611:3673   */\n      tag_130\n      jumpi\n        /* \"#utility.yul\":3669:3670   */\n      0x00\n        /* \"#utility.yul\":3666:3667   */\n      dup1\n        /* \"#utility.yul\":3659:3671   */\n      revert\n        /* \"#utility.yul\":3611:3673   */\n    tag_130:\n        /* \"#utility.yul\":3559:3679   */\n      pop\n      jump\t// out\n        /* \"#utility.yul\":3685:3826   */\n    tag_76:\n        /* \"#utility.yul\":3741:3746   */\n      0x00\n        /* \"#utility.yul\":3772:3778   */\n      dup2\n        /* \"#utility.yul\":3766:3779   */\n      mload\n        /* \"#utility.yul\":3757:3779   */\n      swap1\n      pop\n        /* \"#utility.yul\":3788:3820   */\n      tag_132\n        /* \"#utility.yul\":3814:3819   */\n      dup2\n        /* \"#utility.yul\":3788:3820   */\n      tag_75\n      jump\t// in\n    tag_132:\n        /* \"#utility.yul\":3685:3826   */\n      swap3\n      swap2\n      pop\n      pop\n      jump\t// out\n        /* \"#utility.yul\":3832:3908   */\n    tag_77:\n        /* \"#utility.yul\":3868:3875   */\n      0x00\n        /* \"#utility.yul\":3897:3902   */\n      dup2\n        /* \"#utility.yul\":3886:3902   */\n      swap1\n      pop\n        /* \"#utility.yul\":3832:3908   */\n      swap2\n      swap1\n      pop\n      jump\t// out\n        /* \"#utility.yul\":3914:4034   */\n    tag_78:\n        /* \"#utility.yul\":3986:4009   */\n      tag_135\n        /* \"#utility.yul\":4003:4008   */\n      dup2\n        /* \"#utility.yul\":3986:4009   */\n      tag_77\n      jump\t// in\n    tag_135:\n        /* \"#utility.yul\":3979:3984   */\n      dup2\n        /* \"#utility.yul\":3976:4010   */\n      eq\n        /* \"#utility.yul\":3966:4028   */\n      tag_136\n      jumpi\n        /* \"#utility.yul\":4024:4025   */\n      0x00\n        /* \"#utility.yul\":4021:4022   */\n      dup1\n        /* \"#utility.yul\":4014:4026   */\n      revert\n        /* \"#utility.yul\":3966:4028   */\n    tag_136:\n        /* \"#utility.yul\":3914:4034   */\n      pop\n      jump\t// out\n        /* \"#utility.yul\":4040:4181   */\n    tag_79:\n        /* \"#utility.yul\":4096:4101   */\n      0x00\n        /* \"#utility.yul\":4127:4133   */\n      dup2\n        /* \"#utility.yul\":4121:4134   */\n      mload\n        /* \"#utility.yul\":4112:4134   */\n      swap1\n      pop\n        /* \"#utility.yul\":4143:4175   */\n      tag_138\n        /* \"#utility.yul\":4169:4174   */\n      dup2\n        /* \"#utility.yul\":4143:4175   */\n      tag_78\n      jump\t// in\n    tag_138:\n        /* \"#utility.yul\":4040:4181   */\n      swap3\n      swap2\n      pop\n      pop\n      jump\t// out\n        /* \"#utility.yul\":4187:5158   */\n    tag_50:\n        /* \"#utility.yul\":4290:4296   */\n      0x00\n        /* \"#utility.yul\":4298:4304   */\n      dup1\n        /* \"#utility.yul\":4306:4312   */\n      0x00\n        /* \"#utility.yul\":4314:4320   */\n      dup1\n        /* \"#utility.yul\":4322:4328   */\n      0x00\n        /* \"#utility.yul\":4371:4374   */\n      0xa0\n        /* \"#utility.yul\":4359:4368   */\n      dup7\n        /* \"#utility.yul\":4350:4357   */\n      dup9\n        /* \"#utility.yul\":4346:4369   */\n      sub\n        /* \"#utility.yul\":4342:4375   */\n      slt\n        /* \"#utility.yul\":4339:4459   */\n      iszero\n      tag_140\n      jumpi\n        /* \"#utility.yul\":4378:4457   */\n      tag_141\n      tag_64\n      jump\t// in\n    tag_141:\n        /* \"#utility.yul\":4339:4459   */\n    tag_140:\n        /* \"#utility.yul\":4498:4499   */\n      0x00\n        /* \"#utility.yul\":4523:4586   */\n      tag_142\n        /* \"#utility.yul\":4578:4585   */\n      dup9\n        /* \"#utility.yul\":4569:4575   */\n      dup3\n        /* \"#utility.yul\":4558:4567   */\n      dup10\n        /* \"#utility.yul\":4554:4576   */\n      add\n        /* \"#utility.yul\":4523:4586   */\n      tag_76\n      jump\t// in\n    tag_142:\n        /* \"#utility.yul\":4513:4586   */\n      swap6\n      pop\n        /* \"#utility.yul\":4469:4596   */\n      pop\n        /* \"#utility.yul\":4635:4637   */\n      0x20\n        /* \"#utility.yul\":4661:4724   */\n      tag_143\n        /* \"#utility.yul\":4716:4723   */\n      dup9\n        /* \"#utility.yul\":4707:4713   */\n      dup3\n        /* \"#utility.yul\":4696:4705   */\n      dup10\n        /* \"#utility.yul\":4692:4714   */\n      add\n        /* \"#utility.yul\":4661:4724   */\n      tag_79\n      jump\t// in\n    tag_143:\n        /* \"#utility.yul\":4651:4724   */\n      swap5\n      pop\n        /* \"#utility.yul\":4606:4734   */\n      pop\n        /* \"#utility.yul\":4773:4775   */\n      0x40\n        /* \"#utility.yul\":4799:4863   */\n      tag_144\n        /* \"#utility.yul\":4855:4862   */\n      dup9\n        /* \"#utility.yul\":4846:4852   */\n      dup3\n        /* \"#utility.yul\":4835:4844   */\n      dup10\n        /* \"#utility.yul\":4831:4853   */\n      add\n        /* \"#utility.yul\":4799:4863   */\n      tag_71\n      jump\t// in\n    tag_144:\n        /* \"#utility.yul\":4789:4863   */\n      swap4\n      pop\n        /* \"#utility.yul\":4744:4873   */\n      pop\n        /* \"#utility.yul\":4912:4914   */\n      0x60\n        /* \"#utility.yul\":4938:5002   */\n      tag_145\n        /* \"#utility.yul\":4994:5001   */\n      dup9\n        /* \"#utility.yul\":4985:4991   */\n      dup3\n        /* \"#utility.yul\":4974:4983   */\n      dup10\n        /* \"#utility.yul\":4970:4992   */\n      add\n        /* \"#utility.yul\":4938:5002   */\n      tag_71\n      jump\t// in\n    tag_145:\n        /* \"#utility.yul\":4928:5002   */\n      swap3\n      pop\n        /* \"#utility.yul\":4883:5012   */\n      pop\n        /* \"#utility.yul\":5051:5054   */\n      0x80\n        /* \"#utility.yul\":5078:5141   */\n      tag_146\n        /* \"#utility.yul\":5133:5140   */\n      dup9\n        /* \"#utility.yul\":5124:5130   */\n      dup3\n        /* \"#utility.yul\":5113:5122   */\n      dup10\n        /* \"#utility.yul\":5109:5131   */\n      add\n        /* \"#utility.yul\":5078:5141   */\n      tag_76\n      jump\t// in\n    tag_146:\n        /* \"#utility.yul\":5068:5141   */\n      swap2\n      pop\n        /* \"#utility.yul\":5022:5151   */\n      pop\n        /* \"#utility.yul\":4187:5158   */\n      swap3\n      swap6\n      pop\n      swap3\n      swap6\n      swap1\n      swap4\n      pop\n      jump\t// out\n        /* \"#utility.yul\":5164:5720   */\n    tag_52:\n        /* \"#utility.yul\":5203:5210   */\n      0x00\n        /* \"#utility.yul\":5226:5245   */\n      tag_148\n        /* \"#utility.yul\":5243:5244   */\n      dup3\n        /* \"#utility.yul\":5226:5245   */\n      tag_77\n      jump\t// in\n    tag_148:\n        /* \"#utility.yul\":5221:5245   */\n      swap2\n      pop\n        /* \"#utility.yul\":5259:5278   */\n      tag_149\n        /* \"#utility.yul\":5276:5277   */\n      dup4\n        /* \"#utility.yul\":5259:5278   */\n      tag_77\n      jump\t// in\n    tag_149:\n        /* \"#utility.yul\":5254:5278   */\n      swap3\n      pop\n        /* \"#utility.yul\":5313:5314   */\n      dup3\n        /* \"#utility.yul\":5310:5311   */\n      dup3\n        /* \"#utility.yul\":5306:5315   */\n      mul\n        /* \"#utility.yul\":5335:5364   */\n      tag_150\n        /* \"#utility.yul\":5352:5363   */\n      dup2\n        /* \"#utility.yul\":5335:5364   */\n      tag_77\n      jump\t// in\n    tag_150:\n        /* \"#utility.yul\":5324:5364   */\n      swap2\n      pop\n        /* \"#utility.yul\":5422:5488   */\n      0x8000000000000000000000000000000000000000000000000000000000000000\n        /* \"#utility.yul\":5419:5420   */\n      dup5\n        /* \"#utility.yul\":5416:5489   */\n      eq\n        /* \"#utility.yul\":5412:5413   */\n      0x00\n        /* \"#utility.yul\":5409:5410   */\n      dup5\n        /* \"#utility.yul\":5405:5414   */\n      slt\n        /* \"#utility.yul\":5401:5490   */\n      and\n        /* \"#utility.yul\":5398:5513   */\n      iszero\n      tag_151\n      jumpi\n        /* \"#utility.yul\":5493:5511   */\n      tag_152\n      tag_72\n      jump\t// in\n    tag_152:\n        /* \"#utility.yul\":5398:5513   */\n    tag_151:\n        /* \"#utility.yul\":5663:5664   */\n      dup3\n        /* \"#utility.yul\":5654:5661   */\n      dup3\n        /* \"#utility.yul\":5649:5665   */\n      sdiv\n        /* \"#utility.yul\":5646:5647   */\n      dup5\n        /* \"#utility.yul\":5643:5666   */\n      eq\n        /* \"#utility.yul\":5623:5624   */\n      dup4\n        /* \"#utility.yul\":5616:5625   */\n      iszero\n        /* \"#utility.yul\":5596:5680   */\n      or\n        /* \"#utility.yul\":5573:5713   */\n      tag_153\n      jumpi\n        /* \"#utility.yul\":5693:5711   */\n      tag_154\n      tag_72\n      jump\t// in\n    tag_154:\n        /* \"#utility.yul\":5573:5713   */\n    tag_153:\n        /* \"#utility.yul\":5211:5720   */\n      pop\n        /* \"#utility.yul\":5164:5720   */\n      swap3\n      swap2\n      pop\n      pop\n      jump\t// out\n        /* \"#utility.yul\":5726:5895   */\n    tag_80:\n        /* \"#utility.yul\":5810:5821   */\n      0x00\n        /* \"#utility.yul\":5844:5850   */\n      dup3\n        /* \"#utility.yul\":5839:5842   */\n      dup3\n        /* \"#utility.yul\":5832:5851   */\n      mstore\n        /* \"#utility.yul\":5884:5888   */\n      0x20\n        /* \"#utility.yul\":5879:5882   */\n      dup3\n        /* \"#utility.yul\":5875:5889   */\n      add\n        /* \"#utility.yul\":5860:5889   */\n      swap1\n      pop\n        /* \"#utility.yul\":5726:5895   */\n      swap3\n      swap2\n      pop\n      pop\n      jump\t// out\n        /* \"#utility.yul\":5901:6075   */\n    tag_81:\n        /* \"#utility.yul\":6041:6067   */\n      0x4469646e27742073656e6420656e6f7567682066756e64730000000000000000\n        /* \"#utility.yul\":6037:6038   */\n      0x00\n        /* \"#utility.yul\":6029:6035   */\n      dup3\n        /* \"#utility.yul\":6025:6039   */\n      add\n        /* \"#utility.yul\":6018:6068   */\n      mstore\n        /* \"#utility.yul\":5901:6075   */\n      pop\n      jump\t// out\n        /* \"#utility.yul\":6081:6447   */\n    tag_82:\n        /* \"#utility.yul\":6223:6226   */\n      0x00\n        /* \"#utility.yul\":6244:6311   */\n      tag_158\n        /* \"#utility.yul\":6308:6310   */\n      0x18\n        /* \"#utility.yul\":6303:6306   */\n      dup4\n        /* \"#utility.yul\":6244:6311   */\n      tag_80\n      jump\t// in\n    tag_158:\n        /* \"#utility.yul\":6237:6311   */\n      swap2\n      pop\n        /* \"#utility.yul\":6320:6413   */\n      tag_159\n        /* \"#utility.yul\":6409:6412   */\n      dup3\n        /* \"#utility.yul\":6320:6413   */\n      tag_81\n      jump\t// in\n    tag_159:\n        /* \"#utility.yul\":6438:6440   */\n      0x20\n        /* \"#utility.yul\":6433:6436   */\n      dup3\n        /* \"#utility.yul\":6429:6441   */\n      add\n        /* \"#utility.yul\":6422:6441   */\n      swap1\n      pop\n        /* \"#utility.yul\":6081:6447   */\n      swap2\n      swap1\n      pop\n      jump\t// out\n        /* \"#utility.yul\":6453:6872   */\n    tag_57:\n        /* \"#utility.yul\":6619:6623   */\n      0x00\n        /* \"#utility.yul\":6657:6659   */\n      0x20\n        /* \"#utility.yul\":6646:6655   */\n      dup3\n        /* \"#utility.yul\":6642:6660   */\n      add\n        /* \"#utility.yul\":6634:6660   */\n      swap1\n      pop\n        /* \"#utility.yul\":6706:6715   */\n      dup2\n        /* \"#utility.yul\":6700:6704   */\n      dup2\n        /* \"#utility.yul\":6696:6716   */\n      sub\n        /* \"#utility.yul\":6692:6693   */\n      0x00\n        /* \"#utility.yul\":6681:6690   */\n      dup4\n        /* \"#utility.yul\":6677:6694   */\n      add\n        /* \"#utility.yul\":6670:6717   */\n      mstore\n        /* \"#utility.yul\":6734:6865   */\n      tag_161\n        /* \"#utility.yul\":6860:6864   */\n      dup2\n        /* \"#utility.yul\":6734:6865   */\n      tag_82\n      jump\t// in\n    tag_161:\n        /* \"#utility.yul\":6726:6865   */\n      swap1\n      pop\n        /* \"#utility.yul\":6453:6872   */\n      swap2\n      swap1\n      pop\n      jump\t// out\n\n    auxdata: 0xa26469706673582212202d688ab89c5400086a06d175215341a176b503e300e56343d1ebdb983719586764736f6c63430008110033\n}\n",
				"bytecode": {
					"linkReferences": {},
					"object": "60806040526802b5e3af16b188000060015534801561001d57600080fd5b506107e68061002d6000396000f3fe6080604052600436106100555760003560e01c80630d8e6e2c1461005a5780633430a88c146100855780636e5b6b28146100b057806398d5fdca146100ed578063b60d428814610118578063dc0d3dff14610122575b600080fd5b34801561006657600080fd5b5061006f61015f565b60405161007c91906103e0565b60405180910390f35b34801561009157600080fd5b5061009a6101ee565b6040516100a791906103e0565b60405180910390f35b3480156100bc57600080fd5b506100d760048036038101906100d2919061042c565b6101f4565b6040516100e491906103e0565b60405180910390f35b3480156100f957600080fd5b5061010261022e565b60405161010f91906103e0565b60405180910390f35b6101206102d7565b005b34801561012e57600080fd5b506101496004803603810190610144919061042c565b610388565b604051610156919061049a565b60405180910390f35b60008073d4a33860578de61dbabdc8bfdb98fd742fa7028e90508073ffffffffffffffffffffffffffffffffffffffff166354fd4d506040518163ffffffff1660e01b8152600401602060405180830381865afa1580156101c4573d6000803e3d6000fd5b505050506040513d601f19601f820116820180604052508101906101e891906104ca565b91505090565b60015481565b6000806101ff61022e565b90506000670de0b6b3a764000084836102189190610526565b6102229190610597565b90508092505050919050565b60008073d4a33860578de61dbabdc8bfdb98fd742fa7028e905060008173ffffffffffffffffffffffffffffffffffffffff1663feaf968c6040518163ffffffff1660e01b815260040160a060405180830381865afa158015610295573d6000803e3d6000fd5b505050506040513d601f19601f820116820180604052508101906102b99190610640565b5050509150506402540be400816102d091906106bb565b9250505090565b6001546102e3346101f4565b11610323576040517f08c379a000000000000000000000000000000000000000000000000000000000815260040161031a90610790565b60405180910390fd5b6000339080600181540180825580915050600190039060005260206000200160009091909190916101000a81548173ffffffffffffffffffffffffffffffffffffffff021916908373ffffffffffffffffffffffffffffffffffffffff160217905550565b6000818154811061039857600080fd5b906000526020600020016000915054906101000a900473ffffffffffffffffffffffffffffffffffffffff1681565b6000819050919050565b6103da816103c7565b82525050565b60006020820190506103f560008301846103d1565b92915050565b600080fd5b610409816103c7565b811461041457600080fd5b50565b60008135905061042681610400565b92915050565b600060208284031215610442576104416103fb565b5b600061045084828501610417565b91505092915050565b600073ffffffffffffffffffffffffffffffffffffffff82169050919050565b600061048482610459565b9050919050565b61049481610479565b82525050565b60006020820190506104af600083018461048b565b92915050565b6000815190506104c481610400565b92915050565b6000602082840312156104e0576104df6103fb565b5b60006104ee848285016104b5565b91505092915050565b7f4e487b7100000000000000000000000000000000000000000000000000000000600052601160045260246000fd5b6000610531826103c7565b915061053c836103c7565b925082820261054a816103c7565b91508282048414831517610561576105606104f7565b5b5092915050565b7f4e487b7100000000000000000000000000000000000000000000000000000000600052601260045260246000fd5b60006105a2826103c7565b91506105ad836103c7565b9250826105bd576105bc610568565b5b828204905092915050565b600069ffffffffffffffffffff82169050919050565b6105e7816105c8565b81146105f257600080fd5b50565b600081519050610604816105de565b92915050565b6000819050919050565b61061d8161060a565b811461062857600080fd5b50565b60008151905061063a81610614565b92915050565b600080600080600060a0868803121561065c5761065b6103fb565b5b600061066a888289016105f5565b955050602061067b8882890161062b565b945050604061068c888289016104b5565b935050606061069d888289016104b5565b92505060806106ae888289016105f5565b9150509295509295909350565b60006106c68261060a565b91506106d18361060a565b92508282026106df8161060a565b91507f80000000000000000000000000000000000000000000000000000000000000008414600084121615610717576107166104f7565b5b828205841483151761072c5761072b6104f7565b5b5092915050565b600082825260208201905092915050565b7f4469646e27742073656e6420656e6f7567682066756e64730000000000000000600082015250565b600061077a601883610733565b915061078582610744565b602082019050919050565b600060208201905081810360008301526107a98161076d565b905091905056fea26469706673582212202d688ab89c5400086a06d175215341a176b503e300e56343d1ebdb983719586764736f6c63430008110033",
					"opcodes": "PUSH1 0x80 PUSH1 0x40 MSTORE PUSH9 0x2B5E3AF16B1880000 PUSH1 0x1 SSTORE CALLVALUE DUP1 ISZERO PUSH2 0x1D JUMPI PUSH1 0x0 DUP1 REVERT JUMPDEST POP PUSH2 0x7E6 DUP1 PUSH2 0x2D PUSH1 0x0 CODECOPY PUSH1 0x0 RETURN INVALID PUSH1 0x80 PUSH1 0x40 MSTORE PUSH1 0x4 CALLDATASIZE LT PUSH2 0x55 JUMPI PUSH1 0x0 CALLDATALOAD PUSH1 0xE0 SHR DUP1 PUSH4 0xD8E6E2C EQ PUSH2 0x5A JUMPI DUP1 PUSH4 0x3430A88C EQ PUSH2 0x85 JUMPI DUP1 PUSH4 0x6E5B6B28 EQ PUSH2 0xB0 JUMPI DUP1 PUSH4 0x98D5FDCA EQ PUSH2 0xED JUMPI DUP1 PUSH4 0xB60D4288 EQ PUSH2 0x118 JUMPI DUP1 PUSH4 0xDC0D3DFF EQ PUSH2 0x122 JUMPI JUMPDEST PUSH1 0x0 DUP1 REVERT JUMPDEST CALLVALUE DUP1 ISZERO PUSH2 0x66 JUMPI PUSH1 0x0 DUP1 REVERT JUMPDEST POP PUSH2 0x6F PUSH2 0x15F JUMP JUMPDEST PUSH1 0x40 MLOAD PUSH2 0x7C SWAP2 SWAP1 PUSH2 0x3E0 JUMP JUMPDEST PUSH1 0x40 MLOAD DUP1 SWAP2 SUB SWAP1 RETURN JUMPDEST CALLVALUE DUP1 ISZERO PUSH2 0x91 JUMPI PUSH1 0x0 DUP1 REVERT JUMPDEST POP PUSH2 0x9A PUSH2 0x1EE JUMP JUMPDEST PUSH1 0x40 MLOAD PUSH2 0xA7 SWAP2 SWAP1 PUSH2 0x3E0 JUMP JUMPDEST PUSH1 0x40 MLOAD DUP1 SWAP2 SUB SWAP1 RETURN JUMPDEST CALLVALUE DUP1 ISZERO PUSH2 0xBC JUMPI PUSH1 0x0 DUP1 REVERT JUMPDEST POP PUSH2 0xD7 PUSH1 0x4 DUP1 CALLDATASIZE SUB DUP2 ADD SWAP1 PUSH2 0xD2 SWAP2 SWAP1 PUSH2 0x42C JUMP JUMPDEST PUSH2 0x1F4 JUMP JUMPDEST PUSH1 0x40 MLOAD PUSH2 0xE4 SWAP2 SWAP1 PUSH2 0x3E0 JUMP JUMPDEST PUSH1 0x40 MLOAD DUP1 SWAP2 SUB SWAP1 RETURN JUMPDEST CALLVALUE DUP1 ISZERO PUSH2 0xF9 JUMPI PUSH1 0x0 DUP1 REVERT JUMPDEST POP PUSH2 0x102 PUSH2 0x22E JUMP JUMPDEST PUSH1 0x40 MLOAD PUSH2 0x10F SWAP2 SWAP1 PUSH2 0x3E0 JUMP JUMPDEST PUSH1 0x40 MLOAD DUP1 SWAP2 SUB SWAP1 RETURN JUMPDEST PUSH2 0x120 PUSH2 0x2D7 JUMP JUMPDEST STOP JUMPDEST CALLVALUE DUP1 ISZERO PUSH2 0x12E JUMPI PUSH1 0x0 DUP1 REVERT JUMPDEST POP PUSH2 0x149 PUSH1 0x4 DUP1 CALLDATASIZE SUB DUP2 ADD SWAP1 PUSH2 0x144 SWAP2 SWAP1 PUSH2 0x42C JUMP JUMPDEST PUSH2 0x388 JUMP JUMPDEST PUSH1 0x40 MLOAD PUSH2 0x156 SWAP2 SWAP1 PUSH2 0x49A JUMP JUMPDEST PUSH1 0x40 MLOAD DUP1 SWAP2 SUB SWAP1 RETURN JUMPDEST PUSH1 0x0 DUP1 PUSH20 0xD4A33860578DE61DBABDC8BFDB98FD742FA7028E SWAP1 POP DUP1 PUSH20 0xFFFFFFFFFFFFFFFFFFFFFFFFFFFFFFFFFFFFFFFF AND PUSH4 0x54FD4D50 PUSH1 0x40 MLOAD DUP2 PUSH4 0xFFFFFFFF AND PUSH1 0xE0 SHL DUP2 MSTORE PUSH1 0x4 ADD PUSH1 0x20 PUSH1 0x40 MLOAD DUP1 DUP4 SUB DUP2 DUP7 GAS STATICCALL ISZERO DUP1 ISZERO PUSH2 0x1C4 JUMPI RETURNDATASIZE PUSH1 0x0 DUP1 RETURNDATACOPY RETURNDATASIZE PUSH1 0x0 REVERT JUMPDEST POP POP POP POP PUSH1 0x40 MLOAD RETURNDATASIZE PUSH1 0x1F NOT PUSH1 0x1F DUP3 ADD AND DUP3 ADD DUP1 PUSH1 0x40 MSTORE POP DUP2 ADD SWAP1 PUSH2 0x1E8 SWAP2 SWAP1 PUSH2 0x4CA JUMP JUMPDEST SWAP2 POP POP SWAP1 JUMP JUMPDEST PUSH1 0x1 SLOAD DUP2 JUMP JUMPDEST PUSH1 0x0 DUP1 PUSH2 0x1FF PUSH2 0x22E JUMP JUMPDEST SWAP1 POP PUSH1 0x0 PUSH8 0xDE0B6B3A7640000 DUP5 DUP4 PUSH2 0x218 SWAP2 SWAP1 PUSH2 0x526 JUMP JUMPDEST PUSH2 0x222 SWAP2 SWAP1 PUSH2 0x597 JUMP JUMPDEST SWAP1 POP DUP1 SWAP3 POP POP POP SWAP2 SWAP1 POP JUMP JUMPDEST PUSH1 0x0 DUP1 PUSH20 0xD4A33860578DE61DBABDC8BFDB98FD742FA7028E SWAP1 POP PUSH1 0x0 DUP2 PUSH20 0xFFFFFFFFFFFFFFFFFFFFFFFFFFFFFFFFFFFFFFFF AND PUSH4 0xFEAF968C PUSH1 0x40 MLOAD DUP2 PUSH4 0xFFFFFFFF AND PUSH1 0xE0 SHL DUP2 MSTORE PUSH1 0x4 ADD PUSH1 0xA0 PUSH1 0x40 MLOAD DUP1 DUP4 SUB DUP2 DUP7 GAS STATICCALL ISZERO DUP1 ISZERO PUSH2 0x295 JUMPI RETURNDATASIZE PUSH1 0x0 DUP1 RETURNDATACOPY RETURNDATASIZE PUSH1 0x0 REVERT JUMPDEST POP POP POP POP PUSH1 0x40 MLOAD RETURNDATASIZE PUSH1 0x1F NOT PUSH1 0x1F DUP3 ADD AND DUP3 ADD DUP1 PUSH1 0x40 MSTORE POP DUP2 ADD SWAP1 PUSH2 0x2B9 SWAP2 SWAP1 PUSH2 0x640 JUMP JUMPDEST POP POP POP SWAP2 POP POP PUSH5 0x2540BE400 DUP2 PUSH2 0x2D0 SWAP2 SWAP1 PUSH2 0x6BB JUMP JUMPDEST SWAP3 POP POP POP SWAP1 JUMP JUMPDEST PUSH1 0x1 SLOAD PUSH2 0x2E3 CALLVALUE PUSH2 0x1F4 JUMP JUMPDEST GT PUSH2 0x323 JUMPI PUSH1 0x40 MLOAD PUSH32 0x8C379A000000000000000000000000000000000000000000000000000000000 DUP2 MSTORE PUSH1 0x4 ADD PUSH2 0x31A SWAP1 PUSH2 0x790 JUMP JUMPDEST PUSH1 0x40 MLOAD DUP1 SWAP2 SUB SWAP1 REVERT JUMPDEST PUSH1 0x0 CALLER SWAP1 DUP1 PUSH1 0x1 DUP2 SLOAD ADD DUP1 DUP3 SSTORE DUP1 SWAP2 POP POP PUSH1 0x1 SWAP1 SUB SWAP1 PUSH1 0x0 MSTORE PUSH1 0x20 PUSH1 0x0 KECCAK256 ADD PUSH1 0x0 SWAP1 SWAP2 SWAP1 SWAP2 SWAP1 SWAP2 PUSH2 0x100 EXP DUP2 SLOAD DUP2 PUSH20 0xFFFFFFFFFFFFFFFFFFFFFFFFFFFFFFFFFFFFFFFF MUL NOT AND SWAP1 DUP4 PUSH20 0xFFFFFFFFFFFFFFFFFFFFFFFFFFFFFFFFFFFFFFFF AND MUL OR SWAP1 SSTORE POP JUMP JUMPDEST PUSH1 0x0 DUP2 DUP2 SLOAD DUP2 LT PUSH2 0x398 JUMPI PUSH1 0x0 DUP1 REVERT JUMPDEST SWAP1 PUSH1 0x0 MSTORE PUSH1 0x20 PUSH1 0x0 KECCAK256 ADD PUSH1 0x0 SWAP2 POP SLOAD SWAP1 PUSH2 0x100 EXP SWAP1 DIV PUSH20 0xFFFFFFFFFFFFFFFFFFFFFFFFFFFFFFFFFFFFFFFF AND DUP2 JUMP JUMPDEST PUSH1 0x0 DUP2 SWAP1 POP SWAP2 SWAP1 POP JUMP JUMPDEST PUSH2 0x3DA DUP2 PUSH2 0x3C7 JUMP JUMPDEST DUP3 MSTORE POP POP JUMP JUMPDEST PUSH1 0x0 PUSH1 0x20 DUP3 ADD SWAP1 POP PUSH2 0x3F5 PUSH1 0x0 DUP4 ADD DUP5 PUSH2 0x3D1 JUMP JUMPDEST SWAP3 SWAP2 POP POP JUMP JUMPDEST PUSH1 0x0 DUP1 REVERT JUMPDEST PUSH2 0x409 DUP2 PUSH2 0x3C7 JUMP JUMPDEST DUP2 EQ PUSH2 0x414 JUMPI PUSH1 0x0 DUP1 REVERT JUMPDEST POP JUMP JUMPDEST PUSH1 0x0 DUP2 CALLDATALOAD SWAP1 POP PUSH2 0x426 DUP2 PUSH2 0x400 JUMP JUMPDEST SWAP3 SWAP2 POP POP JUMP JUMPDEST PUSH1 0x0 PUSH1 0x20 DUP3 DUP5 SUB SLT ISZERO PUSH2 0x442 JUMPI PUSH2 0x441 PUSH2 0x3FB JUMP JUMPDEST JUMPDEST PUSH1 0x0 PUSH2 0x450 DUP5 DUP3 DUP6 ADD PUSH2 0x417 JUMP JUMPDEST SWAP2 POP POP SWAP3 SWAP2 POP POP JUMP JUMPDEST PUSH1 0x0 PUSH20 0xFFFFFFFFFFFFFFFFFFFFFFFFFFFFFFFFFFFFFFFF DUP3 AND SWAP1 POP SWAP2 SWAP1 POP JUMP JUMPDEST PUSH1 0x0 PUSH2 0x484 DUP3 PUSH2 0x459 JUMP JUMPDEST SWAP1 POP SWAP2 SWAP1 POP JUMP JUMPDEST PUSH2 0x494 DUP2 PUSH2 0x479 JUMP JUMPDEST DUP3 MSTORE POP POP JUMP JUMPDEST PUSH1 0x0 PUSH1 0x20 DUP3 ADD SWAP1 POP PUSH2 0x4AF PUSH1 0x0 DUP4 ADD DUP5 PUSH2 0x48B JUMP JUMPDEST SWAP3 SWAP2 POP POP JUMP JUMPDEST PUSH1 0x0 DUP2 MLOAD SWAP1 POP PUSH2 0x4C4 DUP2 PUSH2 0x400 JUMP JUMPDEST SWAP3 SWAP2 POP POP JUMP JUMPDEST PUSH1 0x0 PUSH1 0x20 DUP3 DUP5 SUB SLT ISZERO PUSH2 0x4E0 JUMPI PUSH2 0x4DF PUSH2 0x3FB JUMP JUMPDEST JUMPDEST PUSH1 0x0 PUSH2 0x4EE DUP5 DUP3 DUP6 ADD PUSH2 0x4B5 JUMP JUMPDEST SWAP2 POP POP SWAP3 SWAP2 POP POP JUMP JUMPDEST PUSH32 0x4E487B7100000000000000000000000000000000000000000000000000000000 PUSH1 0x0 MSTORE PUSH1 0x11 PUSH1 0x4 MSTORE PUSH1 0x24 PUSH1 0x0 REVERT JUMPDEST PUSH1 0x0 PUSH2 0x531 DUP3 PUSH2 0x3C7 JUMP JUMPDEST SWAP2 POP PUSH2 0x53C DUP4 PUSH2 0x3C7 JUMP JUMPDEST SWAP3 POP DUP3 DUP3 MUL PUSH2 0x54A DUP2 PUSH2 0x3C7 JUMP JUMPDEST SWAP2 POP DUP3 DUP3 DIV DUP5 EQ DUP4 ISZERO OR PUSH2 0x561 JUMPI PUSH2 0x560 PUSH2 0x4F7 JUMP JUMPDEST JUMPDEST POP SWAP3 SWAP2 POP POP JUMP JUMPDEST PUSH32 0x4E487B7100000000000000000000000000000000000000000000000000000000 PUSH1 0x0 MSTORE PUSH1 0x12 PUSH1 0x4 MSTORE PUSH1 0x24 PUSH1 0x0 REVERT JUMPDEST PUSH1 0x0 PUSH2 0x5A2 DUP3 PUSH2 0x3C7 JUMP JUMPDEST SWAP2 POP PUSH2 0x5AD DUP4 PUSH2 0x3C7 JUMP JUMPDEST SWAP3 POP DUP3 PUSH2 0x5BD JUMPI PUSH2 0x5BC PUSH2 0x568 JUMP JUMPDEST JUMPDEST DUP3 DUP3 DIV SWAP1 POP SWAP3 SWAP2 POP POP JUMP JUMPDEST PUSH1 0x0 PUSH10 0xFFFFFFFFFFFFFFFFFFFF DUP3 AND SWAP1 POP SWAP2 SWAP1 POP JUMP JUMPDEST PUSH2 0x5E7 DUP2 PUSH2 0x5C8 JUMP JUMPDEST DUP2 EQ PUSH2 0x5F2 JUMPI PUSH1 0x0 DUP1 REVERT JUMPDEST POP JUMP JUMPDEST PUSH1 0x0 DUP2 MLOAD SWAP1 POP PUSH2 0x604 DUP2 PUSH2 0x5DE JUMP JUMPDEST SWAP3 SWAP2 POP POP JUMP JUMPDEST PUSH1 0x0 DUP2 SWAP1 POP SWAP2 SWAP1 POP JUMP JUMPDEST PUSH2 0x61D DUP2 PUSH2 0x60A JUMP JUMPDEST DUP2 EQ PUSH2 0x628 JUMPI PUSH1 0x0 DUP1 REVERT JUMPDEST POP JUMP JUMPDEST PUSH1 0x0 DUP2 MLOAD SWAP1 POP PUSH2 0x63A DUP2 PUSH2 0x614 JUMP JUMPDEST SWAP3 SWAP2 POP POP JUMP JUMPDEST PUSH1 0x0 DUP1 PUSH1 0x0 DUP1 PUSH1 0x0 PUSH1 0xA0 DUP7 DUP9 SUB SLT ISZERO PUSH2 0x65C JUMPI PUSH2 0x65B PUSH2 0x3FB JUMP JUMPDEST JUMPDEST PUSH1 0x0 PUSH2 0x66A DUP9 DUP3 DUP10 ADD PUSH2 0x5F5 JUMP JUMPDEST SWAP6 POP POP PUSH1 0x20 PUSH2 0x67B DUP9 DUP3 DUP10 ADD PUSH2 0x62B JUMP JUMPDEST SWAP5 POP POP PUSH1 0x40 PUSH2 0x68C DUP9 DUP3 DUP10 ADD PUSH2 0x4B5 JUMP JUMPDEST SWAP4 POP POP PUSH1 0x60 PUSH2 0x69D DUP9 DUP3 DUP10 ADD PUSH2 0x4B5 JUMP JUMPDEST SWAP3 POP POP PUSH1 0x80 PUSH2 0x6AE DUP9 DUP3 DUP10 ADD PUSH2 0x5F5 JUMP JUMPDEST SWAP2 POP POP SWAP3 SWAP6 POP SWAP3 SWAP6 SWAP1 SWAP4 POP JUMP JUMPDEST PUSH1 0x0 PUSH2 0x6C6 DUP3 PUSH2 0x60A JUMP JUMPDEST SWAP2 POP PUSH2 0x6D1 DUP4 PUSH2 0x60A JUMP JUMPDEST SWAP3 POP DUP3 DUP3 MUL PUSH2 0x6DF DUP2 PUSH2 0x60A JUMP JUMPDEST SWAP2 POP PUSH32 0x8000000000000000000000000000000000000000000000000000000000000000 DUP5 EQ PUSH1 0x0 DUP5 SLT AND ISZERO PUSH2 0x717 JUMPI PUSH2 0x716 PUSH2 0x4F7 JUMP JUMPDEST JUMPDEST DUP3 DUP3 SDIV DUP5 EQ DUP4 ISZERO OR PUSH2 0x72C JUMPI PUSH2 0x72B PUSH2 0x4F7 JUMP JUMPDEST JUMPDEST POP SWAP3 SWAP2 POP POP JUMP JUMPDEST PUSH1 0x0 DUP3 DUP3 MSTORE PUSH1 0x20 DUP3 ADD SWAP1 POP SWAP3 SWAP2 POP POP JUMP JUMPDEST PUSH32 0x4469646E27742073656E6420656E6F7567682066756E64730000000000000000 PUSH1 0x0 DUP3 ADD MSTORE POP JUMP JUMPDEST PUSH1 0x0 PUSH2 0x77A PUSH1 0x18 DUP4 PUSH2 0x733 JUMP JUMPDEST SWAP2 POP PUSH2 0x785 DUP3 PUSH2 0x744 JUMP JUMPDEST PUSH1 0x20 DUP3 ADD SWAP1 POP SWAP2 SWAP1 POP JUMP JUMPDEST PUSH1 0x0 PUSH1 0x20 DUP3 ADD SWAP1 POP DUP2 DUP2 SUB PUSH1 0x0 DUP4 ADD MSTORE PUSH2 0x7A9 DUP2 PUSH2 0x76D JUMP JUMPDEST SWAP1 POP SWAP2 SWAP1 POP JUMP INVALID LOG2 PUSH5 0x6970667358 0x22 SLT KECCAK256 0x2D PUSH9 0x8AB89C5400086A06D1 PUSH22 0x215341A176B503E300E56343D1EBDB98371958676473 PUSH16 0x6C634300081100330000000000000000 "
				},
				"gasEstimates": {
					"creation": {
						"codeDepositCost": "404400",
						"executionCost": "22549",
						"totalCost": "426949"
					},
					"external": {
						"fund()": "infinite",
						"funders(uint256)": "5044",
						"getConversionRate(uint256)": "infinite",
						"getPrice()": "infinite",
						"getVersion()": "infinite",
						"minimumUSD()": "2429"
					}
				},
				"methodIdentifiers": {
					"fund()": "b60d4288",
					"funders(uint256)": "dc0d3dff",
					"getConversionRate(uint256)": "6e5b6b28",
					"getPrice()": "98d5fdca",
					"getVersion()": "0d8e6e2c",
					"minimumUSD()": "3430a88c"
				}
			},
			"storageLayout": {
				"storage": [
					{
						"astId": 51,
						"contract": "freecodecamp32Hrs_solidity/FundMe.sol:FundMe",
						"label": "funders",
						"offset": 0,
						"slot": "0",
						"type": "t_array(t_address)dyn_storage"
					},
					{
						"astId": 56,
						"contract": "freecodecamp32Hrs_solidity/FundMe.sol:FundMe",
						"label": "minimumUSD",
						"offset": 0,
						"slot": "1",
						"type": "t_uint256"
					}
				],
				"types": {
					"t_address": {
						"encoding": "inplace",
						"label": "address",
						"numberOfBytes": "20"
					},
					"t_array(t_address)dyn_storage": {
						"base": "t_address",
						"encoding": "dynamic_array",
						"label": "address[]",
						"numberOfBytes": "32"
					},
					"t_uint256": {
						"encoding": "inplace",
						"label": "uint256",
						"numberOfBytes": "32"
					}
				}
			},
			"userdoc": {
				"kind": "user",
				"methods": {},
				"version": 1
			}
		}
	}
}