{
	"freecodecamp32Hrs_solidity/FundMe.sol": {
		"FundMe": {
			"abi": [
				{
					"inputs": [
						{
							"internalType": "address",
							"name": "",
							"type": "address"
						}
					],
					"name": "addressToAmountFunded",
					"outputs": [
						{
							"internalType": "uint256",
							"name": "",
							"type": "uint256"
						}
					],
					"stateMutability": "view",
					"type": "function"
				},
				{
					"inputs": [],
					"name": "fund",
					"outputs": [],
					"stateMutability": "payable",
					"type": "function"
				},
				{
					"inputs": [
						{
							"internalType": "uint256",
							"name": "",
							"type": "uint256"
						}
					],
					"name": "funders",
					"outputs": [
						{
							"internalType": "address",
							"name": "",
							"type": "address"
						}
					],
					"stateMutability": "view",
					"type": "function"
				},
				{
					"inputs": [],
					"name": "minimumUSD",
					"outputs": [
						{
							"internalType": "uint256",
							"name": "",
							"type": "uint256"
						}
					],
					"stateMutability": "view",
					"type": "function"
				},
				{
					"inputs": [],
					"name": "withdraw",
					"outputs": [],
					"stateMutability": "nonpayable",
					"type": "function"
				}
			],
			"devdoc": {
				"kind": "dev",
				"methods": {},
				"version": 1
			},
			"evm": {
				"assembly": "    /* \"freecodecamp32Hrs_solidity/FundMe.sol\":248:1738  contract FundMe{... */\n  mstore(0x40, 0x80)\n    /* \"freecodecamp32Hrs_solidity/FundMe.sol\":431:440  50 * 1e18 */\n  0x02b5e3af16b1880000\n    /* \"freecodecamp32Hrs_solidity/FundMe.sol\":403:440  uint256 public minimumUSD = 50 * 1e18 */\n  0x02\n  sstore\n    /* \"freecodecamp32Hrs_solidity/FundMe.sol\":248:1738  contract FundMe{... */\n  callvalue\n  dup1\n  iszero\n  tag_1\n  jumpi\n  0x00\n  dup1\n  revert\ntag_1:\n  pop\n  dataSize(sub_0)\n  dup1\n  dataOffset(sub_0)\n  0x00\n  codecopy\n  0x00\n  return\nstop\n\nsub_0: assembly {\n        /* \"freecodecamp32Hrs_solidity/FundMe.sol\":248:1738  contract FundMe{... */\n      mstore(0x40, 0x80)\n      jumpi(tag_1, lt(calldatasize, 0x04))\n      shr(0xe0, calldataload(0x00))\n      dup1\n      0x3430a88c\n      eq\n      tag_2\n      jumpi\n      dup1\n      0x3ccfd60b\n      eq\n      tag_3\n      jumpi\n      dup1\n      0x3e47d6f3\n      eq\n      tag_4\n      jumpi\n      dup1\n      0xb60d4288\n      eq\n      tag_5\n      jumpi\n      dup1\n      0xdc0d3dff\n      eq\n      tag_6\n      jumpi\n    tag_1:\n      0x00\n      dup1\n      revert\n        /* \"freecodecamp32Hrs_solidity/FundMe.sol\":403:440  uint256 public minimumUSD = 50 * 1e18 */\n    tag_2:\n      callvalue\n      dup1\n      iszero\n      tag_7\n      jumpi\n      0x00\n      dup1\n      revert\n    tag_7:\n      pop\n      tag_8\n      tag_9\n      jump\t// in\n    tag_8:\n      mload(0x40)\n      tag_10\n      swap2\n      swap1\n      tag_11\n      jump\t// in\n    tag_10:\n      mload(0x40)\n      dup1\n      swap2\n      sub\n      swap1\n      return\n        /* \"freecodecamp32Hrs_solidity/FundMe.sol\":918:1735  function withdraw() public{... */\n    tag_3:\n      callvalue\n      dup1\n      iszero\n      tag_12\n      jumpi\n      0x00\n      dup1\n      revert\n    tag_12:\n      pop\n      tag_13\n      tag_14\n      jump\t// in\n    tag_13:\n      stop\n        /* \"freecodecamp32Hrs_solidity/FundMe.sol\":342:396  mapping(address=>uint256) public addressToAmountFunded */\n    tag_4:\n      callvalue\n      dup1\n      iszero\n      tag_15\n      jumpi\n      0x00\n      dup1\n      revert\n    tag_15:\n      pop\n      tag_16\n      0x04\n      dup1\n      calldatasize\n      sub\n      dup2\n      add\n      swap1\n      tag_17\n      swap2\n      swap1\n      tag_18\n      jump\t// in\n    tag_17:\n      tag_19\n      jump\t// in\n    tag_16:\n      mload(0x40)\n      tag_20\n      swap2\n      swap1\n      tag_11\n      jump\t// in\n    tag_20:\n      mload(0x40)\n      dup1\n      swap2\n      sub\n      swap1\n      return\n        /* \"freecodecamp32Hrs_solidity/FundMe.sol\":447:904  function fund() public payable{... */\n    tag_5:\n      tag_21\n      tag_22\n      jump\t// in\n    tag_21:\n      stop\n        /* \"freecodecamp32Hrs_solidity/FundMe.sol\":311:335  address[] public funders */\n    tag_6:\n      callvalue\n      dup1\n      iszero\n      tag_23\n      jumpi\n      0x00\n      dup1\n      revert\n    tag_23:\n      pop\n      tag_24\n      0x04\n      dup1\n      calldatasize\n      sub\n      dup2\n      add\n      swap1\n      tag_25\n      swap2\n      swap1\n      tag_26\n      jump\t// in\n    tag_25:\n      tag_27\n      jump\t// in\n    tag_24:\n      mload(0x40)\n      tag_28\n      swap2\n      swap1\n      tag_29\n      jump\t// in\n    tag_28:\n      mload(0x40)\n      dup1\n      swap2\n      sub\n      swap1\n      return\n        /* \"freecodecamp32Hrs_solidity/FundMe.sol\":403:440  uint256 public minimumUSD = 50 * 1e18 */\n    tag_9:\n      sload(0x02)\n      dup2\n      jump\t// out\n        /* \"freecodecamp32Hrs_solidity/FundMe.sol\":918:1735  function withdraw() public{... */\n    tag_14:\n        /* \"freecodecamp32Hrs_solidity/FundMe.sol\":963:982  uint256 funderIndex */\n      0x00\n        /* \"freecodecamp32Hrs_solidity/FundMe.sol\":959:1728  for(uint256 funderIndex=0;funderIndex<funders.length; funderIndex=funderIndex+1){... */\n    tag_31:\n        /* \"freecodecamp32Hrs_solidity/FundMe.sol\":997:1004  funders */\n      0x00\n        /* \"freecodecamp32Hrs_solidity/FundMe.sol\":997:1011  funders.length */\n      dup1\n      sload\n      swap1\n      pop\n        /* \"freecodecamp32Hrs_solidity/FundMe.sol\":985:996  funderIndex */\n      dup2\n        /* \"freecodecamp32Hrs_solidity/FundMe.sol\":985:1011  funderIndex<funders.length */\n      lt\n        /* \"freecodecamp32Hrs_solidity/FundMe.sol\":959:1728  for(uint256 funderIndex=0;funderIndex<funders.length; funderIndex=funderIndex+1){... */\n      iszero\n      tag_32\n      jumpi\n        /* \"freecodecamp32Hrs_solidity/FundMe.sol\":1058:1072  address funder */\n      0x00\n        /* \"freecodecamp32Hrs_solidity/FundMe.sol\":1073:1080  funders */\n      dup1\n        /* \"freecodecamp32Hrs_solidity/FundMe.sol\":1081:1092  funderIndex */\n      dup3\n        /* \"freecodecamp32Hrs_solidity/FundMe.sol\":1073:1093  funders[funderIndex] */\n      dup2\n      sload\n      dup2\n      lt\n      tag_34\n      jumpi\n      tag_35\n      tag_36\n      jump\t// in\n    tag_35:\n    tag_34:\n      swap1\n      0x00\n      mstore\n      keccak256(0x00, 0x20)\n      add\n      0x00\n      swap1\n      sload\n      swap1\n      0x0100\n      exp\n      swap1\n      div\n      0xffffffffffffffffffffffffffffffffffffffff\n      and\n        /* \"freecodecamp32Hrs_solidity/FundMe.sol\":1058:1093  address funder=funders[funderIndex] */\n      swap1\n      pop\n        /* \"freecodecamp32Hrs_solidity/FundMe.sol\":1142:1143  0 */\n      0x00\n        /* \"freecodecamp32Hrs_solidity/FundMe.sol\":1112:1133  addressToAmountFunded */\n      0x01\n        /* \"freecodecamp32Hrs_solidity/FundMe.sol\":1112:1141  addressToAmountFunded[funder] */\n      0x00\n        /* \"freecodecamp32Hrs_solidity/FundMe.sol\":1134:1140  funder */\n      dup4\n        /* \"freecodecamp32Hrs_solidity/FundMe.sol\":1112:1141  addressToAmountFunded[funder] */\n      0xffffffffffffffffffffffffffffffffffffffff\n      and\n      0xffffffffffffffffffffffffffffffffffffffff\n      and\n      dup2\n      mstore\n      0x20\n      add\n      swap1\n      dup2\n      mstore\n      0x20\n      add\n      0x00\n      keccak256\n        /* \"freecodecamp32Hrs_solidity/FundMe.sol\":1112:1143  addressToAmountFunded[funder]=0 */\n      dup2\n      swap1\n      sstore\n      pop\n        /* \"freecodecamp32Hrs_solidity/FundMe.sol\":1184:1185  0 */\n      0x00\n        /* \"freecodecamp32Hrs_solidity/FundMe.sol\":1170:1186  new address[](0) */\n      0xffffffffffffffff\n      dup2\n      gt\n      iszero\n      tag_38\n      jumpi\n      tag_39\n      tag_40\n      jump\t// in\n    tag_39:\n    tag_38:\n      mload(0x40)\n      swap1\n      dup1\n      dup3\n      mstore\n      dup1\n      0x20\n      mul\n      0x20\n      add\n      dup3\n      add\n      0x40\n      mstore\n      dup1\n      iszero\n      tag_41\n      jumpi\n      dup2\n      0x20\n      add\n      0x20\n      dup3\n      mul\n      dup1\n      calldatasize\n      dup4\n      calldatacopy\n      dup1\n      dup3\n      add\n      swap2\n      pop\n      pop\n      swap1\n      pop\n    tag_41:\n      pop\n        /* \"freecodecamp32Hrs_solidity/FundMe.sol\":1162:1169  funders */\n      0x00\n        /* \"freecodecamp32Hrs_solidity/FundMe.sol\":1162:1186  funders=new address[](0) */\n      swap1\n      dup1\n      mload\n      swap1\n      0x20\n      add\n      swap1\n      tag_42\n      swap3\n      swap2\n      swap1\n      tag_43\n      jump\t// in\n    tag_42:\n      pop\n        /* \"freecodecamp32Hrs_solidity/FundMe.sol\":1282:1292  msg.sender */\n      caller\n        /* \"freecodecamp32Hrs_solidity/FundMe.sol\":1274:1302  payable(msg.sender).transfer */\n      0xffffffffffffffffffffffffffffffffffffffff\n      and\n        /* \"freecodecamp32Hrs_solidity/FundMe.sol\":1274:1325  payable(msg.sender).transfer(address(this).balance) */\n      0x08fc\n        /* \"freecodecamp32Hrs_solidity/FundMe.sol\":1303:1324  address(this).balance */\n      selfbalance\n        /* \"freecodecamp32Hrs_solidity/FundMe.sol\":1274:1325  payable(msg.sender).transfer(address(this).balance) */\n      swap1\n      dup2\n      iszero\n      mul\n      swap1\n      mload(0x40)\n      0x00\n      mload(0x40)\n      dup1\n      dup4\n      sub\n      dup2\n      dup6\n      dup9\n      dup9\n      call\n      swap4\n      pop\n      pop\n      pop\n      pop\n      iszero\n      dup1\n      iszero\n      tag_45\n      jumpi\n      returndatasize\n      0x00\n      dup1\n      returndatacopy\n      revert(0x00, returndatasize)\n    tag_45:\n      pop\n        /* \"freecodecamp32Hrs_solidity/FundMe.sol\":1371:1387  bool sendSuccess */\n      0x00\n        /* \"freecodecamp32Hrs_solidity/FundMe.sol\":1399:1409  msg.sender */\n      caller\n        /* \"freecodecamp32Hrs_solidity/FundMe.sol\":1391:1415  payable(msg.sender).send */\n      0xffffffffffffffffffffffffffffffffffffffff\n      and\n        /* \"freecodecamp32Hrs_solidity/FundMe.sol\":1391:1438  payable(msg.sender).send(address(this).balance) */\n      0x08fc\n        /* \"freecodecamp32Hrs_solidity/FundMe.sol\":1416:1437  address(this).balance */\n      selfbalance\n        /* \"freecodecamp32Hrs_solidity/FundMe.sol\":1391:1438  payable(msg.sender).send(address(this).balance) */\n      swap1\n      dup2\n      iszero\n      mul\n      swap1\n      mload(0x40)\n      0x00\n      mload(0x40)\n      dup1\n      dup4\n      sub\n      dup2\n      dup6\n      dup9\n      dup9\n      call\n      swap4\n      pop\n      pop\n      pop\n      pop\n        /* \"freecodecamp32Hrs_solidity/FundMe.sol\":1371:1438  bool sendSuccess =  payable(msg.sender).send(address(this).balance) */\n      swap1\n      pop\n        /* \"freecodecamp32Hrs_solidity/FundMe.sol\":1465:1476  sendSuccess */\n      dup1\n        /* \"freecodecamp32Hrs_solidity/FundMe.sol\":1457:1491  require(sendSuccess,\"Send Failed\") */\n      tag_47\n      jumpi\n      mload(0x40)\n      0x08c379a000000000000000000000000000000000000000000000000000000000\n      dup2\n      mstore\n      0x04\n      add\n      tag_48\n      swap1\n      tag_49\n      jump\t// in\n    tag_48:\n      mload(0x40)\n      dup1\n      swap2\n      sub\n      swap1\n      revert\n    tag_47:\n        /* \"freecodecamp32Hrs_solidity/FundMe.sol\":1588:1604  bool callSuccess */\n      0x00\n        /* \"freecodecamp32Hrs_solidity/FundMe.sol\":1607:1632  bytes memory dataReturned */\n      dup1\n        /* \"freecodecamp32Hrs_solidity/FundMe.sol\":1642:1652  msg.sender */\n      caller\n        /* \"freecodecamp32Hrs_solidity/FundMe.sol\":1634:1658  payable(msg.sender).call */\n      0xffffffffffffffffffffffffffffffffffffffff\n      and\n        /* \"freecodecamp32Hrs_solidity/FundMe.sol\":1665:1686  address(this).balance */\n      selfbalance\n        /* \"freecodecamp32Hrs_solidity/FundMe.sol\":1634:1691  payable(msg.sender).call{value:address(this).balance}(\"\") */\n      mload(0x40)\n      tag_50\n      swap1\n      tag_51\n      jump\t// in\n    tag_50:\n      0x00\n      mload(0x40)\n      dup1\n      dup4\n      sub\n      dup2\n      dup6\n      dup8\n      gas\n      call\n      swap3\n      pop\n      pop\n      pop\n      returndatasize\n      dup1\n      0x00\n      dup2\n      eq\n      tag_54\n      jumpi\n      mload(0x40)\n      swap2\n      pop\n      and(add(returndatasize, 0x3f), not(0x1f))\n      dup3\n      add\n      0x40\n      mstore\n      returndatasize\n      dup3\n      mstore\n      returndatasize\n      0x00\n      0x20\n      dup5\n      add\n      returndatacopy\n      jump(tag_53)\n    tag_54:\n      0x60\n      swap2\n      pop\n    tag_53:\n      pop\n        /* \"freecodecamp32Hrs_solidity/FundMe.sol\":1587:1691  (bool callSuccess , bytes memory dataReturned)=payable(msg.sender).call{value:address(this).balance}(\"\") */\n      swap2\n      pop\n      swap2\n      pop\n        /* \"freecodecamp32Hrs_solidity/FundMe.sol\":1039:1728  {... */\n      pop\n      pop\n      pop\n      pop\n        /* \"freecodecamp32Hrs_solidity/FundMe.sol\":1037:1038  1 */\n      0x01\n        /* \"freecodecamp32Hrs_solidity/FundMe.sol\":1025:1036  funderIndex */\n      dup2\n        /* \"freecodecamp32Hrs_solidity/FundMe.sol\":1025:1038  funderIndex+1 */\n      tag_55\n      swap2\n      swap1\n      tag_56\n      jump\t// in\n    tag_55:\n        /* \"freecodecamp32Hrs_solidity/FundMe.sol\":1013:1038  funderIndex=funderIndex+1 */\n      swap1\n      pop\n        /* \"freecodecamp32Hrs_solidity/FundMe.sol\":959:1728  for(uint256 funderIndex=0;funderIndex<funders.length; funderIndex=funderIndex+1){... */\n      jump(tag_31)\n    tag_32:\n      pop\n        /* \"freecodecamp32Hrs_solidity/FundMe.sol\":918:1735  function withdraw() public{... */\n      jump\t// out\n        /* \"freecodecamp32Hrs_solidity/FundMe.sol\":342:396  mapping(address=>uint256) public addressToAmountFunded */\n    tag_19:\n      mstore(0x20, 0x01)\n      dup1\n      0x00\n      mstore\n      keccak256(0x00, 0x40)\n      0x00\n      swap2\n      pop\n      swap1\n      pop\n      sload\n      dup2\n      jump\t// out\n        /* \"freecodecamp32Hrs_solidity/FundMe.sol\":447:904  function fund() public payable{... */\n    tag_22:\n        /* \"freecodecamp32Hrs_solidity/FundMe.sol\":674:684  minimumUSD */\n      sload(0x02)\n        /* \"freecodecamp32Hrs_solidity/FundMe.sol\":642:671  msg.value.getConversionRate() */\n      tag_58\n        /* \"freecodecamp32Hrs_solidity/FundMe.sol\":642:651  msg.value */\n      callvalue\n        /* \"freecodecamp32Hrs_solidity/FundMe.sol\":642:669  msg.value.getConversionRate */\n      tag_59\n        /* \"freecodecamp32Hrs_solidity/FundMe.sol\":642:671  msg.value.getConversionRate() */\n      jump\t// in\n    tag_58:\n        /* \"freecodecamp32Hrs_solidity/FundMe.sol\":642:684  msg.value.getConversionRate() > minimumUSD */\n      gt\n        /* \"freecodecamp32Hrs_solidity/FundMe.sol\":634:713  require(msg.value.getConversionRate() > minimumUSD, \"Didn't send enough funds\") */\n      tag_60\n      jumpi\n      mload(0x40)\n      0x08c379a000000000000000000000000000000000000000000000000000000000\n      dup2\n      mstore\n      0x04\n      add\n      tag_61\n      swap1\n      tag_62\n      jump\t// in\n    tag_61:\n      mload(0x40)\n      dup1\n      swap2\n      sub\n      swap1\n      revert\n    tag_60:\n        /* \"freecodecamp32Hrs_solidity/FundMe.sol\":782:789  funders */\n      0x00\n        /* \"freecodecamp32Hrs_solidity/FundMe.sol\":795:805  msg.sender */\n      caller\n        /* \"freecodecamp32Hrs_solidity/FundMe.sol\":782:806  funders.push(msg.sender) */\n      swap1\n      dup1\n      0x01\n      dup2\n      sload\n      add\n      dup1\n      dup3\n      sstore\n      dup1\n      swap2\n      pop\n      pop\n      0x01\n      swap1\n      sub\n      swap1\n      0x00\n      mstore\n      keccak256(0x00, 0x20)\n      add\n      0x00\n      swap1\n      swap2\n      swap1\n      swap2\n      swap1\n      swap2\n      0x0100\n      exp\n      dup2\n      sload\n      dup2\n      0xffffffffffffffffffffffffffffffffffffffff\n      mul\n      not\n      and\n      swap1\n      dup4\n      0xffffffffffffffffffffffffffffffffffffffff\n      and\n      mul\n      or\n      swap1\n      sstore\n      pop\n        /* \"freecodecamp32Hrs_solidity/FundMe.sol\":863:884  addressToAmountFunded */\n      0x01\n        /* \"freecodecamp32Hrs_solidity/FundMe.sol\":863:896  addressToAmountFunded[msg.sender] */\n      0x00\n        /* \"freecodecamp32Hrs_solidity/FundMe.sol\":885:895  msg.sender */\n      caller\n        /* \"freecodecamp32Hrs_solidity/FundMe.sol\":863:896  addressToAmountFunded[msg.sender] */\n      0xffffffffffffffffffffffffffffffffffffffff\n      and\n      0xffffffffffffffffffffffffffffffffffffffff\n      and\n      dup2\n      mstore\n      0x20\n      add\n      swap1\n      dup2\n      mstore\n      0x20\n      add\n      0x00\n      keccak256\n      sload\n        /* \"freecodecamp32Hrs_solidity/FundMe.sol\":851:860  msg.value */\n      callvalue\n        /* \"freecodecamp32Hrs_solidity/FundMe.sol\":851:896  msg.value + addressToAmountFunded[msg.sender] */\n      tag_64\n      swap2\n      swap1\n      tag_56\n      jump\t// in\n    tag_64:\n        /* \"freecodecamp32Hrs_solidity/FundMe.sol\":817:838  addressToAmountFunded */\n      0x01\n        /* \"freecodecamp32Hrs_solidity/FundMe.sol\":817:850  addressToAmountFunded[msg.sender] */\n      0x00\n        /* \"freecodecamp32Hrs_solidity/FundMe.sol\":839:849  msg.sender */\n      caller\n        /* \"freecodecamp32Hrs_solidity/FundMe.sol\":817:850  addressToAmountFunded[msg.sender] */\n      0xffffffffffffffffffffffffffffffffffffffff\n      and\n      0xffffffffffffffffffffffffffffffffffffffff\n      and\n      dup2\n      mstore\n      0x20\n      add\n      swap1\n      dup2\n      mstore\n      0x20\n      add\n      0x00\n      keccak256\n        /* \"freecodecamp32Hrs_solidity/FundMe.sol\":817:896  addressToAmountFunded[msg.sender]=msg.value + addressToAmountFunded[msg.sender] */\n      dup2\n      swap1\n      sstore\n      pop\n        /* \"freecodecamp32Hrs_solidity/FundMe.sol\":447:904  function fund() public payable{... */\n      jump\t// out\n        /* \"freecodecamp32Hrs_solidity/FundMe.sol\":311:335  address[] public funders */\n    tag_27:\n      0x00\n      dup2\n      dup2\n      sload\n      dup2\n      lt\n      tag_65\n      jumpi\n      0x00\n      dup1\n      revert\n    tag_65:\n      swap1\n      0x00\n      mstore\n      keccak256(0x00, 0x20)\n      add\n      0x00\n      swap2\n      pop\n      sload\n      swap1\n      0x0100\n      exp\n      swap1\n      div\n      0xffffffffffffffffffffffffffffffffffffffff\n      and\n      dup2\n      jump\t// out\n        /* \"freecodecamp32Hrs_solidity/PriceConverter.sol\":681:905  function getConversionRate(uint256 ethAmmount) internal view returns(uint256) {... */\n    tag_59:\n        /* \"freecodecamp32Hrs_solidity/PriceConverter.sol\":750:757  uint256 */\n      0x00\n        /* \"freecodecamp32Hrs_solidity/PriceConverter.sol\":770:786  uint256 ethPrice */\n      dup1\n        /* \"freecodecamp32Hrs_solidity/PriceConverter.sol\":789:799  getPrice() */\n      tag_68\n        /* \"freecodecamp32Hrs_solidity/PriceConverter.sol\":789:797  getPrice */\n      tag_69\n        /* \"freecodecamp32Hrs_solidity/PriceConverter.sol\":789:799  getPrice() */\n      jump\t// in\n    tag_68:\n        /* \"freecodecamp32Hrs_solidity/PriceConverter.sol\":770:799  uint256 ethPrice = getPrice() */\n      swap1\n      pop\n        /* \"freecodecamp32Hrs_solidity/PriceConverter.sol\":810:833  uint256 ethAmmountInUSD */\n      0x00\n        /* \"freecodecamp32Hrs_solidity/PriceConverter.sol\":860:864  1e18 */\n      0x0de0b6b3a7640000\n        /* \"freecodecamp32Hrs_solidity/PriceConverter.sol\":846:856  ethAmmount */\n      dup5\n        /* \"freecodecamp32Hrs_solidity/PriceConverter.sol\":837:845  ethPrice */\n      dup4\n        /* \"freecodecamp32Hrs_solidity/PriceConverter.sol\":837:856  ethPrice*ethAmmount */\n      tag_70\n      swap2\n      swap1\n      tag_71\n      jump\t// in\n    tag_70:\n        /* \"freecodecamp32Hrs_solidity/PriceConverter.sol\":836:864  (ethPrice*ethAmmount) / 1e18 */\n      tag_72\n      swap2\n      swap1\n      tag_73\n      jump\t// in\n    tag_72:\n        /* \"freecodecamp32Hrs_solidity/PriceConverter.sol\":810:864  uint256 ethAmmountInUSD = (ethPrice*ethAmmount) / 1e18 */\n      swap1\n      pop\n        /* \"freecodecamp32Hrs_solidity/PriceConverter.sol\":882:897  ethAmmountInUSD */\n      dup1\n        /* \"freecodecamp32Hrs_solidity/PriceConverter.sol\":875:897  return ethAmmountInUSD */\n      swap3\n      pop\n      pop\n      pop\n        /* \"freecodecamp32Hrs_solidity/PriceConverter.sol\":681:905  function getConversionRate(uint256 ethAmmount) internal view returns(uint256) {... */\n      swap2\n      swap1\n      pop\n      jump\t// out\n        /* \"freecodecamp32Hrs_solidity/PriceConverter.sol\":166:673  function getPrice() internal view returns(uint256){... */\n    tag_69:\n        /* \"freecodecamp32Hrs_solidity/PriceConverter.sol\":208:215  uint256 */\n      0x00\n        /* \"freecodecamp32Hrs_solidity/PriceConverter.sol\":306:337  AggregatorV3Interface priceFeed */\n      dup1\n        /* \"freecodecamp32Hrs_solidity/PriceConverter.sol\":362:404  0xD4a33860578De61DBAbDc8BFdb98FD742fA7028e */\n      0xd4a33860578de61dbabdc8bfdb98fd742fa7028e\n        /* \"freecodecamp32Hrs_solidity/PriceConverter.sol\":306:405  AggregatorV3Interface priceFeed = AggregatorV3Interface(0xD4a33860578De61DBAbDc8BFdb98FD742fA7028e) */\n      swap1\n      pop\n        /* \"freecodecamp32Hrs_solidity/PriceConverter.sol\":464:476  int256 price */\n      0x00\n        /* \"freecodecamp32Hrs_solidity/PriceConverter.sol\":597:606  priceFeed */\n      dup2\n        /* \"freecodecamp32Hrs_solidity/PriceConverter.sol\":597:622  priceFeed.latestRoundData */\n      0xffffffffffffffffffffffffffffffffffffffff\n      and\n      0xfeaf968c\n        /* \"freecodecamp32Hrs_solidity/PriceConverter.sol\":597:624  priceFeed.latestRoundData() */\n      mload(0x40)\n      dup2\n      0xffffffff\n      and\n      0xe0\n      shl\n      dup2\n      mstore\n      0x04\n      add\n      0xa0\n      mload(0x40)\n      dup1\n      dup4\n      sub\n      dup2\n      dup7\n      gas\n      staticcall\n      iszero\n      dup1\n      iszero\n      tag_76\n      jumpi\n      returndatasize\n      0x00\n      dup1\n      returndatacopy\n      revert(0x00, returndatasize)\n    tag_76:\n      pop\n      pop\n      pop\n      pop\n      mload(0x40)\n      returndatasize\n      not(0x1f)\n      0x1f\n      dup3\n      add\n      and\n      dup3\n      add\n      dup1\n      0x40\n      mstore\n      pop\n      dup2\n      add\n      swap1\n      tag_77\n      swap2\n      swap1\n      tag_78\n      jump\t// in\n    tag_77:\n        /* \"freecodecamp32Hrs_solidity/PriceConverter.sol\":416:624  (... */\n      pop\n      pop\n      pop\n      swap2\n      pop\n      pop\n        /* \"freecodecamp32Hrs_solidity/PriceConverter.sol\":660:664  1e10 */\n      0x02540be400\n        /* \"freecodecamp32Hrs_solidity/PriceConverter.sol\":652:657  price */\n      dup2\n        /* \"freecodecamp32Hrs_solidity/PriceConverter.sol\":652:664  price * 1e10 */\n      tag_79\n      swap2\n      swap1\n      tag_80\n      jump\t// in\n    tag_79:\n        /* \"freecodecamp32Hrs_solidity/PriceConverter.sol\":637:665  return uint256(price * 1e10) */\n      swap3\n      pop\n      pop\n      pop\n        /* \"freecodecamp32Hrs_solidity/PriceConverter.sol\":166:673  function getPrice() internal view returns(uint256){... */\n      swap1\n      jump\t// out\n    tag_43:\n      dup3\n      dup1\n      sload\n      dup3\n      dup3\n      sstore\n      swap1\n      0x00\n      mstore\n      keccak256(0x00, 0x20)\n      swap1\n      dup2\n      add\n      swap3\n      dup3\n      iszero\n      tag_81\n      jumpi\n      swap2\n      0x20\n      mul\n      dup3\n      add\n    tag_82:\n      dup3\n      dup2\n      gt\n      iszero\n      tag_83\n      jumpi\n      dup3\n      mload\n      dup3\n      exp(0x0100, 0x00)\n      dup2\n      sload\n      dup2\n      0xffffffffffffffffffffffffffffffffffffffff\n      mul\n      not\n      and\n      swap1\n      dup4\n      0xffffffffffffffffffffffffffffffffffffffff\n      and\n      mul\n      or\n      swap1\n      sstore\n      pop\n      swap2\n      0x20\n      add\n      swap2\n      swap1\n      0x01\n      add\n      swap1\n      jump(tag_82)\n    tag_83:\n    tag_81:\n      pop\n      swap1\n      pop\n      tag_84\n      swap2\n      swap1\n      tag_85\n      jump\t// in\n    tag_84:\n      pop\n      swap1\n      jump\t// out\n    tag_85:\n    tag_86:\n      dup1\n      dup3\n      gt\n      iszero\n      tag_87\n      jumpi\n      0x00\n      dup2\n      0x00\n      swap1\n      sstore\n      pop\n      0x01\n      add\n      jump(tag_86)\n    tag_87:\n      pop\n      swap1\n      jump\t// out\n        /* \"#utility.yul\":7:84   */\n    tag_88:\n        /* \"#utility.yul\":44:51   */\n      0x00\n        /* \"#utility.yul\":73:78   */\n      dup2\n        /* \"#utility.yul\":62:78   */\n      swap1\n      pop\n        /* \"#utility.yul\":7:84   */\n      swap2\n      swap1\n      pop\n      jump\t// out\n        /* \"#utility.yul\":90:208   */\n    tag_89:\n        /* \"#utility.yul\":177:201   */\n      tag_120\n        /* \"#utility.yul\":195:200   */\n      dup2\n        /* \"#utility.yul\":177:201   */\n      tag_88\n      jump\t// in\n    tag_120:\n        /* \"#utility.yul\":172:175   */\n      dup3\n        /* \"#utility.yul\":165:202   */\n      mstore\n        /* \"#utility.yul\":90:208   */\n      pop\n      pop\n      jump\t// out\n        /* \"#utility.yul\":214:436   */\n    tag_11:\n        /* \"#utility.yul\":307:311   */\n      0x00\n        /* \"#utility.yul\":345:347   */\n      0x20\n        /* \"#utility.yul\":334:343   */\n      dup3\n        /* \"#utility.yul\":330:348   */\n      add\n        /* \"#utility.yul\":322:348   */\n      swap1\n      pop\n        /* \"#utility.yul\":358:429   */\n      tag_122\n        /* \"#utility.yul\":426:427   */\n      0x00\n        /* \"#utility.yul\":415:424   */\n      dup4\n        /* \"#utility.yul\":411:428   */\n      add\n        /* \"#utility.yul\":402:408   */\n      dup5\n        /* \"#utility.yul\":358:429   */\n      tag_89\n      jump\t// in\n    tag_122:\n        /* \"#utility.yul\":214:436   */\n      swap3\n      swap2\n      pop\n      pop\n      jump\t// out\n        /* \"#utility.yul\":523:640   */\n    tag_91:\n        /* \"#utility.yul\":632:633   */\n      0x00\n        /* \"#utility.yul\":629:630   */\n      dup1\n        /* \"#utility.yul\":622:634   */\n      revert\n        /* \"#utility.yul\":769:895   */\n    tag_93:\n        /* \"#utility.yul\":806:813   */\n      0x00\n        /* \"#utility.yul\":846:888   */\n      0xffffffffffffffffffffffffffffffffffffffff\n        /* \"#utility.yul\":839:844   */\n      dup3\n        /* \"#utility.yul\":835:889   */\n      and\n        /* \"#utility.yul\":824:889   */\n      swap1\n      pop\n        /* \"#utility.yul\":769:895   */\n      swap2\n      swap1\n      pop\n      jump\t// out\n        /* \"#utility.yul\":901:997   */\n    tag_94:\n        /* \"#utility.yul\":938:945   */\n      0x00\n        /* \"#utility.yul\":967:991   */\n      tag_128\n        /* \"#utility.yul\":985:990   */\n      dup3\n        /* \"#utility.yul\":967:991   */\n      tag_93\n      jump\t// in\n    tag_128:\n        /* \"#utility.yul\":956:991   */\n      swap1\n      pop\n        /* \"#utility.yul\":901:997   */\n      swap2\n      swap1\n      pop\n      jump\t// out\n        /* \"#utility.yul\":1003:1125   */\n    tag_95:\n        /* \"#utility.yul\":1076:1100   */\n      tag_130\n        /* \"#utility.yul\":1094:1099   */\n      dup2\n        /* \"#utility.yul\":1076:1100   */\n      tag_94\n      jump\t// in\n    tag_130:\n        /* \"#utility.yul\":1069:1074   */\n      dup2\n        /* \"#utility.yul\":1066:1101   */\n      eq\n        /* \"#utility.yul\":1056:1119   */\n      tag_131\n      jumpi\n        /* \"#utility.yul\":1115:1116   */\n      0x00\n        /* \"#utility.yul\":1112:1113   */\n      dup1\n        /* \"#utility.yul\":1105:1117   */\n      revert\n        /* \"#utility.yul\":1056:1119   */\n    tag_131:\n        /* \"#utility.yul\":1003:1125   */\n      pop\n      jump\t// out\n        /* \"#utility.yul\":1131:1270   */\n    tag_96:\n        /* \"#utility.yul\":1177:1182   */\n      0x00\n        /* \"#utility.yul\":1215:1221   */\n      dup2\n        /* \"#utility.yul\":1202:1222   */\n      calldataload\n        /* \"#utility.yul\":1193:1222   */\n      swap1\n      pop\n        /* \"#utility.yul\":1231:1264   */\n      tag_133\n        /* \"#utility.yul\":1258:1263   */\n      dup2\n        /* \"#utility.yul\":1231:1264   */\n      tag_95\n      jump\t// in\n    tag_133:\n        /* \"#utility.yul\":1131:1270   */\n      swap3\n      swap2\n      pop\n      pop\n      jump\t// out\n        /* \"#utility.yul\":1276:1605   */\n    tag_18:\n        /* \"#utility.yul\":1335:1341   */\n      0x00\n        /* \"#utility.yul\":1384:1386   */\n      0x20\n        /* \"#utility.yul\":1372:1381   */\n      dup3\n        /* \"#utility.yul\":1363:1370   */\n      dup5\n        /* \"#utility.yul\":1359:1382   */\n      sub\n        /* \"#utility.yul\":1355:1387   */\n      slt\n        /* \"#utility.yul\":1352:1471   */\n      iszero\n      tag_135\n      jumpi\n        /* \"#utility.yul\":1390:1469   */\n      tag_136\n      tag_91\n      jump\t// in\n    tag_136:\n        /* \"#utility.yul\":1352:1471   */\n    tag_135:\n        /* \"#utility.yul\":1510:1511   */\n      0x00\n        /* \"#utility.yul\":1535:1588   */\n      tag_137\n        /* \"#utility.yul\":1580:1587   */\n      dup5\n        /* \"#utility.yul\":1571:1577   */\n      dup3\n        /* \"#utility.yul\":1560:1569   */\n      dup6\n        /* \"#utility.yul\":1556:1578   */\n      add\n        /* \"#utility.yul\":1535:1588   */\n      tag_96\n      jump\t// in\n    tag_137:\n        /* \"#utility.yul\":1525:1588   */\n      swap2\n      pop\n        /* \"#utility.yul\":1481:1598   */\n      pop\n        /* \"#utility.yul\":1276:1605   */\n      swap3\n      swap2\n      pop\n      pop\n      jump\t// out\n        /* \"#utility.yul\":1611:1733   */\n    tag_97:\n        /* \"#utility.yul\":1684:1708   */\n      tag_139\n        /* \"#utility.yul\":1702:1707   */\n      dup2\n        /* \"#utility.yul\":1684:1708   */\n      tag_88\n      jump\t// in\n    tag_139:\n        /* \"#utility.yul\":1677:1682   */\n      dup2\n        /* \"#utility.yul\":1674:1709   */\n      eq\n        /* \"#utility.yul\":1664:1727   */\n      tag_140\n      jumpi\n        /* \"#utility.yul\":1723:1724   */\n      0x00\n        /* \"#utility.yul\":1720:1721   */\n      dup1\n        /* \"#utility.yul\":1713:1725   */\n      revert\n        /* \"#utility.yul\":1664:1727   */\n    tag_140:\n        /* \"#utility.yul\":1611:1733   */\n      pop\n      jump\t// out\n        /* \"#utility.yul\":1739:1878   */\n    tag_98:\n        /* \"#utility.yul\":1785:1790   */\n      0x00\n        /* \"#utility.yul\":1823:1829   */\n      dup2\n        /* \"#utility.yul\":1810:1830   */\n      calldataload\n        /* \"#utility.yul\":1801:1830   */\n      swap1\n      pop\n        /* \"#utility.yul\":1839:1872   */\n      tag_142\n        /* \"#utility.yul\":1866:1871   */\n      dup2\n        /* \"#utility.yul\":1839:1872   */\n      tag_97\n      jump\t// in\n    tag_142:\n        /* \"#utility.yul\":1739:1878   */\n      swap3\n      swap2\n      pop\n      pop\n      jump\t// out\n        /* \"#utility.yul\":1884:2213   */\n    tag_26:\n        /* \"#utility.yul\":1943:1949   */\n      0x00\n        /* \"#utility.yul\":1992:1994   */\n      0x20\n        /* \"#utility.yul\":1980:1989   */\n      dup3\n        /* \"#utility.yul\":1971:1978   */\n      dup5\n        /* \"#utility.yul\":1967:1990   */\n      sub\n        /* \"#utility.yul\":1963:1995   */\n      slt\n        /* \"#utility.yul\":1960:2079   */\n      iszero\n      tag_144\n      jumpi\n        /* \"#utility.yul\":1998:2077   */\n      tag_145\n      tag_91\n      jump\t// in\n    tag_145:\n        /* \"#utility.yul\":1960:2079   */\n    tag_144:\n        /* \"#utility.yul\":2118:2119   */\n      0x00\n        /* \"#utility.yul\":2143:2196   */\n      tag_146\n        /* \"#utility.yul\":2188:2195   */\n      dup5\n        /* \"#utility.yul\":2179:2185   */\n      dup3\n        /* \"#utility.yul\":2168:2177   */\n      dup6\n        /* \"#utility.yul\":2164:2186   */\n      add\n        /* \"#utility.yul\":2143:2196   */\n      tag_98\n      jump\t// in\n    tag_146:\n        /* \"#utility.yul\":2133:2196   */\n      swap2\n      pop\n        /* \"#utility.yul\":2089:2206   */\n      pop\n        /* \"#utility.yul\":1884:2213   */\n      swap3\n      swap2\n      pop\n      pop\n      jump\t// out\n        /* \"#utility.yul\":2219:2337   */\n    tag_99:\n        /* \"#utility.yul\":2306:2330   */\n      tag_148\n        /* \"#utility.yul\":2324:2329   */\n      dup2\n        /* \"#utility.yul\":2306:2330   */\n      tag_94\n      jump\t// in\n    tag_148:\n        /* \"#utility.yul\":2301:2304   */\n      dup3\n        /* \"#utility.yul\":2294:2331   */\n      mstore\n        /* \"#utility.yul\":2219:2337   */\n      pop\n      pop\n      jump\t// out\n        /* \"#utility.yul\":2343:2565   */\n    tag_29:\n        /* \"#utility.yul\":2436:2440   */\n      0x00\n        /* \"#utility.yul\":2474:2476   */\n      0x20\n        /* \"#utility.yul\":2463:2472   */\n      dup3\n        /* \"#utility.yul\":2459:2477   */\n      add\n        /* \"#utility.yul\":2451:2477   */\n      swap1\n      pop\n        /* \"#utility.yul\":2487:2558   */\n      tag_150\n        /* \"#utility.yul\":2555:2556   */\n      0x00\n        /* \"#utility.yul\":2544:2553   */\n      dup4\n        /* \"#utility.yul\":2540:2557   */\n      add\n        /* \"#utility.yul\":2531:2537   */\n      dup5\n        /* \"#utility.yul\":2487:2558   */\n      tag_99\n      jump\t// in\n    tag_150:\n        /* \"#utility.yul\":2343:2565   */\n      swap3\n      swap2\n      pop\n      pop\n      jump\t// out\n        /* \"#utility.yul\":2571:2751   */\n    tag_36:\n        /* \"#utility.yul\":2619:2696   */\n      0x4e487b7100000000000000000000000000000000000000000000000000000000\n        /* \"#utility.yul\":2616:2617   */\n      0x00\n        /* \"#utility.yul\":2609:2697   */\n      mstore\n        /* \"#utility.yul\":2716:2720   */\n      0x32\n        /* \"#utility.yul\":2713:2714   */\n      0x04\n        /* \"#utility.yul\":2706:2721   */\n      mstore\n        /* \"#utility.yul\":2740:2744   */\n      0x24\n        /* \"#utility.yul\":2737:2738   */\n      0x00\n        /* \"#utility.yul\":2730:2745   */\n      revert\n        /* \"#utility.yul\":2757:2937   */\n    tag_40:\n        /* \"#utility.yul\":2805:2882   */\n      0x4e487b7100000000000000000000000000000000000000000000000000000000\n        /* \"#utility.yul\":2802:2803   */\n      0x00\n        /* \"#utility.yul\":2795:2883   */\n      mstore\n        /* \"#utility.yul\":2902:2906   */\n      0x41\n        /* \"#utility.yul\":2899:2900   */\n      0x04\n        /* \"#utility.yul\":2892:2907   */\n      mstore\n        /* \"#utility.yul\":2926:2930   */\n      0x24\n        /* \"#utility.yul\":2923:2924   */\n      0x00\n        /* \"#utility.yul\":2916:2931   */\n      revert\n        /* \"#utility.yul\":2943:3112   */\n    tag_100:\n        /* \"#utility.yul\":3027:3038   */\n      0x00\n        /* \"#utility.yul\":3061:3067   */\n      dup3\n        /* \"#utility.yul\":3056:3059   */\n      dup3\n        /* \"#utility.yul\":3049:3068   */\n      mstore\n        /* \"#utility.yul\":3101:3105   */\n      0x20\n        /* \"#utility.yul\":3096:3099   */\n      dup3\n        /* \"#utility.yul\":3092:3106   */\n      add\n        /* \"#utility.yul\":3077:3106   */\n      swap1\n      pop\n        /* \"#utility.yul\":2943:3112   */\n      swap3\n      swap2\n      pop\n      pop\n      jump\t// out\n        /* \"#utility.yul\":3118:3279   */\n    tag_101:\n        /* \"#utility.yul\":3258:3271   */\n      0x53656e64204661696c6564000000000000000000000000000000000000000000\n        /* \"#utility.yul\":3254:3255   */\n      0x00\n        /* \"#utility.yul\":3246:3252   */\n      dup3\n        /* \"#utility.yul\":3242:3256   */\n      add\n        /* \"#utility.yul\":3235:3272   */\n      mstore\n        /* \"#utility.yul\":3118:3279   */\n      pop\n      jump\t// out\n        /* \"#utility.yul\":3285:3651   */\n    tag_102:\n        /* \"#utility.yul\":3427:3430   */\n      0x00\n        /* \"#utility.yul\":3448:3515   */\n      tag_156\n        /* \"#utility.yul\":3512:3514   */\n      0x0b\n        /* \"#utility.yul\":3507:3510   */\n      dup4\n        /* \"#utility.yul\":3448:3515   */\n      tag_100\n      jump\t// in\n    tag_156:\n        /* \"#utility.yul\":3441:3515   */\n      swap2\n      pop\n        /* \"#utility.yul\":3524:3617   */\n      tag_157\n        /* \"#utility.yul\":3613:3616   */\n      dup3\n        /* \"#utility.yul\":3524:3617   */\n      tag_101\n      jump\t// in\n    tag_157:\n        /* \"#utility.yul\":3642:3644   */\n      0x20\n        /* \"#utility.yul\":3637:3640   */\n      dup3\n        /* \"#utility.yul\":3633:3645   */\n      add\n        /* \"#utility.yul\":3626:3645   */\n      swap1\n      pop\n        /* \"#utility.yul\":3285:3651   */\n      swap2\n      swap1\n      pop\n      jump\t// out\n        /* \"#utility.yul\":3657:4076   */\n    tag_49:\n        /* \"#utility.yul\":3823:3827   */\n      0x00\n        /* \"#utility.yul\":3861:3863   */\n      0x20\n        /* \"#utility.yul\":3850:3859   */\n      dup3\n        /* \"#utility.yul\":3846:3864   */\n      add\n        /* \"#utility.yul\":3838:3864   */\n      swap1\n      pop\n        /* \"#utility.yul\":3910:3919   */\n      dup2\n        /* \"#utility.yul\":3904:3908   */\n      dup2\n        /* \"#utility.yul\":3900:3920   */\n      sub\n        /* \"#utility.yul\":3896:3897   */\n      0x00\n        /* \"#utility.yul\":3885:3894   */\n      dup4\n        /* \"#utility.yul\":3881:3898   */\n      add\n        /* \"#utility.yul\":3874:3921   */\n      mstore\n        /* \"#utility.yul\":3938:4069   */\n      tag_159\n        /* \"#utility.yul\":4064:4068   */\n      dup2\n        /* \"#utility.yul\":3938:4069   */\n      tag_102\n      jump\t// in\n    tag_159:\n        /* \"#utility.yul\":3930:4069   */\n      swap1\n      pop\n        /* \"#utility.yul\":3657:4076   */\n      swap2\n      swap1\n      pop\n      jump\t// out\n        /* \"#utility.yul\":4082:4229   */\n    tag_103:\n        /* \"#utility.yul\":4183:4194   */\n      0x00\n        /* \"#utility.yul\":4220:4223   */\n      dup2\n        /* \"#utility.yul\":4205:4223   */\n      swap1\n      pop\n        /* \"#utility.yul\":4082:4229   */\n      swap3\n      swap2\n      pop\n      pop\n      jump\t// out\n        /* \"#utility.yul\":4235:4349   */\n    tag_104:\n      pop\n      jump\t// out\n        /* \"#utility.yul\":4355:4753   */\n    tag_105:\n        /* \"#utility.yul\":4514:4517   */\n      0x00\n        /* \"#utility.yul\":4535:4618   */\n      tag_163\n        /* \"#utility.yul\":4616:4617   */\n      0x00\n        /* \"#utility.yul\":4611:4614   */\n      dup4\n        /* \"#utility.yul\":4535:4618   */\n      tag_103\n      jump\t// in\n    tag_163:\n        /* \"#utility.yul\":4528:4618   */\n      swap2\n      pop\n        /* \"#utility.yul\":4627:4720   */\n      tag_164\n        /* \"#utility.yul\":4716:4719   */\n      dup3\n        /* \"#utility.yul\":4627:4720   */\n      tag_104\n      jump\t// in\n    tag_164:\n        /* \"#utility.yul\":4745:4746   */\n      0x00\n        /* \"#utility.yul\":4740:4743   */\n      dup3\n        /* \"#utility.yul\":4736:4747   */\n      add\n        /* \"#utility.yul\":4729:4747   */\n      swap1\n      pop\n        /* \"#utility.yul\":4355:4753   */\n      swap2\n      swap1\n      pop\n      jump\t// out\n        /* \"#utility.yul\":4759:5138   */\n    tag_51:\n        /* \"#utility.yul\":4943:4946   */\n      0x00\n        /* \"#utility.yul\":4965:5112   */\n      tag_166\n        /* \"#utility.yul\":5108:5111   */\n      dup3\n        /* \"#utility.yul\":4965:5112   */\n      tag_105\n      jump\t// in\n    tag_166:\n        /* \"#utility.yul\":4958:5112   */\n      swap2\n      pop\n        /* \"#utility.yul\":5129:5132   */\n      dup2\n        /* \"#utility.yul\":5122:5132   */\n      swap1\n      pop\n        /* \"#utility.yul\":4759:5138   */\n      swap2\n      swap1\n      pop\n      jump\t// out\n        /* \"#utility.yul\":5144:5324   */\n    tag_106:\n        /* \"#utility.yul\":5192:5269   */\n      0x4e487b7100000000000000000000000000000000000000000000000000000000\n        /* \"#utility.yul\":5189:5190   */\n      0x00\n        /* \"#utility.yul\":5182:5270   */\n      mstore\n        /* \"#utility.yul\":5289:5293   */\n      0x11\n        /* \"#utility.yul\":5286:5287   */\n      0x04\n        /* \"#utility.yul\":5279:5294   */\n      mstore\n        /* \"#utility.yul\":5313:5317   */\n      0x24\n        /* \"#utility.yul\":5310:5311   */\n      0x00\n        /* \"#utility.yul\":5303:5318   */\n      revert\n        /* \"#utility.yul\":5330:5521   */\n    tag_56:\n        /* \"#utility.yul\":5370:5373   */\n      0x00\n        /* \"#utility.yul\":5389:5409   */\n      tag_169\n        /* \"#utility.yul\":5407:5408   */\n      dup3\n        /* \"#utility.yul\":5389:5409   */\n      tag_88\n      jump\t// in\n    tag_169:\n        /* \"#utility.yul\":5384:5409   */\n      swap2\n      pop\n        /* \"#utility.yul\":5423:5443   */\n      tag_170\n        /* \"#utility.yul\":5441:5442   */\n      dup4\n        /* \"#utility.yul\":5423:5443   */\n      tag_88\n      jump\t// in\n    tag_170:\n        /* \"#utility.yul\":5418:5443   */\n      swap3\n      pop\n        /* \"#utility.yul\":5466:5467   */\n      dup3\n        /* \"#utility.yul\":5463:5464   */\n      dup3\n        /* \"#utility.yul\":5459:5468   */\n      add\n        /* \"#utility.yul\":5452:5468   */\n      swap1\n      pop\n        /* \"#utility.yul\":5487:5490   */\n      dup1\n        /* \"#utility.yul\":5484:5485   */\n      dup3\n        /* \"#utility.yul\":5481:5491   */\n      gt\n        /* \"#utility.yul\":5478:5514   */\n      iszero\n      tag_171\n      jumpi\n        /* \"#utility.yul\":5494:5512   */\n      tag_172\n      tag_106\n      jump\t// in\n    tag_172:\n        /* \"#utility.yul\":5478:5514   */\n    tag_171:\n        /* \"#utility.yul\":5330:5521   */\n      swap3\n      swap2\n      pop\n      pop\n      jump\t// out\n        /* \"#utility.yul\":5527:5701   */\n    tag_107:\n        /* \"#utility.yul\":5667:5693   */\n      0x4469646e27742073656e6420656e6f7567682066756e64730000000000000000\n        /* \"#utility.yul\":5663:5664   */\n      0x00\n        /* \"#utility.yul\":5655:5661   */\n      dup3\n        /* \"#utility.yul\":5651:5665   */\n      add\n        /* \"#utility.yul\":5644:5694   */\n      mstore\n        /* \"#utility.yul\":5527:5701   */\n      pop\n      jump\t// out\n        /* \"#utility.yul\":5707:6073   */\n    tag_108:\n        /* \"#utility.yul\":5849:5852   */\n      0x00\n        /* \"#utility.yul\":5870:5937   */\n      tag_175\n        /* \"#utility.yul\":5934:5936   */\n      0x18\n        /* \"#utility.yul\":5929:5932   */\n      dup4\n        /* \"#utility.yul\":5870:5937   */\n      tag_100\n      jump\t// in\n    tag_175:\n        /* \"#utility.yul\":5863:5937   */\n      swap2\n      pop\n        /* \"#utility.yul\":5946:6039   */\n      tag_176\n        /* \"#utility.yul\":6035:6038   */\n      dup3\n        /* \"#utility.yul\":5946:6039   */\n      tag_107\n      jump\t// in\n    tag_176:\n        /* \"#utility.yul\":6064:6066   */\n      0x20\n        /* \"#utility.yul\":6059:6062   */\n      dup3\n        /* \"#utility.yul\":6055:6067   */\n      add\n        /* \"#utility.yul\":6048:6067   */\n      swap1\n      pop\n        /* \"#utility.yul\":5707:6073   */\n      swap2\n      swap1\n      pop\n      jump\t// out\n        /* \"#utility.yul\":6079:6498   */\n    tag_62:\n        /* \"#utility.yul\":6245:6249   */\n      0x00\n        /* \"#utility.yul\":6283:6285   */\n      0x20\n        /* \"#utility.yul\":6272:6281   */\n      dup3\n        /* \"#utility.yul\":6268:6286   */\n      add\n        /* \"#utility.yul\":6260:6286   */\n      swap1\n      pop\n        /* \"#utility.yul\":6332:6341   */\n      dup2\n        /* \"#utility.yul\":6326:6330   */\n      dup2\n        /* \"#utility.yul\":6322:6342   */\n      sub\n        /* \"#utility.yul\":6318:6319   */\n      0x00\n        /* \"#utility.yul\":6307:6316   */\n      dup4\n        /* \"#utility.yul\":6303:6320   */\n      add\n        /* \"#utility.yul\":6296:6343   */\n      mstore\n        /* \"#utility.yul\":6360:6491   */\n      tag_178\n        /* \"#utility.yul\":6486:6490   */\n      dup2\n        /* \"#utility.yul\":6360:6491   */\n      tag_108\n      jump\t// in\n    tag_178:\n        /* \"#utility.yul\":6352:6491   */\n      swap1\n      pop\n        /* \"#utility.yul\":6079:6498   */\n      swap2\n      swap1\n      pop\n      jump\t// out\n        /* \"#utility.yul\":6504:6914   */\n    tag_71:\n        /* \"#utility.yul\":6544:6551   */\n      0x00\n        /* \"#utility.yul\":6567:6587   */\n      tag_180\n        /* \"#utility.yul\":6585:6586   */\n      dup3\n        /* \"#utility.yul\":6567:6587   */\n      tag_88\n      jump\t// in\n    tag_180:\n        /* \"#utility.yul\":6562:6587   */\n      swap2\n      pop\n        /* \"#utility.yul\":6601:6621   */\n      tag_181\n        /* \"#utility.yul\":6619:6620   */\n      dup4\n        /* \"#utility.yul\":6601:6621   */\n      tag_88\n      jump\t// in\n    tag_181:\n        /* \"#utility.yul\":6596:6621   */\n      swap3\n      pop\n        /* \"#utility.yul\":6656:6657   */\n      dup3\n        /* \"#utility.yul\":6653:6654   */\n      dup3\n        /* \"#utility.yul\":6649:6658   */\n      mul\n        /* \"#utility.yul\":6678:6708   */\n      tag_182\n        /* \"#utility.yul\":6696:6707   */\n      dup2\n        /* \"#utility.yul\":6678:6708   */\n      tag_88\n      jump\t// in\n    tag_182:\n        /* \"#utility.yul\":6667:6708   */\n      swap2\n      pop\n        /* \"#utility.yul\":6857:6858   */\n      dup3\n        /* \"#utility.yul\":6848:6855   */\n      dup3\n        /* \"#utility.yul\":6844:6859   */\n      div\n        /* \"#utility.yul\":6841:6842   */\n      dup5\n        /* \"#utility.yul\":6838:6860   */\n      eq\n        /* \"#utility.yul\":6818:6819   */\n      dup4\n        /* \"#utility.yul\":6811:6820   */\n      iszero\n        /* \"#utility.yul\":6791:6874   */\n      or\n        /* \"#utility.yul\":6768:6907   */\n      tag_183\n      jumpi\n        /* \"#utility.yul\":6887:6905   */\n      tag_184\n      tag_106\n      jump\t// in\n    tag_184:\n        /* \"#utility.yul\":6768:6907   */\n    tag_183:\n        /* \"#utility.yul\":6552:6914   */\n      pop\n        /* \"#utility.yul\":6504:6914   */\n      swap3\n      swap2\n      pop\n      pop\n      jump\t// out\n        /* \"#utility.yul\":6920:7100   */\n    tag_109:\n        /* \"#utility.yul\":6968:7045   */\n      0x4e487b7100000000000000000000000000000000000000000000000000000000\n        /* \"#utility.yul\":6965:6966   */\n      0x00\n        /* \"#utility.yul\":6958:7046   */\n      mstore\n        /* \"#utility.yul\":7065:7069   */\n      0x12\n        /* \"#utility.yul\":7062:7063   */\n      0x04\n        /* \"#utility.yul\":7055:7070   */\n      mstore\n        /* \"#utility.yul\":7089:7093   */\n      0x24\n        /* \"#utility.yul\":7086:7087   */\n      0x00\n        /* \"#utility.yul\":7079:7094   */\n      revert\n        /* \"#utility.yul\":7106:7291   */\n    tag_73:\n        /* \"#utility.yul\":7146:7147   */\n      0x00\n        /* \"#utility.yul\":7163:7183   */\n      tag_187\n        /* \"#utility.yul\":7181:7182   */\n      dup3\n        /* \"#utility.yul\":7163:7183   */\n      tag_88\n      jump\t// in\n    tag_187:\n        /* \"#utility.yul\":7158:7183   */\n      swap2\n      pop\n        /* \"#utility.yul\":7197:7217   */\n      tag_188\n        /* \"#utility.yul\":7215:7216   */\n      dup4\n        /* \"#utility.yul\":7197:7217   */\n      tag_88\n      jump\t// in\n    tag_188:\n        /* \"#utility.yul\":7192:7217   */\n      swap3\n      pop\n        /* \"#utility.yul\":7236:7237   */\n      dup3\n        /* \"#utility.yul\":7226:7261   */\n      tag_189\n      jumpi\n        /* \"#utility.yul\":7241:7259   */\n      tag_190\n      tag_109\n      jump\t// in\n    tag_190:\n        /* \"#utility.yul\":7226:7261   */\n    tag_189:\n        /* \"#utility.yul\":7283:7284   */\n      dup3\n        /* \"#utility.yul\":7280:7281   */\n      dup3\n        /* \"#utility.yul\":7276:7285   */\n      div\n        /* \"#utility.yul\":7271:7285   */\n      swap1\n      pop\n        /* \"#utility.yul\":7106:7291   */\n      swap3\n      swap2\n      pop\n      pop\n      jump\t// out\n        /* \"#utility.yul\":7297:7402   */\n    tag_110:\n        /* \"#utility.yul\":7333:7340   */\n      0x00\n        /* \"#utility.yul\":7373:7395   */\n      0xffffffffffffffffffff\n        /* \"#utility.yul\":7366:7371   */\n      dup3\n        /* \"#utility.yul\":7362:7396   */\n      and\n        /* \"#utility.yul\":7351:7396   */\n      swap1\n      pop\n        /* \"#utility.yul\":7297:7402   */\n      swap2\n      swap1\n      pop\n      jump\t// out\n        /* \"#utility.yul\":7408:7528   */\n    tag_111:\n        /* \"#utility.yul\":7480:7503   */\n      tag_193\n        /* \"#utility.yul\":7497:7502   */\n      dup2\n        /* \"#utility.yul\":7480:7503   */\n      tag_110\n      jump\t// in\n    tag_193:\n        /* \"#utility.yul\":7473:7478   */\n      dup2\n        /* \"#utility.yul\":7470:7504   */\n      eq\n        /* \"#utility.yul\":7460:7522   */\n      tag_194\n      jumpi\n        /* \"#utility.yul\":7518:7519   */\n      0x00\n        /* \"#utility.yul\":7515:7516   */\n      dup1\n        /* \"#utility.yul\":7508:7520   */\n      revert\n        /* \"#utility.yul\":7460:7522   */\n    tag_194:\n        /* \"#utility.yul\":7408:7528   */\n      pop\n      jump\t// out\n        /* \"#utility.yul\":7534:7675   */\n    tag_112:\n        /* \"#utility.yul\":7590:7595   */\n      0x00\n        /* \"#utility.yul\":7621:7627   */\n      dup2\n        /* \"#utility.yul\":7615:7628   */\n      mload\n        /* \"#utility.yul\":7606:7628   */\n      swap1\n      pop\n        /* \"#utility.yul\":7637:7669   */\n      tag_196\n        /* \"#utility.yul\":7663:7668   */\n      dup2\n        /* \"#utility.yul\":7637:7669   */\n      tag_111\n      jump\t// in\n    tag_196:\n        /* \"#utility.yul\":7534:7675   */\n      swap3\n      swap2\n      pop\n      pop\n      jump\t// out\n        /* \"#utility.yul\":7681:7757   */\n    tag_113:\n        /* \"#utility.yul\":7717:7724   */\n      0x00\n        /* \"#utility.yul\":7746:7751   */\n      dup2\n        /* \"#utility.yul\":7735:7751   */\n      swap1\n      pop\n        /* \"#utility.yul\":7681:7757   */\n      swap2\n      swap1\n      pop\n      jump\t// out\n        /* \"#utility.yul\":7763:7883   */\n    tag_114:\n        /* \"#utility.yul\":7835:7858   */\n      tag_199\n        /* \"#utility.yul\":7852:7857   */\n      dup2\n        /* \"#utility.yul\":7835:7858   */\n      tag_113\n      jump\t// in\n    tag_199:\n        /* \"#utility.yul\":7828:7833   */\n      dup2\n        /* \"#utility.yul\":7825:7859   */\n      eq\n        /* \"#utility.yul\":7815:7877   */\n      tag_200\n      jumpi\n        /* \"#utility.yul\":7873:7874   */\n      0x00\n        /* \"#utility.yul\":7870:7871   */\n      dup1\n        /* \"#utility.yul\":7863:7875   */\n      revert\n        /* \"#utility.yul\":7815:7877   */\n    tag_200:\n        /* \"#utility.yul\":7763:7883   */\n      pop\n      jump\t// out\n        /* \"#utility.yul\":7889:8030   */\n    tag_115:\n        /* \"#utility.yul\":7945:7950   */\n      0x00\n        /* \"#utility.yul\":7976:7982   */\n      dup2\n        /* \"#utility.yul\":7970:7983   */\n      mload\n        /* \"#utility.yul\":7961:7983   */\n      swap1\n      pop\n        /* \"#utility.yul\":7992:8024   */\n      tag_202\n        /* \"#utility.yul\":8018:8023   */\n      dup2\n        /* \"#utility.yul\":7992:8024   */\n      tag_114\n      jump\t// in\n    tag_202:\n        /* \"#utility.yul\":7889:8030   */\n      swap3\n      swap2\n      pop\n      pop\n      jump\t// out\n        /* \"#utility.yul\":8036:8179   */\n    tag_116:\n        /* \"#utility.yul\":8093:8098   */\n      0x00\n        /* \"#utility.yul\":8124:8130   */\n      dup2\n        /* \"#utility.yul\":8118:8131   */\n      mload\n        /* \"#utility.yul\":8109:8131   */\n      swap1\n      pop\n        /* \"#utility.yul\":8140:8173   */\n      tag_204\n        /* \"#utility.yul\":8167:8172   */\n      dup2\n        /* \"#utility.yul\":8140:8173   */\n      tag_97\n      jump\t// in\n    tag_204:\n        /* \"#utility.yul\":8036:8179   */\n      swap3\n      swap2\n      pop\n      pop\n      jump\t// out\n        /* \"#utility.yul\":8185:9156   */\n    tag_78:\n        /* \"#utility.yul\":8288:8294   */\n      0x00\n        /* \"#utility.yul\":8296:8302   */\n      dup1\n        /* \"#utility.yul\":8304:8310   */\n      0x00\n        /* \"#utility.yul\":8312:8318   */\n      dup1\n        /* \"#utility.yul\":8320:8326   */\n      0x00\n        /* \"#utility.yul\":8369:8372   */\n      0xa0\n        /* \"#utility.yul\":8357:8366   */\n      dup7\n        /* \"#utility.yul\":8348:8355   */\n      dup9\n        /* \"#utility.yul\":8344:8367   */\n      sub\n        /* \"#utility.yul\":8340:8373   */\n      slt\n        /* \"#utility.yul\":8337:8457   */\n      iszero\n      tag_206\n      jumpi\n        /* \"#utility.yul\":8376:8455   */\n      tag_207\n      tag_91\n      jump\t// in\n    tag_207:\n        /* \"#utility.yul\":8337:8457   */\n    tag_206:\n        /* \"#utility.yul\":8496:8497   */\n      0x00\n        /* \"#utility.yul\":8521:8584   */\n      tag_208\n        /* \"#utility.yul\":8576:8583   */\n      dup9\n        /* \"#utility.yul\":8567:8573   */\n      dup3\n        /* \"#utility.yul\":8556:8565   */\n      dup10\n        /* \"#utility.yul\":8552:8574   */\n      add\n        /* \"#utility.yul\":8521:8584   */\n      tag_112\n      jump\t// in\n    tag_208:\n        /* \"#utility.yul\":8511:8584   */\n      swap6\n      pop\n        /* \"#utility.yul\":8467:8594   */\n      pop\n        /* \"#utility.yul\":8633:8635   */\n      0x20\n        /* \"#utility.yul\":8659:8722   */\n      tag_209\n        /* \"#utility.yul\":8714:8721   */\n      dup9\n        /* \"#utility.yul\":8705:8711   */\n      dup3\n        /* \"#utility.yul\":8694:8703   */\n      dup10\n        /* \"#utility.yul\":8690:8712   */\n      add\n        /* \"#utility.yul\":8659:8722   */\n      tag_115\n      jump\t// in\n    tag_209:\n        /* \"#utility.yul\":8649:8722   */\n      swap5\n      pop\n        /* \"#utility.yul\":8604:8732   */\n      pop\n        /* \"#utility.yul\":8771:8773   */\n      0x40\n        /* \"#utility.yul\":8797:8861   */\n      tag_210\n        /* \"#utility.yul\":8853:8860   */\n      dup9\n        /* \"#utility.yul\":8844:8850   */\n      dup3\n        /* \"#utility.yul\":8833:8842   */\n      dup10\n        /* \"#utility.yul\":8829:8851   */\n      add\n        /* \"#utility.yul\":8797:8861   */\n      tag_116\n      jump\t// in\n    tag_210:\n        /* \"#utility.yul\":8787:8861   */\n      swap4\n      pop\n        /* \"#utility.yul\":8742:8871   */\n      pop\n        /* \"#utility.yul\":8910:8912   */\n      0x60\n        /* \"#utility.yul\":8936:9000   */\n      tag_211\n        /* \"#utility.yul\":8992:8999   */\n      dup9\n        /* \"#utility.yul\":8983:8989   */\n      dup3\n        /* \"#utility.yul\":8972:8981   */\n      dup10\n        /* \"#utility.yul\":8968:8990   */\n      add\n        /* \"#utility.yul\":8936:9000   */\n      tag_116\n      jump\t// in\n    tag_211:\n        /* \"#utility.yul\":8926:9000   */\n      swap3\n      pop\n        /* \"#utility.yul\":8881:9010   */\n      pop\n        /* \"#utility.yul\":9049:9052   */\n      0x80\n        /* \"#utility.yul\":9076:9139   */\n      tag_212\n        /* \"#utility.yul\":9131:9138   */\n      dup9\n        /* \"#utility.yul\":9122:9128   */\n      dup3\n        /* \"#utility.yul\":9111:9120   */\n      dup10\n        /* \"#utility.yul\":9107:9129   */\n      add\n        /* \"#utility.yul\":9076:9139   */\n      tag_112\n      jump\t// in\n    tag_212:\n        /* \"#utility.yul\":9066:9139   */\n      swap2\n      pop\n        /* \"#utility.yul\":9020:9149   */\n      pop\n        /* \"#utility.yul\":8185:9156   */\n      swap3\n      swap6\n      pop\n      swap3\n      swap6\n      swap1\n      swap4\n      pop\n      jump\t// out\n        /* \"#utility.yul\":9162:9718   */\n    tag_80:\n        /* \"#utility.yul\":9201:9208   */\n      0x00\n        /* \"#utility.yul\":9224:9243   */\n      tag_214\n        /* \"#utility.yul\":9241:9242   */\n      dup3\n        /* \"#utility.yul\":9224:9243   */\n      tag_113\n      jump\t// in\n    tag_214:\n        /* \"#utility.yul\":9219:9243   */\n      swap2\n      pop\n        /* \"#utility.yul\":9257:9276   */\n      tag_215\n        /* \"#utility.yul\":9274:9275   */\n      dup4\n        /* \"#utility.yul\":9257:9276   */\n      tag_113\n      jump\t// in\n    tag_215:\n        /* \"#utility.yul\":9252:9276   */\n      swap3\n      pop\n        /* \"#utility.yul\":9311:9312   */\n      dup3\n        /* \"#utility.yul\":9308:9309   */\n      dup3\n        /* \"#utility.yul\":9304:9313   */\n      mul\n        /* \"#utility.yul\":9333:9362   */\n      tag_216\n        /* \"#utility.yul\":9350:9361   */\n      dup2\n        /* \"#utility.yul\":9333:9362   */\n      tag_113\n      jump\t// in\n    tag_216:\n        /* \"#utility.yul\":9322:9362   */\n      swap2\n      pop\n        /* \"#utility.yul\":9420:9486   */\n      0x8000000000000000000000000000000000000000000000000000000000000000\n        /* \"#utility.yul\":9417:9418   */\n      dup5\n        /* \"#utility.yul\":9414:9487   */\n      eq\n        /* \"#utility.yul\":9410:9411   */\n      0x00\n        /* \"#utility.yul\":9407:9408   */\n      dup5\n        /* \"#utility.yul\":9403:9412   */\n      slt\n        /* \"#utility.yul\":9399:9488   */\n      and\n        /* \"#utility.yul\":9396:9511   */\n      iszero\n      tag_217\n      jumpi\n        /* \"#utility.yul\":9491:9509   */\n      tag_218\n      tag_106\n      jump\t// in\n    tag_218:\n        /* \"#utility.yul\":9396:9511   */\n    tag_217:\n        /* \"#utility.yul\":9661:9662   */\n      dup3\n        /* \"#utility.yul\":9652:9659   */\n      dup3\n        /* \"#utility.yul\":9647:9663   */\n      sdiv\n        /* \"#utility.yul\":9644:9645   */\n      dup5\n        /* \"#utility.yul\":9641:9664   */\n      eq\n        /* \"#utility.yul\":9621:9622   */\n      dup4\n        /* \"#utility.yul\":9614:9623   */\n      iszero\n        /* \"#utility.yul\":9594:9678   */\n      or\n        /* \"#utility.yul\":9571:9711   */\n      tag_219\n      jumpi\n        /* \"#utility.yul\":9691:9709   */\n      tag_220\n      tag_106\n      jump\t// in\n    tag_220:\n        /* \"#utility.yul\":9571:9711   */\n    tag_219:\n        /* \"#utility.yul\":9209:9718   */\n      pop\n        /* \"#utility.yul\":9162:9718   */\n      swap3\n      swap2\n      pop\n      pop\n      jump\t// out\n\n    auxdata: 0xa2646970667358221220454dcfcaa56312b73561f302fbde4495ed8329dfccff617493488e68cdb64c5664736f6c63430008110033\n}\n",
				"bytecode": {
					"linkReferences": {},
					"object": "60806040526802b5e3af16b188000060025534801561001d57600080fd5b50610c0a8061002d6000396000f3fe60806040526004361061004a5760003560e01c80633430a88c1461004f5780633ccfd60b1461007a5780633e47d6f314610091578063b60d4288146100ce578063dc0d3dff146100d8575b600080fd5b34801561005b57600080fd5b50610064610115565b6040516100719190610694565b60405180910390f35b34801561008657600080fd5b5061008f61011b565b005b34801561009d57600080fd5b506100b860048036038101906100b39190610712565b61035b565b6040516100c59190610694565b60405180910390f35b6100d6610373565b005b3480156100e457600080fd5b506100ff60048036038101906100fa919061076b565b6104b2565b60405161010c91906107a7565b60405180910390f35b60025481565b60005b6000805490508110156103585760008082815481106101405761013f6107c2565b5b9060005260206000200160009054906101000a900473ffffffffffffffffffffffffffffffffffffffff1690506000600160008373ffffffffffffffffffffffffffffffffffffffff1673ffffffffffffffffffffffffffffffffffffffff16815260200190815260200160002081905550600067ffffffffffffffff8111156101cd576101cc6107f1565b5b6040519080825280602002602001820160405280156101fb5781602001602082028036833780820191505090505b50600090805190602001906102119291906105d4565b503373ffffffffffffffffffffffffffffffffffffffff166108fc479081150290604051600060405180830381858888f19350505050158015610258573d6000803e3d6000fd5b5060003373ffffffffffffffffffffffffffffffffffffffff166108fc479081150290604051600060405180830381858888f193505050509050806102d2576040517f08c379a00000000000000000000000000000000000000000000000000000000081526004016102c99061087d565b60405180910390fd5b6000803373ffffffffffffffffffffffffffffffffffffffff16476040516102f9906108ce565b60006040518083038185875af1925050503d8060008114610336576040519150601f19603f3d011682016040523d82523d6000602084013e61033b565b606091505b5091509150505050506001816103519190610912565b905061011e565b50565b60016020528060005260406000206000915090505481565b60025461037f346104f1565b116103bf576040517f08c379a00000000000000000000000000000000000000000000000000000000081526004016103b690610992565b60405180910390fd5b6000339080600181540180825580915050600190039060005260206000200160009091909190916101000a81548173ffffffffffffffffffffffffffffffffffffffff021916908373ffffffffffffffffffffffffffffffffffffffff160217905550600160003373ffffffffffffffffffffffffffffffffffffffff1673ffffffffffffffffffffffffffffffffffffffff168152602001908152602001600020543461046d9190610912565b600160003373ffffffffffffffffffffffffffffffffffffffff1673ffffffffffffffffffffffffffffffffffffffff16815260200190815260200160002081905550565b600081815481106104c257600080fd5b906000526020600020016000915054906101000a900473ffffffffffffffffffffffffffffffffffffffff1681565b6000806104fc61052b565b90506000670de0b6b3a7640000848361051591906109b2565b61051f9190610a23565b90508092505050919050565b60008073d4a33860578de61dbabdc8bfdb98fd742fa7028e905060008173ffffffffffffffffffffffffffffffffffffffff1663feaf968c6040518163ffffffff1660e01b815260040160a060405180830381865afa158015610592573d6000803e3d6000fd5b505050506040513d601f19601f820116820180604052508101906105b69190610ae1565b5050509150506402540be400816105cd9190610b5c565b9250505090565b82805482825590600052602060002090810192821561064d579160200282015b8281111561064c5782518260006101000a81548173ffffffffffffffffffffffffffffffffffffffff021916908373ffffffffffffffffffffffffffffffffffffffff160217905550916020019190600101906105f4565b5b50905061065a919061065e565b5090565b5b8082111561067757600081600090555060010161065f565b5090565b6000819050919050565b61068e8161067b565b82525050565b60006020820190506106a96000830184610685565b92915050565b600080fd5b600073ffffffffffffffffffffffffffffffffffffffff82169050919050565b60006106df826106b4565b9050919050565b6106ef816106d4565b81146106fa57600080fd5b50565b60008135905061070c816106e6565b92915050565b600060208284031215610728576107276106af565b5b6000610736848285016106fd565b91505092915050565b6107488161067b565b811461075357600080fd5b50565b6000813590506107658161073f565b92915050565b600060208284031215610781576107806106af565b5b600061078f84828501610756565b91505092915050565b6107a1816106d4565b82525050565b60006020820190506107bc6000830184610798565b92915050565b7f4e487b7100000000000000000000000000000000000000000000000000000000600052603260045260246000fd5b7f4e487b7100000000000000000000000000000000000000000000000000000000600052604160045260246000fd5b600082825260208201905092915050565b7f53656e64204661696c6564000000000000000000000000000000000000000000600082015250565b6000610867600b83610820565b915061087282610831565b602082019050919050565b600060208201905081810360008301526108968161085a565b9050919050565b600081905092915050565b50565b60006108b860008361089d565b91506108c3826108a8565b600082019050919050565b60006108d9826108ab565b9150819050919050565b7f4e487b7100000000000000000000000000000000000000000000000000000000600052601160045260246000fd5b600061091d8261067b565b91506109288361067b565b92508282019050808211156109405761093f6108e3565b5b92915050565b7f4469646e27742073656e6420656e6f7567682066756e64730000000000000000600082015250565b600061097c601883610820565b915061098782610946565b602082019050919050565b600060208201905081810360008301526109ab8161096f565b9050919050565b60006109bd8261067b565b91506109c88361067b565b92508282026109d68161067b565b915082820484148315176109ed576109ec6108e3565b5b5092915050565b7f4e487b7100000000000000000000000000000000000000000000000000000000600052601260045260246000fd5b6000610a2e8261067b565b9150610a398361067b565b925082610a4957610a486109f4565b5b828204905092915050565b600069ffffffffffffffffffff82169050919050565b610a7381610a54565b8114610a7e57600080fd5b50565b600081519050610a9081610a6a565b92915050565b6000819050919050565b610aa981610a96565b8114610ab457600080fd5b50565b600081519050610ac681610aa0565b92915050565b600081519050610adb8161073f565b92915050565b600080600080600060a08688031215610afd57610afc6106af565b5b6000610b0b88828901610a81565b9550506020610b1c88828901610ab7565b9450506040610b2d88828901610acc565b9350506060610b3e88828901610acc565b9250506080610b4f88828901610a81565b9150509295509295909350565b6000610b6782610a96565b9150610b7283610a96565b9250828202610b8081610a96565b91507f80000000000000000000000000000000000000000000000000000000000000008414600084121615610bb857610bb76108e3565b5b8282058414831517610bcd57610bcc6108e3565b5b509291505056fea2646970667358221220454dcfcaa56312b73561f302fbde4495ed8329dfccff617493488e68cdb64c5664736f6c63430008110033",
					"opcodes": "PUSH1 0x80 PUSH1 0x40 MSTORE PUSH9 0x2B5E3AF16B1880000 PUSH1 0x2 SSTORE CALLVALUE DUP1 ISZERO PUSH2 0x1D JUMPI PUSH1 0x0 DUP1 REVERT JUMPDEST POP PUSH2 0xC0A DUP1 PUSH2 0x2D PUSH1 0x0 CODECOPY PUSH1 0x0 RETURN INVALID PUSH1 0x80 PUSH1 0x40 MSTORE PUSH1 0x4 CALLDATASIZE LT PUSH2 0x4A JUMPI PUSH1 0x0 CALLDATALOAD PUSH1 0xE0 SHR DUP1 PUSH4 0x3430A88C EQ PUSH2 0x4F JUMPI DUP1 PUSH4 0x3CCFD60B EQ PUSH2 0x7A JUMPI DUP1 PUSH4 0x3E47D6F3 EQ PUSH2 0x91 JUMPI DUP1 PUSH4 0xB60D4288 EQ PUSH2 0xCE JUMPI DUP1 PUSH4 0xDC0D3DFF EQ PUSH2 0xD8 JUMPI JUMPDEST PUSH1 0x0 DUP1 REVERT JUMPDEST CALLVALUE DUP1 ISZERO PUSH2 0x5B JUMPI PUSH1 0x0 DUP1 REVERT JUMPDEST POP PUSH2 0x64 PUSH2 0x115 JUMP JUMPDEST PUSH1 0x40 MLOAD PUSH2 0x71 SWAP2 SWAP1 PUSH2 0x694 JUMP JUMPDEST PUSH1 0x40 MLOAD DUP1 SWAP2 SUB SWAP1 RETURN JUMPDEST CALLVALUE DUP1 ISZERO PUSH2 0x86 JUMPI PUSH1 0x0 DUP1 REVERT JUMPDEST POP PUSH2 0x8F PUSH2 0x11B JUMP JUMPDEST STOP JUMPDEST CALLVALUE DUP1 ISZERO PUSH2 0x9D JUMPI PUSH1 0x0 DUP1 REVERT JUMPDEST POP PUSH2 0xB8 PUSH1 0x4 DUP1 CALLDATASIZE SUB DUP2 ADD SWAP1 PUSH2 0xB3 SWAP2 SWAP1 PUSH2 0x712 JUMP JUMPDEST PUSH2 0x35B JUMP JUMPDEST PUSH1 0x40 MLOAD PUSH2 0xC5 SWAP2 SWAP1 PUSH2 0x694 JUMP JUMPDEST PUSH1 0x40 MLOAD DUP1 SWAP2 SUB SWAP1 RETURN JUMPDEST PUSH2 0xD6 PUSH2 0x373 JUMP JUMPDEST STOP JUMPDEST CALLVALUE DUP1 ISZERO PUSH2 0xE4 JUMPI PUSH1 0x0 DUP1 REVERT JUMPDEST POP PUSH2 0xFF PUSH1 0x4 DUP1 CALLDATASIZE SUB DUP2 ADD SWAP1 PUSH2 0xFA SWAP2 SWAP1 PUSH2 0x76B JUMP JUMPDEST PUSH2 0x4B2 JUMP JUMPDEST PUSH1 0x40 MLOAD PUSH2 0x10C SWAP2 SWAP1 PUSH2 0x7A7 JUMP JUMPDEST PUSH1 0x40 MLOAD DUP1 SWAP2 SUB SWAP1 RETURN JUMPDEST PUSH1 0x2 SLOAD DUP2 JUMP JUMPDEST PUSH1 0x0 JUMPDEST PUSH1 0x0 DUP1 SLOAD SWAP1 POP DUP2 LT ISZERO PUSH2 0x358 JUMPI PUSH1 0x0 DUP1 DUP3 DUP2 SLOAD DUP2 LT PUSH2 0x140 JUMPI PUSH2 0x13F PUSH2 0x7C2 JUMP JUMPDEST JUMPDEST SWAP1 PUSH1 0x0 MSTORE PUSH1 0x20 PUSH1 0x0 KECCAK256 ADD PUSH1 0x0 SWAP1 SLOAD SWAP1 PUSH2 0x100 EXP SWAP1 DIV PUSH20 0xFFFFFFFFFFFFFFFFFFFFFFFFFFFFFFFFFFFFFFFF AND SWAP1 POP PUSH1 0x0 PUSH1 0x1 PUSH1 0x0 DUP4 PUSH20 0xFFFFFFFFFFFFFFFFFFFFFFFFFFFFFFFFFFFFFFFF AND PUSH20 0xFFFFFFFFFFFFFFFFFFFFFFFFFFFFFFFFFFFFFFFF AND DUP2 MSTORE PUSH1 0x20 ADD SWAP1 DUP2 MSTORE PUSH1 0x20 ADD PUSH1 0x0 KECCAK256 DUP2 SWAP1 SSTORE POP PUSH1 0x0 PUSH8 0xFFFFFFFFFFFFFFFF DUP2 GT ISZERO PUSH2 0x1CD JUMPI PUSH2 0x1CC PUSH2 0x7F1 JUMP JUMPDEST JUMPDEST PUSH1 0x40 MLOAD SWAP1 DUP1 DUP3 MSTORE DUP1 PUSH1 0x20 MUL PUSH1 0x20 ADD DUP3 ADD PUSH1 0x40 MSTORE DUP1 ISZERO PUSH2 0x1FB JUMPI DUP2 PUSH1 0x20 ADD PUSH1 0x20 DUP3 MUL DUP1 CALLDATASIZE DUP4 CALLDATACOPY DUP1 DUP3 ADD SWAP2 POP POP SWAP1 POP JUMPDEST POP PUSH1 0x0 SWAP1 DUP1 MLOAD SWAP1 PUSH1 0x20 ADD SWAP1 PUSH2 0x211 SWAP3 SWAP2 SWAP1 PUSH2 0x5D4 JUMP JUMPDEST POP CALLER PUSH20 0xFFFFFFFFFFFFFFFFFFFFFFFFFFFFFFFFFFFFFFFF AND PUSH2 0x8FC SELFBALANCE SWAP1 DUP2 ISZERO MUL SWAP1 PUSH1 0x40 MLOAD PUSH1 0x0 PUSH1 0x40 MLOAD DUP1 DUP4 SUB DUP2 DUP6 DUP9 DUP9 CALL SWAP4 POP POP POP POP ISZERO DUP1 ISZERO PUSH2 0x258 JUMPI RETURNDATASIZE PUSH1 0x0 DUP1 RETURNDATACOPY RETURNDATASIZE PUSH1 0x0 REVERT JUMPDEST POP PUSH1 0x0 CALLER PUSH20 0xFFFFFFFFFFFFFFFFFFFFFFFFFFFFFFFFFFFFFFFF AND PUSH2 0x8FC SELFBALANCE SWAP1 DUP2 ISZERO MUL SWAP1 PUSH1 0x40 MLOAD PUSH1 0x0 PUSH1 0x40 MLOAD DUP1 DUP4 SUB DUP2 DUP6 DUP9 DUP9 CALL SWAP4 POP POP POP POP SWAP1 POP DUP1 PUSH2 0x2D2 JUMPI PUSH1 0x40 MLOAD PUSH32 0x8C379A000000000000000000000000000000000000000000000000000000000 DUP2 MSTORE PUSH1 0x4 ADD PUSH2 0x2C9 SWAP1 PUSH2 0x87D JUMP JUMPDEST PUSH1 0x40 MLOAD DUP1 SWAP2 SUB SWAP1 REVERT JUMPDEST PUSH1 0x0 DUP1 CALLER PUSH20 0xFFFFFFFFFFFFFFFFFFFFFFFFFFFFFFFFFFFFFFFF AND SELFBALANCE PUSH1 0x40 MLOAD PUSH2 0x2F9 SWAP1 PUSH2 0x8CE JUMP JUMPDEST PUSH1 0x0 PUSH1 0x40 MLOAD DUP1 DUP4 SUB DUP2 DUP6 DUP8 GAS CALL SWAP3 POP POP POP RETURNDATASIZE DUP1 PUSH1 0x0 DUP2 EQ PUSH2 0x336 JUMPI PUSH1 0x40 MLOAD SWAP2 POP PUSH1 0x1F NOT PUSH1 0x3F RETURNDATASIZE ADD AND DUP3 ADD PUSH1 0x40 MSTORE RETURNDATASIZE DUP3 MSTORE RETURNDATASIZE PUSH1 0x0 PUSH1 0x20 DUP5 ADD RETURNDATACOPY PUSH2 0x33B JUMP JUMPDEST PUSH1 0x60 SWAP2 POP JUMPDEST POP SWAP2 POP SWAP2 POP POP POP POP POP PUSH1 0x1 DUP2 PUSH2 0x351 SWAP2 SWAP1 PUSH2 0x912 JUMP JUMPDEST SWAP1 POP PUSH2 0x11E JUMP JUMPDEST POP JUMP JUMPDEST PUSH1 0x1 PUSH1 0x20 MSTORE DUP1 PUSH1 0x0 MSTORE PUSH1 0x40 PUSH1 0x0 KECCAK256 PUSH1 0x0 SWAP2 POP SWAP1 POP SLOAD DUP2 JUMP JUMPDEST PUSH1 0x2 SLOAD PUSH2 0x37F CALLVALUE PUSH2 0x4F1 JUMP JUMPDEST GT PUSH2 0x3BF JUMPI PUSH1 0x40 MLOAD PUSH32 0x8C379A000000000000000000000000000000000000000000000000000000000 DUP2 MSTORE PUSH1 0x4 ADD PUSH2 0x3B6 SWAP1 PUSH2 0x992 JUMP JUMPDEST PUSH1 0x40 MLOAD DUP1 SWAP2 SUB SWAP1 REVERT JUMPDEST PUSH1 0x0 CALLER SWAP1 DUP1 PUSH1 0x1 DUP2 SLOAD ADD DUP1 DUP3 SSTORE DUP1 SWAP2 POP POP PUSH1 0x1 SWAP1 SUB SWAP1 PUSH1 0x0 MSTORE PUSH1 0x20 PUSH1 0x0 KECCAK256 ADD PUSH1 0x0 SWAP1 SWAP2 SWAP1 SWAP2 SWAP1 SWAP2 PUSH2 0x100 EXP DUP2 SLOAD DUP2 PUSH20 0xFFFFFFFFFFFFFFFFFFFFFFFFFFFFFFFFFFFFFFFF MUL NOT AND SWAP1 DUP4 PUSH20 0xFFFFFFFFFFFFFFFFFFFFFFFFFFFFFFFFFFFFFFFF AND MUL OR SWAP1 SSTORE POP PUSH1 0x1 PUSH1 0x0 CALLER PUSH20 0xFFFFFFFFFFFFFFFFFFFFFFFFFFFFFFFFFFFFFFFF AND PUSH20 0xFFFFFFFFFFFFFFFFFFFFFFFFFFFFFFFFFFFFFFFF AND DUP2 MSTORE PUSH1 0x20 ADD SWAP1 DUP2 MSTORE PUSH1 0x20 ADD PUSH1 0x0 KECCAK256 SLOAD CALLVALUE PUSH2 0x46D SWAP2 SWAP1 PUSH2 0x912 JUMP JUMPDEST PUSH1 0x1 PUSH1 0x0 CALLER PUSH20 0xFFFFFFFFFFFFFFFFFFFFFFFFFFFFFFFFFFFFFFFF AND PUSH20 0xFFFFFFFFFFFFFFFFFFFFFFFFFFFFFFFFFFFFFFFF AND DUP2 MSTORE PUSH1 0x20 ADD SWAP1 DUP2 MSTORE PUSH1 0x20 ADD PUSH1 0x0 KECCAK256 DUP2 SWAP1 SSTORE POP JUMP JUMPDEST PUSH1 0x0 DUP2 DUP2 SLOAD DUP2 LT PUSH2 0x4C2 JUMPI PUSH1 0x0 DUP1 REVERT JUMPDEST SWAP1 PUSH1 0x0 MSTORE PUSH1 0x20 PUSH1 0x0 KECCAK256 ADD PUSH1 0x0 SWAP2 POP SLOAD SWAP1 PUSH2 0x100 EXP SWAP1 DIV PUSH20 0xFFFFFFFFFFFFFFFFFFFFFFFFFFFFFFFFFFFFFFFF AND DUP2 JUMP JUMPDEST PUSH1 0x0 DUP1 PUSH2 0x4FC PUSH2 0x52B JUMP JUMPDEST SWAP1 POP PUSH1 0x0 PUSH8 0xDE0B6B3A7640000 DUP5 DUP4 PUSH2 0x515 SWAP2 SWAP1 PUSH2 0x9B2 JUMP JUMPDEST PUSH2 0x51F SWAP2 SWAP1 PUSH2 0xA23 JUMP JUMPDEST SWAP1 POP DUP1 SWAP3 POP POP POP SWAP2 SWAP1 POP JUMP JUMPDEST PUSH1 0x0 DUP1 PUSH20 0xD4A33860578DE61DBABDC8BFDB98FD742FA7028E SWAP1 POP PUSH1 0x0 DUP2 PUSH20 0xFFFFFFFFFFFFFFFFFFFFFFFFFFFFFFFFFFFFFFFF AND PUSH4 0xFEAF968C PUSH1 0x40 MLOAD DUP2 PUSH4 0xFFFFFFFF AND PUSH1 0xE0 SHL DUP2 MSTORE PUSH1 0x4 ADD PUSH1 0xA0 PUSH1 0x40 MLOAD DUP1 DUP4 SUB DUP2 DUP7 GAS STATICCALL ISZERO DUP1 ISZERO PUSH2 0x592 JUMPI RETURNDATASIZE PUSH1 0x0 DUP1 RETURNDATACOPY RETURNDATASIZE PUSH1 0x0 REVERT JUMPDEST POP POP POP POP PUSH1 0x40 MLOAD RETURNDATASIZE PUSH1 0x1F NOT PUSH1 0x1F DUP3 ADD AND DUP3 ADD DUP1 PUSH1 0x40 MSTORE POP DUP2 ADD SWAP1 PUSH2 0x5B6 SWAP2 SWAP1 PUSH2 0xAE1 JUMP JUMPDEST POP POP POP SWAP2 POP POP PUSH5 0x2540BE400 DUP2 PUSH2 0x5CD SWAP2 SWAP1 PUSH2 0xB5C JUMP JUMPDEST SWAP3 POP POP POP SWAP1 JUMP JUMPDEST DUP3 DUP1 SLOAD DUP3 DUP3 SSTORE SWAP1 PUSH1 0x0 MSTORE PUSH1 0x20 PUSH1 0x0 KECCAK256 SWAP1 DUP2 ADD SWAP3 DUP3 ISZERO PUSH2 0x64D JUMPI SWAP2 PUSH1 0x20 MUL DUP3 ADD JUMPDEST DUP3 DUP2 GT ISZERO PUSH2 0x64C JUMPI DUP3 MLOAD DUP3 PUSH1 0x0 PUSH2 0x100 EXP DUP2 SLOAD DUP2 PUSH20 0xFFFFFFFFFFFFFFFFFFFFFFFFFFFFFFFFFFFFFFFF MUL NOT AND SWAP1 DUP4 PUSH20 0xFFFFFFFFFFFFFFFFFFFFFFFFFFFFFFFFFFFFFFFF AND MUL OR SWAP1 SSTORE POP SWAP2 PUSH1 0x20 ADD SWAP2 SWAP1 PUSH1 0x1 ADD SWAP1 PUSH2 0x5F4 JUMP JUMPDEST JUMPDEST POP SWAP1 POP PUSH2 0x65A SWAP2 SWAP1 PUSH2 0x65E JUMP JUMPDEST POP SWAP1 JUMP JUMPDEST JUMPDEST DUP1 DUP3 GT ISZERO PUSH2 0x677 JUMPI PUSH1 0x0 DUP2 PUSH1 0x0 SWAP1 SSTORE POP PUSH1 0x1 ADD PUSH2 0x65F JUMP JUMPDEST POP SWAP1 JUMP JUMPDEST PUSH1 0x0 DUP2 SWAP1 POP SWAP2 SWAP1 POP JUMP JUMPDEST PUSH2 0x68E DUP2 PUSH2 0x67B JUMP JUMPDEST DUP3 MSTORE POP POP JUMP JUMPDEST PUSH1 0x0 PUSH1 0x20 DUP3 ADD SWAP1 POP PUSH2 0x6A9 PUSH1 0x0 DUP4 ADD DUP5 PUSH2 0x685 JUMP JUMPDEST SWAP3 SWAP2 POP POP JUMP JUMPDEST PUSH1 0x0 DUP1 REVERT JUMPDEST PUSH1 0x0 PUSH20 0xFFFFFFFFFFFFFFFFFFFFFFFFFFFFFFFFFFFFFFFF DUP3 AND SWAP1 POP SWAP2 SWAP1 POP JUMP JUMPDEST PUSH1 0x0 PUSH2 0x6DF DUP3 PUSH2 0x6B4 JUMP JUMPDEST SWAP1 POP SWAP2 SWAP1 POP JUMP JUMPDEST PUSH2 0x6EF DUP2 PUSH2 0x6D4 JUMP JUMPDEST DUP2 EQ PUSH2 0x6FA JUMPI PUSH1 0x0 DUP1 REVERT JUMPDEST POP JUMP JUMPDEST PUSH1 0x0 DUP2 CALLDATALOAD SWAP1 POP PUSH2 0x70C DUP2 PUSH2 0x6E6 JUMP JUMPDEST SWAP3 SWAP2 POP POP JUMP JUMPDEST PUSH1 0x0 PUSH1 0x20 DUP3 DUP5 SUB SLT ISZERO PUSH2 0x728 JUMPI PUSH2 0x727 PUSH2 0x6AF JUMP JUMPDEST JUMPDEST PUSH1 0x0 PUSH2 0x736 DUP5 DUP3 DUP6 ADD PUSH2 0x6FD JUMP JUMPDEST SWAP2 POP POP SWAP3 SWAP2 POP POP JUMP JUMPDEST PUSH2 0x748 DUP2 PUSH2 0x67B JUMP JUMPDEST DUP2 EQ PUSH2 0x753 JUMPI PUSH1 0x0 DUP1 REVERT JUMPDEST POP JUMP JUMPDEST PUSH1 0x0 DUP2 CALLDATALOAD SWAP1 POP PUSH2 0x765 DUP2 PUSH2 0x73F JUMP JUMPDEST SWAP3 SWAP2 POP POP JUMP JUMPDEST PUSH1 0x0 PUSH1 0x20 DUP3 DUP5 SUB SLT ISZERO PUSH2 0x781 JUMPI PUSH2 0x780 PUSH2 0x6AF JUMP JUMPDEST JUMPDEST PUSH1 0x0 PUSH2 0x78F DUP5 DUP3 DUP6 ADD PUSH2 0x756 JUMP JUMPDEST SWAP2 POP POP SWAP3 SWAP2 POP POP JUMP JUMPDEST PUSH2 0x7A1 DUP2 PUSH2 0x6D4 JUMP JUMPDEST DUP3 MSTORE POP POP JUMP JUMPDEST PUSH1 0x0 PUSH1 0x20 DUP3 ADD SWAP1 POP PUSH2 0x7BC PUSH1 0x0 DUP4 ADD DUP5 PUSH2 0x798 JUMP JUMPDEST SWAP3 SWAP2 POP POP JUMP JUMPDEST PUSH32 0x4E487B7100000000000000000000000000000000000000000000000000000000 PUSH1 0x0 MSTORE PUSH1 0x32 PUSH1 0x4 MSTORE PUSH1 0x24 PUSH1 0x0 REVERT JUMPDEST PUSH32 0x4E487B7100000000000000000000000000000000000000000000000000000000 PUSH1 0x0 MSTORE PUSH1 0x41 PUSH1 0x4 MSTORE PUSH1 0x24 PUSH1 0x0 REVERT JUMPDEST PUSH1 0x0 DUP3 DUP3 MSTORE PUSH1 0x20 DUP3 ADD SWAP1 POP SWAP3 SWAP2 POP POP JUMP JUMPDEST PUSH32 0x53656E64204661696C6564000000000000000000000000000000000000000000 PUSH1 0x0 DUP3 ADD MSTORE POP JUMP JUMPDEST PUSH1 0x0 PUSH2 0x867 PUSH1 0xB DUP4 PUSH2 0x820 JUMP JUMPDEST SWAP2 POP PUSH2 0x872 DUP3 PUSH2 0x831 JUMP JUMPDEST PUSH1 0x20 DUP3 ADD SWAP1 POP SWAP2 SWAP1 POP JUMP JUMPDEST PUSH1 0x0 PUSH1 0x20 DUP3 ADD SWAP1 POP DUP2 DUP2 SUB PUSH1 0x0 DUP4 ADD MSTORE PUSH2 0x896 DUP2 PUSH2 0x85A JUMP JUMPDEST SWAP1 POP SWAP2 SWAP1 POP JUMP JUMPDEST PUSH1 0x0 DUP2 SWAP1 POP SWAP3 SWAP2 POP POP JUMP JUMPDEST POP JUMP JUMPDEST PUSH1 0x0 PUSH2 0x8B8 PUSH1 0x0 DUP4 PUSH2 0x89D JUMP JUMPDEST SWAP2 POP PUSH2 0x8C3 DUP3 PUSH2 0x8A8 JUMP JUMPDEST PUSH1 0x0 DUP3 ADD SWAP1 POP SWAP2 SWAP1 POP JUMP JUMPDEST PUSH1 0x0 PUSH2 0x8D9 DUP3 PUSH2 0x8AB JUMP JUMPDEST SWAP2 POP DUP2 SWAP1 POP SWAP2 SWAP1 POP JUMP JUMPDEST PUSH32 0x4E487B7100000000000000000000000000000000000000000000000000000000 PUSH1 0x0 MSTORE PUSH1 0x11 PUSH1 0x4 MSTORE PUSH1 0x24 PUSH1 0x0 REVERT JUMPDEST PUSH1 0x0 PUSH2 0x91D DUP3 PUSH2 0x67B JUMP JUMPDEST SWAP2 POP PUSH2 0x928 DUP4 PUSH2 0x67B JUMP JUMPDEST SWAP3 POP DUP3 DUP3 ADD SWAP1 POP DUP1 DUP3 GT ISZERO PUSH2 0x940 JUMPI PUSH2 0x93F PUSH2 0x8E3 JUMP JUMPDEST JUMPDEST SWAP3 SWAP2 POP POP JUMP JUMPDEST PUSH32 0x4469646E27742073656E6420656E6F7567682066756E64730000000000000000 PUSH1 0x0 DUP3 ADD MSTORE POP JUMP JUMPDEST PUSH1 0x0 PUSH2 0x97C PUSH1 0x18 DUP4 PUSH2 0x820 JUMP JUMPDEST SWAP2 POP PUSH2 0x987 DUP3 PUSH2 0x946 JUMP JUMPDEST PUSH1 0x20 DUP3 ADD SWAP1 POP SWAP2 SWAP1 POP JUMP JUMPDEST PUSH1 0x0 PUSH1 0x20 DUP3 ADD SWAP1 POP DUP2 DUP2 SUB PUSH1 0x0 DUP4 ADD MSTORE PUSH2 0x9AB DUP2 PUSH2 0x96F JUMP JUMPDEST SWAP1 POP SWAP2 SWAP1 POP JUMP JUMPDEST PUSH1 0x0 PUSH2 0x9BD DUP3 PUSH2 0x67B JUMP JUMPDEST SWAP2 POP PUSH2 0x9C8 DUP4 PUSH2 0x67B JUMP JUMPDEST SWAP3 POP DUP3 DUP3 MUL PUSH2 0x9D6 DUP2 PUSH2 0x67B JUMP JUMPDEST SWAP2 POP DUP3 DUP3 DIV DUP5 EQ DUP4 ISZERO OR PUSH2 0x9ED JUMPI PUSH2 0x9EC PUSH2 0x8E3 JUMP JUMPDEST JUMPDEST POP SWAP3 SWAP2 POP POP JUMP JUMPDEST PUSH32 0x4E487B7100000000000000000000000000000000000000000000000000000000 PUSH1 0x0 MSTORE PUSH1 0x12 PUSH1 0x4 MSTORE PUSH1 0x24 PUSH1 0x0 REVERT JUMPDEST PUSH1 0x0 PUSH2 0xA2E DUP3 PUSH2 0x67B JUMP JUMPDEST SWAP2 POP PUSH2 0xA39 DUP4 PUSH2 0x67B JUMP JUMPDEST SWAP3 POP DUP3 PUSH2 0xA49 JUMPI PUSH2 0xA48 PUSH2 0x9F4 JUMP JUMPDEST JUMPDEST DUP3 DUP3 DIV SWAP1 POP SWAP3 SWAP2 POP POP JUMP JUMPDEST PUSH1 0x0 PUSH10 0xFFFFFFFFFFFFFFFFFFFF DUP3 AND SWAP1 POP SWAP2 SWAP1 POP JUMP JUMPDEST PUSH2 0xA73 DUP2 PUSH2 0xA54 JUMP JUMPDEST DUP2 EQ PUSH2 0xA7E JUMPI PUSH1 0x0 DUP1 REVERT JUMPDEST POP JUMP JUMPDEST PUSH1 0x0 DUP2 MLOAD SWAP1 POP PUSH2 0xA90 DUP2 PUSH2 0xA6A JUMP JUMPDEST SWAP3 SWAP2 POP POP JUMP JUMPDEST PUSH1 0x0 DUP2 SWAP1 POP SWAP2 SWAP1 POP JUMP JUMPDEST PUSH2 0xAA9 DUP2 PUSH2 0xA96 JUMP JUMPDEST DUP2 EQ PUSH2 0xAB4 JUMPI PUSH1 0x0 DUP1 REVERT JUMPDEST POP JUMP JUMPDEST PUSH1 0x0 DUP2 MLOAD SWAP1 POP PUSH2 0xAC6 DUP2 PUSH2 0xAA0 JUMP JUMPDEST SWAP3 SWAP2 POP POP JUMP JUMPDEST PUSH1 0x0 DUP2 MLOAD SWAP1 POP PUSH2 0xADB DUP2 PUSH2 0x73F JUMP JUMPDEST SWAP3 SWAP2 POP POP JUMP JUMPDEST PUSH1 0x0 DUP1 PUSH1 0x0 DUP1 PUSH1 0x0 PUSH1 0xA0 DUP7 DUP9 SUB SLT ISZERO PUSH2 0xAFD JUMPI PUSH2 0xAFC PUSH2 0x6AF JUMP JUMPDEST JUMPDEST PUSH1 0x0 PUSH2 0xB0B DUP9 DUP3 DUP10 ADD PUSH2 0xA81 JUMP JUMPDEST SWAP6 POP POP PUSH1 0x20 PUSH2 0xB1C DUP9 DUP3 DUP10 ADD PUSH2 0xAB7 JUMP JUMPDEST SWAP5 POP POP PUSH1 0x40 PUSH2 0xB2D DUP9 DUP3 DUP10 ADD PUSH2 0xACC JUMP JUMPDEST SWAP4 POP POP PUSH1 0x60 PUSH2 0xB3E DUP9 DUP3 DUP10 ADD PUSH2 0xACC JUMP JUMPDEST SWAP3 POP POP PUSH1 0x80 PUSH2 0xB4F DUP9 DUP3 DUP10 ADD PUSH2 0xA81 JUMP JUMPDEST SWAP2 POP POP SWAP3 SWAP6 POP SWAP3 SWAP6 SWAP1 SWAP4 POP JUMP JUMPDEST PUSH1 0x0 PUSH2 0xB67 DUP3 PUSH2 0xA96 JUMP JUMPDEST SWAP2 POP PUSH2 0xB72 DUP4 PUSH2 0xA96 JUMP JUMPDEST SWAP3 POP DUP3 DUP3 MUL PUSH2 0xB80 DUP2 PUSH2 0xA96 JUMP JUMPDEST SWAP2 POP PUSH32 0x8000000000000000000000000000000000000000000000000000000000000000 DUP5 EQ PUSH1 0x0 DUP5 SLT AND ISZERO PUSH2 0xBB8 JUMPI PUSH2 0xBB7 PUSH2 0x8E3 JUMP JUMPDEST JUMPDEST DUP3 DUP3 SDIV DUP5 EQ DUP4 ISZERO OR PUSH2 0xBCD JUMPI PUSH2 0xBCC PUSH2 0x8E3 JUMP JUMPDEST JUMPDEST POP SWAP3 SWAP2 POP POP JUMP INVALID LOG2 PUSH5 0x6970667358 0x22 SLT KECCAK256 GASLIMIT 0x4D 0xCF 0xCA 0xA5 PUSH4 0x12B73561 RETURN MUL 0xFB 0xDE DIFFICULTY SWAP6 0xED DUP4 0x29 0xDF 0xCC SELFDESTRUCT PUSH2 0x7493 BASEFEE DUP15 PUSH9 0xCDB64C5664736F6C63 NUMBER STOP ADDMOD GT STOP CALLER "
				},
				"gasEstimates": {
					"creation": {
						"codeDepositCost": "616400",
						"executionCost": "22757",
						"totalCost": "639157"
					},
					"external": {
						"addressToAmountFunded(address)": "2836",
						"fund()": "infinite",
						"funders(uint256)": "5022",
						"minimumUSD()": "2407",
						"withdraw()": "infinite"
					}
				},
				"methodIdentifiers": {
					"addressToAmountFunded(address)": "3e47d6f3",
					"fund()": "b60d4288",
					"funders(uint256)": "dc0d3dff",
					"minimumUSD()": "3430a88c",
					"withdraw()": "3ccfd60b"
				}
			},
			"storageLayout": {
				"storage": [
					{
						"astId": 55,
						"contract": "freecodecamp32Hrs_solidity/FundMe.sol:FundMe",
						"label": "funders",
						"offset": 0,
						"slot": "0",
						"type": "t_array(t_address)dyn_storage"
					},
					{
						"astId": 59,
						"contract": "freecodecamp32Hrs_solidity/FundMe.sol:FundMe",
						"label": "addressToAmountFunded",
						"offset": 0,
						"slot": "1",
						"type": "t_mapping(t_address,t_uint256)"
					},
					{
						"astId": 64,
						"contract": "freecodecamp32Hrs_solidity/FundMe.sol:FundMe",
						"label": "minimumUSD",
						"offset": 0,
						"slot": "2",
						"type": "t_uint256"
					}
				],
				"types": {
					"t_address": {
						"encoding": "inplace",
						"label": "address",
						"numberOfBytes": "20"
					},
					"t_array(t_address)dyn_storage": {
						"base": "t_address",
						"encoding": "dynamic_array",
						"label": "address[]",
						"numberOfBytes": "32"
					},
					"t_mapping(t_address,t_uint256)": {
						"encoding": "mapping",
						"key": "t_address",
						"label": "mapping(address => uint256)",
						"numberOfBytes": "32",
						"value": "t_uint256"
					},
					"t_uint256": {
						"encoding": "inplace",
						"label": "uint256",
						"numberOfBytes": "32"
					}
				}
			},
			"userdoc": {
				"kind": "user",
				"methods": {},
				"version": 1
			}
		}
	}
}