{
	"freecodecamp32Hrs_solidity/FundMe.sol": {
		"FundMe": {
			"abi": [
				{
					"inputs": [],
					"name": "fund",
					"outputs": [],
					"stateMutability": "payable",
					"type": "function"
				},
				{
					"inputs": [
						{
							"internalType": "uint256",
							"name": "ethAmmount",
							"type": "uint256"
						}
					],
					"name": "getConvesionRate",
					"outputs": [
						{
							"internalType": "uint256",
							"name": "",
							"type": "uint256"
						}
					],
					"stateMutability": "view",
					"type": "function"
				},
				{
					"inputs": [],
					"name": "getPrice",
					"outputs": [
						{
							"internalType": "uint256",
							"name": "",
							"type": "uint256"
						}
					],
					"stateMutability": "view",
					"type": "function"
				},
				{
					"inputs": [],
					"name": "getVersion",
					"outputs": [
						{
							"internalType": "uint256",
							"name": "",
							"type": "uint256"
						}
					],
					"stateMutability": "view",
					"type": "function"
				},
				{
					"inputs": [],
					"name": "minimumUSD",
					"outputs": [
						{
							"internalType": "uint256",
							"name": "",
							"type": "uint256"
						}
					],
					"stateMutability": "view",
					"type": "function"
				}
			],
			"devdoc": {
				"kind": "dev",
				"methods": {},
				"version": 1
			},
			"evm": {
				"assembly": "    /* \"freecodecamp32Hrs_solidity/FundMe.sol\":218:1600  contract FundMe{... */\n  mstore(0x40, 0x80)\n    /* \"freecodecamp32Hrs_solidity/FundMe.sol\":274:276  50 */\n  0x32\n    /* \"freecodecamp32Hrs_solidity/FundMe.sol\":246:276  uint256 public minimumUSD = 50 */\n  0x00\n  sstore\n    /* \"freecodecamp32Hrs_solidity/FundMe.sol\":218:1600  contract FundMe{... */\n  callvalue\n  dup1\n  iszero\n  tag_1\n  jumpi\n  0x00\n  dup1\n  revert\ntag_1:\n  pop\n  dataSize(sub_0)\n  dup1\n  dataOffset(sub_0)\n  0x00\n  codecopy\n  0x00\n  return\nstop\n\nsub_0: assembly {\n        /* \"freecodecamp32Hrs_solidity/FundMe.sol\":218:1600  contract FundMe{... */\n      mstore(0x40, 0x80)\n      jumpi(tag_1, lt(calldatasize, 0x04))\n      shr(0xe0, calldataload(0x00))\n      dup1\n      0x0d8e6e2c\n      eq\n      tag_2\n      jumpi\n      dup1\n      0x3430a88c\n      eq\n      tag_3\n      jumpi\n      dup1\n      0x7b13f1cb\n      eq\n      tag_4\n      jumpi\n      dup1\n      0x98d5fdca\n      eq\n      tag_5\n      jumpi\n      dup1\n      0xb60d4288\n      eq\n      tag_6\n      jumpi\n    tag_1:\n      0x00\n      dup1\n      revert\n        /* \"freecodecamp32Hrs_solidity/FundMe.sol\":1345:1556  function getVersion() public view returns(uint256)... */\n    tag_2:\n      callvalue\n      dup1\n      iszero\n      tag_7\n      jumpi\n      0x00\n      dup1\n      revert\n    tag_7:\n      pop\n      tag_8\n      tag_9\n      jump\t// in\n    tag_8:\n      mload(0x40)\n      tag_10\n      swap2\n      swap1\n      tag_11\n      jump\t// in\n    tag_10:\n      mload(0x40)\n      dup1\n      swap2\n      sub\n      swap1\n      return\n        /* \"freecodecamp32Hrs_solidity/FundMe.sol\":246:276  uint256 public minimumUSD = 50 */\n    tag_3:\n      callvalue\n      dup1\n      iszero\n      tag_12\n      jumpi\n      0x00\n      dup1\n      revert\n    tag_12:\n      pop\n      tag_13\n      tag_14\n      jump\t// in\n    tag_13:\n      mload(0x40)\n      tag_15\n      swap2\n      swap1\n      tag_11\n      jump\t// in\n    tag_15:\n      mload(0x40)\n      dup1\n      swap2\n      sub\n      swap1\n      return\n        /* \"freecodecamp32Hrs_solidity/FundMe.sol\":1116:1337  function getConvesionRate(uint256 ethAmmount) public view returns(uint256) {... */\n    tag_4:\n      callvalue\n      dup1\n      iszero\n      tag_16\n      jumpi\n      0x00\n      dup1\n      revert\n    tag_16:\n      pop\n      tag_17\n      0x04\n      dup1\n      calldatasize\n      sub\n      dup2\n      add\n      swap1\n      tag_18\n      swap2\n      swap1\n      tag_19\n      jump\t// in\n    tag_18:\n      tag_20\n      jump\t// in\n    tag_17:\n      mload(0x40)\n      tag_21\n      swap2\n      swap1\n      tag_11\n      jump\t// in\n    tag_21:\n      mload(0x40)\n      dup1\n      swap2\n      sub\n      swap1\n      return\n        /* \"freecodecamp32Hrs_solidity/FundMe.sol\":603:1108  function getPrice() public view returns(uint256){... */\n    tag_5:\n      callvalue\n      dup1\n      iszero\n      tag_22\n      jumpi\n      0x00\n      dup1\n      revert\n    tag_22:\n      pop\n      tag_23\n      tag_24\n      jump\t// in\n    tag_23:\n      mload(0x40)\n      tag_25\n      swap2\n      swap1\n      tag_11\n      jump\t// in\n    tag_25:\n      mload(0x40)\n      dup1\n      swap2\n      sub\n      swap1\n      return\n        /* \"freecodecamp32Hrs_solidity/FundMe.sol\":283:595  function fund() public payable{... */\n    tag_6:\n      tag_26\n      tag_27\n      jump\t// in\n    tag_26:\n      stop\n        /* \"freecodecamp32Hrs_solidity/FundMe.sol\":1345:1556  function getVersion() public view returns(uint256)... */\n    tag_9:\n        /* \"freecodecamp32Hrs_solidity/FundMe.sol\":1387:1394  uint256 */\n      0x00\n        /* \"freecodecamp32Hrs_solidity/FundMe.sol\":1412:1443  AggregatorV3Interface priceFeed */\n      dup1\n        /* \"freecodecamp32Hrs_solidity/FundMe.sol\":1468:1510  0xD4a33860578De61DBAbDc8BFdb98FD742fA7028e */\n      0xd4a33860578de61dbabdc8bfdb98fd742fa7028e\n        /* \"freecodecamp32Hrs_solidity/FundMe.sol\":1412:1511  AggregatorV3Interface priceFeed = AggregatorV3Interface(0xD4a33860578De61DBAbDc8BFdb98FD742fA7028e) */\n      swap1\n      pop\n        /* \"freecodecamp32Hrs_solidity/FundMe.sol\":1529:1538  priceFeed */\n      dup1\n        /* \"freecodecamp32Hrs_solidity/FundMe.sol\":1529:1546  priceFeed.version */\n      0xffffffffffffffffffffffffffffffffffffffff\n      and\n      0x54fd4d50\n        /* \"freecodecamp32Hrs_solidity/FundMe.sol\":1529:1548  priceFeed.version() */\n      mload(0x40)\n      dup2\n      0xffffffff\n      and\n      0xe0\n      shl\n      dup2\n      mstore\n      0x04\n      add\n      0x20\n      mload(0x40)\n      dup1\n      dup4\n      sub\n      dup2\n      dup7\n      gas\n      staticcall\n      iszero\n      dup1\n      iszero\n      tag_30\n      jumpi\n      returndatasize\n      0x00\n      dup1\n      returndatacopy\n      revert(0x00, returndatasize)\n    tag_30:\n      pop\n      pop\n      pop\n      pop\n      mload(0x40)\n      returndatasize\n      not(0x1f)\n      0x1f\n      dup3\n      add\n      and\n      dup3\n      add\n      dup1\n      0x40\n      mstore\n      pop\n      dup2\n      add\n      swap1\n      tag_31\n      swap2\n      swap1\n      tag_32\n      jump\t// in\n    tag_31:\n        /* \"freecodecamp32Hrs_solidity/FundMe.sol\":1522:1548  return priceFeed.version() */\n      swap2\n      pop\n      pop\n        /* \"freecodecamp32Hrs_solidity/FundMe.sol\":1345:1556  function getVersion() public view returns(uint256)... */\n      swap1\n      jump\t// out\n        /* \"freecodecamp32Hrs_solidity/FundMe.sol\":246:276  uint256 public minimumUSD = 50 */\n    tag_14:\n      sload(0x00)\n      dup2\n      jump\t// out\n        /* \"freecodecamp32Hrs_solidity/FundMe.sol\":1116:1337  function getConvesionRate(uint256 ethAmmount) public view returns(uint256) {... */\n    tag_20:\n        /* \"freecodecamp32Hrs_solidity/FundMe.sol\":1182:1189  uint256 */\n      0x00\n        /* \"freecodecamp32Hrs_solidity/FundMe.sol\":1202:1218  uint256 ethPrice */\n      dup1\n        /* \"freecodecamp32Hrs_solidity/FundMe.sol\":1221:1231  getPrice() */\n      tag_34\n        /* \"freecodecamp32Hrs_solidity/FundMe.sol\":1221:1229  getPrice */\n      tag_24\n        /* \"freecodecamp32Hrs_solidity/FundMe.sol\":1221:1231  getPrice() */\n      jump\t// in\n    tag_34:\n        /* \"freecodecamp32Hrs_solidity/FundMe.sol\":1202:1231  uint256 ethPrice = getPrice() */\n      swap1\n      pop\n        /* \"freecodecamp32Hrs_solidity/FundMe.sol\":1242:1265  uint256 ethAmmountInUSD */\n      0x00\n        /* \"freecodecamp32Hrs_solidity/FundMe.sol\":1292:1296  1e18 */\n      0x0de0b6b3a7640000\n        /* \"freecodecamp32Hrs_solidity/FundMe.sol\":1278:1288  ethAmmount */\n      dup5\n        /* \"freecodecamp32Hrs_solidity/FundMe.sol\":1269:1277  ethPrice */\n      dup4\n        /* \"freecodecamp32Hrs_solidity/FundMe.sol\":1269:1288  ethPrice*ethAmmount */\n      tag_35\n      swap2\n      swap1\n      tag_36\n      jump\t// in\n    tag_35:\n        /* \"freecodecamp32Hrs_solidity/FundMe.sol\":1268:1296  (ethPrice*ethAmmount) / 1e18 */\n      tag_37\n      swap2\n      swap1\n      tag_38\n      jump\t// in\n    tag_37:\n        /* \"freecodecamp32Hrs_solidity/FundMe.sol\":1242:1296  uint256 ethAmmountInUSD = (ethPrice*ethAmmount) / 1e18 */\n      swap1\n      pop\n        /* \"freecodecamp32Hrs_solidity/FundMe.sol\":1314:1329  ethAmmountInUSD */\n      dup1\n        /* \"freecodecamp32Hrs_solidity/FundMe.sol\":1307:1329  return ethAmmountInUSD */\n      swap3\n      pop\n      pop\n      pop\n        /* \"freecodecamp32Hrs_solidity/FundMe.sol\":1116:1337  function getConvesionRate(uint256 ethAmmount) public view returns(uint256) {... */\n      swap2\n      swap1\n      pop\n      jump\t// out\n        /* \"freecodecamp32Hrs_solidity/FundMe.sol\":603:1108  function getPrice() public view returns(uint256){... */\n    tag_24:\n        /* \"freecodecamp32Hrs_solidity/FundMe.sol\":643:650  uint256 */\n      0x00\n        /* \"freecodecamp32Hrs_solidity/FundMe.sol\":741:772  AggregatorV3Interface priceFeed */\n      dup1\n        /* \"freecodecamp32Hrs_solidity/FundMe.sol\":797:839  0xD4a33860578De61DBAbDc8BFdb98FD742fA7028e */\n      0xd4a33860578de61dbabdc8bfdb98fd742fa7028e\n        /* \"freecodecamp32Hrs_solidity/FundMe.sol\":741:840  AggregatorV3Interface priceFeed = AggregatorV3Interface(0xD4a33860578De61DBAbDc8BFdb98FD742fA7028e) */\n      swap1\n      pop\n        /* \"freecodecamp32Hrs_solidity/FundMe.sol\":899:911  int256 price */\n      0x00\n        /* \"freecodecamp32Hrs_solidity/FundMe.sol\":1032:1041  priceFeed */\n      dup2\n        /* \"freecodecamp32Hrs_solidity/FundMe.sol\":1032:1057  priceFeed.latestRoundData */\n      0xffffffffffffffffffffffffffffffffffffffff\n      and\n      0xfeaf968c\n        /* \"freecodecamp32Hrs_solidity/FundMe.sol\":1032:1059  priceFeed.latestRoundData() */\n      mload(0x40)\n      dup2\n      0xffffffff\n      and\n      0xe0\n      shl\n      dup2\n      mstore\n      0x04\n      add\n      0xa0\n      mload(0x40)\n      dup1\n      dup4\n      sub\n      dup2\n      dup7\n      gas\n      staticcall\n      iszero\n      dup1\n      iszero\n      tag_41\n      jumpi\n      returndatasize\n      0x00\n      dup1\n      returndatacopy\n      revert(0x00, returndatasize)\n    tag_41:\n      pop\n      pop\n      pop\n      pop\n      mload(0x40)\n      returndatasize\n      not(0x1f)\n      0x1f\n      dup3\n      add\n      and\n      dup3\n      add\n      dup1\n      0x40\n      mstore\n      pop\n      dup2\n      add\n      swap1\n      tag_42\n      swap2\n      swap1\n      tag_43\n      jump\t// in\n    tag_42:\n        /* \"freecodecamp32Hrs_solidity/FundMe.sol\":851:1059  (... */\n      pop\n      pop\n      pop\n      swap2\n      pop\n      pop\n        /* \"freecodecamp32Hrs_solidity/FundMe.sol\":1095:1099  1e10 */\n      0x02540be400\n        /* \"freecodecamp32Hrs_solidity/FundMe.sol\":1087:1092  price */\n      dup2\n        /* \"freecodecamp32Hrs_solidity/FundMe.sol\":1087:1099  price * 1e10 */\n      tag_44\n      swap2\n      swap1\n      tag_45\n      jump\t// in\n    tag_44:\n        /* \"freecodecamp32Hrs_solidity/FundMe.sol\":1072:1100  return uint256(price * 1e10) */\n      swap3\n      pop\n      pop\n      pop\n        /* \"freecodecamp32Hrs_solidity/FundMe.sol\":603:1108  function getPrice() public view returns(uint256){... */\n      swap1\n      jump\t// out\n        /* \"freecodecamp32Hrs_solidity/FundMe.sol\":283:595  function fund() public payable{... */\n    tag_27:\n        /* \"freecodecamp32Hrs_solidity/FundMe.sol\":490:500  minimumUSD */\n      sload(0x00)\n        /* \"freecodecamp32Hrs_solidity/FundMe.sol\":478:487  msg.value */\n      callvalue\n        /* \"freecodecamp32Hrs_solidity/FundMe.sol\":478:500  msg.value > minimumUSD */\n      gt\n        /* \"freecodecamp32Hrs_solidity/FundMe.sol\":470:529  require(msg.value > minimumUSD, \"Didn't send enough funds\") */\n      tag_47\n      jumpi\n      mload(0x40)\n      0x08c379a000000000000000000000000000000000000000000000000000000000\n      dup2\n      mstore\n      0x04\n      add\n      tag_48\n      swap1\n      tag_49\n      jump\t// in\n    tag_48:\n      mload(0x40)\n      dup1\n      swap2\n      sub\n      swap1\n      revert\n    tag_47:\n        /* \"freecodecamp32Hrs_solidity/FundMe.sol\":283:595  function fund() public payable{... */\n      jump\t// out\n        /* \"#utility.yul\":7:84   */\n    tag_50:\n        /* \"#utility.yul\":44:51   */\n      0x00\n        /* \"#utility.yul\":73:78   */\n      dup2\n        /* \"#utility.yul\":62:78   */\n      swap1\n      pop\n        /* \"#utility.yul\":7:84   */\n      swap2\n      swap1\n      pop\n      jump\t// out\n        /* \"#utility.yul\":90:208   */\n    tag_51:\n        /* \"#utility.yul\":177:201   */\n      tag_72\n        /* \"#utility.yul\":195:200   */\n      dup2\n        /* \"#utility.yul\":177:201   */\n      tag_50\n      jump\t// in\n    tag_72:\n        /* \"#utility.yul\":172:175   */\n      dup3\n        /* \"#utility.yul\":165:202   */\n      mstore\n        /* \"#utility.yul\":90:208   */\n      pop\n      pop\n      jump\t// out\n        /* \"#utility.yul\":214:436   */\n    tag_11:\n        /* \"#utility.yul\":307:311   */\n      0x00\n        /* \"#utility.yul\":345:347   */\n      0x20\n        /* \"#utility.yul\":334:343   */\n      dup3\n        /* \"#utility.yul\":330:348   */\n      add\n        /* \"#utility.yul\":322:348   */\n      swap1\n      pop\n        /* \"#utility.yul\":358:429   */\n      tag_74\n        /* \"#utility.yul\":426:427   */\n      0x00\n        /* \"#utility.yul\":415:424   */\n      dup4\n        /* \"#utility.yul\":411:428   */\n      add\n        /* \"#utility.yul\":402:408   */\n      dup5\n        /* \"#utility.yul\":358:429   */\n      tag_51\n      jump\t// in\n    tag_74:\n        /* \"#utility.yul\":214:436   */\n      swap3\n      swap2\n      pop\n      pop\n      jump\t// out\n        /* \"#utility.yul\":523:640   */\n    tag_53:\n        /* \"#utility.yul\":632:633   */\n      0x00\n        /* \"#utility.yul\":629:630   */\n      dup1\n        /* \"#utility.yul\":622:634   */\n      revert\n        /* \"#utility.yul\":769:891   */\n    tag_55:\n        /* \"#utility.yul\":842:866   */\n      tag_79\n        /* \"#utility.yul\":860:865   */\n      dup2\n        /* \"#utility.yul\":842:866   */\n      tag_50\n      jump\t// in\n    tag_79:\n        /* \"#utility.yul\":835:840   */\n      dup2\n        /* \"#utility.yul\":832:867   */\n      eq\n        /* \"#utility.yul\":822:885   */\n      tag_80\n      jumpi\n        /* \"#utility.yul\":881:882   */\n      0x00\n        /* \"#utility.yul\":878:879   */\n      dup1\n        /* \"#utility.yul\":871:883   */\n      revert\n        /* \"#utility.yul\":822:885   */\n    tag_80:\n        /* \"#utility.yul\":769:891   */\n      pop\n      jump\t// out\n        /* \"#utility.yul\":897:1036   */\n    tag_56:\n        /* \"#utility.yul\":943:948   */\n      0x00\n        /* \"#utility.yul\":981:987   */\n      dup2\n        /* \"#utility.yul\":968:988   */\n      calldataload\n        /* \"#utility.yul\":959:988   */\n      swap1\n      pop\n        /* \"#utility.yul\":997:1030   */\n      tag_82\n        /* \"#utility.yul\":1024:1029   */\n      dup2\n        /* \"#utility.yul\":997:1030   */\n      tag_55\n      jump\t// in\n    tag_82:\n        /* \"#utility.yul\":897:1036   */\n      swap3\n      swap2\n      pop\n      pop\n      jump\t// out\n        /* \"#utility.yul\":1042:1371   */\n    tag_19:\n        /* \"#utility.yul\":1101:1107   */\n      0x00\n        /* \"#utility.yul\":1150:1152   */\n      0x20\n        /* \"#utility.yul\":1138:1147   */\n      dup3\n        /* \"#utility.yul\":1129:1136   */\n      dup5\n        /* \"#utility.yul\":1125:1148   */\n      sub\n        /* \"#utility.yul\":1121:1153   */\n      slt\n        /* \"#utility.yul\":1118:1237   */\n      iszero\n      tag_84\n      jumpi\n        /* \"#utility.yul\":1156:1235   */\n      tag_85\n      tag_53\n      jump\t// in\n    tag_85:\n        /* \"#utility.yul\":1118:1237   */\n    tag_84:\n        /* \"#utility.yul\":1276:1277   */\n      0x00\n        /* \"#utility.yul\":1301:1354   */\n      tag_86\n        /* \"#utility.yul\":1346:1353   */\n      dup5\n        /* \"#utility.yul\":1337:1343   */\n      dup3\n        /* \"#utility.yul\":1326:1335   */\n      dup6\n        /* \"#utility.yul\":1322:1344   */\n      add\n        /* \"#utility.yul\":1301:1354   */\n      tag_56\n      jump\t// in\n    tag_86:\n        /* \"#utility.yul\":1291:1354   */\n      swap2\n      pop\n        /* \"#utility.yul\":1247:1364   */\n      pop\n        /* \"#utility.yul\":1042:1371   */\n      swap3\n      swap2\n      pop\n      pop\n      jump\t// out\n        /* \"#utility.yul\":1377:1520   */\n    tag_57:\n        /* \"#utility.yul\":1434:1439   */\n      0x00\n        /* \"#utility.yul\":1465:1471   */\n      dup2\n        /* \"#utility.yul\":1459:1472   */\n      mload\n        /* \"#utility.yul\":1450:1472   */\n      swap1\n      pop\n        /* \"#utility.yul\":1481:1514   */\n      tag_88\n        /* \"#utility.yul\":1508:1513   */\n      dup2\n        /* \"#utility.yul\":1481:1514   */\n      tag_55\n      jump\t// in\n    tag_88:\n        /* \"#utility.yul\":1377:1520   */\n      swap3\n      swap2\n      pop\n      pop\n      jump\t// out\n        /* \"#utility.yul\":1526:1877   */\n    tag_32:\n        /* \"#utility.yul\":1596:1602   */\n      0x00\n        /* \"#utility.yul\":1645:1647   */\n      0x20\n        /* \"#utility.yul\":1633:1642   */\n      dup3\n        /* \"#utility.yul\":1624:1631   */\n      dup5\n        /* \"#utility.yul\":1620:1643   */\n      sub\n        /* \"#utility.yul\":1616:1648   */\n      slt\n        /* \"#utility.yul\":1613:1732   */\n      iszero\n      tag_90\n      jumpi\n        /* \"#utility.yul\":1651:1730   */\n      tag_91\n      tag_53\n      jump\t// in\n    tag_91:\n        /* \"#utility.yul\":1613:1732   */\n    tag_90:\n        /* \"#utility.yul\":1771:1772   */\n      0x00\n        /* \"#utility.yul\":1796:1860   */\n      tag_92\n        /* \"#utility.yul\":1852:1859   */\n      dup5\n        /* \"#utility.yul\":1843:1849   */\n      dup3\n        /* \"#utility.yul\":1832:1841   */\n      dup6\n        /* \"#utility.yul\":1828:1850   */\n      add\n        /* \"#utility.yul\":1796:1860   */\n      tag_57\n      jump\t// in\n    tag_92:\n        /* \"#utility.yul\":1786:1860   */\n      swap2\n      pop\n        /* \"#utility.yul\":1742:1870   */\n      pop\n        /* \"#utility.yul\":1526:1877   */\n      swap3\n      swap2\n      pop\n      pop\n      jump\t// out\n        /* \"#utility.yul\":1883:2063   */\n    tag_58:\n        /* \"#utility.yul\":1931:2008   */\n      0x4e487b7100000000000000000000000000000000000000000000000000000000\n        /* \"#utility.yul\":1928:1929   */\n      0x00\n        /* \"#utility.yul\":1921:2009   */\n      mstore\n        /* \"#utility.yul\":2028:2032   */\n      0x11\n        /* \"#utility.yul\":2025:2026   */\n      0x04\n        /* \"#utility.yul\":2018:2033   */\n      mstore\n        /* \"#utility.yul\":2052:2056   */\n      0x24\n        /* \"#utility.yul\":2049:2050   */\n      0x00\n        /* \"#utility.yul\":2042:2057   */\n      revert\n        /* \"#utility.yul\":2069:2479   */\n    tag_36:\n        /* \"#utility.yul\":2109:2116   */\n      0x00\n        /* \"#utility.yul\":2132:2152   */\n      tag_95\n        /* \"#utility.yul\":2150:2151   */\n      dup3\n        /* \"#utility.yul\":2132:2152   */\n      tag_50\n      jump\t// in\n    tag_95:\n        /* \"#utility.yul\":2127:2152   */\n      swap2\n      pop\n        /* \"#utility.yul\":2166:2186   */\n      tag_96\n        /* \"#utility.yul\":2184:2185   */\n      dup4\n        /* \"#utility.yul\":2166:2186   */\n      tag_50\n      jump\t// in\n    tag_96:\n        /* \"#utility.yul\":2161:2186   */\n      swap3\n      pop\n        /* \"#utility.yul\":2221:2222   */\n      dup3\n        /* \"#utility.yul\":2218:2219   */\n      dup3\n        /* \"#utility.yul\":2214:2223   */\n      mul\n        /* \"#utility.yul\":2243:2273   */\n      tag_97\n        /* \"#utility.yul\":2261:2272   */\n      dup2\n        /* \"#utility.yul\":2243:2273   */\n      tag_50\n      jump\t// in\n    tag_97:\n        /* \"#utility.yul\":2232:2273   */\n      swap2\n      pop\n        /* \"#utility.yul\":2422:2423   */\n      dup3\n        /* \"#utility.yul\":2413:2420   */\n      dup3\n        /* \"#utility.yul\":2409:2424   */\n      div\n        /* \"#utility.yul\":2406:2407   */\n      dup5\n        /* \"#utility.yul\":2403:2425   */\n      eq\n        /* \"#utility.yul\":2383:2384   */\n      dup4\n        /* \"#utility.yul\":2376:2385   */\n      iszero\n        /* \"#utility.yul\":2356:2439   */\n      or\n        /* \"#utility.yul\":2333:2472   */\n      tag_98\n      jumpi\n        /* \"#utility.yul\":2452:2470   */\n      tag_99\n      tag_58\n      jump\t// in\n    tag_99:\n        /* \"#utility.yul\":2333:2472   */\n    tag_98:\n        /* \"#utility.yul\":2117:2479   */\n      pop\n        /* \"#utility.yul\":2069:2479   */\n      swap3\n      swap2\n      pop\n      pop\n      jump\t// out\n        /* \"#utility.yul\":2485:2665   */\n    tag_59:\n        /* \"#utility.yul\":2533:2610   */\n      0x4e487b7100000000000000000000000000000000000000000000000000000000\n        /* \"#utility.yul\":2530:2531   */\n      0x00\n        /* \"#utility.yul\":2523:2611   */\n      mstore\n        /* \"#utility.yul\":2630:2634   */\n      0x12\n        /* \"#utility.yul\":2627:2628   */\n      0x04\n        /* \"#utility.yul\":2620:2635   */\n      mstore\n        /* \"#utility.yul\":2654:2658   */\n      0x24\n        /* \"#utility.yul\":2651:2652   */\n      0x00\n        /* \"#utility.yul\":2644:2659   */\n      revert\n        /* \"#utility.yul\":2671:2856   */\n    tag_38:\n        /* \"#utility.yul\":2711:2712   */\n      0x00\n        /* \"#utility.yul\":2728:2748   */\n      tag_102\n        /* \"#utility.yul\":2746:2747   */\n      dup3\n        /* \"#utility.yul\":2728:2748   */\n      tag_50\n      jump\t// in\n    tag_102:\n        /* \"#utility.yul\":2723:2748   */\n      swap2\n      pop\n        /* \"#utility.yul\":2762:2782   */\n      tag_103\n        /* \"#utility.yul\":2780:2781   */\n      dup4\n        /* \"#utility.yul\":2762:2782   */\n      tag_50\n      jump\t// in\n    tag_103:\n        /* \"#utility.yul\":2757:2782   */\n      swap3\n      pop\n        /* \"#utility.yul\":2801:2802   */\n      dup3\n        /* \"#utility.yul\":2791:2826   */\n      tag_104\n      jumpi\n        /* \"#utility.yul\":2806:2824   */\n      tag_105\n      tag_59\n      jump\t// in\n    tag_105:\n        /* \"#utility.yul\":2791:2826   */\n    tag_104:\n        /* \"#utility.yul\":2848:2849   */\n      dup3\n        /* \"#utility.yul\":2845:2846   */\n      dup3\n        /* \"#utility.yul\":2841:2850   */\n      div\n        /* \"#utility.yul\":2836:2850   */\n      swap1\n      pop\n        /* \"#utility.yul\":2671:2856   */\n      swap3\n      swap2\n      pop\n      pop\n      jump\t// out\n        /* \"#utility.yul\":2862:2967   */\n    tag_60:\n        /* \"#utility.yul\":2898:2905   */\n      0x00\n        /* \"#utility.yul\":2938:2960   */\n      0xffffffffffffffffffff\n        /* \"#utility.yul\":2931:2936   */\n      dup3\n        /* \"#utility.yul\":2927:2961   */\n      and\n        /* \"#utility.yul\":2916:2961   */\n      swap1\n      pop\n        /* \"#utility.yul\":2862:2967   */\n      swap2\n      swap1\n      pop\n      jump\t// out\n        /* \"#utility.yul\":2973:3093   */\n    tag_61:\n        /* \"#utility.yul\":3045:3068   */\n      tag_108\n        /* \"#utility.yul\":3062:3067   */\n      dup2\n        /* \"#utility.yul\":3045:3068   */\n      tag_60\n      jump\t// in\n    tag_108:\n        /* \"#utility.yul\":3038:3043   */\n      dup2\n        /* \"#utility.yul\":3035:3069   */\n      eq\n        /* \"#utility.yul\":3025:3087   */\n      tag_109\n      jumpi\n        /* \"#utility.yul\":3083:3084   */\n      0x00\n        /* \"#utility.yul\":3080:3081   */\n      dup1\n        /* \"#utility.yul\":3073:3085   */\n      revert\n        /* \"#utility.yul\":3025:3087   */\n    tag_109:\n        /* \"#utility.yul\":2973:3093   */\n      pop\n      jump\t// out\n        /* \"#utility.yul\":3099:3240   */\n    tag_62:\n        /* \"#utility.yul\":3155:3160   */\n      0x00\n        /* \"#utility.yul\":3186:3192   */\n      dup2\n        /* \"#utility.yul\":3180:3193   */\n      mload\n        /* \"#utility.yul\":3171:3193   */\n      swap1\n      pop\n        /* \"#utility.yul\":3202:3234   */\n      tag_111\n        /* \"#utility.yul\":3228:3233   */\n      dup2\n        /* \"#utility.yul\":3202:3234   */\n      tag_61\n      jump\t// in\n    tag_111:\n        /* \"#utility.yul\":3099:3240   */\n      swap3\n      swap2\n      pop\n      pop\n      jump\t// out\n        /* \"#utility.yul\":3246:3322   */\n    tag_63:\n        /* \"#utility.yul\":3282:3289   */\n      0x00\n        /* \"#utility.yul\":3311:3316   */\n      dup2\n        /* \"#utility.yul\":3300:3316   */\n      swap1\n      pop\n        /* \"#utility.yul\":3246:3322   */\n      swap2\n      swap1\n      pop\n      jump\t// out\n        /* \"#utility.yul\":3328:3448   */\n    tag_64:\n        /* \"#utility.yul\":3400:3423   */\n      tag_114\n        /* \"#utility.yul\":3417:3422   */\n      dup2\n        /* \"#utility.yul\":3400:3423   */\n      tag_63\n      jump\t// in\n    tag_114:\n        /* \"#utility.yul\":3393:3398   */\n      dup2\n        /* \"#utility.yul\":3390:3424   */\n      eq\n        /* \"#utility.yul\":3380:3442   */\n      tag_115\n      jumpi\n        /* \"#utility.yul\":3438:3439   */\n      0x00\n        /* \"#utility.yul\":3435:3436   */\n      dup1\n        /* \"#utility.yul\":3428:3440   */\n      revert\n        /* \"#utility.yul\":3380:3442   */\n    tag_115:\n        /* \"#utility.yul\":3328:3448   */\n      pop\n      jump\t// out\n        /* \"#utility.yul\":3454:3595   */\n    tag_65:\n        /* \"#utility.yul\":3510:3515   */\n      0x00\n        /* \"#utility.yul\":3541:3547   */\n      dup2\n        /* \"#utility.yul\":3535:3548   */\n      mload\n        /* \"#utility.yul\":3526:3548   */\n      swap1\n      pop\n        /* \"#utility.yul\":3557:3589   */\n      tag_117\n        /* \"#utility.yul\":3583:3588   */\n      dup2\n        /* \"#utility.yul\":3557:3589   */\n      tag_64\n      jump\t// in\n    tag_117:\n        /* \"#utility.yul\":3454:3595   */\n      swap3\n      swap2\n      pop\n      pop\n      jump\t// out\n        /* \"#utility.yul\":3601:4572   */\n    tag_43:\n        /* \"#utility.yul\":3704:3710   */\n      0x00\n        /* \"#utility.yul\":3712:3718   */\n      dup1\n        /* \"#utility.yul\":3720:3726   */\n      0x00\n        /* \"#utility.yul\":3728:3734   */\n      dup1\n        /* \"#utility.yul\":3736:3742   */\n      0x00\n        /* \"#utility.yul\":3785:3788   */\n      0xa0\n        /* \"#utility.yul\":3773:3782   */\n      dup7\n        /* \"#utility.yul\":3764:3771   */\n      dup9\n        /* \"#utility.yul\":3760:3783   */\n      sub\n        /* \"#utility.yul\":3756:3789   */\n      slt\n        /* \"#utility.yul\":3753:3873   */\n      iszero\n      tag_119\n      jumpi\n        /* \"#utility.yul\":3792:3871   */\n      tag_120\n      tag_53\n      jump\t// in\n    tag_120:\n        /* \"#utility.yul\":3753:3873   */\n    tag_119:\n        /* \"#utility.yul\":3912:3913   */\n      0x00\n        /* \"#utility.yul\":3937:4000   */\n      tag_121\n        /* \"#utility.yul\":3992:3999   */\n      dup9\n        /* \"#utility.yul\":3983:3989   */\n      dup3\n        /* \"#utility.yul\":3972:3981   */\n      dup10\n        /* \"#utility.yul\":3968:3990   */\n      add\n        /* \"#utility.yul\":3937:4000   */\n      tag_62\n      jump\t// in\n    tag_121:\n        /* \"#utility.yul\":3927:4000   */\n      swap6\n      pop\n        /* \"#utility.yul\":3883:4010   */\n      pop\n        /* \"#utility.yul\":4049:4051   */\n      0x20\n        /* \"#utility.yul\":4075:4138   */\n      tag_122\n        /* \"#utility.yul\":4130:4137   */\n      dup9\n        /* \"#utility.yul\":4121:4127   */\n      dup3\n        /* \"#utility.yul\":4110:4119   */\n      dup10\n        /* \"#utility.yul\":4106:4128   */\n      add\n        /* \"#utility.yul\":4075:4138   */\n      tag_65\n      jump\t// in\n    tag_122:\n        /* \"#utility.yul\":4065:4138   */\n      swap5\n      pop\n        /* \"#utility.yul\":4020:4148   */\n      pop\n        /* \"#utility.yul\":4187:4189   */\n      0x40\n        /* \"#utility.yul\":4213:4277   */\n      tag_123\n        /* \"#utility.yul\":4269:4276   */\n      dup9\n        /* \"#utility.yul\":4260:4266   */\n      dup3\n        /* \"#utility.yul\":4249:4258   */\n      dup10\n        /* \"#utility.yul\":4245:4267   */\n      add\n        /* \"#utility.yul\":4213:4277   */\n      tag_57\n      jump\t// in\n    tag_123:\n        /* \"#utility.yul\":4203:4277   */\n      swap4\n      pop\n        /* \"#utility.yul\":4158:4287   */\n      pop\n        /* \"#utility.yul\":4326:4328   */\n      0x60\n        /* \"#utility.yul\":4352:4416   */\n      tag_124\n        /* \"#utility.yul\":4408:4415   */\n      dup9\n        /* \"#utility.yul\":4399:4405   */\n      dup3\n        /* \"#utility.yul\":4388:4397   */\n      dup10\n        /* \"#utility.yul\":4384:4406   */\n      add\n        /* \"#utility.yul\":4352:4416   */\n      tag_57\n      jump\t// in\n    tag_124:\n        /* \"#utility.yul\":4342:4416   */\n      swap3\n      pop\n        /* \"#utility.yul\":4297:4426   */\n      pop\n        /* \"#utility.yul\":4465:4468   */\n      0x80\n        /* \"#utility.yul\":4492:4555   */\n      tag_125\n        /* \"#utility.yul\":4547:4554   */\n      dup9\n        /* \"#utility.yul\":4538:4544   */\n      dup3\n        /* \"#utility.yul\":4527:4536   */\n      dup10\n        /* \"#utility.yul\":4523:4545   */\n      add\n        /* \"#utility.yul\":4492:4555   */\n      tag_62\n      jump\t// in\n    tag_125:\n        /* \"#utility.yul\":4482:4555   */\n      swap2\n      pop\n        /* \"#utility.yul\":4436:4565   */\n      pop\n        /* \"#utility.yul\":3601:4572   */\n      swap3\n      swap6\n      pop\n      swap3\n      swap6\n      swap1\n      swap4\n      pop\n      jump\t// out\n        /* \"#utility.yul\":4578:5134   */\n    tag_45:\n        /* \"#utility.yul\":4617:4624   */\n      0x00\n        /* \"#utility.yul\":4640:4659   */\n      tag_127\n        /* \"#utility.yul\":4657:4658   */\n      dup3\n        /* \"#utility.yul\":4640:4659   */\n      tag_63\n      jump\t// in\n    tag_127:\n        /* \"#utility.yul\":4635:4659   */\n      swap2\n      pop\n        /* \"#utility.yul\":4673:4692   */\n      tag_128\n        /* \"#utility.yul\":4690:4691   */\n      dup4\n        /* \"#utility.yul\":4673:4692   */\n      tag_63\n      jump\t// in\n    tag_128:\n        /* \"#utility.yul\":4668:4692   */\n      swap3\n      pop\n        /* \"#utility.yul\":4727:4728   */\n      dup3\n        /* \"#utility.yul\":4724:4725   */\n      dup3\n        /* \"#utility.yul\":4720:4729   */\n      mul\n        /* \"#utility.yul\":4749:4778   */\n      tag_129\n        /* \"#utility.yul\":4766:4777   */\n      dup2\n        /* \"#utility.yul\":4749:4778   */\n      tag_63\n      jump\t// in\n    tag_129:\n        /* \"#utility.yul\":4738:4778   */\n      swap2\n      pop\n        /* \"#utility.yul\":4836:4902   */\n      0x8000000000000000000000000000000000000000000000000000000000000000\n        /* \"#utility.yul\":4833:4834   */\n      dup5\n        /* \"#utility.yul\":4830:4903   */\n      eq\n        /* \"#utility.yul\":4826:4827   */\n      0x00\n        /* \"#utility.yul\":4823:4824   */\n      dup5\n        /* \"#utility.yul\":4819:4828   */\n      slt\n        /* \"#utility.yul\":4815:4904   */\n      and\n        /* \"#utility.yul\":4812:4927   */\n      iszero\n      tag_130\n      jumpi\n        /* \"#utility.yul\":4907:4925   */\n      tag_131\n      tag_58\n      jump\t// in\n    tag_131:\n        /* \"#utility.yul\":4812:4927   */\n    tag_130:\n        /* \"#utility.yul\":5077:5078   */\n      dup3\n        /* \"#utility.yul\":5068:5075   */\n      dup3\n        /* \"#utility.yul\":5063:5079   */\n      sdiv\n        /* \"#utility.yul\":5060:5061   */\n      dup5\n        /* \"#utility.yul\":5057:5080   */\n      eq\n        /* \"#utility.yul\":5037:5038   */\n      dup4\n        /* \"#utility.yul\":5030:5039   */\n      iszero\n        /* \"#utility.yul\":5010:5094   */\n      or\n        /* \"#utility.yul\":4987:5127   */\n      tag_132\n      jumpi\n        /* \"#utility.yul\":5107:5125   */\n      tag_133\n      tag_58\n      jump\t// in\n    tag_133:\n        /* \"#utility.yul\":4987:5127   */\n    tag_132:\n        /* \"#utility.yul\":4625:5134   */\n      pop\n        /* \"#utility.yul\":4578:5134   */\n      swap3\n      swap2\n      pop\n      pop\n      jump\t// out\n        /* \"#utility.yul\":5140:5309   */\n    tag_66:\n        /* \"#utility.yul\":5224:5235   */\n      0x00\n        /* \"#utility.yul\":5258:5264   */\n      dup3\n        /* \"#utility.yul\":5253:5256   */\n      dup3\n        /* \"#utility.yul\":5246:5265   */\n      mstore\n        /* \"#utility.yul\":5298:5302   */\n      0x20\n        /* \"#utility.yul\":5293:5296   */\n      dup3\n        /* \"#utility.yul\":5289:5303   */\n      add\n        /* \"#utility.yul\":5274:5303   */\n      swap1\n      pop\n        /* \"#utility.yul\":5140:5309   */\n      swap3\n      swap2\n      pop\n      pop\n      jump\t// out\n        /* \"#utility.yul\":5315:5489   */\n    tag_67:\n        /* \"#utility.yul\":5455:5481   */\n      0x4469646e27742073656e6420656e6f7567682066756e64730000000000000000\n        /* \"#utility.yul\":5451:5452   */\n      0x00\n        /* \"#utility.yul\":5443:5449   */\n      dup3\n        /* \"#utility.yul\":5439:5453   */\n      add\n        /* \"#utility.yul\":5432:5482   */\n      mstore\n        /* \"#utility.yul\":5315:5489   */\n      pop\n      jump\t// out\n        /* \"#utility.yul\":5495:5861   */\n    tag_68:\n        /* \"#utility.yul\":5637:5640   */\n      0x00\n        /* \"#utility.yul\":5658:5725   */\n      tag_137\n        /* \"#utility.yul\":5722:5724   */\n      0x18\n        /* \"#utility.yul\":5717:5720   */\n      dup4\n        /* \"#utility.yul\":5658:5725   */\n      tag_66\n      jump\t// in\n    tag_137:\n        /* \"#utility.yul\":5651:5725   */\n      swap2\n      pop\n        /* \"#utility.yul\":5734:5827   */\n      tag_138\n        /* \"#utility.yul\":5823:5826   */\n      dup3\n        /* \"#utility.yul\":5734:5827   */\n      tag_67\n      jump\t// in\n    tag_138:\n        /* \"#utility.yul\":5852:5854   */\n      0x20\n        /* \"#utility.yul\":5847:5850   */\n      dup3\n        /* \"#utility.yul\":5843:5855   */\n      add\n        /* \"#utility.yul\":5836:5855   */\n      swap1\n      pop\n        /* \"#utility.yul\":5495:5861   */\n      swap2\n      swap1\n      pop\n      jump\t// out\n        /* \"#utility.yul\":5867:6286   */\n    tag_49:\n        /* \"#utility.yul\":6033:6037   */\n      0x00\n        /* \"#utility.yul\":6071:6073   */\n      0x20\n        /* \"#utility.yul\":6060:6069   */\n      dup3\n        /* \"#utility.yul\":6056:6074   */\n      add\n        /* \"#utility.yul\":6048:6074   */\n      swap1\n      pop\n        /* \"#utility.yul\":6120:6129   */\n      dup2\n        /* \"#utility.yul\":6114:6118   */\n      dup2\n        /* \"#utility.yul\":6110:6130   */\n      sub\n        /* \"#utility.yul\":6106:6107   */\n      0x00\n        /* \"#utility.yul\":6095:6104   */\n      dup4\n        /* \"#utility.yul\":6091:6108   */\n      add\n        /* \"#utility.yul\":6084:6131   */\n      mstore\n        /* \"#utility.yul\":6148:6279   */\n      tag_140\n        /* \"#utility.yul\":6274:6278   */\n      dup2\n        /* \"#utility.yul\":6148:6279   */\n      tag_68\n      jump\t// in\n    tag_140:\n        /* \"#utility.yul\":6140:6279   */\n      swap1\n      pop\n        /* \"#utility.yul\":5867:6286   */\n      swap2\n      swap1\n      pop\n      jump\t// out\n\n    auxdata: 0xa2646970667358221220a18655509570d42301eee02bf6b7d4f4d3e9859c18da5c9b7ecf22aeab96635364736f6c63430008110033\n}\n",
				"bytecode": {
					"linkReferences": {},
					"object": "6080604052603260005534801561001557600080fd5b50610698806100256000396000f3fe60806040526004361061004a5760003560e01c80630d8e6e2c1461004f5780633430a88c1461007a5780637b13f1cb146100a557806398d5fdca146100e2578063b60d42881461010d575b600080fd5b34801561005b57600080fd5b50610064610117565b60405161007191906102ee565b60405180910390f35b34801561008657600080fd5b5061008f6101a6565b60405161009c91906102ee565b60405180910390f35b3480156100b157600080fd5b506100cc60048036038101906100c7919061033a565b6101ac565b6040516100d991906102ee565b60405180910390f35b3480156100ee57600080fd5b506100f76101e6565b60405161010491906102ee565b60405180910390f35b61011561028f565b005b60008073d4a33860578de61dbabdc8bfdb98fd742fa7028e90508073ffffffffffffffffffffffffffffffffffffffff166354fd4d506040518163ffffffff1660e01b8152600401602060405180830381865afa15801561017c573d6000803e3d6000fd5b505050506040513d601f19601f820116820180604052508101906101a0919061037c565b91505090565b60005481565b6000806101b76101e6565b90506000670de0b6b3a764000084836101d091906103d8565b6101da9190610449565b90508092505050919050565b60008073d4a33860578de61dbabdc8bfdb98fd742fa7028e905060008173ffffffffffffffffffffffffffffffffffffffff1663feaf968c6040518163ffffffff1660e01b815260040160a060405180830381865afa15801561024d573d6000803e3d6000fd5b505050506040513d601f19601f8201168201806040525081019061027191906104f2565b5050509150506402540be40081610288919061056d565b9250505090565b60005434116102d3576040517f08c379a00000000000000000000000000000000000000000000000000000000081526004016102ca90610642565b60405180910390fd5b565b6000819050919050565b6102e8816102d5565b82525050565b600060208201905061030360008301846102df565b92915050565b600080fd5b610317816102d5565b811461032257600080fd5b50565b6000813590506103348161030e565b92915050565b6000602082840312156103505761034f610309565b5b600061035e84828501610325565b91505092915050565b6000815190506103768161030e565b92915050565b60006020828403121561039257610391610309565b5b60006103a084828501610367565b91505092915050565b7f4e487b7100000000000000000000000000000000000000000000000000000000600052601160045260246000fd5b60006103e3826102d5565b91506103ee836102d5565b92508282026103fc816102d5565b91508282048414831517610413576104126103a9565b5b5092915050565b7f4e487b7100000000000000000000000000000000000000000000000000000000600052601260045260246000fd5b6000610454826102d5565b915061045f836102d5565b92508261046f5761046e61041a565b5b828204905092915050565b600069ffffffffffffffffffff82169050919050565b6104998161047a565b81146104a457600080fd5b50565b6000815190506104b681610490565b92915050565b6000819050919050565b6104cf816104bc565b81146104da57600080fd5b50565b6000815190506104ec816104c6565b92915050565b600080600080600060a0868803121561050e5761050d610309565b5b600061051c888289016104a7565b955050602061052d888289016104dd565b945050604061053e88828901610367565b935050606061054f88828901610367565b9250506080610560888289016104a7565b9150509295509295909350565b6000610578826104bc565b9150610583836104bc565b9250828202610591816104bc565b91507f800000000000000000000000000000000000000000000000000000000000000084146000841216156105c9576105c86103a9565b5b82820584148315176105de576105dd6103a9565b5b5092915050565b600082825260208201905092915050565b7f4469646e27742073656e6420656e6f7567682066756e64730000000000000000600082015250565b600061062c6018836105e5565b9150610637826105f6565b602082019050919050565b6000602082019050818103600083015261065b8161061f565b905091905056fea2646970667358221220a18655509570d42301eee02bf6b7d4f4d3e9859c18da5c9b7ecf22aeab96635364736f6c63430008110033",
					"opcodes": "PUSH1 0x80 PUSH1 0x40 MSTORE PUSH1 0x32 PUSH1 0x0 SSTORE CALLVALUE DUP1 ISZERO PUSH2 0x15 JUMPI PUSH1 0x0 DUP1 REVERT JUMPDEST POP PUSH2 0x698 DUP1 PUSH2 0x25 PUSH1 0x0 CODECOPY PUSH1 0x0 RETURN INVALID PUSH1 0x80 PUSH1 0x40 MSTORE PUSH1 0x4 CALLDATASIZE LT PUSH2 0x4A JUMPI PUSH1 0x0 CALLDATALOAD PUSH1 0xE0 SHR DUP1 PUSH4 0xD8E6E2C EQ PUSH2 0x4F JUMPI DUP1 PUSH4 0x3430A88C EQ PUSH2 0x7A JUMPI DUP1 PUSH4 0x7B13F1CB EQ PUSH2 0xA5 JUMPI DUP1 PUSH4 0x98D5FDCA EQ PUSH2 0xE2 JUMPI DUP1 PUSH4 0xB60D4288 EQ PUSH2 0x10D JUMPI JUMPDEST PUSH1 0x0 DUP1 REVERT JUMPDEST CALLVALUE DUP1 ISZERO PUSH2 0x5B JUMPI PUSH1 0x0 DUP1 REVERT JUMPDEST POP PUSH2 0x64 PUSH2 0x117 JUMP JUMPDEST PUSH1 0x40 MLOAD PUSH2 0x71 SWAP2 SWAP1 PUSH2 0x2EE JUMP JUMPDEST PUSH1 0x40 MLOAD DUP1 SWAP2 SUB SWAP1 RETURN JUMPDEST CALLVALUE DUP1 ISZERO PUSH2 0x86 JUMPI PUSH1 0x0 DUP1 REVERT JUMPDEST POP PUSH2 0x8F PUSH2 0x1A6 JUMP JUMPDEST PUSH1 0x40 MLOAD PUSH2 0x9C SWAP2 SWAP1 PUSH2 0x2EE JUMP JUMPDEST PUSH1 0x40 MLOAD DUP1 SWAP2 SUB SWAP1 RETURN JUMPDEST CALLVALUE DUP1 ISZERO PUSH2 0xB1 JUMPI PUSH1 0x0 DUP1 REVERT JUMPDEST POP PUSH2 0xCC PUSH1 0x4 DUP1 CALLDATASIZE SUB DUP2 ADD SWAP1 PUSH2 0xC7 SWAP2 SWAP1 PUSH2 0x33A JUMP JUMPDEST PUSH2 0x1AC JUMP JUMPDEST PUSH1 0x40 MLOAD PUSH2 0xD9 SWAP2 SWAP1 PUSH2 0x2EE JUMP JUMPDEST PUSH1 0x40 MLOAD DUP1 SWAP2 SUB SWAP1 RETURN JUMPDEST CALLVALUE DUP1 ISZERO PUSH2 0xEE JUMPI PUSH1 0x0 DUP1 REVERT JUMPDEST POP PUSH2 0xF7 PUSH2 0x1E6 JUMP JUMPDEST PUSH1 0x40 MLOAD PUSH2 0x104 SWAP2 SWAP1 PUSH2 0x2EE JUMP JUMPDEST PUSH1 0x40 MLOAD DUP1 SWAP2 SUB SWAP1 RETURN JUMPDEST PUSH2 0x115 PUSH2 0x28F JUMP JUMPDEST STOP JUMPDEST PUSH1 0x0 DUP1 PUSH20 0xD4A33860578DE61DBABDC8BFDB98FD742FA7028E SWAP1 POP DUP1 PUSH20 0xFFFFFFFFFFFFFFFFFFFFFFFFFFFFFFFFFFFFFFFF AND PUSH4 0x54FD4D50 PUSH1 0x40 MLOAD DUP2 PUSH4 0xFFFFFFFF AND PUSH1 0xE0 SHL DUP2 MSTORE PUSH1 0x4 ADD PUSH1 0x20 PUSH1 0x40 MLOAD DUP1 DUP4 SUB DUP2 DUP7 GAS STATICCALL ISZERO DUP1 ISZERO PUSH2 0x17C JUMPI RETURNDATASIZE PUSH1 0x0 DUP1 RETURNDATACOPY RETURNDATASIZE PUSH1 0x0 REVERT JUMPDEST POP POP POP POP PUSH1 0x40 MLOAD RETURNDATASIZE PUSH1 0x1F NOT PUSH1 0x1F DUP3 ADD AND DUP3 ADD DUP1 PUSH1 0x40 MSTORE POP DUP2 ADD SWAP1 PUSH2 0x1A0 SWAP2 SWAP1 PUSH2 0x37C JUMP JUMPDEST SWAP2 POP POP SWAP1 JUMP JUMPDEST PUSH1 0x0 SLOAD DUP2 JUMP JUMPDEST PUSH1 0x0 DUP1 PUSH2 0x1B7 PUSH2 0x1E6 JUMP JUMPDEST SWAP1 POP PUSH1 0x0 PUSH8 0xDE0B6B3A7640000 DUP5 DUP4 PUSH2 0x1D0 SWAP2 SWAP1 PUSH2 0x3D8 JUMP JUMPDEST PUSH2 0x1DA SWAP2 SWAP1 PUSH2 0x449 JUMP JUMPDEST SWAP1 POP DUP1 SWAP3 POP POP POP SWAP2 SWAP1 POP JUMP JUMPDEST PUSH1 0x0 DUP1 PUSH20 0xD4A33860578DE61DBABDC8BFDB98FD742FA7028E SWAP1 POP PUSH1 0x0 DUP2 PUSH20 0xFFFFFFFFFFFFFFFFFFFFFFFFFFFFFFFFFFFFFFFF AND PUSH4 0xFEAF968C PUSH1 0x40 MLOAD DUP2 PUSH4 0xFFFFFFFF AND PUSH1 0xE0 SHL DUP2 MSTORE PUSH1 0x4 ADD PUSH1 0xA0 PUSH1 0x40 MLOAD DUP1 DUP4 SUB DUP2 DUP7 GAS STATICCALL ISZERO DUP1 ISZERO PUSH2 0x24D JUMPI RETURNDATASIZE PUSH1 0x0 DUP1 RETURNDATACOPY RETURNDATASIZE PUSH1 0x0 REVERT JUMPDEST POP POP POP POP PUSH1 0x40 MLOAD RETURNDATASIZE PUSH1 0x1F NOT PUSH1 0x1F DUP3 ADD AND DUP3 ADD DUP1 PUSH1 0x40 MSTORE POP DUP2 ADD SWAP1 PUSH2 0x271 SWAP2 SWAP1 PUSH2 0x4F2 JUMP JUMPDEST POP POP POP SWAP2 POP POP PUSH5 0x2540BE400 DUP2 PUSH2 0x288 SWAP2 SWAP1 PUSH2 0x56D JUMP JUMPDEST SWAP3 POP POP POP SWAP1 JUMP JUMPDEST PUSH1 0x0 SLOAD CALLVALUE GT PUSH2 0x2D3 JUMPI PUSH1 0x40 MLOAD PUSH32 0x8C379A000000000000000000000000000000000000000000000000000000000 DUP2 MSTORE PUSH1 0x4 ADD PUSH2 0x2CA SWAP1 PUSH2 0x642 JUMP JUMPDEST PUSH1 0x40 MLOAD DUP1 SWAP2 SUB SWAP1 REVERT JUMPDEST JUMP JUMPDEST PUSH1 0x0 DUP2 SWAP1 POP SWAP2 SWAP1 POP JUMP JUMPDEST PUSH2 0x2E8 DUP2 PUSH2 0x2D5 JUMP JUMPDEST DUP3 MSTORE POP POP JUMP JUMPDEST PUSH1 0x0 PUSH1 0x20 DUP3 ADD SWAP1 POP PUSH2 0x303 PUSH1 0x0 DUP4 ADD DUP5 PUSH2 0x2DF JUMP JUMPDEST SWAP3 SWAP2 POP POP JUMP JUMPDEST PUSH1 0x0 DUP1 REVERT JUMPDEST PUSH2 0x317 DUP2 PUSH2 0x2D5 JUMP JUMPDEST DUP2 EQ PUSH2 0x322 JUMPI PUSH1 0x0 DUP1 REVERT JUMPDEST POP JUMP JUMPDEST PUSH1 0x0 DUP2 CALLDATALOAD SWAP1 POP PUSH2 0x334 DUP2 PUSH2 0x30E JUMP JUMPDEST SWAP3 SWAP2 POP POP JUMP JUMPDEST PUSH1 0x0 PUSH1 0x20 DUP3 DUP5 SUB SLT ISZERO PUSH2 0x350 JUMPI PUSH2 0x34F PUSH2 0x309 JUMP JUMPDEST JUMPDEST PUSH1 0x0 PUSH2 0x35E DUP5 DUP3 DUP6 ADD PUSH2 0x325 JUMP JUMPDEST SWAP2 POP POP SWAP3 SWAP2 POP POP JUMP JUMPDEST PUSH1 0x0 DUP2 MLOAD SWAP1 POP PUSH2 0x376 DUP2 PUSH2 0x30E JUMP JUMPDEST SWAP3 SWAP2 POP POP JUMP JUMPDEST PUSH1 0x0 PUSH1 0x20 DUP3 DUP5 SUB SLT ISZERO PUSH2 0x392 JUMPI PUSH2 0x391 PUSH2 0x309 JUMP JUMPDEST JUMPDEST PUSH1 0x0 PUSH2 0x3A0 DUP5 DUP3 DUP6 ADD PUSH2 0x367 JUMP JUMPDEST SWAP2 POP POP SWAP3 SWAP2 POP POP JUMP JUMPDEST PUSH32 0x4E487B7100000000000000000000000000000000000000000000000000000000 PUSH1 0x0 MSTORE PUSH1 0x11 PUSH1 0x4 MSTORE PUSH1 0x24 PUSH1 0x0 REVERT JUMPDEST PUSH1 0x0 PUSH2 0x3E3 DUP3 PUSH2 0x2D5 JUMP JUMPDEST SWAP2 POP PUSH2 0x3EE DUP4 PUSH2 0x2D5 JUMP JUMPDEST SWAP3 POP DUP3 DUP3 MUL PUSH2 0x3FC DUP2 PUSH2 0x2D5 JUMP JUMPDEST SWAP2 POP DUP3 DUP3 DIV DUP5 EQ DUP4 ISZERO OR PUSH2 0x413 JUMPI PUSH2 0x412 PUSH2 0x3A9 JUMP JUMPDEST JUMPDEST POP SWAP3 SWAP2 POP POP JUMP JUMPDEST PUSH32 0x4E487B7100000000000000000000000000000000000000000000000000000000 PUSH1 0x0 MSTORE PUSH1 0x12 PUSH1 0x4 MSTORE PUSH1 0x24 PUSH1 0x0 REVERT JUMPDEST PUSH1 0x0 PUSH2 0x454 DUP3 PUSH2 0x2D5 JUMP JUMPDEST SWAP2 POP PUSH2 0x45F DUP4 PUSH2 0x2D5 JUMP JUMPDEST SWAP3 POP DUP3 PUSH2 0x46F JUMPI PUSH2 0x46E PUSH2 0x41A JUMP JUMPDEST JUMPDEST DUP3 DUP3 DIV SWAP1 POP SWAP3 SWAP2 POP POP JUMP JUMPDEST PUSH1 0x0 PUSH10 0xFFFFFFFFFFFFFFFFFFFF DUP3 AND SWAP1 POP SWAP2 SWAP1 POP JUMP JUMPDEST PUSH2 0x499 DUP2 PUSH2 0x47A JUMP JUMPDEST DUP2 EQ PUSH2 0x4A4 JUMPI PUSH1 0x0 DUP1 REVERT JUMPDEST POP JUMP JUMPDEST PUSH1 0x0 DUP2 MLOAD SWAP1 POP PUSH2 0x4B6 DUP2 PUSH2 0x490 JUMP JUMPDEST SWAP3 SWAP2 POP POP JUMP JUMPDEST PUSH1 0x0 DUP2 SWAP1 POP SWAP2 SWAP1 POP JUMP JUMPDEST PUSH2 0x4CF DUP2 PUSH2 0x4BC JUMP JUMPDEST DUP2 EQ PUSH2 0x4DA JUMPI PUSH1 0x0 DUP1 REVERT JUMPDEST POP JUMP JUMPDEST PUSH1 0x0 DUP2 MLOAD SWAP1 POP PUSH2 0x4EC DUP2 PUSH2 0x4C6 JUMP JUMPDEST SWAP3 SWAP2 POP POP JUMP JUMPDEST PUSH1 0x0 DUP1 PUSH1 0x0 DUP1 PUSH1 0x0 PUSH1 0xA0 DUP7 DUP9 SUB SLT ISZERO PUSH2 0x50E JUMPI PUSH2 0x50D PUSH2 0x309 JUMP JUMPDEST JUMPDEST PUSH1 0x0 PUSH2 0x51C DUP9 DUP3 DUP10 ADD PUSH2 0x4A7 JUMP JUMPDEST SWAP6 POP POP PUSH1 0x20 PUSH2 0x52D DUP9 DUP3 DUP10 ADD PUSH2 0x4DD JUMP JUMPDEST SWAP5 POP POP PUSH1 0x40 PUSH2 0x53E DUP9 DUP3 DUP10 ADD PUSH2 0x367 JUMP JUMPDEST SWAP4 POP POP PUSH1 0x60 PUSH2 0x54F DUP9 DUP3 DUP10 ADD PUSH2 0x367 JUMP JUMPDEST SWAP3 POP POP PUSH1 0x80 PUSH2 0x560 DUP9 DUP3 DUP10 ADD PUSH2 0x4A7 JUMP JUMPDEST SWAP2 POP POP SWAP3 SWAP6 POP SWAP3 SWAP6 SWAP1 SWAP4 POP JUMP JUMPDEST PUSH1 0x0 PUSH2 0x578 DUP3 PUSH2 0x4BC JUMP JUMPDEST SWAP2 POP PUSH2 0x583 DUP4 PUSH2 0x4BC JUMP JUMPDEST SWAP3 POP DUP3 DUP3 MUL PUSH2 0x591 DUP2 PUSH2 0x4BC JUMP JUMPDEST SWAP2 POP PUSH32 0x8000000000000000000000000000000000000000000000000000000000000000 DUP5 EQ PUSH1 0x0 DUP5 SLT AND ISZERO PUSH2 0x5C9 JUMPI PUSH2 0x5C8 PUSH2 0x3A9 JUMP JUMPDEST JUMPDEST DUP3 DUP3 SDIV DUP5 EQ DUP4 ISZERO OR PUSH2 0x5DE JUMPI PUSH2 0x5DD PUSH2 0x3A9 JUMP JUMPDEST JUMPDEST POP SWAP3 SWAP2 POP POP JUMP JUMPDEST PUSH1 0x0 DUP3 DUP3 MSTORE PUSH1 0x20 DUP3 ADD SWAP1 POP SWAP3 SWAP2 POP POP JUMP JUMPDEST PUSH32 0x4469646E27742073656E6420656E6F7567682066756E64730000000000000000 PUSH1 0x0 DUP3 ADD MSTORE POP JUMP JUMPDEST PUSH1 0x0 PUSH2 0x62C PUSH1 0x18 DUP4 PUSH2 0x5E5 JUMP JUMPDEST SWAP2 POP PUSH2 0x637 DUP3 PUSH2 0x5F6 JUMP JUMPDEST PUSH1 0x20 DUP3 ADD SWAP1 POP SWAP2 SWAP1 POP JUMP JUMPDEST PUSH1 0x0 PUSH1 0x20 DUP3 ADD SWAP1 POP DUP2 DUP2 SUB PUSH1 0x0 DUP4 ADD MSTORE PUSH2 0x65B DUP2 PUSH2 0x61F JUMP JUMPDEST SWAP1 POP SWAP2 SWAP1 POP JUMP INVALID LOG2 PUSH5 0x6970667358 0x22 SLT KECCAK256 LOG1 DUP7 SSTORE POP SWAP6 PUSH17 0xD42301EEE02BF6B7D4F4D3E9859C18DA5C SWAP12 PUSH31 0xCF22AEAB96635364736F6C6343000811003300000000000000000000000000 "
				},
				"gasEstimates": {
					"creation": {
						"codeDepositCost": "337600",
						"executionCost": "22480",
						"totalCost": "360080"
					},
					"external": {
						"fund()": "2597",
						"getConvesionRate(uint256)": "infinite",
						"getPrice()": "infinite",
						"getVersion()": "infinite",
						"minimumUSD()": "2429"
					}
				},
				"methodIdentifiers": {
					"fund()": "b60d4288",
					"getConvesionRate(uint256)": "7b13f1cb",
					"getPrice()": "98d5fdca",
					"getVersion()": "0d8e6e2c",
					"minimumUSD()": "3430a88c"
				}
			},
			"storageLayout": {
				"storage": [
					{
						"astId": 51,
						"contract": "freecodecamp32Hrs_solidity/FundMe.sol:FundMe",
						"label": "minimumUSD",
						"offset": 0,
						"slot": "0",
						"type": "t_uint256"
					}
				],
				"types": {
					"t_uint256": {
						"encoding": "inplace",
						"label": "uint256",
						"numberOfBytes": "32"
					}
				}
			},
			"userdoc": {
				"kind": "user",
				"methods": {},
				"version": 1
			}
		}
	}
}