{
	"freecodecamp32Hrs_solidity/FundMe.sol": {
		"FundMe": {
			"abi": [
				{
					"inputs": [],
					"stateMutability": "nonpayable",
					"type": "constructor"
				},
				{
					"inputs": [],
					"name": "MINIMUM_USD",
					"outputs": [
						{
							"internalType": "uint256",
							"name": "",
							"type": "uint256"
						}
					],
					"stateMutability": "view",
					"type": "function"
				},
				{
					"inputs": [
						{
							"internalType": "address",
							"name": "",
							"type": "address"
						}
					],
					"name": "addressToAmountFunded",
					"outputs": [
						{
							"internalType": "uint256",
							"name": "",
							"type": "uint256"
						}
					],
					"stateMutability": "view",
					"type": "function"
				},
				{
					"inputs": [],
					"name": "fund",
					"outputs": [],
					"stateMutability": "payable",
					"type": "function"
				},
				{
					"inputs": [
						{
							"internalType": "uint256",
							"name": "",
							"type": "uint256"
						}
					],
					"name": "funders",
					"outputs": [
						{
							"internalType": "address",
							"name": "",
							"type": "address"
						}
					],
					"stateMutability": "view",
					"type": "function"
				},
				{
					"inputs": [],
					"name": "owner",
					"outputs": [
						{
							"internalType": "address",
							"name": "",
							"type": "address"
						}
					],
					"stateMutability": "view",
					"type": "function"
				},
				{
					"inputs": [],
					"name": "withdraw",
					"outputs": [],
					"stateMutability": "nonpayable",
					"type": "function"
				}
			],
			"devdoc": {
				"kind": "dev",
				"methods": {},
				"version": 1
			},
			"evm": {
				"assembly": "    /* \"freecodecamp32Hrs_solidity/FundMe.sol\":248:2039  contract FundMe{... */\n  mstore(0x40, 0x80)\n    /* \"freecodecamp32Hrs_solidity/FundMe.sol\":298:386  constructor(){... */\n  callvalue\n  dup1\n  iszero\n  tag_1\n  jumpi\n  0x00\n  dup1\n  revert\ntag_1:\n  pop\n    /* \"freecodecamp32Hrs_solidity/FundMe.sol\":368:378  msg.sender */\n  caller\n    /* \"freecodecamp32Hrs_solidity/FundMe.sol\":360:365  owner */\n  0x00\n  dup1\n    /* \"freecodecamp32Hrs_solidity/FundMe.sol\":360:378  owner = msg.sender */\n  0x0100\n  exp\n  dup2\n  sload\n  dup2\n  0xffffffffffffffffffffffffffffffffffffffff\n  mul\n  not\n  and\n  swap1\n  dup4\n  0xffffffffffffffffffffffffffffffffffffffff\n  and\n  mul\n  or\n  swap1\n  sstore\n  pop\n    /* \"freecodecamp32Hrs_solidity/FundMe.sol\":248:2039  contract FundMe{... */\n  dataSize(sub_0)\n  dup1\n  dataOffset(sub_0)\n  0x00\n  codecopy\n  0x00\n  return\nstop\n\nsub_0: assembly {\n        /* \"freecodecamp32Hrs_solidity/FundMe.sol\":248:2039  contract FundMe{... */\n      mstore(0x40, 0x80)\n      jumpi(tag_1, lt(calldatasize, 0x04))\n      shr(0xe0, calldataload(0x00))\n      dup1\n      0x3ccfd60b\n      eq\n      tag_2\n      jumpi\n      dup1\n      0x3e47d6f3\n      eq\n      tag_3\n      jumpi\n      dup1\n      0x6b69a592\n      eq\n      tag_4\n      jumpi\n      dup1\n      0x8da5cb5b\n      eq\n      tag_5\n      jumpi\n      dup1\n      0xb60d4288\n      eq\n      tag_6\n      jumpi\n      dup1\n      0xdc0d3dff\n      eq\n      tag_7\n      jumpi\n    tag_1:\n      0x00\n      dup1\n      revert\n        /* \"freecodecamp32Hrs_solidity/FundMe.sol\":1049:1924  function withdraw() public onlyOwner{... */\n    tag_2:\n      callvalue\n      dup1\n      iszero\n      tag_8\n      jumpi\n      0x00\n      dup1\n      revert\n    tag_8:\n      pop\n      tag_9\n      tag_10\n      jump\t// in\n    tag_9:\n      stop\n        /* \"freecodecamp32Hrs_solidity/FundMe.sol\":462:516  mapping(address=>uint256) public addressToAmountFunded */\n    tag_3:\n      callvalue\n      dup1\n      iszero\n      tag_11\n      jumpi\n      0x00\n      dup1\n      revert\n    tag_11:\n      pop\n      tag_12\n      0x04\n      dup1\n      calldatasize\n      sub\n      dup2\n      add\n      swap1\n      tag_13\n      swap2\n      swap1\n      tag_14\n      jump\t// in\n    tag_13:\n      tag_15\n      jump\t// in\n    tag_12:\n      mload(0x40)\n      tag_16\n      swap2\n      swap1\n      tag_17\n      jump\t// in\n    tag_16:\n      mload(0x40)\n      dup1\n      swap2\n      sub\n      swap1\n      return\n        /* \"freecodecamp32Hrs_solidity/FundMe.sol\":523:570  uint256 public constant MINIMUM_USD = 50 * 1e18 */\n    tag_4:\n      callvalue\n      dup1\n      iszero\n      tag_18\n      jumpi\n      0x00\n      dup1\n      revert\n    tag_18:\n      pop\n      tag_19\n      tag_20\n      jump\t// in\n    tag_19:\n      mload(0x40)\n      tag_21\n      swap2\n      swap1\n      tag_17\n      jump\t// in\n    tag_21:\n      mload(0x40)\n      dup1\n      swap2\n      sub\n      swap1\n      return\n        /* \"freecodecamp32Hrs_solidity/FundMe.sol\":270:291  address public  owner */\n    tag_5:\n      callvalue\n      dup1\n      iszero\n      tag_22\n      jumpi\n      0x00\n      dup1\n      revert\n    tag_22:\n      pop\n      tag_23\n      tag_24\n      jump\t// in\n    tag_23:\n      mload(0x40)\n      tag_25\n      swap2\n      swap1\n      tag_26\n      jump\t// in\n    tag_25:\n      mload(0x40)\n      dup1\n      swap2\n      sub\n      swap1\n      return\n        /* \"freecodecamp32Hrs_solidity/FundMe.sol\":577:1035  function fund() public payable{... */\n    tag_6:\n      tag_27\n      tag_28\n      jump\t// in\n    tag_27:\n      stop\n        /* \"freecodecamp32Hrs_solidity/FundMe.sol\":431:455  address[] public funders */\n    tag_7:\n      callvalue\n      dup1\n      iszero\n      tag_29\n      jumpi\n      0x00\n      dup1\n      revert\n    tag_29:\n      pop\n      tag_30\n      0x04\n      dup1\n      calldatasize\n      sub\n      dup2\n      add\n      swap1\n      tag_31\n      swap2\n      swap1\n      tag_32\n      jump\t// in\n    tag_31:\n      tag_33\n      jump\t// in\n    tag_30:\n      mload(0x40)\n      tag_34\n      swap2\n      swap1\n      tag_26\n      jump\t// in\n    tag_34:\n      mload(0x40)\n      dup1\n      swap2\n      sub\n      swap1\n      return\n        /* \"freecodecamp32Hrs_solidity/FundMe.sol\":1049:1924  function withdraw() public onlyOwner{... */\n    tag_10:\n        /* \"freecodecamp32Hrs_solidity/FundMe.sol\":1983:1988  owner */\n      0x00\n      dup1\n      sload\n      swap1\n      0x0100\n      exp\n      swap1\n      div\n      0xffffffffffffffffffffffffffffffffffffffff\n      and\n        /* \"freecodecamp32Hrs_solidity/FundMe.sol\":1971:1988  msg.sender==owner */\n      0xffffffffffffffffffffffffffffffffffffffff\n      and\n        /* \"freecodecamp32Hrs_solidity/FundMe.sol\":1971:1981  msg.sender */\n      caller\n        /* \"freecodecamp32Hrs_solidity/FundMe.sol\":1971:1988  msg.sender==owner */\n      0xffffffffffffffffffffffffffffffffffffffff\n      and\n      eq\n        /* \"freecodecamp32Hrs_solidity/FundMe.sol\":1962:2016  require (msg.sender==owner , \"Sender is not an owner\") */\n      tag_36\n      jumpi\n      mload(0x40)\n      0x08c379a000000000000000000000000000000000000000000000000000000000\n      dup2\n      mstore\n      0x04\n      add\n      tag_37\n      swap1\n      tag_38\n      jump\t// in\n    tag_37:\n      mload(0x40)\n      dup1\n      swap2\n      sub\n      swap1\n      revert\n    tag_36:\n        /* \"freecodecamp32Hrs_solidity/FundMe.sol\":1104:1123  uint256 funderIndex */\n      0x00\n        /* \"freecodecamp32Hrs_solidity/FundMe.sol\":1100:1917  for(uint256 funderIndex=0;funderIndex<funders.length; funderIndex=funderIndex+1){... */\n    tag_40:\n        /* \"freecodecamp32Hrs_solidity/FundMe.sol\":1138:1145  funders */\n      0x01\n        /* \"freecodecamp32Hrs_solidity/FundMe.sol\":1138:1152  funders.length */\n      dup1\n      sload\n      swap1\n      pop\n        /* \"freecodecamp32Hrs_solidity/FundMe.sol\":1126:1137  funderIndex */\n      dup2\n        /* \"freecodecamp32Hrs_solidity/FundMe.sol\":1126:1152  funderIndex<funders.length */\n      lt\n        /* \"freecodecamp32Hrs_solidity/FundMe.sol\":1100:1917  for(uint256 funderIndex=0;funderIndex<funders.length; funderIndex=funderIndex+1){... */\n      iszero\n      tag_41\n      jumpi\n        /* \"freecodecamp32Hrs_solidity/FundMe.sol\":1199:1213  address funder */\n      0x00\n        /* \"freecodecamp32Hrs_solidity/FundMe.sol\":1214:1221  funders */\n      0x01\n        /* \"freecodecamp32Hrs_solidity/FundMe.sol\":1222:1233  funderIndex */\n      dup3\n        /* \"freecodecamp32Hrs_solidity/FundMe.sol\":1214:1234  funders[funderIndex] */\n      dup2\n      sload\n      dup2\n      lt\n      tag_43\n      jumpi\n      tag_44\n      tag_45\n      jump\t// in\n    tag_44:\n    tag_43:\n      swap1\n      0x00\n      mstore\n      keccak256(0x00, 0x20)\n      add\n      0x00\n      swap1\n      sload\n      swap1\n      0x0100\n      exp\n      swap1\n      div\n      0xffffffffffffffffffffffffffffffffffffffff\n      and\n        /* \"freecodecamp32Hrs_solidity/FundMe.sol\":1199:1234  address funder=funders[funderIndex] */\n      swap1\n      pop\n        /* \"freecodecamp32Hrs_solidity/FundMe.sol\":1283:1284  0 */\n      0x00\n        /* \"freecodecamp32Hrs_solidity/FundMe.sol\":1253:1274  addressToAmountFunded */\n      0x02\n        /* \"freecodecamp32Hrs_solidity/FundMe.sol\":1253:1282  addressToAmountFunded[funder] */\n      0x00\n        /* \"freecodecamp32Hrs_solidity/FundMe.sol\":1275:1281  funder */\n      dup4\n        /* \"freecodecamp32Hrs_solidity/FundMe.sol\":1253:1282  addressToAmountFunded[funder] */\n      0xffffffffffffffffffffffffffffffffffffffff\n      and\n      0xffffffffffffffffffffffffffffffffffffffff\n      and\n      dup2\n      mstore\n      0x20\n      add\n      swap1\n      dup2\n      mstore\n      0x20\n      add\n      0x00\n      keccak256\n        /* \"freecodecamp32Hrs_solidity/FundMe.sol\":1253:1284  addressToAmountFunded[funder]=0 */\n      dup2\n      swap1\n      sstore\n      pop\n        /* \"freecodecamp32Hrs_solidity/FundMe.sol\":1325:1326  0 */\n      0x00\n        /* \"freecodecamp32Hrs_solidity/FundMe.sol\":1311:1327  new address[](0) */\n      0xffffffffffffffff\n      dup2\n      gt\n      iszero\n      tag_47\n      jumpi\n      tag_48\n      tag_49\n      jump\t// in\n    tag_48:\n    tag_47:\n      mload(0x40)\n      swap1\n      dup1\n      dup3\n      mstore\n      dup1\n      0x20\n      mul\n      0x20\n      add\n      dup3\n      add\n      0x40\n      mstore\n      dup1\n      iszero\n      tag_50\n      jumpi\n      dup2\n      0x20\n      add\n      0x20\n      dup3\n      mul\n      dup1\n      calldatasize\n      dup4\n      calldatacopy\n      dup1\n      dup3\n      add\n      swap2\n      pop\n      pop\n      swap1\n      pop\n    tag_50:\n      pop\n        /* \"freecodecamp32Hrs_solidity/FundMe.sol\":1303:1310  funders */\n      0x01\n        /* \"freecodecamp32Hrs_solidity/FundMe.sol\":1303:1327  funders=new address[](0) */\n      swap1\n      dup1\n      mload\n      swap1\n      0x20\n      add\n      swap1\n      tag_51\n      swap3\n      swap2\n      swap1\n      tag_52\n      jump\t// in\n    tag_51:\n      pop\n        /* \"freecodecamp32Hrs_solidity/FundMe.sol\":1423:1433  msg.sender */\n      caller\n        /* \"freecodecamp32Hrs_solidity/FundMe.sol\":1415:1443  payable(msg.sender).transfer */\n      0xffffffffffffffffffffffffffffffffffffffff\n      and\n        /* \"freecodecamp32Hrs_solidity/FundMe.sol\":1415:1466  payable(msg.sender).transfer(address(this).balance) */\n      0x08fc\n        /* \"freecodecamp32Hrs_solidity/FundMe.sol\":1444:1465  address(this).balance */\n      selfbalance\n        /* \"freecodecamp32Hrs_solidity/FundMe.sol\":1415:1466  payable(msg.sender).transfer(address(this).balance) */\n      swap1\n      dup2\n      iszero\n      mul\n      swap1\n      mload(0x40)\n      0x00\n      mload(0x40)\n      dup1\n      dup4\n      sub\n      dup2\n      dup6\n      dup9\n      dup9\n      call\n      swap4\n      pop\n      pop\n      pop\n      pop\n      iszero\n      dup1\n      iszero\n      tag_54\n      jumpi\n      returndatasize\n      0x00\n      dup1\n      returndatacopy\n      revert(0x00, returndatasize)\n    tag_54:\n      pop\n        /* \"freecodecamp32Hrs_solidity/FundMe.sol\":1512:1528  bool sendSuccess */\n      0x00\n        /* \"freecodecamp32Hrs_solidity/FundMe.sol\":1540:1550  msg.sender */\n      caller\n        /* \"freecodecamp32Hrs_solidity/FundMe.sol\":1532:1556  payable(msg.sender).send */\n      0xffffffffffffffffffffffffffffffffffffffff\n      and\n        /* \"freecodecamp32Hrs_solidity/FundMe.sol\":1532:1579  payable(msg.sender).send(address(this).balance) */\n      0x08fc\n        /* \"freecodecamp32Hrs_solidity/FundMe.sol\":1557:1578  address(this).balance */\n      selfbalance\n        /* \"freecodecamp32Hrs_solidity/FundMe.sol\":1532:1579  payable(msg.sender).send(address(this).balance) */\n      swap1\n      dup2\n      iszero\n      mul\n      swap1\n      mload(0x40)\n      0x00\n      mload(0x40)\n      dup1\n      dup4\n      sub\n      dup2\n      dup6\n      dup9\n      dup9\n      call\n      swap4\n      pop\n      pop\n      pop\n      pop\n        /* \"freecodecamp32Hrs_solidity/FundMe.sol\":1512:1579  bool sendSuccess =  payable(msg.sender).send(address(this).balance) */\n      swap1\n      pop\n        /* \"freecodecamp32Hrs_solidity/FundMe.sol\":1606:1617  sendSuccess */\n      dup1\n        /* \"freecodecamp32Hrs_solidity/FundMe.sol\":1598:1632  require(sendSuccess,\"Send Failed\") */\n      tag_56\n      jumpi\n      mload(0x40)\n      0x08c379a000000000000000000000000000000000000000000000000000000000\n      dup2\n      mstore\n      0x04\n      add\n      tag_57\n      swap1\n      tag_58\n      jump\t// in\n    tag_57:\n      mload(0x40)\n      dup1\n      swap2\n      sub\n      swap1\n      revert\n    tag_56:\n        /* \"freecodecamp32Hrs_solidity/FundMe.sol\":1729:1745  bool callSuccess */\n      0x00\n        /* \"freecodecamp32Hrs_solidity/FundMe.sol\":1748:1773  bytes memory dataReturned */\n      dup1\n        /* \"freecodecamp32Hrs_solidity/FundMe.sol\":1783:1793  msg.sender */\n      caller\n        /* \"freecodecamp32Hrs_solidity/FundMe.sol\":1775:1799  payable(msg.sender).call */\n      0xffffffffffffffffffffffffffffffffffffffff\n      and\n        /* \"freecodecamp32Hrs_solidity/FundMe.sol\":1806:1827  address(this).balance */\n      selfbalance\n        /* \"freecodecamp32Hrs_solidity/FundMe.sol\":1775:1832  payable(msg.sender).call{value:address(this).balance}(\"\") */\n      mload(0x40)\n      tag_59\n      swap1\n      tag_60\n      jump\t// in\n    tag_59:\n      0x00\n      mload(0x40)\n      dup1\n      dup4\n      sub\n      dup2\n      dup6\n      dup8\n      gas\n      call\n      swap3\n      pop\n      pop\n      pop\n      returndatasize\n      dup1\n      0x00\n      dup2\n      eq\n      tag_63\n      jumpi\n      mload(0x40)\n      swap2\n      pop\n      and(add(returndatasize, 0x3f), not(0x1f))\n      dup3\n      add\n      0x40\n      mstore\n      returndatasize\n      dup3\n      mstore\n      returndatasize\n      0x00\n      0x20\n      dup5\n      add\n      returndatacopy\n      jump(tag_62)\n    tag_63:\n      0x60\n      swap2\n      pop\n    tag_62:\n      pop\n        /* \"freecodecamp32Hrs_solidity/FundMe.sol\":1728:1832  (bool callSuccess , bytes memory dataReturned)=payable(msg.sender).call{value:address(this).balance}(\"\") */\n      swap2\n      pop\n      swap2\n      pop\n        /* \"freecodecamp32Hrs_solidity/FundMe.sol\":1859:1870  callSuccess */\n      dup2\n        /* \"freecodecamp32Hrs_solidity/FundMe.sol\":1851:1885  require(callSuccess,\"Call Failed\") */\n      tag_64\n      jumpi\n      mload(0x40)\n      0x08c379a000000000000000000000000000000000000000000000000000000000\n      dup2\n      mstore\n      0x04\n      add\n      tag_65\n      swap1\n      tag_66\n      jump\t// in\n    tag_65:\n      mload(0x40)\n      dup1\n      swap2\n      sub\n      swap1\n      revert\n    tag_64:\n        /* \"freecodecamp32Hrs_solidity/FundMe.sol\":1180:1917  {... */\n      pop\n      pop\n      pop\n      pop\n        /* \"freecodecamp32Hrs_solidity/FundMe.sol\":1178:1179  1 */\n      0x01\n        /* \"freecodecamp32Hrs_solidity/FundMe.sol\":1166:1177  funderIndex */\n      dup2\n        /* \"freecodecamp32Hrs_solidity/FundMe.sol\":1166:1179  funderIndex+1 */\n      tag_67\n      swap2\n      swap1\n      tag_68\n      jump\t// in\n    tag_67:\n        /* \"freecodecamp32Hrs_solidity/FundMe.sol\":1154:1179  funderIndex=funderIndex+1 */\n      swap1\n      pop\n        /* \"freecodecamp32Hrs_solidity/FundMe.sol\":1100:1917  for(uint256 funderIndex=0;funderIndex<funders.length; funderIndex=funderIndex+1){... */\n      jump(tag_40)\n    tag_41:\n      pop\n        /* \"freecodecamp32Hrs_solidity/FundMe.sol\":1049:1924  function withdraw() public onlyOwner{... */\n      jump\t// out\n        /* \"freecodecamp32Hrs_solidity/FundMe.sol\":462:516  mapping(address=>uint256) public addressToAmountFunded */\n    tag_15:\n      mstore(0x20, 0x02)\n      dup1\n      0x00\n      mstore\n      keccak256(0x00, 0x40)\n      0x00\n      swap2\n      pop\n      swap1\n      pop\n      sload\n      dup2\n      jump\t// out\n        /* \"freecodecamp32Hrs_solidity/FundMe.sol\":523:570  uint256 public constant MINIMUM_USD = 50 * 1e18 */\n    tag_20:\n        /* \"freecodecamp32Hrs_solidity/FundMe.sol\":561:570  50 * 1e18 */\n      0x02b5e3af16b1880000\n        /* \"freecodecamp32Hrs_solidity/FundMe.sol\":523:570  uint256 public constant MINIMUM_USD = 50 * 1e18 */\n      dup2\n      jump\t// out\n        /* \"freecodecamp32Hrs_solidity/FundMe.sol\":270:291  address public  owner */\n    tag_24:\n      0x00\n      dup1\n      sload\n      swap1\n      0x0100\n      exp\n      swap1\n      div\n      0xffffffffffffffffffffffffffffffffffffffff\n      and\n      dup2\n      jump\t// out\n        /* \"freecodecamp32Hrs_solidity/FundMe.sol\":577:1035  function fund() public payable{... */\n    tag_28:\n        /* \"freecodecamp32Hrs_solidity/FundMe.sol\":561:570  50 * 1e18 */\n      0x02b5e3af16b1880000\n        /* \"freecodecamp32Hrs_solidity/FundMe.sol\":772:801  msg.value.getConversionRate() */\n      tag_70\n        /* \"freecodecamp32Hrs_solidity/FundMe.sol\":772:781  msg.value */\n      callvalue\n        /* \"freecodecamp32Hrs_solidity/FundMe.sol\":772:799  msg.value.getConversionRate */\n      tag_71\n        /* \"freecodecamp32Hrs_solidity/FundMe.sol\":772:801  msg.value.getConversionRate() */\n      jump\t// in\n    tag_70:\n        /* \"freecodecamp32Hrs_solidity/FundMe.sol\":772:815  msg.value.getConversionRate() > MINIMUM_USD */\n      gt\n        /* \"freecodecamp32Hrs_solidity/FundMe.sol\":764:844  require(msg.value.getConversionRate() > MINIMUM_USD, \"Didn't send enough funds\") */\n      tag_72\n      jumpi\n      mload(0x40)\n      0x08c379a000000000000000000000000000000000000000000000000000000000\n      dup2\n      mstore\n      0x04\n      add\n      tag_73\n      swap1\n      tag_74\n      jump\t// in\n    tag_73:\n      mload(0x40)\n      dup1\n      swap2\n      sub\n      swap1\n      revert\n    tag_72:\n        /* \"freecodecamp32Hrs_solidity/FundMe.sol\":913:920  funders */\n      0x01\n        /* \"freecodecamp32Hrs_solidity/FundMe.sol\":926:936  msg.sender */\n      caller\n        /* \"freecodecamp32Hrs_solidity/FundMe.sol\":913:937  funders.push(msg.sender) */\n      swap1\n      dup1\n      0x01\n      dup2\n      sload\n      add\n      dup1\n      dup3\n      sstore\n      dup1\n      swap2\n      pop\n      pop\n      0x01\n      swap1\n      sub\n      swap1\n      0x00\n      mstore\n      keccak256(0x00, 0x20)\n      add\n      0x00\n      swap1\n      swap2\n      swap1\n      swap2\n      swap1\n      swap2\n      0x0100\n      exp\n      dup2\n      sload\n      dup2\n      0xffffffffffffffffffffffffffffffffffffffff\n      mul\n      not\n      and\n      swap1\n      dup4\n      0xffffffffffffffffffffffffffffffffffffffff\n      and\n      mul\n      or\n      swap1\n      sstore\n      pop\n        /* \"freecodecamp32Hrs_solidity/FundMe.sol\":994:1015  addressToAmountFunded */\n      0x02\n        /* \"freecodecamp32Hrs_solidity/FundMe.sol\":994:1027  addressToAmountFunded[msg.sender] */\n      0x00\n        /* \"freecodecamp32Hrs_solidity/FundMe.sol\":1016:1026  msg.sender */\n      caller\n        /* \"freecodecamp32Hrs_solidity/FundMe.sol\":994:1027  addressToAmountFunded[msg.sender] */\n      0xffffffffffffffffffffffffffffffffffffffff\n      and\n      0xffffffffffffffffffffffffffffffffffffffff\n      and\n      dup2\n      mstore\n      0x20\n      add\n      swap1\n      dup2\n      mstore\n      0x20\n      add\n      0x00\n      keccak256\n      sload\n        /* \"freecodecamp32Hrs_solidity/FundMe.sol\":982:991  msg.value */\n      callvalue\n        /* \"freecodecamp32Hrs_solidity/FundMe.sol\":982:1027  msg.value + addressToAmountFunded[msg.sender] */\n      tag_76\n      swap2\n      swap1\n      tag_68\n      jump\t// in\n    tag_76:\n        /* \"freecodecamp32Hrs_solidity/FundMe.sol\":948:969  addressToAmountFunded */\n      0x02\n        /* \"freecodecamp32Hrs_solidity/FundMe.sol\":948:981  addressToAmountFunded[msg.sender] */\n      0x00\n        /* \"freecodecamp32Hrs_solidity/FundMe.sol\":970:980  msg.sender */\n      caller\n        /* \"freecodecamp32Hrs_solidity/FundMe.sol\":948:981  addressToAmountFunded[msg.sender] */\n      0xffffffffffffffffffffffffffffffffffffffff\n      and\n      0xffffffffffffffffffffffffffffffffffffffff\n      and\n      dup2\n      mstore\n      0x20\n      add\n      swap1\n      dup2\n      mstore\n      0x20\n      add\n      0x00\n      keccak256\n        /* \"freecodecamp32Hrs_solidity/FundMe.sol\":948:1027  addressToAmountFunded[msg.sender]=msg.value + addressToAmountFunded[msg.sender] */\n      dup2\n      swap1\n      sstore\n      pop\n        /* \"freecodecamp32Hrs_solidity/FundMe.sol\":577:1035  function fund() public payable{... */\n      jump\t// out\n        /* \"freecodecamp32Hrs_solidity/FundMe.sol\":431:455  address[] public funders */\n    tag_33:\n      0x01\n      dup2\n      dup2\n      sload\n      dup2\n      lt\n      tag_77\n      jumpi\n      0x00\n      dup1\n      revert\n    tag_77:\n      swap1\n      0x00\n      mstore\n      keccak256(0x00, 0x20)\n      add\n      0x00\n      swap2\n      pop\n      sload\n      swap1\n      0x0100\n      exp\n      swap1\n      div\n      0xffffffffffffffffffffffffffffffffffffffff\n      and\n      dup2\n      jump\t// out\n        /* \"freecodecamp32Hrs_solidity/PriceConverter.sol\":681:905  function getConversionRate(uint256 ethAmmount) internal view returns(uint256) {... */\n    tag_71:\n        /* \"freecodecamp32Hrs_solidity/PriceConverter.sol\":750:757  uint256 */\n      0x00\n        /* \"freecodecamp32Hrs_solidity/PriceConverter.sol\":770:786  uint256 ethPrice */\n      dup1\n        /* \"freecodecamp32Hrs_solidity/PriceConverter.sol\":789:799  getPrice() */\n      tag_80\n        /* \"freecodecamp32Hrs_solidity/PriceConverter.sol\":789:797  getPrice */\n      tag_81\n        /* \"freecodecamp32Hrs_solidity/PriceConverter.sol\":789:799  getPrice() */\n      jump\t// in\n    tag_80:\n        /* \"freecodecamp32Hrs_solidity/PriceConverter.sol\":770:799  uint256 ethPrice = getPrice() */\n      swap1\n      pop\n        /* \"freecodecamp32Hrs_solidity/PriceConverter.sol\":810:833  uint256 ethAmmountInUSD */\n      0x00\n        /* \"freecodecamp32Hrs_solidity/PriceConverter.sol\":860:864  1e18 */\n      0x0de0b6b3a7640000\n        /* \"freecodecamp32Hrs_solidity/PriceConverter.sol\":846:856  ethAmmount */\n      dup5\n        /* \"freecodecamp32Hrs_solidity/PriceConverter.sol\":837:845  ethPrice */\n      dup4\n        /* \"freecodecamp32Hrs_solidity/PriceConverter.sol\":837:856  ethPrice*ethAmmount */\n      tag_82\n      swap2\n      swap1\n      tag_83\n      jump\t// in\n    tag_82:\n        /* \"freecodecamp32Hrs_solidity/PriceConverter.sol\":836:864  (ethPrice*ethAmmount) / 1e18 */\n      tag_84\n      swap2\n      swap1\n      tag_85\n      jump\t// in\n    tag_84:\n        /* \"freecodecamp32Hrs_solidity/PriceConverter.sol\":810:864  uint256 ethAmmountInUSD = (ethPrice*ethAmmount) / 1e18 */\n      swap1\n      pop\n        /* \"freecodecamp32Hrs_solidity/PriceConverter.sol\":882:897  ethAmmountInUSD */\n      dup1\n        /* \"freecodecamp32Hrs_solidity/PriceConverter.sol\":875:897  return ethAmmountInUSD */\n      swap3\n      pop\n      pop\n      pop\n        /* \"freecodecamp32Hrs_solidity/PriceConverter.sol\":681:905  function getConversionRate(uint256 ethAmmount) internal view returns(uint256) {... */\n      swap2\n      swap1\n      pop\n      jump\t// out\n        /* \"freecodecamp32Hrs_solidity/PriceConverter.sol\":166:673  function getPrice() internal view returns(uint256){... */\n    tag_81:\n        /* \"freecodecamp32Hrs_solidity/PriceConverter.sol\":208:215  uint256 */\n      0x00\n        /* \"freecodecamp32Hrs_solidity/PriceConverter.sol\":306:337  AggregatorV3Interface priceFeed */\n      dup1\n        /* \"freecodecamp32Hrs_solidity/PriceConverter.sol\":362:404  0xD4a33860578De61DBAbDc8BFdb98FD742fA7028e */\n      0xd4a33860578de61dbabdc8bfdb98fd742fa7028e\n        /* \"freecodecamp32Hrs_solidity/PriceConverter.sol\":306:405  AggregatorV3Interface priceFeed = AggregatorV3Interface(0xD4a33860578De61DBAbDc8BFdb98FD742fA7028e) */\n      swap1\n      pop\n        /* \"freecodecamp32Hrs_solidity/PriceConverter.sol\":464:476  int256 price */\n      0x00\n        /* \"freecodecamp32Hrs_solidity/PriceConverter.sol\":597:606  priceFeed */\n      dup2\n        /* \"freecodecamp32Hrs_solidity/PriceConverter.sol\":597:622  priceFeed.latestRoundData */\n      0xffffffffffffffffffffffffffffffffffffffff\n      and\n      0xfeaf968c\n        /* \"freecodecamp32Hrs_solidity/PriceConverter.sol\":597:624  priceFeed.latestRoundData() */\n      mload(0x40)\n      dup2\n      0xffffffff\n      and\n      0xe0\n      shl\n      dup2\n      mstore\n      0x04\n      add\n      0xa0\n      mload(0x40)\n      dup1\n      dup4\n      sub\n      dup2\n      dup7\n      gas\n      staticcall\n      iszero\n      dup1\n      iszero\n      tag_88\n      jumpi\n      returndatasize\n      0x00\n      dup1\n      returndatacopy\n      revert(0x00, returndatasize)\n    tag_88:\n      pop\n      pop\n      pop\n      pop\n      mload(0x40)\n      returndatasize\n      not(0x1f)\n      0x1f\n      dup3\n      add\n      and\n      dup3\n      add\n      dup1\n      0x40\n      mstore\n      pop\n      dup2\n      add\n      swap1\n      tag_89\n      swap2\n      swap1\n      tag_90\n      jump\t// in\n    tag_89:\n        /* \"freecodecamp32Hrs_solidity/PriceConverter.sol\":416:624  (... */\n      pop\n      pop\n      pop\n      swap2\n      pop\n      pop\n        /* \"freecodecamp32Hrs_solidity/PriceConverter.sol\":660:664  1e10 */\n      0x02540be400\n        /* \"freecodecamp32Hrs_solidity/PriceConverter.sol\":652:657  price */\n      dup2\n        /* \"freecodecamp32Hrs_solidity/PriceConverter.sol\":652:664  price * 1e10 */\n      tag_91\n      swap2\n      swap1\n      tag_92\n      jump\t// in\n    tag_91:\n        /* \"freecodecamp32Hrs_solidity/PriceConverter.sol\":637:665  return uint256(price * 1e10) */\n      swap3\n      pop\n      pop\n      pop\n        /* \"freecodecamp32Hrs_solidity/PriceConverter.sol\":166:673  function getPrice() internal view returns(uint256){... */\n      swap1\n      jump\t// out\n    tag_52:\n      dup3\n      dup1\n      sload\n      dup3\n      dup3\n      sstore\n      swap1\n      0x00\n      mstore\n      keccak256(0x00, 0x20)\n      swap1\n      dup2\n      add\n      swap3\n      dup3\n      iszero\n      tag_93\n      jumpi\n      swap2\n      0x20\n      mul\n      dup3\n      add\n    tag_94:\n      dup3\n      dup2\n      gt\n      iszero\n      tag_95\n      jumpi\n      dup3\n      mload\n      dup3\n      exp(0x0100, 0x00)\n      dup2\n      sload\n      dup2\n      0xffffffffffffffffffffffffffffffffffffffff\n      mul\n      not\n      and\n      swap1\n      dup4\n      0xffffffffffffffffffffffffffffffffffffffff\n      and\n      mul\n      or\n      swap1\n      sstore\n      pop\n      swap2\n      0x20\n      add\n      swap2\n      swap1\n      0x01\n      add\n      swap1\n      jump(tag_94)\n    tag_95:\n    tag_93:\n      pop\n      swap1\n      pop\n      tag_96\n      swap2\n      swap1\n      tag_97\n      jump\t// in\n    tag_96:\n      pop\n      swap1\n      jump\t// out\n    tag_97:\n    tag_98:\n      dup1\n      dup3\n      gt\n      iszero\n      tag_99\n      jumpi\n      0x00\n      dup2\n      0x00\n      swap1\n      sstore\n      pop\n      0x01\n      add\n      jump(tag_98)\n    tag_99:\n      pop\n      swap1\n      jump\t// out\n        /* \"#utility.yul\":88:205   */\n    tag_101:\n        /* \"#utility.yul\":197:198   */\n      0x00\n        /* \"#utility.yul\":194:195   */\n      dup1\n        /* \"#utility.yul\":187:199   */\n      revert\n        /* \"#utility.yul\":334:460   */\n    tag_103:\n        /* \"#utility.yul\":371:378   */\n      0x00\n        /* \"#utility.yul\":411:453   */\n      0xffffffffffffffffffffffffffffffffffffffff\n        /* \"#utility.yul\":404:409   */\n      dup3\n        /* \"#utility.yul\":400:454   */\n      and\n        /* \"#utility.yul\":389:454   */\n      swap1\n      pop\n        /* \"#utility.yul\":334:460   */\n      swap2\n      swap1\n      pop\n      jump\t// out\n        /* \"#utility.yul\":466:562   */\n    tag_104:\n        /* \"#utility.yul\":503:510   */\n      0x00\n        /* \"#utility.yul\":532:556   */\n      tag_139\n        /* \"#utility.yul\":550:555   */\n      dup3\n        /* \"#utility.yul\":532:556   */\n      tag_103\n      jump\t// in\n    tag_139:\n        /* \"#utility.yul\":521:556   */\n      swap1\n      pop\n        /* \"#utility.yul\":466:562   */\n      swap2\n      swap1\n      pop\n      jump\t// out\n        /* \"#utility.yul\":568:690   */\n    tag_105:\n        /* \"#utility.yul\":641:665   */\n      tag_141\n        /* \"#utility.yul\":659:664   */\n      dup2\n        /* \"#utility.yul\":641:665   */\n      tag_104\n      jump\t// in\n    tag_141:\n        /* \"#utility.yul\":634:639   */\n      dup2\n        /* \"#utility.yul\":631:666   */\n      eq\n        /* \"#utility.yul\":621:684   */\n      tag_142\n      jumpi\n        /* \"#utility.yul\":680:681   */\n      0x00\n        /* \"#utility.yul\":677:678   */\n      dup1\n        /* \"#utility.yul\":670:682   */\n      revert\n        /* \"#utility.yul\":621:684   */\n    tag_142:\n        /* \"#utility.yul\":568:690   */\n      pop\n      jump\t// out\n        /* \"#utility.yul\":696:835   */\n    tag_106:\n        /* \"#utility.yul\":742:747   */\n      0x00\n        /* \"#utility.yul\":780:786   */\n      dup2\n        /* \"#utility.yul\":767:787   */\n      calldataload\n        /* \"#utility.yul\":758:787   */\n      swap1\n      pop\n        /* \"#utility.yul\":796:829   */\n      tag_144\n        /* \"#utility.yul\":823:828   */\n      dup2\n        /* \"#utility.yul\":796:829   */\n      tag_105\n      jump\t// in\n    tag_144:\n        /* \"#utility.yul\":696:835   */\n      swap3\n      swap2\n      pop\n      pop\n      jump\t// out\n        /* \"#utility.yul\":841:1170   */\n    tag_14:\n        /* \"#utility.yul\":900:906   */\n      0x00\n        /* \"#utility.yul\":949:951   */\n      0x20\n        /* \"#utility.yul\":937:946   */\n      dup3\n        /* \"#utility.yul\":928:935   */\n      dup5\n        /* \"#utility.yul\":924:947   */\n      sub\n        /* \"#utility.yul\":920:952   */\n      slt\n        /* \"#utility.yul\":917:1036   */\n      iszero\n      tag_146\n      jumpi\n        /* \"#utility.yul\":955:1034   */\n      tag_147\n      tag_101\n      jump\t// in\n    tag_147:\n        /* \"#utility.yul\":917:1036   */\n    tag_146:\n        /* \"#utility.yul\":1075:1076   */\n      0x00\n        /* \"#utility.yul\":1100:1153   */\n      tag_148\n        /* \"#utility.yul\":1145:1152   */\n      dup5\n        /* \"#utility.yul\":1136:1142   */\n      dup3\n        /* \"#utility.yul\":1125:1134   */\n      dup6\n        /* \"#utility.yul\":1121:1143   */\n      add\n        /* \"#utility.yul\":1100:1153   */\n      tag_106\n      jump\t// in\n    tag_148:\n        /* \"#utility.yul\":1090:1153   */\n      swap2\n      pop\n        /* \"#utility.yul\":1046:1163   */\n      pop\n        /* \"#utility.yul\":841:1170   */\n      swap3\n      swap2\n      pop\n      pop\n      jump\t// out\n        /* \"#utility.yul\":1176:1253   */\n    tag_107:\n        /* \"#utility.yul\":1213:1220   */\n      0x00\n        /* \"#utility.yul\":1242:1247   */\n      dup2\n        /* \"#utility.yul\":1231:1247   */\n      swap1\n      pop\n        /* \"#utility.yul\":1176:1253   */\n      swap2\n      swap1\n      pop\n      jump\t// out\n        /* \"#utility.yul\":1259:1377   */\n    tag_108:\n        /* \"#utility.yul\":1346:1370   */\n      tag_151\n        /* \"#utility.yul\":1364:1369   */\n      dup2\n        /* \"#utility.yul\":1346:1370   */\n      tag_107\n      jump\t// in\n    tag_151:\n        /* \"#utility.yul\":1341:1344   */\n      dup3\n        /* \"#utility.yul\":1334:1371   */\n      mstore\n        /* \"#utility.yul\":1259:1377   */\n      pop\n      pop\n      jump\t// out\n        /* \"#utility.yul\":1383:1605   */\n    tag_17:\n        /* \"#utility.yul\":1476:1480   */\n      0x00\n        /* \"#utility.yul\":1514:1516   */\n      0x20\n        /* \"#utility.yul\":1503:1512   */\n      dup3\n        /* \"#utility.yul\":1499:1517   */\n      add\n        /* \"#utility.yul\":1491:1517   */\n      swap1\n      pop\n        /* \"#utility.yul\":1527:1598   */\n      tag_153\n        /* \"#utility.yul\":1595:1596   */\n      0x00\n        /* \"#utility.yul\":1584:1593   */\n      dup4\n        /* \"#utility.yul\":1580:1597   */\n      add\n        /* \"#utility.yul\":1571:1577   */\n      dup5\n        /* \"#utility.yul\":1527:1598   */\n      tag_108\n      jump\t// in\n    tag_153:\n        /* \"#utility.yul\":1383:1605   */\n      swap3\n      swap2\n      pop\n      pop\n      jump\t// out\n        /* \"#utility.yul\":1611:1729   */\n    tag_109:\n        /* \"#utility.yul\":1698:1722   */\n      tag_155\n        /* \"#utility.yul\":1716:1721   */\n      dup2\n        /* \"#utility.yul\":1698:1722   */\n      tag_104\n      jump\t// in\n    tag_155:\n        /* \"#utility.yul\":1693:1696   */\n      dup3\n        /* \"#utility.yul\":1686:1723   */\n      mstore\n        /* \"#utility.yul\":1611:1729   */\n      pop\n      pop\n      jump\t// out\n        /* \"#utility.yul\":1735:1957   */\n    tag_26:\n        /* \"#utility.yul\":1828:1832   */\n      0x00\n        /* \"#utility.yul\":1866:1868   */\n      0x20\n        /* \"#utility.yul\":1855:1864   */\n      dup3\n        /* \"#utility.yul\":1851:1869   */\n      add\n        /* \"#utility.yul\":1843:1869   */\n      swap1\n      pop\n        /* \"#utility.yul\":1879:1950   */\n      tag_157\n        /* \"#utility.yul\":1947:1948   */\n      0x00\n        /* \"#utility.yul\":1936:1945   */\n      dup4\n        /* \"#utility.yul\":1932:1949   */\n      add\n        /* \"#utility.yul\":1923:1929   */\n      dup5\n        /* \"#utility.yul\":1879:1950   */\n      tag_109\n      jump\t// in\n    tag_157:\n        /* \"#utility.yul\":1735:1957   */\n      swap3\n      swap2\n      pop\n      pop\n      jump\t// out\n        /* \"#utility.yul\":1963:2085   */\n    tag_110:\n        /* \"#utility.yul\":2036:2060   */\n      tag_159\n        /* \"#utility.yul\":2054:2059   */\n      dup2\n        /* \"#utility.yul\":2036:2060   */\n      tag_107\n      jump\t// in\n    tag_159:\n        /* \"#utility.yul\":2029:2034   */\n      dup2\n        /* \"#utility.yul\":2026:2061   */\n      eq\n        /* \"#utility.yul\":2016:2079   */\n      tag_160\n      jumpi\n        /* \"#utility.yul\":2075:2076   */\n      0x00\n        /* \"#utility.yul\":2072:2073   */\n      dup1\n        /* \"#utility.yul\":2065:2077   */\n      revert\n        /* \"#utility.yul\":2016:2079   */\n    tag_160:\n        /* \"#utility.yul\":1963:2085   */\n      pop\n      jump\t// out\n        /* \"#utility.yul\":2091:2230   */\n    tag_111:\n        /* \"#utility.yul\":2137:2142   */\n      0x00\n        /* \"#utility.yul\":2175:2181   */\n      dup2\n        /* \"#utility.yul\":2162:2182   */\n      calldataload\n        /* \"#utility.yul\":2153:2182   */\n      swap1\n      pop\n        /* \"#utility.yul\":2191:2224   */\n      tag_162\n        /* \"#utility.yul\":2218:2223   */\n      dup2\n        /* \"#utility.yul\":2191:2224   */\n      tag_110\n      jump\t// in\n    tag_162:\n        /* \"#utility.yul\":2091:2230   */\n      swap3\n      swap2\n      pop\n      pop\n      jump\t// out\n        /* \"#utility.yul\":2236:2565   */\n    tag_32:\n        /* \"#utility.yul\":2295:2301   */\n      0x00\n        /* \"#utility.yul\":2344:2346   */\n      0x20\n        /* \"#utility.yul\":2332:2341   */\n      dup3\n        /* \"#utility.yul\":2323:2330   */\n      dup5\n        /* \"#utility.yul\":2319:2342   */\n      sub\n        /* \"#utility.yul\":2315:2347   */\n      slt\n        /* \"#utility.yul\":2312:2431   */\n      iszero\n      tag_164\n      jumpi\n        /* \"#utility.yul\":2350:2429   */\n      tag_165\n      tag_101\n      jump\t// in\n    tag_165:\n        /* \"#utility.yul\":2312:2431   */\n    tag_164:\n        /* \"#utility.yul\":2470:2471   */\n      0x00\n        /* \"#utility.yul\":2495:2548   */\n      tag_166\n        /* \"#utility.yul\":2540:2547   */\n      dup5\n        /* \"#utility.yul\":2531:2537   */\n      dup3\n        /* \"#utility.yul\":2520:2529   */\n      dup6\n        /* \"#utility.yul\":2516:2538   */\n      add\n        /* \"#utility.yul\":2495:2548   */\n      tag_111\n      jump\t// in\n    tag_166:\n        /* \"#utility.yul\":2485:2548   */\n      swap2\n      pop\n        /* \"#utility.yul\":2441:2558   */\n      pop\n        /* \"#utility.yul\":2236:2565   */\n      swap3\n      swap2\n      pop\n      pop\n      jump\t// out\n        /* \"#utility.yul\":2571:2740   */\n    tag_112:\n        /* \"#utility.yul\":2655:2666   */\n      0x00\n        /* \"#utility.yul\":2689:2695   */\n      dup3\n        /* \"#utility.yul\":2684:2687   */\n      dup3\n        /* \"#utility.yul\":2677:2696   */\n      mstore\n        /* \"#utility.yul\":2729:2733   */\n      0x20\n        /* \"#utility.yul\":2724:2727   */\n      dup3\n        /* \"#utility.yul\":2720:2734   */\n      add\n        /* \"#utility.yul\":2705:2734   */\n      swap1\n      pop\n        /* \"#utility.yul\":2571:2740   */\n      swap3\n      swap2\n      pop\n      pop\n      jump\t// out\n        /* \"#utility.yul\":2746:2918   */\n    tag_113:\n        /* \"#utility.yul\":2886:2910   */\n      0x53656e646572206973206e6f7420616e206f776e657200000000000000000000\n        /* \"#utility.yul\":2882:2883   */\n      0x00\n        /* \"#utility.yul\":2874:2880   */\n      dup3\n        /* \"#utility.yul\":2870:2884   */\n      add\n        /* \"#utility.yul\":2863:2911   */\n      mstore\n        /* \"#utility.yul\":2746:2918   */\n      pop\n      jump\t// out\n        /* \"#utility.yul\":2924:3290   */\n    tag_114:\n        /* \"#utility.yul\":3066:3069   */\n      0x00\n        /* \"#utility.yul\":3087:3154   */\n      tag_170\n        /* \"#utility.yul\":3151:3153   */\n      0x16\n        /* \"#utility.yul\":3146:3149   */\n      dup4\n        /* \"#utility.yul\":3087:3154   */\n      tag_112\n      jump\t// in\n    tag_170:\n        /* \"#utility.yul\":3080:3154   */\n      swap2\n      pop\n        /* \"#utility.yul\":3163:3256   */\n      tag_171\n        /* \"#utility.yul\":3252:3255   */\n      dup3\n        /* \"#utility.yul\":3163:3256   */\n      tag_113\n      jump\t// in\n    tag_171:\n        /* \"#utility.yul\":3281:3283   */\n      0x20\n        /* \"#utility.yul\":3276:3279   */\n      dup3\n        /* \"#utility.yul\":3272:3284   */\n      add\n        /* \"#utility.yul\":3265:3284   */\n      swap1\n      pop\n        /* \"#utility.yul\":2924:3290   */\n      swap2\n      swap1\n      pop\n      jump\t// out\n        /* \"#utility.yul\":3296:3715   */\n    tag_38:\n        /* \"#utility.yul\":3462:3466   */\n      0x00\n        /* \"#utility.yul\":3500:3502   */\n      0x20\n        /* \"#utility.yul\":3489:3498   */\n      dup3\n        /* \"#utility.yul\":3485:3503   */\n      add\n        /* \"#utility.yul\":3477:3503   */\n      swap1\n      pop\n        /* \"#utility.yul\":3549:3558   */\n      dup2\n        /* \"#utility.yul\":3543:3547   */\n      dup2\n        /* \"#utility.yul\":3539:3559   */\n      sub\n        /* \"#utility.yul\":3535:3536   */\n      0x00\n        /* \"#utility.yul\":3524:3533   */\n      dup4\n        /* \"#utility.yul\":3520:3537   */\n      add\n        /* \"#utility.yul\":3513:3560   */\n      mstore\n        /* \"#utility.yul\":3577:3708   */\n      tag_173\n        /* \"#utility.yul\":3703:3707   */\n      dup2\n        /* \"#utility.yul\":3577:3708   */\n      tag_114\n      jump\t// in\n    tag_173:\n        /* \"#utility.yul\":3569:3708   */\n      swap1\n      pop\n        /* \"#utility.yul\":3296:3715   */\n      swap2\n      swap1\n      pop\n      jump\t// out\n        /* \"#utility.yul\":3721:3901   */\n    tag_45:\n        /* \"#utility.yul\":3769:3846   */\n      0x4e487b7100000000000000000000000000000000000000000000000000000000\n        /* \"#utility.yul\":3766:3767   */\n      0x00\n        /* \"#utility.yul\":3759:3847   */\n      mstore\n        /* \"#utility.yul\":3866:3870   */\n      0x32\n        /* \"#utility.yul\":3863:3864   */\n      0x04\n        /* \"#utility.yul\":3856:3871   */\n      mstore\n        /* \"#utility.yul\":3890:3894   */\n      0x24\n        /* \"#utility.yul\":3887:3888   */\n      0x00\n        /* \"#utility.yul\":3880:3895   */\n      revert\n        /* \"#utility.yul\":3907:4087   */\n    tag_49:\n        /* \"#utility.yul\":3955:4032   */\n      0x4e487b7100000000000000000000000000000000000000000000000000000000\n        /* \"#utility.yul\":3952:3953   */\n      0x00\n        /* \"#utility.yul\":3945:4033   */\n      mstore\n        /* \"#utility.yul\":4052:4056   */\n      0x41\n        /* \"#utility.yul\":4049:4050   */\n      0x04\n        /* \"#utility.yul\":4042:4057   */\n      mstore\n        /* \"#utility.yul\":4076:4080   */\n      0x24\n        /* \"#utility.yul\":4073:4074   */\n      0x00\n        /* \"#utility.yul\":4066:4081   */\n      revert\n        /* \"#utility.yul\":4093:4254   */\n    tag_115:\n        /* \"#utility.yul\":4233:4246   */\n      0x53656e64204661696c6564000000000000000000000000000000000000000000\n        /* \"#utility.yul\":4229:4230   */\n      0x00\n        /* \"#utility.yul\":4221:4227   */\n      dup3\n        /* \"#utility.yul\":4217:4231   */\n      add\n        /* \"#utility.yul\":4210:4247   */\n      mstore\n        /* \"#utility.yul\":4093:4254   */\n      pop\n      jump\t// out\n        /* \"#utility.yul\":4260:4626   */\n    tag_116:\n        /* \"#utility.yul\":4402:4405   */\n      0x00\n        /* \"#utility.yul\":4423:4490   */\n      tag_178\n        /* \"#utility.yul\":4487:4489   */\n      0x0b\n        /* \"#utility.yul\":4482:4485   */\n      dup4\n        /* \"#utility.yul\":4423:4490   */\n      tag_112\n      jump\t// in\n    tag_178:\n        /* \"#utility.yul\":4416:4490   */\n      swap2\n      pop\n        /* \"#utility.yul\":4499:4592   */\n      tag_179\n        /* \"#utility.yul\":4588:4591   */\n      dup3\n        /* \"#utility.yul\":4499:4592   */\n      tag_115\n      jump\t// in\n    tag_179:\n        /* \"#utility.yul\":4617:4619   */\n      0x20\n        /* \"#utility.yul\":4612:4615   */\n      dup3\n        /* \"#utility.yul\":4608:4620   */\n      add\n        /* \"#utility.yul\":4601:4620   */\n      swap1\n      pop\n        /* \"#utility.yul\":4260:4626   */\n      swap2\n      swap1\n      pop\n      jump\t// out\n        /* \"#utility.yul\":4632:5051   */\n    tag_58:\n        /* \"#utility.yul\":4798:4802   */\n      0x00\n        /* \"#utility.yul\":4836:4838   */\n      0x20\n        /* \"#utility.yul\":4825:4834   */\n      dup3\n        /* \"#utility.yul\":4821:4839   */\n      add\n        /* \"#utility.yul\":4813:4839   */\n      swap1\n      pop\n        /* \"#utility.yul\":4885:4894   */\n      dup2\n        /* \"#utility.yul\":4879:4883   */\n      dup2\n        /* \"#utility.yul\":4875:4895   */\n      sub\n        /* \"#utility.yul\":4871:4872   */\n      0x00\n        /* \"#utility.yul\":4860:4869   */\n      dup4\n        /* \"#utility.yul\":4856:4873   */\n      add\n        /* \"#utility.yul\":4849:4896   */\n      mstore\n        /* \"#utility.yul\":4913:5044   */\n      tag_181\n        /* \"#utility.yul\":5039:5043   */\n      dup2\n        /* \"#utility.yul\":4913:5044   */\n      tag_116\n      jump\t// in\n    tag_181:\n        /* \"#utility.yul\":4905:5044   */\n      swap1\n      pop\n        /* \"#utility.yul\":4632:5051   */\n      swap2\n      swap1\n      pop\n      jump\t// out\n        /* \"#utility.yul\":5057:5204   */\n    tag_117:\n        /* \"#utility.yul\":5158:5169   */\n      0x00\n        /* \"#utility.yul\":5195:5198   */\n      dup2\n        /* \"#utility.yul\":5180:5198   */\n      swap1\n      pop\n        /* \"#utility.yul\":5057:5204   */\n      swap3\n      swap2\n      pop\n      pop\n      jump\t// out\n        /* \"#utility.yul\":5210:5324   */\n    tag_118:\n      pop\n      jump\t// out\n        /* \"#utility.yul\":5330:5728   */\n    tag_119:\n        /* \"#utility.yul\":5489:5492   */\n      0x00\n        /* \"#utility.yul\":5510:5593   */\n      tag_185\n        /* \"#utility.yul\":5591:5592   */\n      0x00\n        /* \"#utility.yul\":5586:5589   */\n      dup4\n        /* \"#utility.yul\":5510:5593   */\n      tag_117\n      jump\t// in\n    tag_185:\n        /* \"#utility.yul\":5503:5593   */\n      swap2\n      pop\n        /* \"#utility.yul\":5602:5695   */\n      tag_186\n        /* \"#utility.yul\":5691:5694   */\n      dup3\n        /* \"#utility.yul\":5602:5695   */\n      tag_118\n      jump\t// in\n    tag_186:\n        /* \"#utility.yul\":5720:5721   */\n      0x00\n        /* \"#utility.yul\":5715:5718   */\n      dup3\n        /* \"#utility.yul\":5711:5722   */\n      add\n        /* \"#utility.yul\":5704:5722   */\n      swap1\n      pop\n        /* \"#utility.yul\":5330:5728   */\n      swap2\n      swap1\n      pop\n      jump\t// out\n        /* \"#utility.yul\":5734:6113   */\n    tag_60:\n        /* \"#utility.yul\":5918:5921   */\n      0x00\n        /* \"#utility.yul\":5940:6087   */\n      tag_188\n        /* \"#utility.yul\":6083:6086   */\n      dup3\n        /* \"#utility.yul\":5940:6087   */\n      tag_119\n      jump\t// in\n    tag_188:\n        /* \"#utility.yul\":5933:6087   */\n      swap2\n      pop\n        /* \"#utility.yul\":6104:6107   */\n      dup2\n        /* \"#utility.yul\":6097:6107   */\n      swap1\n      pop\n        /* \"#utility.yul\":5734:6113   */\n      swap2\n      swap1\n      pop\n      jump\t// out\n        /* \"#utility.yul\":6119:6280   */\n    tag_120:\n        /* \"#utility.yul\":6259:6272   */\n      0x43616c6c204661696c6564000000000000000000000000000000000000000000\n        /* \"#utility.yul\":6255:6256   */\n      0x00\n        /* \"#utility.yul\":6247:6253   */\n      dup3\n        /* \"#utility.yul\":6243:6257   */\n      add\n        /* \"#utility.yul\":6236:6273   */\n      mstore\n        /* \"#utility.yul\":6119:6280   */\n      pop\n      jump\t// out\n        /* \"#utility.yul\":6286:6652   */\n    tag_121:\n        /* \"#utility.yul\":6428:6431   */\n      0x00\n        /* \"#utility.yul\":6449:6516   */\n      tag_191\n        /* \"#utility.yul\":6513:6515   */\n      0x0b\n        /* \"#utility.yul\":6508:6511   */\n      dup4\n        /* \"#utility.yul\":6449:6516   */\n      tag_112\n      jump\t// in\n    tag_191:\n        /* \"#utility.yul\":6442:6516   */\n      swap2\n      pop\n        /* \"#utility.yul\":6525:6618   */\n      tag_192\n        /* \"#utility.yul\":6614:6617   */\n      dup3\n        /* \"#utility.yul\":6525:6618   */\n      tag_120\n      jump\t// in\n    tag_192:\n        /* \"#utility.yul\":6643:6645   */\n      0x20\n        /* \"#utility.yul\":6638:6641   */\n      dup3\n        /* \"#utility.yul\":6634:6646   */\n      add\n        /* \"#utility.yul\":6627:6646   */\n      swap1\n      pop\n        /* \"#utility.yul\":6286:6652   */\n      swap2\n      swap1\n      pop\n      jump\t// out\n        /* \"#utility.yul\":6658:7077   */\n    tag_66:\n        /* \"#utility.yul\":6824:6828   */\n      0x00\n        /* \"#utility.yul\":6862:6864   */\n      0x20\n        /* \"#utility.yul\":6851:6860   */\n      dup3\n        /* \"#utility.yul\":6847:6865   */\n      add\n        /* \"#utility.yul\":6839:6865   */\n      swap1\n      pop\n        /* \"#utility.yul\":6911:6920   */\n      dup2\n        /* \"#utility.yul\":6905:6909   */\n      dup2\n        /* \"#utility.yul\":6901:6921   */\n      sub\n        /* \"#utility.yul\":6897:6898   */\n      0x00\n        /* \"#utility.yul\":6886:6895   */\n      dup4\n        /* \"#utility.yul\":6882:6899   */\n      add\n        /* \"#utility.yul\":6875:6922   */\n      mstore\n        /* \"#utility.yul\":6939:7070   */\n      tag_194\n        /* \"#utility.yul\":7065:7069   */\n      dup2\n        /* \"#utility.yul\":6939:7070   */\n      tag_121\n      jump\t// in\n    tag_194:\n        /* \"#utility.yul\":6931:7070   */\n      swap1\n      pop\n        /* \"#utility.yul\":6658:7077   */\n      swap2\n      swap1\n      pop\n      jump\t// out\n        /* \"#utility.yul\":7083:7263   */\n    tag_122:\n        /* \"#utility.yul\":7131:7208   */\n      0x4e487b7100000000000000000000000000000000000000000000000000000000\n        /* \"#utility.yul\":7128:7129   */\n      0x00\n        /* \"#utility.yul\":7121:7209   */\n      mstore\n        /* \"#utility.yul\":7228:7232   */\n      0x11\n        /* \"#utility.yul\":7225:7226   */\n      0x04\n        /* \"#utility.yul\":7218:7233   */\n      mstore\n        /* \"#utility.yul\":7252:7256   */\n      0x24\n        /* \"#utility.yul\":7249:7250   */\n      0x00\n        /* \"#utility.yul\":7242:7257   */\n      revert\n        /* \"#utility.yul\":7269:7460   */\n    tag_68:\n        /* \"#utility.yul\":7309:7312   */\n      0x00\n        /* \"#utility.yul\":7328:7348   */\n      tag_197\n        /* \"#utility.yul\":7346:7347   */\n      dup3\n        /* \"#utility.yul\":7328:7348   */\n      tag_107\n      jump\t// in\n    tag_197:\n        /* \"#utility.yul\":7323:7348   */\n      swap2\n      pop\n        /* \"#utility.yul\":7362:7382   */\n      tag_198\n        /* \"#utility.yul\":7380:7381   */\n      dup4\n        /* \"#utility.yul\":7362:7382   */\n      tag_107\n      jump\t// in\n    tag_198:\n        /* \"#utility.yul\":7357:7382   */\n      swap3\n      pop\n        /* \"#utility.yul\":7405:7406   */\n      dup3\n        /* \"#utility.yul\":7402:7403   */\n      dup3\n        /* \"#utility.yul\":7398:7407   */\n      add\n        /* \"#utility.yul\":7391:7407   */\n      swap1\n      pop\n        /* \"#utility.yul\":7426:7429   */\n      dup1\n        /* \"#utility.yul\":7423:7424   */\n      dup3\n        /* \"#utility.yul\":7420:7430   */\n      gt\n        /* \"#utility.yul\":7417:7453   */\n      iszero\n      tag_199\n      jumpi\n        /* \"#utility.yul\":7433:7451   */\n      tag_200\n      tag_122\n      jump\t// in\n    tag_200:\n        /* \"#utility.yul\":7417:7453   */\n    tag_199:\n        /* \"#utility.yul\":7269:7460   */\n      swap3\n      swap2\n      pop\n      pop\n      jump\t// out\n        /* \"#utility.yul\":7466:7640   */\n    tag_123:\n        /* \"#utility.yul\":7606:7632   */\n      0x4469646e27742073656e6420656e6f7567682066756e64730000000000000000\n        /* \"#utility.yul\":7602:7603   */\n      0x00\n        /* \"#utility.yul\":7594:7600   */\n      dup3\n        /* \"#utility.yul\":7590:7604   */\n      add\n        /* \"#utility.yul\":7583:7633   */\n      mstore\n        /* \"#utility.yul\":7466:7640   */\n      pop\n      jump\t// out\n        /* \"#utility.yul\":7646:8012   */\n    tag_124:\n        /* \"#utility.yul\":7788:7791   */\n      0x00\n        /* \"#utility.yul\":7809:7876   */\n      tag_203\n        /* \"#utility.yul\":7873:7875   */\n      0x18\n        /* \"#utility.yul\":7868:7871   */\n      dup4\n        /* \"#utility.yul\":7809:7876   */\n      tag_112\n      jump\t// in\n    tag_203:\n        /* \"#utility.yul\":7802:7876   */\n      swap2\n      pop\n        /* \"#utility.yul\":7885:7978   */\n      tag_204\n        /* \"#utility.yul\":7974:7977   */\n      dup3\n        /* \"#utility.yul\":7885:7978   */\n      tag_123\n      jump\t// in\n    tag_204:\n        /* \"#utility.yul\":8003:8005   */\n      0x20\n        /* \"#utility.yul\":7998:8001   */\n      dup3\n        /* \"#utility.yul\":7994:8006   */\n      add\n        /* \"#utility.yul\":7987:8006   */\n      swap1\n      pop\n        /* \"#utility.yul\":7646:8012   */\n      swap2\n      swap1\n      pop\n      jump\t// out\n        /* \"#utility.yul\":8018:8437   */\n    tag_74:\n        /* \"#utility.yul\":8184:8188   */\n      0x00\n        /* \"#utility.yul\":8222:8224   */\n      0x20\n        /* \"#utility.yul\":8211:8220   */\n      dup3\n        /* \"#utility.yul\":8207:8225   */\n      add\n        /* \"#utility.yul\":8199:8225   */\n      swap1\n      pop\n        /* \"#utility.yul\":8271:8280   */\n      dup2\n        /* \"#utility.yul\":8265:8269   */\n      dup2\n        /* \"#utility.yul\":8261:8281   */\n      sub\n        /* \"#utility.yul\":8257:8258   */\n      0x00\n        /* \"#utility.yul\":8246:8255   */\n      dup4\n        /* \"#utility.yul\":8242:8259   */\n      add\n        /* \"#utility.yul\":8235:8282   */\n      mstore\n        /* \"#utility.yul\":8299:8430   */\n      tag_206\n        /* \"#utility.yul\":8425:8429   */\n      dup2\n        /* \"#utility.yul\":8299:8430   */\n      tag_124\n      jump\t// in\n    tag_206:\n        /* \"#utility.yul\":8291:8430   */\n      swap1\n      pop\n        /* \"#utility.yul\":8018:8437   */\n      swap2\n      swap1\n      pop\n      jump\t// out\n        /* \"#utility.yul\":8443:8853   */\n    tag_83:\n        /* \"#utility.yul\":8483:8490   */\n      0x00\n        /* \"#utility.yul\":8506:8526   */\n      tag_208\n        /* \"#utility.yul\":8524:8525   */\n      dup3\n        /* \"#utility.yul\":8506:8526   */\n      tag_107\n      jump\t// in\n    tag_208:\n        /* \"#utility.yul\":8501:8526   */\n      swap2\n      pop\n        /* \"#utility.yul\":8540:8560   */\n      tag_209\n        /* \"#utility.yul\":8558:8559   */\n      dup4\n        /* \"#utility.yul\":8540:8560   */\n      tag_107\n      jump\t// in\n    tag_209:\n        /* \"#utility.yul\":8535:8560   */\n      swap3\n      pop\n        /* \"#utility.yul\":8595:8596   */\n      dup3\n        /* \"#utility.yul\":8592:8593   */\n      dup3\n        /* \"#utility.yul\":8588:8597   */\n      mul\n        /* \"#utility.yul\":8617:8647   */\n      tag_210\n        /* \"#utility.yul\":8635:8646   */\n      dup2\n        /* \"#utility.yul\":8617:8647   */\n      tag_107\n      jump\t// in\n    tag_210:\n        /* \"#utility.yul\":8606:8647   */\n      swap2\n      pop\n        /* \"#utility.yul\":8796:8797   */\n      dup3\n        /* \"#utility.yul\":8787:8794   */\n      dup3\n        /* \"#utility.yul\":8783:8798   */\n      div\n        /* \"#utility.yul\":8780:8781   */\n      dup5\n        /* \"#utility.yul\":8777:8799   */\n      eq\n        /* \"#utility.yul\":8757:8758   */\n      dup4\n        /* \"#utility.yul\":8750:8759   */\n      iszero\n        /* \"#utility.yul\":8730:8813   */\n      or\n        /* \"#utility.yul\":8707:8846   */\n      tag_211\n      jumpi\n        /* \"#utility.yul\":8826:8844   */\n      tag_212\n      tag_122\n      jump\t// in\n    tag_212:\n        /* \"#utility.yul\":8707:8846   */\n    tag_211:\n        /* \"#utility.yul\":8491:8853   */\n      pop\n        /* \"#utility.yul\":8443:8853   */\n      swap3\n      swap2\n      pop\n      pop\n      jump\t// out\n        /* \"#utility.yul\":8859:9039   */\n    tag_125:\n        /* \"#utility.yul\":8907:8984   */\n      0x4e487b7100000000000000000000000000000000000000000000000000000000\n        /* \"#utility.yul\":8904:8905   */\n      0x00\n        /* \"#utility.yul\":8897:8985   */\n      mstore\n        /* \"#utility.yul\":9004:9008   */\n      0x12\n        /* \"#utility.yul\":9001:9002   */\n      0x04\n        /* \"#utility.yul\":8994:9009   */\n      mstore\n        /* \"#utility.yul\":9028:9032   */\n      0x24\n        /* \"#utility.yul\":9025:9026   */\n      0x00\n        /* \"#utility.yul\":9018:9033   */\n      revert\n        /* \"#utility.yul\":9045:9230   */\n    tag_85:\n        /* \"#utility.yul\":9085:9086   */\n      0x00\n        /* \"#utility.yul\":9102:9122   */\n      tag_215\n        /* \"#utility.yul\":9120:9121   */\n      dup3\n        /* \"#utility.yul\":9102:9122   */\n      tag_107\n      jump\t// in\n    tag_215:\n        /* \"#utility.yul\":9097:9122   */\n      swap2\n      pop\n        /* \"#utility.yul\":9136:9156   */\n      tag_216\n        /* \"#utility.yul\":9154:9155   */\n      dup4\n        /* \"#utility.yul\":9136:9156   */\n      tag_107\n      jump\t// in\n    tag_216:\n        /* \"#utility.yul\":9131:9156   */\n      swap3\n      pop\n        /* \"#utility.yul\":9175:9176   */\n      dup3\n        /* \"#utility.yul\":9165:9200   */\n      tag_217\n      jumpi\n        /* \"#utility.yul\":9180:9198   */\n      tag_218\n      tag_125\n      jump\t// in\n    tag_218:\n        /* \"#utility.yul\":9165:9200   */\n    tag_217:\n        /* \"#utility.yul\":9222:9223   */\n      dup3\n        /* \"#utility.yul\":9219:9220   */\n      dup3\n        /* \"#utility.yul\":9215:9224   */\n      div\n        /* \"#utility.yul\":9210:9224   */\n      swap1\n      pop\n        /* \"#utility.yul\":9045:9230   */\n      swap3\n      swap2\n      pop\n      pop\n      jump\t// out\n        /* \"#utility.yul\":9236:9341   */\n    tag_126:\n        /* \"#utility.yul\":9272:9279   */\n      0x00\n        /* \"#utility.yul\":9312:9334   */\n      0xffffffffffffffffffff\n        /* \"#utility.yul\":9305:9310   */\n      dup3\n        /* \"#utility.yul\":9301:9335   */\n      and\n        /* \"#utility.yul\":9290:9335   */\n      swap1\n      pop\n        /* \"#utility.yul\":9236:9341   */\n      swap2\n      swap1\n      pop\n      jump\t// out\n        /* \"#utility.yul\":9347:9467   */\n    tag_127:\n        /* \"#utility.yul\":9419:9442   */\n      tag_221\n        /* \"#utility.yul\":9436:9441   */\n      dup2\n        /* \"#utility.yul\":9419:9442   */\n      tag_126\n      jump\t// in\n    tag_221:\n        /* \"#utility.yul\":9412:9417   */\n      dup2\n        /* \"#utility.yul\":9409:9443   */\n      eq\n        /* \"#utility.yul\":9399:9461   */\n      tag_222\n      jumpi\n        /* \"#utility.yul\":9457:9458   */\n      0x00\n        /* \"#utility.yul\":9454:9455   */\n      dup1\n        /* \"#utility.yul\":9447:9459   */\n      revert\n        /* \"#utility.yul\":9399:9461   */\n    tag_222:\n        /* \"#utility.yul\":9347:9467   */\n      pop\n      jump\t// out\n        /* \"#utility.yul\":9473:9614   */\n    tag_128:\n        /* \"#utility.yul\":9529:9534   */\n      0x00\n        /* \"#utility.yul\":9560:9566   */\n      dup2\n        /* \"#utility.yul\":9554:9567   */\n      mload\n        /* \"#utility.yul\":9545:9567   */\n      swap1\n      pop\n        /* \"#utility.yul\":9576:9608   */\n      tag_224\n        /* \"#utility.yul\":9602:9607   */\n      dup2\n        /* \"#utility.yul\":9576:9608   */\n      tag_127\n      jump\t// in\n    tag_224:\n        /* \"#utility.yul\":9473:9614   */\n      swap3\n      swap2\n      pop\n      pop\n      jump\t// out\n        /* \"#utility.yul\":9620:9696   */\n    tag_129:\n        /* \"#utility.yul\":9656:9663   */\n      0x00\n        /* \"#utility.yul\":9685:9690   */\n      dup2\n        /* \"#utility.yul\":9674:9690   */\n      swap1\n      pop\n        /* \"#utility.yul\":9620:9696   */\n      swap2\n      swap1\n      pop\n      jump\t// out\n        /* \"#utility.yul\":9702:9822   */\n    tag_130:\n        /* \"#utility.yul\":9774:9797   */\n      tag_227\n        /* \"#utility.yul\":9791:9796   */\n      dup2\n        /* \"#utility.yul\":9774:9797   */\n      tag_129\n      jump\t// in\n    tag_227:\n        /* \"#utility.yul\":9767:9772   */\n      dup2\n        /* \"#utility.yul\":9764:9798   */\n      eq\n        /* \"#utility.yul\":9754:9816   */\n      tag_228\n      jumpi\n        /* \"#utility.yul\":9812:9813   */\n      0x00\n        /* \"#utility.yul\":9809:9810   */\n      dup1\n        /* \"#utility.yul\":9802:9814   */\n      revert\n        /* \"#utility.yul\":9754:9816   */\n    tag_228:\n        /* \"#utility.yul\":9702:9822   */\n      pop\n      jump\t// out\n        /* \"#utility.yul\":9828:9969   */\n    tag_131:\n        /* \"#utility.yul\":9884:9889   */\n      0x00\n        /* \"#utility.yul\":9915:9921   */\n      dup2\n        /* \"#utility.yul\":9909:9922   */\n      mload\n        /* \"#utility.yul\":9900:9922   */\n      swap1\n      pop\n        /* \"#utility.yul\":9931:9963   */\n      tag_230\n        /* \"#utility.yul\":9957:9962   */\n      dup2\n        /* \"#utility.yul\":9931:9963   */\n      tag_130\n      jump\t// in\n    tag_230:\n        /* \"#utility.yul\":9828:9969   */\n      swap3\n      swap2\n      pop\n      pop\n      jump\t// out\n        /* \"#utility.yul\":9975:10118   */\n    tag_132:\n        /* \"#utility.yul\":10032:10037   */\n      0x00\n        /* \"#utility.yul\":10063:10069   */\n      dup2\n        /* \"#utility.yul\":10057:10070   */\n      mload\n        /* \"#utility.yul\":10048:10070   */\n      swap1\n      pop\n        /* \"#utility.yul\":10079:10112   */\n      tag_232\n        /* \"#utility.yul\":10106:10111   */\n      dup2\n        /* \"#utility.yul\":10079:10112   */\n      tag_110\n      jump\t// in\n    tag_232:\n        /* \"#utility.yul\":9975:10118   */\n      swap3\n      swap2\n      pop\n      pop\n      jump\t// out\n        /* \"#utility.yul\":10124:11095   */\n    tag_90:\n        /* \"#utility.yul\":10227:10233   */\n      0x00\n        /* \"#utility.yul\":10235:10241   */\n      dup1\n        /* \"#utility.yul\":10243:10249   */\n      0x00\n        /* \"#utility.yul\":10251:10257   */\n      dup1\n        /* \"#utility.yul\":10259:10265   */\n      0x00\n        /* \"#utility.yul\":10308:10311   */\n      0xa0\n        /* \"#utility.yul\":10296:10305   */\n      dup7\n        /* \"#utility.yul\":10287:10294   */\n      dup9\n        /* \"#utility.yul\":10283:10306   */\n      sub\n        /* \"#utility.yul\":10279:10312   */\n      slt\n        /* \"#utility.yul\":10276:10396   */\n      iszero\n      tag_234\n      jumpi\n        /* \"#utility.yul\":10315:10394   */\n      tag_235\n      tag_101\n      jump\t// in\n    tag_235:\n        /* \"#utility.yul\":10276:10396   */\n    tag_234:\n        /* \"#utility.yul\":10435:10436   */\n      0x00\n        /* \"#utility.yul\":10460:10523   */\n      tag_236\n        /* \"#utility.yul\":10515:10522   */\n      dup9\n        /* \"#utility.yul\":10506:10512   */\n      dup3\n        /* \"#utility.yul\":10495:10504   */\n      dup10\n        /* \"#utility.yul\":10491:10513   */\n      add\n        /* \"#utility.yul\":10460:10523   */\n      tag_128\n      jump\t// in\n    tag_236:\n        /* \"#utility.yul\":10450:10523   */\n      swap6\n      pop\n        /* \"#utility.yul\":10406:10533   */\n      pop\n        /* \"#utility.yul\":10572:10574   */\n      0x20\n        /* \"#utility.yul\":10598:10661   */\n      tag_237\n        /* \"#utility.yul\":10653:10660   */\n      dup9\n        /* \"#utility.yul\":10644:10650   */\n      dup3\n        /* \"#utility.yul\":10633:10642   */\n      dup10\n        /* \"#utility.yul\":10629:10651   */\n      add\n        /* \"#utility.yul\":10598:10661   */\n      tag_131\n      jump\t// in\n    tag_237:\n        /* \"#utility.yul\":10588:10661   */\n      swap5\n      pop\n        /* \"#utility.yul\":10543:10671   */\n      pop\n        /* \"#utility.yul\":10710:10712   */\n      0x40\n        /* \"#utility.yul\":10736:10800   */\n      tag_238\n        /* \"#utility.yul\":10792:10799   */\n      dup9\n        /* \"#utility.yul\":10783:10789   */\n      dup3\n        /* \"#utility.yul\":10772:10781   */\n      dup10\n        /* \"#utility.yul\":10768:10790   */\n      add\n        /* \"#utility.yul\":10736:10800   */\n      tag_132\n      jump\t// in\n    tag_238:\n        /* \"#utility.yul\":10726:10800   */\n      swap4\n      pop\n        /* \"#utility.yul\":10681:10810   */\n      pop\n        /* \"#utility.yul\":10849:10851   */\n      0x60\n        /* \"#utility.yul\":10875:10939   */\n      tag_239\n        /* \"#utility.yul\":10931:10938   */\n      dup9\n        /* \"#utility.yul\":10922:10928   */\n      dup3\n        /* \"#utility.yul\":10911:10920   */\n      dup10\n        /* \"#utility.yul\":10907:10929   */\n      add\n        /* \"#utility.yul\":10875:10939   */\n      tag_132\n      jump\t// in\n    tag_239:\n        /* \"#utility.yul\":10865:10939   */\n      swap3\n      pop\n        /* \"#utility.yul\":10820:10949   */\n      pop\n        /* \"#utility.yul\":10988:10991   */\n      0x80\n        /* \"#utility.yul\":11015:11078   */\n      tag_240\n        /* \"#utility.yul\":11070:11077   */\n      dup9\n        /* \"#utility.yul\":11061:11067   */\n      dup3\n        /* \"#utility.yul\":11050:11059   */\n      dup10\n        /* \"#utility.yul\":11046:11068   */\n      add\n        /* \"#utility.yul\":11015:11078   */\n      tag_128\n      jump\t// in\n    tag_240:\n        /* \"#utility.yul\":11005:11078   */\n      swap2\n      pop\n        /* \"#utility.yul\":10959:11088   */\n      pop\n        /* \"#utility.yul\":10124:11095   */\n      swap3\n      swap6\n      pop\n      swap3\n      swap6\n      swap1\n      swap4\n      pop\n      jump\t// out\n        /* \"#utility.yul\":11101:11657   */\n    tag_92:\n        /* \"#utility.yul\":11140:11147   */\n      0x00\n        /* \"#utility.yul\":11163:11182   */\n      tag_242\n        /* \"#utility.yul\":11180:11181   */\n      dup3\n        /* \"#utility.yul\":11163:11182   */\n      tag_129\n      jump\t// in\n    tag_242:\n        /* \"#utility.yul\":11158:11182   */\n      swap2\n      pop\n        /* \"#utility.yul\":11196:11215   */\n      tag_243\n        /* \"#utility.yul\":11213:11214   */\n      dup4\n        /* \"#utility.yul\":11196:11215   */\n      tag_129\n      jump\t// in\n    tag_243:\n        /* \"#utility.yul\":11191:11215   */\n      swap3\n      pop\n        /* \"#utility.yul\":11250:11251   */\n      dup3\n        /* \"#utility.yul\":11247:11248   */\n      dup3\n        /* \"#utility.yul\":11243:11252   */\n      mul\n        /* \"#utility.yul\":11272:11301   */\n      tag_244\n        /* \"#utility.yul\":11289:11300   */\n      dup2\n        /* \"#utility.yul\":11272:11301   */\n      tag_129\n      jump\t// in\n    tag_244:\n        /* \"#utility.yul\":11261:11301   */\n      swap2\n      pop\n        /* \"#utility.yul\":11359:11425   */\n      0x8000000000000000000000000000000000000000000000000000000000000000\n        /* \"#utility.yul\":11356:11357   */\n      dup5\n        /* \"#utility.yul\":11353:11426   */\n      eq\n        /* \"#utility.yul\":11349:11350   */\n      0x00\n        /* \"#utility.yul\":11346:11347   */\n      dup5\n        /* \"#utility.yul\":11342:11351   */\n      slt\n        /* \"#utility.yul\":11338:11427   */\n      and\n        /* \"#utility.yul\":11335:11450   */\n      iszero\n      tag_245\n      jumpi\n        /* \"#utility.yul\":11430:11448   */\n      tag_246\n      tag_122\n      jump\t// in\n    tag_246:\n        /* \"#utility.yul\":11335:11450   */\n    tag_245:\n        /* \"#utility.yul\":11600:11601   */\n      dup3\n        /* \"#utility.yul\":11591:11598   */\n      dup3\n        /* \"#utility.yul\":11586:11602   */\n      sdiv\n        /* \"#utility.yul\":11583:11584   */\n      dup5\n        /* \"#utility.yul\":11580:11603   */\n      eq\n        /* \"#utility.yul\":11560:11561   */\n      dup4\n        /* \"#utility.yul\":11553:11562   */\n      iszero\n        /* \"#utility.yul\":11533:11617   */\n      or\n        /* \"#utility.yul\":11510:11650   */\n      tag_247\n      jumpi\n        /* \"#utility.yul\":11630:11648   */\n      tag_248\n      tag_122\n      jump\t// in\n    tag_248:\n        /* \"#utility.yul\":11510:11650   */\n    tag_247:\n        /* \"#utility.yul\":11148:11657   */\n      pop\n        /* \"#utility.yul\":11101:11657   */\n      swap3\n      swap2\n      pop\n      pop\n      jump\t// out\n\n    auxdata: 0xa264697066735822122016038b1f8481ae6b6ac10adddf511f4de057700cec97babd250ba5239383360664736f6c63430008110033\n}\n",
				"bytecode": {
					"linkReferences": {},
					"object": "608060405234801561001057600080fd5b50336000806101000a81548173ffffffffffffffffffffffffffffffffffffffff021916908373ffffffffffffffffffffffffffffffffffffffff160217905550610e19806100606000396000f3fe6080604052600436106100555760003560e01c80633ccfd60b1461005a5780633e47d6f3146100715780636b69a592146100ae5780638da5cb5b146100d9578063b60d428814610104578063dc0d3dff1461010e575b600080fd5b34801561006657600080fd5b5061006f61014b565b005b34801561007d57600080fd5b5061009860048036038101906100939190610815565b61045a565b6040516100a5919061085b565b60405180910390f35b3480156100ba57600080fd5b506100c3610472565b6040516100d0919061085b565b60405180910390f35b3480156100e557600080fd5b506100ee61047f565b6040516100fb9190610885565b60405180910390f35b61010c6104a3565b005b34801561011a57600080fd5b50610135600480360381019061013091906108cc565b6105e9565b6040516101429190610885565b60405180910390f35b60008054906101000a900473ffffffffffffffffffffffffffffffffffffffff1673ffffffffffffffffffffffffffffffffffffffff163373ffffffffffffffffffffffffffffffffffffffff16146101d9576040517f08c379a00000000000000000000000000000000000000000000000000000000081526004016101d090610956565b60405180910390fd5b60005b600180549050811015610457576000600182815481106101ff576101fe610976565b5b9060005260206000200160009054906101000a900473ffffffffffffffffffffffffffffffffffffffff1690506000600260008373ffffffffffffffffffffffffffffffffffffffff1673ffffffffffffffffffffffffffffffffffffffff16815260200190815260200160002081905550600067ffffffffffffffff81111561028c5761028b6109a5565b5b6040519080825280602002602001820160405280156102ba5781602001602082028036833780820191505090505b50600190805190602001906102d092919061070b565b503373ffffffffffffffffffffffffffffffffffffffff166108fc479081150290604051600060405180830381858888f19350505050158015610317573d6000803e3d6000fd5b5060003373ffffffffffffffffffffffffffffffffffffffff166108fc479081150290604051600060405180830381858888f19350505050905080610391576040517f08c379a000000000000000000000000000000000000000000000000000000000815260040161038890610a20565b60405180910390fd5b6000803373ffffffffffffffffffffffffffffffffffffffff16476040516103b890610a71565b60006040518083038185875af1925050503d80600081146103f5576040519150601f19603f3d011682016040523d82523d6000602084013e6103fa565b606091505b50915091508161043f576040517f08c379a000000000000000000000000000000000000000000000000000000000815260040161043690610ad2565b60405180910390fd5b505050506001816104509190610b21565b90506101dc565b50565b60026020528060005260406000206000915090505481565b6802b5e3af16b188000081565b60008054906101000a900473ffffffffffffffffffffffffffffffffffffffff1681565b6802b5e3af16b18800006104b634610628565b116104f6576040517f08c379a00000000000000000000000000000000000000000000000000000000081526004016104ed90610ba1565b60405180910390fd5b6001339080600181540180825580915050600190039060005260206000200160009091909190916101000a81548173ffffffffffffffffffffffffffffffffffffffff021916908373ffffffffffffffffffffffffffffffffffffffff160217905550600260003373ffffffffffffffffffffffffffffffffffffffff1673ffffffffffffffffffffffffffffffffffffffff16815260200190815260200160002054346105a49190610b21565b600260003373ffffffffffffffffffffffffffffffffffffffff1673ffffffffffffffffffffffffffffffffffffffff16815260200190815260200160002081905550565b600181815481106105f957600080fd5b906000526020600020016000915054906101000a900473ffffffffffffffffffffffffffffffffffffffff1681565b600080610633610662565b90506000670de0b6b3a7640000848361064c9190610bc1565b6106569190610c32565b90508092505050919050565b60008073d4a33860578de61dbabdc8bfdb98fd742fa7028e905060008173ffffffffffffffffffffffffffffffffffffffff1663feaf968c6040518163ffffffff1660e01b815260040160a060405180830381865afa1580156106c9573d6000803e3d6000fd5b505050506040513d601f19601f820116820180604052508101906106ed9190610cf0565b5050509150506402540be400816107049190610d6b565b9250505090565b828054828255906000526020600020908101928215610784579160200282015b828111156107835782518260006101000a81548173ffffffffffffffffffffffffffffffffffffffff021916908373ffffffffffffffffffffffffffffffffffffffff1602179055509160200191906001019061072b565b5b5090506107919190610795565b5090565b5b808211156107ae576000816000905550600101610796565b5090565b600080fd5b600073ffffffffffffffffffffffffffffffffffffffff82169050919050565b60006107e2826107b7565b9050919050565b6107f2816107d7565b81146107fd57600080fd5b50565b60008135905061080f816107e9565b92915050565b60006020828403121561082b5761082a6107b2565b5b600061083984828501610800565b91505092915050565b6000819050919050565b61085581610842565b82525050565b6000602082019050610870600083018461084c565b92915050565b61087f816107d7565b82525050565b600060208201905061089a6000830184610876565b92915050565b6108a981610842565b81146108b457600080fd5b50565b6000813590506108c6816108a0565b92915050565b6000602082840312156108e2576108e16107b2565b5b60006108f0848285016108b7565b91505092915050565b600082825260208201905092915050565b7f53656e646572206973206e6f7420616e206f776e657200000000000000000000600082015250565b60006109406016836108f9565b915061094b8261090a565b602082019050919050565b6000602082019050818103600083015261096f81610933565b9050919050565b7f4e487b7100000000000000000000000000000000000000000000000000000000600052603260045260246000fd5b7f4e487b7100000000000000000000000000000000000000000000000000000000600052604160045260246000fd5b7f53656e64204661696c6564000000000000000000000000000000000000000000600082015250565b6000610a0a600b836108f9565b9150610a15826109d4565b602082019050919050565b60006020820190508181036000830152610a39816109fd565b9050919050565b600081905092915050565b50565b6000610a5b600083610a40565b9150610a6682610a4b565b600082019050919050565b6000610a7c82610a4e565b9150819050919050565b7f43616c6c204661696c6564000000000000000000000000000000000000000000600082015250565b6000610abc600b836108f9565b9150610ac782610a86565b602082019050919050565b60006020820190508181036000830152610aeb81610aaf565b9050919050565b7f4e487b7100000000000000000000000000000000000000000000000000000000600052601160045260246000fd5b6000610b2c82610842565b9150610b3783610842565b9250828201905080821115610b4f57610b4e610af2565b5b92915050565b7f4469646e27742073656e6420656e6f7567682066756e64730000000000000000600082015250565b6000610b8b6018836108f9565b9150610b9682610b55565b602082019050919050565b60006020820190508181036000830152610bba81610b7e565b9050919050565b6000610bcc82610842565b9150610bd783610842565b9250828202610be581610842565b91508282048414831517610bfc57610bfb610af2565b5b5092915050565b7f4e487b7100000000000000000000000000000000000000000000000000000000600052601260045260246000fd5b6000610c3d82610842565b9150610c4883610842565b925082610c5857610c57610c03565b5b828204905092915050565b600069ffffffffffffffffffff82169050919050565b610c8281610c63565b8114610c8d57600080fd5b50565b600081519050610c9f81610c79565b92915050565b6000819050919050565b610cb881610ca5565b8114610cc357600080fd5b50565b600081519050610cd581610caf565b92915050565b600081519050610cea816108a0565b92915050565b600080600080600060a08688031215610d0c57610d0b6107b2565b5b6000610d1a88828901610c90565b9550506020610d2b88828901610cc6565b9450506040610d3c88828901610cdb565b9350506060610d4d88828901610cdb565b9250506080610d5e88828901610c90565b9150509295509295909350565b6000610d7682610ca5565b9150610d8183610ca5565b9250828202610d8f81610ca5565b91507f80000000000000000000000000000000000000000000000000000000000000008414600084121615610dc757610dc6610af2565b5b8282058414831517610ddc57610ddb610af2565b5b509291505056fea264697066735822122016038b1f8481ae6b6ac10adddf511f4de057700cec97babd250ba5239383360664736f6c63430008110033",
					"opcodes": "PUSH1 0x80 PUSH1 0x40 MSTORE CALLVALUE DUP1 ISZERO PUSH2 0x10 JUMPI PUSH1 0x0 DUP1 REVERT JUMPDEST POP CALLER PUSH1 0x0 DUP1 PUSH2 0x100 EXP DUP2 SLOAD DUP2 PUSH20 0xFFFFFFFFFFFFFFFFFFFFFFFFFFFFFFFFFFFFFFFF MUL NOT AND SWAP1 DUP4 PUSH20 0xFFFFFFFFFFFFFFFFFFFFFFFFFFFFFFFFFFFFFFFF AND MUL OR SWAP1 SSTORE POP PUSH2 0xE19 DUP1 PUSH2 0x60 PUSH1 0x0 CODECOPY PUSH1 0x0 RETURN INVALID PUSH1 0x80 PUSH1 0x40 MSTORE PUSH1 0x4 CALLDATASIZE LT PUSH2 0x55 JUMPI PUSH1 0x0 CALLDATALOAD PUSH1 0xE0 SHR DUP1 PUSH4 0x3CCFD60B EQ PUSH2 0x5A JUMPI DUP1 PUSH4 0x3E47D6F3 EQ PUSH2 0x71 JUMPI DUP1 PUSH4 0x6B69A592 EQ PUSH2 0xAE JUMPI DUP1 PUSH4 0x8DA5CB5B EQ PUSH2 0xD9 JUMPI DUP1 PUSH4 0xB60D4288 EQ PUSH2 0x104 JUMPI DUP1 PUSH4 0xDC0D3DFF EQ PUSH2 0x10E JUMPI JUMPDEST PUSH1 0x0 DUP1 REVERT JUMPDEST CALLVALUE DUP1 ISZERO PUSH2 0x66 JUMPI PUSH1 0x0 DUP1 REVERT JUMPDEST POP PUSH2 0x6F PUSH2 0x14B JUMP JUMPDEST STOP JUMPDEST CALLVALUE DUP1 ISZERO PUSH2 0x7D JUMPI PUSH1 0x0 DUP1 REVERT JUMPDEST POP PUSH2 0x98 PUSH1 0x4 DUP1 CALLDATASIZE SUB DUP2 ADD SWAP1 PUSH2 0x93 SWAP2 SWAP1 PUSH2 0x815 JUMP JUMPDEST PUSH2 0x45A JUMP JUMPDEST PUSH1 0x40 MLOAD PUSH2 0xA5 SWAP2 SWAP1 PUSH2 0x85B JUMP JUMPDEST PUSH1 0x40 MLOAD DUP1 SWAP2 SUB SWAP1 RETURN JUMPDEST CALLVALUE DUP1 ISZERO PUSH2 0xBA JUMPI PUSH1 0x0 DUP1 REVERT JUMPDEST POP PUSH2 0xC3 PUSH2 0x472 JUMP JUMPDEST PUSH1 0x40 MLOAD PUSH2 0xD0 SWAP2 SWAP1 PUSH2 0x85B JUMP JUMPDEST PUSH1 0x40 MLOAD DUP1 SWAP2 SUB SWAP1 RETURN JUMPDEST CALLVALUE DUP1 ISZERO PUSH2 0xE5 JUMPI PUSH1 0x0 DUP1 REVERT JUMPDEST POP PUSH2 0xEE PUSH2 0x47F JUMP JUMPDEST PUSH1 0x40 MLOAD PUSH2 0xFB SWAP2 SWAP1 PUSH2 0x885 JUMP JUMPDEST PUSH1 0x40 MLOAD DUP1 SWAP2 SUB SWAP1 RETURN JUMPDEST PUSH2 0x10C PUSH2 0x4A3 JUMP JUMPDEST STOP JUMPDEST CALLVALUE DUP1 ISZERO PUSH2 0x11A JUMPI PUSH1 0x0 DUP1 REVERT JUMPDEST POP PUSH2 0x135 PUSH1 0x4 DUP1 CALLDATASIZE SUB DUP2 ADD SWAP1 PUSH2 0x130 SWAP2 SWAP1 PUSH2 0x8CC JUMP JUMPDEST PUSH2 0x5E9 JUMP JUMPDEST PUSH1 0x40 MLOAD PUSH2 0x142 SWAP2 SWAP1 PUSH2 0x885 JUMP JUMPDEST PUSH1 0x40 MLOAD DUP1 SWAP2 SUB SWAP1 RETURN JUMPDEST PUSH1 0x0 DUP1 SLOAD SWAP1 PUSH2 0x100 EXP SWAP1 DIV PUSH20 0xFFFFFFFFFFFFFFFFFFFFFFFFFFFFFFFFFFFFFFFF AND PUSH20 0xFFFFFFFFFFFFFFFFFFFFFFFFFFFFFFFFFFFFFFFF AND CALLER PUSH20 0xFFFFFFFFFFFFFFFFFFFFFFFFFFFFFFFFFFFFFFFF AND EQ PUSH2 0x1D9 JUMPI PUSH1 0x40 MLOAD PUSH32 0x8C379A000000000000000000000000000000000000000000000000000000000 DUP2 MSTORE PUSH1 0x4 ADD PUSH2 0x1D0 SWAP1 PUSH2 0x956 JUMP JUMPDEST PUSH1 0x40 MLOAD DUP1 SWAP2 SUB SWAP1 REVERT JUMPDEST PUSH1 0x0 JUMPDEST PUSH1 0x1 DUP1 SLOAD SWAP1 POP DUP2 LT ISZERO PUSH2 0x457 JUMPI PUSH1 0x0 PUSH1 0x1 DUP3 DUP2 SLOAD DUP2 LT PUSH2 0x1FF JUMPI PUSH2 0x1FE PUSH2 0x976 JUMP JUMPDEST JUMPDEST SWAP1 PUSH1 0x0 MSTORE PUSH1 0x20 PUSH1 0x0 KECCAK256 ADD PUSH1 0x0 SWAP1 SLOAD SWAP1 PUSH2 0x100 EXP SWAP1 DIV PUSH20 0xFFFFFFFFFFFFFFFFFFFFFFFFFFFFFFFFFFFFFFFF AND SWAP1 POP PUSH1 0x0 PUSH1 0x2 PUSH1 0x0 DUP4 PUSH20 0xFFFFFFFFFFFFFFFFFFFFFFFFFFFFFFFFFFFFFFFF AND PUSH20 0xFFFFFFFFFFFFFFFFFFFFFFFFFFFFFFFFFFFFFFFF AND DUP2 MSTORE PUSH1 0x20 ADD SWAP1 DUP2 MSTORE PUSH1 0x20 ADD PUSH1 0x0 KECCAK256 DUP2 SWAP1 SSTORE POP PUSH1 0x0 PUSH8 0xFFFFFFFFFFFFFFFF DUP2 GT ISZERO PUSH2 0x28C JUMPI PUSH2 0x28B PUSH2 0x9A5 JUMP JUMPDEST JUMPDEST PUSH1 0x40 MLOAD SWAP1 DUP1 DUP3 MSTORE DUP1 PUSH1 0x20 MUL PUSH1 0x20 ADD DUP3 ADD PUSH1 0x40 MSTORE DUP1 ISZERO PUSH2 0x2BA JUMPI DUP2 PUSH1 0x20 ADD PUSH1 0x20 DUP3 MUL DUP1 CALLDATASIZE DUP4 CALLDATACOPY DUP1 DUP3 ADD SWAP2 POP POP SWAP1 POP JUMPDEST POP PUSH1 0x1 SWAP1 DUP1 MLOAD SWAP1 PUSH1 0x20 ADD SWAP1 PUSH2 0x2D0 SWAP3 SWAP2 SWAP1 PUSH2 0x70B JUMP JUMPDEST POP CALLER PUSH20 0xFFFFFFFFFFFFFFFFFFFFFFFFFFFFFFFFFFFFFFFF AND PUSH2 0x8FC SELFBALANCE SWAP1 DUP2 ISZERO MUL SWAP1 PUSH1 0x40 MLOAD PUSH1 0x0 PUSH1 0x40 MLOAD DUP1 DUP4 SUB DUP2 DUP6 DUP9 DUP9 CALL SWAP4 POP POP POP POP ISZERO DUP1 ISZERO PUSH2 0x317 JUMPI RETURNDATASIZE PUSH1 0x0 DUP1 RETURNDATACOPY RETURNDATASIZE PUSH1 0x0 REVERT JUMPDEST POP PUSH1 0x0 CALLER PUSH20 0xFFFFFFFFFFFFFFFFFFFFFFFFFFFFFFFFFFFFFFFF AND PUSH2 0x8FC SELFBALANCE SWAP1 DUP2 ISZERO MUL SWAP1 PUSH1 0x40 MLOAD PUSH1 0x0 PUSH1 0x40 MLOAD DUP1 DUP4 SUB DUP2 DUP6 DUP9 DUP9 CALL SWAP4 POP POP POP POP SWAP1 POP DUP1 PUSH2 0x391 JUMPI PUSH1 0x40 MLOAD PUSH32 0x8C379A000000000000000000000000000000000000000000000000000000000 DUP2 MSTORE PUSH1 0x4 ADD PUSH2 0x388 SWAP1 PUSH2 0xA20 JUMP JUMPDEST PUSH1 0x40 MLOAD DUP1 SWAP2 SUB SWAP1 REVERT JUMPDEST PUSH1 0x0 DUP1 CALLER PUSH20 0xFFFFFFFFFFFFFFFFFFFFFFFFFFFFFFFFFFFFFFFF AND SELFBALANCE PUSH1 0x40 MLOAD PUSH2 0x3B8 SWAP1 PUSH2 0xA71 JUMP JUMPDEST PUSH1 0x0 PUSH1 0x40 MLOAD DUP1 DUP4 SUB DUP2 DUP6 DUP8 GAS CALL SWAP3 POP POP POP RETURNDATASIZE DUP1 PUSH1 0x0 DUP2 EQ PUSH2 0x3F5 JUMPI PUSH1 0x40 MLOAD SWAP2 POP PUSH1 0x1F NOT PUSH1 0x3F RETURNDATASIZE ADD AND DUP3 ADD PUSH1 0x40 MSTORE RETURNDATASIZE DUP3 MSTORE RETURNDATASIZE PUSH1 0x0 PUSH1 0x20 DUP5 ADD RETURNDATACOPY PUSH2 0x3FA JUMP JUMPDEST PUSH1 0x60 SWAP2 POP JUMPDEST POP SWAP2 POP SWAP2 POP DUP2 PUSH2 0x43F JUMPI PUSH1 0x40 MLOAD PUSH32 0x8C379A000000000000000000000000000000000000000000000000000000000 DUP2 MSTORE PUSH1 0x4 ADD PUSH2 0x436 SWAP1 PUSH2 0xAD2 JUMP JUMPDEST PUSH1 0x40 MLOAD DUP1 SWAP2 SUB SWAP1 REVERT JUMPDEST POP POP POP POP PUSH1 0x1 DUP2 PUSH2 0x450 SWAP2 SWAP1 PUSH2 0xB21 JUMP JUMPDEST SWAP1 POP PUSH2 0x1DC JUMP JUMPDEST POP JUMP JUMPDEST PUSH1 0x2 PUSH1 0x20 MSTORE DUP1 PUSH1 0x0 MSTORE PUSH1 0x40 PUSH1 0x0 KECCAK256 PUSH1 0x0 SWAP2 POP SWAP1 POP SLOAD DUP2 JUMP JUMPDEST PUSH9 0x2B5E3AF16B1880000 DUP2 JUMP JUMPDEST PUSH1 0x0 DUP1 SLOAD SWAP1 PUSH2 0x100 EXP SWAP1 DIV PUSH20 0xFFFFFFFFFFFFFFFFFFFFFFFFFFFFFFFFFFFFFFFF AND DUP2 JUMP JUMPDEST PUSH9 0x2B5E3AF16B1880000 PUSH2 0x4B6 CALLVALUE PUSH2 0x628 JUMP JUMPDEST GT PUSH2 0x4F6 JUMPI PUSH1 0x40 MLOAD PUSH32 0x8C379A000000000000000000000000000000000000000000000000000000000 DUP2 MSTORE PUSH1 0x4 ADD PUSH2 0x4ED SWAP1 PUSH2 0xBA1 JUMP JUMPDEST PUSH1 0x40 MLOAD DUP1 SWAP2 SUB SWAP1 REVERT JUMPDEST PUSH1 0x1 CALLER SWAP1 DUP1 PUSH1 0x1 DUP2 SLOAD ADD DUP1 DUP3 SSTORE DUP1 SWAP2 POP POP PUSH1 0x1 SWAP1 SUB SWAP1 PUSH1 0x0 MSTORE PUSH1 0x20 PUSH1 0x0 KECCAK256 ADD PUSH1 0x0 SWAP1 SWAP2 SWAP1 SWAP2 SWAP1 SWAP2 PUSH2 0x100 EXP DUP2 SLOAD DUP2 PUSH20 0xFFFFFFFFFFFFFFFFFFFFFFFFFFFFFFFFFFFFFFFF MUL NOT AND SWAP1 DUP4 PUSH20 0xFFFFFFFFFFFFFFFFFFFFFFFFFFFFFFFFFFFFFFFF AND MUL OR SWAP1 SSTORE POP PUSH1 0x2 PUSH1 0x0 CALLER PUSH20 0xFFFFFFFFFFFFFFFFFFFFFFFFFFFFFFFFFFFFFFFF AND PUSH20 0xFFFFFFFFFFFFFFFFFFFFFFFFFFFFFFFFFFFFFFFF AND DUP2 MSTORE PUSH1 0x20 ADD SWAP1 DUP2 MSTORE PUSH1 0x20 ADD PUSH1 0x0 KECCAK256 SLOAD CALLVALUE PUSH2 0x5A4 SWAP2 SWAP1 PUSH2 0xB21 JUMP JUMPDEST PUSH1 0x2 PUSH1 0x0 CALLER PUSH20 0xFFFFFFFFFFFFFFFFFFFFFFFFFFFFFFFFFFFFFFFF AND PUSH20 0xFFFFFFFFFFFFFFFFFFFFFFFFFFFFFFFFFFFFFFFF AND DUP2 MSTORE PUSH1 0x20 ADD SWAP1 DUP2 MSTORE PUSH1 0x20 ADD PUSH1 0x0 KECCAK256 DUP2 SWAP1 SSTORE POP JUMP JUMPDEST PUSH1 0x1 DUP2 DUP2 SLOAD DUP2 LT PUSH2 0x5F9 JUMPI PUSH1 0x0 DUP1 REVERT JUMPDEST SWAP1 PUSH1 0x0 MSTORE PUSH1 0x20 PUSH1 0x0 KECCAK256 ADD PUSH1 0x0 SWAP2 POP SLOAD SWAP1 PUSH2 0x100 EXP SWAP1 DIV PUSH20 0xFFFFFFFFFFFFFFFFFFFFFFFFFFFFFFFFFFFFFFFF AND DUP2 JUMP JUMPDEST PUSH1 0x0 DUP1 PUSH2 0x633 PUSH2 0x662 JUMP JUMPDEST SWAP1 POP PUSH1 0x0 PUSH8 0xDE0B6B3A7640000 DUP5 DUP4 PUSH2 0x64C SWAP2 SWAP1 PUSH2 0xBC1 JUMP JUMPDEST PUSH2 0x656 SWAP2 SWAP1 PUSH2 0xC32 JUMP JUMPDEST SWAP1 POP DUP1 SWAP3 POP POP POP SWAP2 SWAP1 POP JUMP JUMPDEST PUSH1 0x0 DUP1 PUSH20 0xD4A33860578DE61DBABDC8BFDB98FD742FA7028E SWAP1 POP PUSH1 0x0 DUP2 PUSH20 0xFFFFFFFFFFFFFFFFFFFFFFFFFFFFFFFFFFFFFFFF AND PUSH4 0xFEAF968C PUSH1 0x40 MLOAD DUP2 PUSH4 0xFFFFFFFF AND PUSH1 0xE0 SHL DUP2 MSTORE PUSH1 0x4 ADD PUSH1 0xA0 PUSH1 0x40 MLOAD DUP1 DUP4 SUB DUP2 DUP7 GAS STATICCALL ISZERO DUP1 ISZERO PUSH2 0x6C9 JUMPI RETURNDATASIZE PUSH1 0x0 DUP1 RETURNDATACOPY RETURNDATASIZE PUSH1 0x0 REVERT JUMPDEST POP POP POP POP PUSH1 0x40 MLOAD RETURNDATASIZE PUSH1 0x1F NOT PUSH1 0x1F DUP3 ADD AND DUP3 ADD DUP1 PUSH1 0x40 MSTORE POP DUP2 ADD SWAP1 PUSH2 0x6ED SWAP2 SWAP1 PUSH2 0xCF0 JUMP JUMPDEST POP POP POP SWAP2 POP POP PUSH5 0x2540BE400 DUP2 PUSH2 0x704 SWAP2 SWAP1 PUSH2 0xD6B JUMP JUMPDEST SWAP3 POP POP POP SWAP1 JUMP JUMPDEST DUP3 DUP1 SLOAD DUP3 DUP3 SSTORE SWAP1 PUSH1 0x0 MSTORE PUSH1 0x20 PUSH1 0x0 KECCAK256 SWAP1 DUP2 ADD SWAP3 DUP3 ISZERO PUSH2 0x784 JUMPI SWAP2 PUSH1 0x20 MUL DUP3 ADD JUMPDEST DUP3 DUP2 GT ISZERO PUSH2 0x783 JUMPI DUP3 MLOAD DUP3 PUSH1 0x0 PUSH2 0x100 EXP DUP2 SLOAD DUP2 PUSH20 0xFFFFFFFFFFFFFFFFFFFFFFFFFFFFFFFFFFFFFFFF MUL NOT AND SWAP1 DUP4 PUSH20 0xFFFFFFFFFFFFFFFFFFFFFFFFFFFFFFFFFFFFFFFF AND MUL OR SWAP1 SSTORE POP SWAP2 PUSH1 0x20 ADD SWAP2 SWAP1 PUSH1 0x1 ADD SWAP1 PUSH2 0x72B JUMP JUMPDEST JUMPDEST POP SWAP1 POP PUSH2 0x791 SWAP2 SWAP1 PUSH2 0x795 JUMP JUMPDEST POP SWAP1 JUMP JUMPDEST JUMPDEST DUP1 DUP3 GT ISZERO PUSH2 0x7AE JUMPI PUSH1 0x0 DUP2 PUSH1 0x0 SWAP1 SSTORE POP PUSH1 0x1 ADD PUSH2 0x796 JUMP JUMPDEST POP SWAP1 JUMP JUMPDEST PUSH1 0x0 DUP1 REVERT JUMPDEST PUSH1 0x0 PUSH20 0xFFFFFFFFFFFFFFFFFFFFFFFFFFFFFFFFFFFFFFFF DUP3 AND SWAP1 POP SWAP2 SWAP1 POP JUMP JUMPDEST PUSH1 0x0 PUSH2 0x7E2 DUP3 PUSH2 0x7B7 JUMP JUMPDEST SWAP1 POP SWAP2 SWAP1 POP JUMP JUMPDEST PUSH2 0x7F2 DUP2 PUSH2 0x7D7 JUMP JUMPDEST DUP2 EQ PUSH2 0x7FD JUMPI PUSH1 0x0 DUP1 REVERT JUMPDEST POP JUMP JUMPDEST PUSH1 0x0 DUP2 CALLDATALOAD SWAP1 POP PUSH2 0x80F DUP2 PUSH2 0x7E9 JUMP JUMPDEST SWAP3 SWAP2 POP POP JUMP JUMPDEST PUSH1 0x0 PUSH1 0x20 DUP3 DUP5 SUB SLT ISZERO PUSH2 0x82B JUMPI PUSH2 0x82A PUSH2 0x7B2 JUMP JUMPDEST JUMPDEST PUSH1 0x0 PUSH2 0x839 DUP5 DUP3 DUP6 ADD PUSH2 0x800 JUMP JUMPDEST SWAP2 POP POP SWAP3 SWAP2 POP POP JUMP JUMPDEST PUSH1 0x0 DUP2 SWAP1 POP SWAP2 SWAP1 POP JUMP JUMPDEST PUSH2 0x855 DUP2 PUSH2 0x842 JUMP JUMPDEST DUP3 MSTORE POP POP JUMP JUMPDEST PUSH1 0x0 PUSH1 0x20 DUP3 ADD SWAP1 POP PUSH2 0x870 PUSH1 0x0 DUP4 ADD DUP5 PUSH2 0x84C JUMP JUMPDEST SWAP3 SWAP2 POP POP JUMP JUMPDEST PUSH2 0x87F DUP2 PUSH2 0x7D7 JUMP JUMPDEST DUP3 MSTORE POP POP JUMP JUMPDEST PUSH1 0x0 PUSH1 0x20 DUP3 ADD SWAP1 POP PUSH2 0x89A PUSH1 0x0 DUP4 ADD DUP5 PUSH2 0x876 JUMP JUMPDEST SWAP3 SWAP2 POP POP JUMP JUMPDEST PUSH2 0x8A9 DUP2 PUSH2 0x842 JUMP JUMPDEST DUP2 EQ PUSH2 0x8B4 JUMPI PUSH1 0x0 DUP1 REVERT JUMPDEST POP JUMP JUMPDEST PUSH1 0x0 DUP2 CALLDATALOAD SWAP1 POP PUSH2 0x8C6 DUP2 PUSH2 0x8A0 JUMP JUMPDEST SWAP3 SWAP2 POP POP JUMP JUMPDEST PUSH1 0x0 PUSH1 0x20 DUP3 DUP5 SUB SLT ISZERO PUSH2 0x8E2 JUMPI PUSH2 0x8E1 PUSH2 0x7B2 JUMP JUMPDEST JUMPDEST PUSH1 0x0 PUSH2 0x8F0 DUP5 DUP3 DUP6 ADD PUSH2 0x8B7 JUMP JUMPDEST SWAP2 POP POP SWAP3 SWAP2 POP POP JUMP JUMPDEST PUSH1 0x0 DUP3 DUP3 MSTORE PUSH1 0x20 DUP3 ADD SWAP1 POP SWAP3 SWAP2 POP POP JUMP JUMPDEST PUSH32 0x53656E646572206973206E6F7420616E206F776E657200000000000000000000 PUSH1 0x0 DUP3 ADD MSTORE POP JUMP JUMPDEST PUSH1 0x0 PUSH2 0x940 PUSH1 0x16 DUP4 PUSH2 0x8F9 JUMP JUMPDEST SWAP2 POP PUSH2 0x94B DUP3 PUSH2 0x90A JUMP JUMPDEST PUSH1 0x20 DUP3 ADD SWAP1 POP SWAP2 SWAP1 POP JUMP JUMPDEST PUSH1 0x0 PUSH1 0x20 DUP3 ADD SWAP1 POP DUP2 DUP2 SUB PUSH1 0x0 DUP4 ADD MSTORE PUSH2 0x96F DUP2 PUSH2 0x933 JUMP JUMPDEST SWAP1 POP SWAP2 SWAP1 POP JUMP JUMPDEST PUSH32 0x4E487B7100000000000000000000000000000000000000000000000000000000 PUSH1 0x0 MSTORE PUSH1 0x32 PUSH1 0x4 MSTORE PUSH1 0x24 PUSH1 0x0 REVERT JUMPDEST PUSH32 0x4E487B7100000000000000000000000000000000000000000000000000000000 PUSH1 0x0 MSTORE PUSH1 0x41 PUSH1 0x4 MSTORE PUSH1 0x24 PUSH1 0x0 REVERT JUMPDEST PUSH32 0x53656E64204661696C6564000000000000000000000000000000000000000000 PUSH1 0x0 DUP3 ADD MSTORE POP JUMP JUMPDEST PUSH1 0x0 PUSH2 0xA0A PUSH1 0xB DUP4 PUSH2 0x8F9 JUMP JUMPDEST SWAP2 POP PUSH2 0xA15 DUP3 PUSH2 0x9D4 JUMP JUMPDEST PUSH1 0x20 DUP3 ADD SWAP1 POP SWAP2 SWAP1 POP JUMP JUMPDEST PUSH1 0x0 PUSH1 0x20 DUP3 ADD SWAP1 POP DUP2 DUP2 SUB PUSH1 0x0 DUP4 ADD MSTORE PUSH2 0xA39 DUP2 PUSH2 0x9FD JUMP JUMPDEST SWAP1 POP SWAP2 SWAP1 POP JUMP JUMPDEST PUSH1 0x0 DUP2 SWAP1 POP SWAP3 SWAP2 POP POP JUMP JUMPDEST POP JUMP JUMPDEST PUSH1 0x0 PUSH2 0xA5B PUSH1 0x0 DUP4 PUSH2 0xA40 JUMP JUMPDEST SWAP2 POP PUSH2 0xA66 DUP3 PUSH2 0xA4B JUMP JUMPDEST PUSH1 0x0 DUP3 ADD SWAP1 POP SWAP2 SWAP1 POP JUMP JUMPDEST PUSH1 0x0 PUSH2 0xA7C DUP3 PUSH2 0xA4E JUMP JUMPDEST SWAP2 POP DUP2 SWAP1 POP SWAP2 SWAP1 POP JUMP JUMPDEST PUSH32 0x43616C6C204661696C6564000000000000000000000000000000000000000000 PUSH1 0x0 DUP3 ADD MSTORE POP JUMP JUMPDEST PUSH1 0x0 PUSH2 0xABC PUSH1 0xB DUP4 PUSH2 0x8F9 JUMP JUMPDEST SWAP2 POP PUSH2 0xAC7 DUP3 PUSH2 0xA86 JUMP JUMPDEST PUSH1 0x20 DUP3 ADD SWAP1 POP SWAP2 SWAP1 POP JUMP JUMPDEST PUSH1 0x0 PUSH1 0x20 DUP3 ADD SWAP1 POP DUP2 DUP2 SUB PUSH1 0x0 DUP4 ADD MSTORE PUSH2 0xAEB DUP2 PUSH2 0xAAF JUMP JUMPDEST SWAP1 POP SWAP2 SWAP1 POP JUMP JUMPDEST PUSH32 0x4E487B7100000000000000000000000000000000000000000000000000000000 PUSH1 0x0 MSTORE PUSH1 0x11 PUSH1 0x4 MSTORE PUSH1 0x24 PUSH1 0x0 REVERT JUMPDEST PUSH1 0x0 PUSH2 0xB2C DUP3 PUSH2 0x842 JUMP JUMPDEST SWAP2 POP PUSH2 0xB37 DUP4 PUSH2 0x842 JUMP JUMPDEST SWAP3 POP DUP3 DUP3 ADD SWAP1 POP DUP1 DUP3 GT ISZERO PUSH2 0xB4F JUMPI PUSH2 0xB4E PUSH2 0xAF2 JUMP JUMPDEST JUMPDEST SWAP3 SWAP2 POP POP JUMP JUMPDEST PUSH32 0x4469646E27742073656E6420656E6F7567682066756E64730000000000000000 PUSH1 0x0 DUP3 ADD MSTORE POP JUMP JUMPDEST PUSH1 0x0 PUSH2 0xB8B PUSH1 0x18 DUP4 PUSH2 0x8F9 JUMP JUMPDEST SWAP2 POP PUSH2 0xB96 DUP3 PUSH2 0xB55 JUMP JUMPDEST PUSH1 0x20 DUP3 ADD SWAP1 POP SWAP2 SWAP1 POP JUMP JUMPDEST PUSH1 0x0 PUSH1 0x20 DUP3 ADD SWAP1 POP DUP2 DUP2 SUB PUSH1 0x0 DUP4 ADD MSTORE PUSH2 0xBBA DUP2 PUSH2 0xB7E JUMP JUMPDEST SWAP1 POP SWAP2 SWAP1 POP JUMP JUMPDEST PUSH1 0x0 PUSH2 0xBCC DUP3 PUSH2 0x842 JUMP JUMPDEST SWAP2 POP PUSH2 0xBD7 DUP4 PUSH2 0x842 JUMP JUMPDEST SWAP3 POP DUP3 DUP3 MUL PUSH2 0xBE5 DUP2 PUSH2 0x842 JUMP JUMPDEST SWAP2 POP DUP3 DUP3 DIV DUP5 EQ DUP4 ISZERO OR PUSH2 0xBFC JUMPI PUSH2 0xBFB PUSH2 0xAF2 JUMP JUMPDEST JUMPDEST POP SWAP3 SWAP2 POP POP JUMP JUMPDEST PUSH32 0x4E487B7100000000000000000000000000000000000000000000000000000000 PUSH1 0x0 MSTORE PUSH1 0x12 PUSH1 0x4 MSTORE PUSH1 0x24 PUSH1 0x0 REVERT JUMPDEST PUSH1 0x0 PUSH2 0xC3D DUP3 PUSH2 0x842 JUMP JUMPDEST SWAP2 POP PUSH2 0xC48 DUP4 PUSH2 0x842 JUMP JUMPDEST SWAP3 POP DUP3 PUSH2 0xC58 JUMPI PUSH2 0xC57 PUSH2 0xC03 JUMP JUMPDEST JUMPDEST DUP3 DUP3 DIV SWAP1 POP SWAP3 SWAP2 POP POP JUMP JUMPDEST PUSH1 0x0 PUSH10 0xFFFFFFFFFFFFFFFFFFFF DUP3 AND SWAP1 POP SWAP2 SWAP1 POP JUMP JUMPDEST PUSH2 0xC82 DUP2 PUSH2 0xC63 JUMP JUMPDEST DUP2 EQ PUSH2 0xC8D JUMPI PUSH1 0x0 DUP1 REVERT JUMPDEST POP JUMP JUMPDEST PUSH1 0x0 DUP2 MLOAD SWAP1 POP PUSH2 0xC9F DUP2 PUSH2 0xC79 JUMP JUMPDEST SWAP3 SWAP2 POP POP JUMP JUMPDEST PUSH1 0x0 DUP2 SWAP1 POP SWAP2 SWAP1 POP JUMP JUMPDEST PUSH2 0xCB8 DUP2 PUSH2 0xCA5 JUMP JUMPDEST DUP2 EQ PUSH2 0xCC3 JUMPI PUSH1 0x0 DUP1 REVERT JUMPDEST POP JUMP JUMPDEST PUSH1 0x0 DUP2 MLOAD SWAP1 POP PUSH2 0xCD5 DUP2 PUSH2 0xCAF JUMP JUMPDEST SWAP3 SWAP2 POP POP JUMP JUMPDEST PUSH1 0x0 DUP2 MLOAD SWAP1 POP PUSH2 0xCEA DUP2 PUSH2 0x8A0 JUMP JUMPDEST SWAP3 SWAP2 POP POP JUMP JUMPDEST PUSH1 0x0 DUP1 PUSH1 0x0 DUP1 PUSH1 0x0 PUSH1 0xA0 DUP7 DUP9 SUB SLT ISZERO PUSH2 0xD0C JUMPI PUSH2 0xD0B PUSH2 0x7B2 JUMP JUMPDEST JUMPDEST PUSH1 0x0 PUSH2 0xD1A DUP9 DUP3 DUP10 ADD PUSH2 0xC90 JUMP JUMPDEST SWAP6 POP POP PUSH1 0x20 PUSH2 0xD2B DUP9 DUP3 DUP10 ADD PUSH2 0xCC6 JUMP JUMPDEST SWAP5 POP POP PUSH1 0x40 PUSH2 0xD3C DUP9 DUP3 DUP10 ADD PUSH2 0xCDB JUMP JUMPDEST SWAP4 POP POP PUSH1 0x60 PUSH2 0xD4D DUP9 DUP3 DUP10 ADD PUSH2 0xCDB JUMP JUMPDEST SWAP3 POP POP PUSH1 0x80 PUSH2 0xD5E DUP9 DUP3 DUP10 ADD PUSH2 0xC90 JUMP JUMPDEST SWAP2 POP POP SWAP3 SWAP6 POP SWAP3 SWAP6 SWAP1 SWAP4 POP JUMP JUMPDEST PUSH1 0x0 PUSH2 0xD76 DUP3 PUSH2 0xCA5 JUMP JUMPDEST SWAP2 POP PUSH2 0xD81 DUP4 PUSH2 0xCA5 JUMP JUMPDEST SWAP3 POP DUP3 DUP3 MUL PUSH2 0xD8F DUP2 PUSH2 0xCA5 JUMP JUMPDEST SWAP2 POP PUSH32 0x8000000000000000000000000000000000000000000000000000000000000000 DUP5 EQ PUSH1 0x0 DUP5 SLT AND ISZERO PUSH2 0xDC7 JUMPI PUSH2 0xDC6 PUSH2 0xAF2 JUMP JUMPDEST JUMPDEST DUP3 DUP3 SDIV DUP5 EQ DUP4 ISZERO OR PUSH2 0xDDC JUMPI PUSH2 0xDDB PUSH2 0xAF2 JUMP JUMPDEST JUMPDEST POP SWAP3 SWAP2 POP POP JUMP INVALID LOG2 PUSH5 0x6970667358 0x22 SLT KECCAK256 AND SUB DUP12 0x1F DUP5 DUP2 0xAE PUSH12 0x6AC10ADDDF511F4DE057700C 0xEC SWAP8 0xBA 0xBD 0x25 SIGNEXTEND 0xA5 0x23 SWAP4 DUP4 CALLDATASIZE MOD PUSH5 0x736F6C6343 STOP ADDMOD GT STOP CALLER "
				},
				"gasEstimates": {
					"creation": {
						"codeDepositCost": "721800",
						"executionCost": "25019",
						"totalCost": "746819"
					},
					"external": {
						"MINIMUM_USD()": "351",
						"addressToAmountFunded(address)": "2814",
						"fund()": "infinite",
						"funders(uint256)": "5044",
						"owner()": "2555",
						"withdraw()": "infinite"
					}
				},
				"methodIdentifiers": {
					"MINIMUM_USD()": "6b69a592",
					"addressToAmountFunded(address)": "3e47d6f3",
					"fund()": "b60d4288",
					"funders(uint256)": "dc0d3dff",
					"owner()": "8da5cb5b",
					"withdraw()": "3ccfd60b"
				}
			},
			"storageLayout": {
				"storage": [
					{
						"astId": 51,
						"contract": "freecodecamp32Hrs_solidity/FundMe.sol:FundMe",
						"label": "owner",
						"offset": 0,
						"slot": "0",
						"type": "t_address"
					},
					{
						"astId": 66,
						"contract": "freecodecamp32Hrs_solidity/FundMe.sol:FundMe",
						"label": "funders",
						"offset": 0,
						"slot": "1",
						"type": "t_array(t_address)dyn_storage"
					},
					{
						"astId": 70,
						"contract": "freecodecamp32Hrs_solidity/FundMe.sol:FundMe",
						"label": "addressToAmountFunded",
						"offset": 0,
						"slot": "2",
						"type": "t_mapping(t_address,t_uint256)"
					}
				],
				"types": {
					"t_address": {
						"encoding": "inplace",
						"label": "address",
						"numberOfBytes": "20"
					},
					"t_array(t_address)dyn_storage": {
						"base": "t_address",
						"encoding": "dynamic_array",
						"label": "address[]",
						"numberOfBytes": "32"
					},
					"t_mapping(t_address,t_uint256)": {
						"encoding": "mapping",
						"key": "t_address",
						"label": "mapping(address => uint256)",
						"numberOfBytes": "32",
						"value": "t_uint256"
					},
					"t_uint256": {
						"encoding": "inplace",
						"label": "uint256",
						"numberOfBytes": "32"
					}
				}
			},
			"userdoc": {
				"kind": "user",
				"methods": {},
				"version": 1
			}
		}
	}
}